{
  "abi": [
    {
      "inputs": [
        {
          "internalType": "address",
          "name": "_pohAddress",
          "type": "address"
        }
      ],
      "stateMutability": "nonpayable",
      "type": "constructor"
    },
    {
      "inputs": [
        {
          "internalType": "string",
          "name": "_url",
          "type": "string"
        },
        {
          "internalType": "string",
          "name": "_comment",
          "type": "string"
        }
      ],
      "name": "commentImage",
      "outputs": [],
      "stateMutability": "nonpayable",
      "type": "function"
    },
    {
      "inputs": [],
      "name": "getAllImages",
      "outputs": [
        {
          "components": [
            {
              "internalType": "string",
              "name": "url",
              "type": "string"
            },
            {
              "internalType": "address",
              "name": "owner",
              "type": "address"
            },
            {
              "internalType": "string",
              "name": "description",
              "type": "string"
            },
            {
              "internalType": "uint256",
              "name": "uploadDate",
              "type": "uint256"
            },
            {
              "internalType": "bool",
              "name": "isVotationOpen",
              "type": "bool"
            },
            {
              "internalType": "address[]",
              "name": "assignedVoters",
              "type": "address[]"
            },
            {
              "internalType": "address[]",
              "name": "positiveVotes",
              "type": "address[]"
            },
            {
              "internalType": "address[]",
              "name": "negativeVotes",
              "type": "address[]"
            },
            {
              "components": [
                {
                  "internalType": "address",
                  "name": "user",
                  "type": "address"
                },
                {
                  "internalType": "string",
                  "name": "text",
                  "type": "string"
                }
              ],
              "internalType": "struct MainContract.Comment[]",
              "name": "comments",
              "type": "tuple[]"
            }
          ],
          "internalType": "struct MainContract.Image[]",
          "name": "",
          "type": "tuple[]"
        }
      ],
      "stateMutability": "view",
      "type": "function"
    },
    {
      "inputs": [],
      "name": "getAllUsers",
      "outputs": [
        {
          "components": [
            {
              "internalType": "address",
              "name": "_address",
              "type": "address"
            },
            {
              "internalType": "uint256",
              "name": "wins",
              "type": "uint256"
            },
            {
              "internalType": "uint256",
              "name": "tokens",
              "type": "uint256"
            }
          ],
          "internalType": "struct MainContract.User[]",
          "name": "",
          "type": "tuple[]"
        }
      ],
      "stateMutability": "view",
      "type": "function"
    },
    {
      "inputs": [
        {
          "internalType": "string",
          "name": "_url",
          "type": "string"
        }
      ],
      "name": "getImageByUrl",
      "outputs": [
        {
          "components": [
            {
              "internalType": "string",
              "name": "url",
              "type": "string"
            },
            {
              "internalType": "address",
              "name": "owner",
              "type": "address"
            },
            {
              "internalType": "string",
              "name": "description",
              "type": "string"
            },
            {
              "internalType": "uint256",
              "name": "uploadDate",
              "type": "uint256"
            },
            {
              "internalType": "bool",
              "name": "isVotationOpen",
              "type": "bool"
            },
            {
              "internalType": "address[]",
              "name": "assignedVoters",
              "type": "address[]"
            },
            {
              "internalType": "address[]",
              "name": "positiveVotes",
              "type": "address[]"
            },
            {
              "internalType": "address[]",
              "name": "negativeVotes",
              "type": "address[]"
            },
            {
              "components": [
                {
                  "internalType": "address",
                  "name": "user",
                  "type": "address"
                },
                {
                  "internalType": "string",
                  "name": "text",
                  "type": "string"
                }
              ],
              "internalType": "struct MainContract.Comment[]",
              "name": "comments",
              "type": "tuple[]"
            }
          ],
          "internalType": "struct MainContract.Image",
          "name": "",
          "type": "tuple"
        }
      ],
      "stateMutability": "view",
      "type": "function"
    },
    {
      "inputs": [
        {
          "internalType": "address",
          "name": "_address",
          "type": "address"
        }
      ],
      "name": "getImagesByAssignedUser",
      "outputs": [
        {
          "components": [
            {
              "internalType": "string",
              "name": "url",
              "type": "string"
            },
            {
              "internalType": "address",
              "name": "owner",
              "type": "address"
            },
            {
              "internalType": "string",
              "name": "description",
              "type": "string"
            },
            {
              "internalType": "uint256",
              "name": "uploadDate",
              "type": "uint256"
            },
            {
              "internalType": "bool",
              "name": "isVotationOpen",
              "type": "bool"
            },
            {
              "internalType": "address[]",
              "name": "assignedVoters",
              "type": "address[]"
            },
            {
              "internalType": "address[]",
              "name": "positiveVotes",
              "type": "address[]"
            },
            {
              "internalType": "address[]",
              "name": "negativeVotes",
              "type": "address[]"
            },
            {
              "components": [
                {
                  "internalType": "address",
                  "name": "user",
                  "type": "address"
                },
                {
                  "internalType": "string",
                  "name": "text",
                  "type": "string"
                }
              ],
              "internalType": "struct MainContract.Comment[]",
              "name": "comments",
              "type": "tuple[]"
            }
          ],
          "internalType": "struct MainContract.Image[]",
          "name": "",
          "type": "tuple[]"
        }
      ],
      "stateMutability": "view",
      "type": "function"
    },
    {
      "inputs": [
        {
          "internalType": "address",
          "name": "_address",
          "type": "address"
        }
      ],
      "name": "getImagesByOwningUser",
      "outputs": [
        {
          "components": [
            {
              "internalType": "string",
              "name": "url",
              "type": "string"
            },
            {
              "internalType": "address",
              "name": "owner",
              "type": "address"
            },
            {
              "internalType": "string",
              "name": "description",
              "type": "string"
            },
            {
              "internalType": "uint256",
              "name": "uploadDate",
              "type": "uint256"
            },
            {
              "internalType": "bool",
              "name": "isVotationOpen",
              "type": "bool"
            },
            {
              "internalType": "address[]",
              "name": "assignedVoters",
              "type": "address[]"
            },
            {
              "internalType": "address[]",
              "name": "positiveVotes",
              "type": "address[]"
            },
            {
              "internalType": "address[]",
              "name": "negativeVotes",
              "type": "address[]"
            },
            {
              "components": [
                {
                  "internalType": "address",
                  "name": "user",
                  "type": "address"
                },
                {
                  "internalType": "string",
                  "name": "text",
                  "type": "string"
                }
              ],
              "internalType": "struct MainContract.Comment[]",
              "name": "comments",
              "type": "tuple[]"
            }
          ],
          "internalType": "struct MainContract.Image[]",
          "name": "",
          "type": "tuple[]"
        }
      ],
      "stateMutability": "view",
      "type": "function"
    },
    {
      "inputs": [
        {
          "internalType": "address",
          "name": "_address",
          "type": "address"
        }
      ],
      "name": "getUserByAddress",
      "outputs": [
        {
          "components": [
            {
              "internalType": "address",
              "name": "_address",
              "type": "address"
            },
            {
              "internalType": "uint256",
              "name": "wins",
              "type": "uint256"
            },
            {
              "internalType": "uint256",
              "name": "tokens",
              "type": "uint256"
            }
          ],
          "internalType": "struct MainContract.User",
          "name": "",
          "type": "tuple"
        }
      ],
      "stateMutability": "view",
      "type": "function"
    },
    {
      "inputs": [],
      "name": "proofOfHumanity",
      "outputs": [
        {
          "internalType": "contract IProofOfHumanity",
          "name": "",
          "type": "address"
        }
      ],
      "stateMutability": "view",
      "type": "function"
    },
    {
      "inputs": [
        {
          "internalType": "string",
          "name": "_url",
          "type": "string"
        },
        {
          "internalType": "string",
          "name": "_desc",
          "type": "string"
        }
      ],
      "name": "publishImage",
      "outputs": [],
      "stateMutability": "nonpayable",
      "type": "function"
    },
    {
      "inputs": [],
      "name": "registerUser",
      "outputs": [],
      "stateMutability": "nonpayable",
      "type": "function"
    },
    {
      "inputs": [
        {
          "internalType": "string",
          "name": "_url",
          "type": "string"
        },
        {
          "internalType": "enum MainContract.Vote",
          "name": "_vote",
          "type": "uint8"
        }
      ],
      "name": "voteImage",
      "outputs": [],
      "stateMutability": "nonpayable",
      "type": "function"
    }
  ],
  "bytecode": "60806040523480156200001157600080fd5b5060405162002b3038038062002b30833981016040819052620000349162000063565b600080546001600160a01b039092166001600160a01b0319928316179055600180549091163317905562000093565b60006020828403121562000075578081fd5b81516001600160a01b03811681146200008c578182fd5b9392505050565b612a8d80620000a36000396000f3fe608060405234801561001057600080fd5b50600436106100a95760003560e01c806369c212f61161007157806369c212f61461011a5780636d68c48c1461013a5780637b7284fc1461015a578063a07f5fa014610162578063d960586714610175578063e2842d791461018a576100a9565b80630298ba44146100ae5780631811d578146100c357806336477181146100ec5780634d3820eb146100ff578063529c184114610107575b600080fd5b6100c16100bc36600461250c565b61019f565b005b6100d66100d1366004612430565b6102b2565b6040516100e391906127f7565b60405180910390f35b6100c16100fa3660046124b9565b610876565b6100c1610bf6565b6100c161011536600461250c565b610d03565b61012d610128366004612430565b610f34565b6040516100e39190612a0b565b61014d61014836600461247e565b610f80565b6040516100e391906129f8565b6100d661133a565b6100d6610170366004612430565b611789565b61017d611d8a565b6040516100e391906127e3565b610192611d99565b6040516100e39190612857565b6005826040516101af9190612757565b908152604051908190036020019020600501546101e75760405162461bcd60e51b81526004016101de906128a5565b60405180910390fd5b6005826040516101f79190612757565b9081526040519081900360200190206004015460ff166102295760405162461bcd60e51b81526004016101de90612944565b6005826040516102399190612757565b90815260408051602092819003830181208183019092523381528281018481526008909201805460018082018355600092835291859020835160029092020180546001600160a01b0319166001600160a01b039092169190911781559251805192946102ab939285019291019061221e565b5050505050565b600454606090819067ffffffffffffffff811180156102d057600080fd5b5060405190808252806020026020018201604052801561030457816020015b60608152602001906001900390816102ef5790505b5090506000805b60045481101561042d57846001600160a01b031660056004838154811061032e57fe5b906000526020600020016040516103459190612773565b908152604051908190036020019020600101546001600160a01b03161415610425576004818154811061037457fe5b600091825260209182902001805460408051601f60026000196101006001871615020190941693909304928301859004850281018501909152818152928301828280156104025780601f106103d757610100808354040283529160200191610402565b820191906000526020600020905b8154815290600101906020018083116103e557829003601f168201915b505050505083838060010194508151811061041957fe5b60200260200101819052505b60010161030b565b5060608167ffffffffffffffff8111801561044757600080fd5b5060405190808252806020026020018201604052801561048157816020015b61046e61229c565b8152602001906001900390816104665790505b50905060005b8281101561086d57600584828151811061049d57fe5b60200260200101516040516104b29190612757565b9081526040805160209281900383018120805460026001821615610100026000190190911604601f81018590049094028201610140908101909352610120820184815291939092849291849184018282801561054f5780601f106105245761010080835404028352916020019161054f565b820191906000526020600020905b81548152906001019060200180831161053257829003601f168201915b50505091835250506001828101546001600160a01b0316602080840191909152600280850180546040805161010096831615969096026000190190911692909204601f810184900484028501840183528085529190940193918301828280156105f95780601f106105ce576101008083540402835291602001916105f9565b820191906000526020600020905b8154815290600101906020018083116105dc57829003601f168201915b50505050508152602001600382015481526020016004820160009054906101000a900460ff161515151581526020016005820180548060200260200160405190810160405280929190818152602001828054801561068057602002820191906000526020600020905b81546001600160a01b03168152600190910190602001808311610662575b50505050508152602001600682018054806020026020016040519081016040528092919081815260200182805480156106e257602002820191906000526020600020905b81546001600160a01b031681526001909101906020018083116106c4575b505050505081526020016007820180548060200260200160405190810160405280929190818152602001828054801561074457602002820191906000526020600020905b81546001600160a01b03168152600190910190602001808311610726575b5050505050815260200160088201805480602002602001604051908101604052809291908181526020016000905b82821015610846576000848152602090819020604080518082018252600286810290930180546001600160a01b031682526001808201805485516101009382161593909302600019011695909504601f81018790048702820187019094528381529194909385820193909183018282801561082e5780601f106108035761010080835404028352916020019161082e565b820191906000526020600020905b81548152906001019060200180831161081157829003601f168201915b50505050508152505081526020019060010190610772565b505050508152505082828151811061085a57fe5b6020908102919091010152600101610487565b50949350505050565b6005826040516108869190612757565b908152604051908190036020019020600501546108b55760405162461bcd60e51b81526004016101de906128a5565b6109326005836040516108c89190612757565b908152604080519182900360209081018320600501805480830285018301909352828452919083018282801561092757602002820191906000526020600020905b81546001600160a01b03168152600190910190602001808311610909575b505050505033611e80565b61094e5760405162461bcd60e51b81526004016101de9061296b565b6109c96005836040516109619190612757565b9081526040805191829003602090810183206006018054808302850183019093528284529190830182828015610927576020028201919060005260206000209081546001600160a01b0316815260019091019060200180831161090957505050505033611e80565b158015610a4e5750610a4c6005836040516109e49190612757565b9081526040805191829003602090810183206007018054808302850183019093528284529190830182828015610927576020028201919060005260206000209081546001600160a01b0316815260019091019060200180831161090957505050505033611e80565b155b610a6a5760405162461bcd60e51b81526004016101de9061291d565b600582604051610a7a9190612757565b9081526040519081900360200190206004015460ff16610aac5760405162461bcd60e51b81526004016101de90612944565b33600090815260036020526040902060020154600110610ade5760405162461bcd60e51b81526004016101de90612996565b3360009081526003602052604081206002018054600019019055816001811115610b0457fe5b1415610b5557600582604051610b1a9190612757565b908152604051908190036020908101909120600601805460018101825560009182529190200180546001600160a01b03191633179055610b9c565b600582604051610b659190612757565b908152604051908190036020908101909120600701805460018101825560009182529190200180546001600160a01b031916331790555b60058083604051610bad9190612757565b9081526040519081900360200181206007015490600590610bcf908690612757565b90815260405190819003602001902060060154011415610bf257610bf282611ed8565b5050565b610c586002805480602002602001604051908101604052809291908181526020018280548015610927576020028201919060005260206000209081546001600160a01b0316815260019091019060200180831161090957505050505033611e80565b15610c755760405162461bcd60e51b81526004016101de906129c1565b610c7e336120bb565b610c9a5760405162461bcd60e51b81526004016101de906128d1565b60028054600180820183557f405787fa12a823e0f2b7631cc41b3ba8828b3321ca811111fa75cd3aa3bb5ace9091018054336001600160a01b03199182168117909255600082815260036020526040812080549092169092178155600593810193909355910155565b33600090815260036020526040902060020154600110610d355760405162461bcd60e51b81526004016101de90612996565b336000908152600360209081526040822060020180546000190190556004805460018101825592528351610d8e927f8a35acfbc15ff81a39ae7d344fd709f28e8600b4aa8c65c6b64bfe7fe36bd19b019185019061221e565b5081600583604051610da09190612757565b90815260200160405180910390206000019080519060200190610dc492919061221e565b5033600583604051610dd69190612757565b908152602001604051809103902060010160006101000a8154816001600160a01b0302191690836001600160a01b0316021790555080600583604051610e1c9190612757565b90815260200160405180910390206002019080519060200190610e4092919061221e565b5042600583604051610e529190612757565b9081526020016040518091039020600301819055506001600583604051610e799190612757565b9081526040805160209281900383018120600401805460ff1916941515949094179093556002805480840285018401909252818452610efb9392909190830182828015610eef57602002820191906000526020600020905b81546001600160a01b03168152600190910190602001808311610ed1575b5050505050600a61213c565b600583604051610f0b9190612757565b90815260200160405180910390206005019080519060200190610f2f9291906122f3565b505050565b610f3c612354565b506001600160a01b03908116600090815260036020908152604091829020825160608101845281549094168452600181015491840191909152600201549082015290565b610f8861229c565b600582604051610f989190612757565b9081526040805160209281900383018120805460026001821615610100026000190190911604601f8101859004909402820161014090810190935261012082018481529193909284929184918401828280156110355780601f1061100a57610100808354040283529160200191611035565b820191906000526020600020905b81548152906001019060200180831161101857829003601f168201915b50505091835250506001828101546001600160a01b0316602080840191909152600280850180546040805161010096831615969096026000190190911692909204601f810184900484028501840183528085529190940193918301828280156110df5780601f106110b4576101008083540402835291602001916110df565b820191906000526020600020905b8154815290600101906020018083116110c257829003601f168201915b50505050508152602001600382015481526020016004820160009054906101000a900460ff161515151581526020016005820180548060200260200160405190810160405280929190818152602001828054801561116657602002820191906000526020600020905b81546001600160a01b03168152600190910190602001808311611148575b50505050508152602001600682018054806020026020016040519081016040528092919081815260200182805480156111c857602002820191906000526020600020905b81546001600160a01b031681526001909101906020018083116111aa575b505050505081526020016007820180548060200260200160405190810160405280929190818152602001828054801561122a57602002820191906000526020600020905b81546001600160a01b0316815260019091019060200180831161120c575b5050505050815260200160088201805480602002602001604051908101604052809291908181526020016000905b8282101561132c576000848152602090819020604080518082018252600286810290930180546001600160a01b031682526001808201805485516101009382161593909302600019011695909504601f8101879004870282018701909452838152919490938582019390918301828280156113145780601f106112e957610100808354040283529160200191611314565b820191906000526020600020905b8154815290600101906020018083116112f757829003601f168201915b50505050508152505081526020019060010190611258565b505050915250909392505050565b600454606090819067ffffffffffffffff8111801561135857600080fd5b5060405190808252806020026020018201604052801561139257816020015b61137f61229c565b8152602001906001900390816113775790505b50905060005b600454811015611783576005600482815481106113b157fe5b906000526020600020016040516113c89190612773565b9081526040805160209281900383018120805460026001821615610100026000190190911604601f8101859004909402820161014090810190935261012082018481529193909284929184918401828280156114655780601f1061143a57610100808354040283529160200191611465565b820191906000526020600020905b81548152906001019060200180831161144857829003601f168201915b50505091835250506001828101546001600160a01b0316602080840191909152600280850180546040805161010096831615969096026000190190911692909204601f8101849004840285018401835280855291909401939183018282801561150f5780601f106114e45761010080835404028352916020019161150f565b820191906000526020600020905b8154815290600101906020018083116114f257829003601f168201915b50505050508152602001600382015481526020016004820160009054906101000a900460ff161515151581526020016005820180548060200260200160405190810160405280929190818152602001828054801561159657602002820191906000526020600020905b81546001600160a01b03168152600190910190602001808311611578575b50505050508152602001600682018054806020026020016040519081016040528092919081815260200182805480156115f857602002820191906000526020600020905b81546001600160a01b031681526001909101906020018083116115da575b505050505081526020016007820180548060200260200160405190810160405280929190818152602001828054801561165a57602002820191906000526020600020905b81546001600160a01b0316815260019091019060200180831161163c575b5050505050815260200160088201805480602002602001604051908101604052809291908181526020016000905b8282101561175c576000848152602090819020604080518082018252600286810290930180546001600160a01b031682526001808201805485516101009382161593909302600019011695909504601f8101879004870282018701909452838152919490938582019390918301828280156117445780601f1061171957610100808354040283529160200191611744565b820191906000526020600020905b81548152906001019060200180831161172757829003601f168201915b50505050508152505081526020019060010190611688565b505050508152505082828151811061177057fe5b6020908102919091010152600101611398565b50905090565b600454606090819067ffffffffffffffff811180156117a757600080fd5b506040519080825280602002602001820160405280156117db57816020015b60608152602001906001900390816117c65790505b5090506000805b60045481101561194a5761187f6005600483815481106117fe57fe5b906000526020600020016040516118159190612773565b908152604080519182900360209081018320600501805480830285018301909352828452919083018282801561187457602002820191906000526020600020905b81546001600160a01b03168152600190910190602001808311611856575b505050505086611e80565b15611942576004818154811061189157fe5b600091825260209182902001805460408051601f600260001961010060018716150201909416939093049283018590048502810185019091528181529283018282801561191f5780601f106118f45761010080835404028352916020019161191f565b820191906000526020600020905b81548152906001019060200180831161190257829003601f168201915b505050505083838060010194508151811061193657fe5b60200260200101819052505b6001016117e2565b5060608167ffffffffffffffff8111801561196457600080fd5b5060405190808252806020026020018201604052801561199e57816020015b61198b61229c565b8152602001906001900390816119835790505b50905060005b8281101561086d5760058482815181106119ba57fe5b60200260200101516040516119cf9190612757565b9081526040805160209281900383018120805460026001821615610100026000190190911604601f810185900490940282016101409081019093526101208201848152919390928492918491840182828015611a6c5780601f10611a4157610100808354040283529160200191611a6c565b820191906000526020600020905b815481529060010190602001808311611a4f57829003601f168201915b50505091835250506001828101546001600160a01b0316602080840191909152600280850180546040805161010096831615969096026000190190911692909204601f81018490048402850184018352808552919094019391830182828015611b165780601f10611aeb57610100808354040283529160200191611b16565b820191906000526020600020905b815481529060010190602001808311611af957829003601f168201915b50505050508152602001600382015481526020016004820160009054906101000a900460ff1615151515815260200160058201805480602002602001604051908101604052809291908181526020018280548015611b9d57602002820191906000526020600020905b81546001600160a01b03168152600190910190602001808311611b7f575b5050505050815260200160068201805480602002602001604051908101604052809291908181526020018280548015611bff57602002820191906000526020600020905b81546001600160a01b03168152600190910190602001808311611be1575b5050505050815260200160078201805480602002602001604051908101604052809291908181526020018280548015611c6157602002820191906000526020600020905b81546001600160a01b03168152600190910190602001808311611c43575b5050505050815260200160088201805480602002602001604051908101604052809291908181526020016000905b82821015611d63576000848152602090819020604080518082018252600286810290930180546001600160a01b031682526001808201805485516101009382161593909302600019011695909504601f810187900487028201870190945283815291949093858201939091830182828015611d4b5780601f10611d2057610100808354040283529160200191611d4b565b820191906000526020600020905b815481529060010190602001808311611d2e57829003601f168201915b50505050508152505081526020019060010190611c8f565b5050505081525050828281518110611d7757fe5b60209081029190910101526001016119a4565b6000546001600160a01b031681565b600254606090819067ffffffffffffffff81118015611db757600080fd5b50604051908082528060200260200182016040528015611df157816020015b611dde612354565b815260200190600190039081611dd65790505b50905060005b600254811015611783576003600060028381548110611e1257fe5b60009182526020808320909101546001600160a01b03908116845283820194909452604092830190912082516060810184528154909416845260018101549184019190915260020154908201528251839083908110611e6d57fe5b6020908102919091010152600101611df7565b6000805b8351811015611ecc57826001600160a01b0316848281518110611ea357fe5b60200260200101516001600160a01b03161415611ec4576001915050611ed2565b600101611e84565b50600090505b92915050565b6000600582604051611eea9190612757565b908152604051908190036020018120600401805492151560ff1990931692909217909155600090600590611f1f908490612757565b9081526040519081900360200181206007015490600590611f41908590612757565b9081526040519081900360200190206006015411905060005b600583604051611f6a9190612757565b90815260405190819003602001902060060154811015612009576000600584604051611f969190612757565b90815260200160405180910390206006018281548110611fb257fe5b6000918252602090912001546001600160a01b031690508215612000576001600160a01b03811660009081526003602052604090206002818101805490910190556001908101805490910190555b50600101611f5a565b5060005b60058360405161201d9190612757565b90815260405190819003602001902060070154811015610f2f5760006005846040516120499190612757565b9081526020016040518091039020600601828154811061206557fe5b6000918252602090912001546001600160a01b03169050826120b2576001600160a01b03811660009081526003602052604090206002818101805490910190556001908101805490910190555b5060010161200d565b6000805460405163c3c5a54760e01b81526001600160a01b039091169063c3c5a547906120ec9085906004016127e3565b60206040518083038186803b15801561210457600080fd5b505afa158015612118573d6000803e3d6000fd5b505050506040513d601f19601f82011682018060405250810190611ed2919061245e565b6060808267ffffffffffffffff8111801561215657600080fd5b50604051908082528060200260200182016040528015612180578160200160208202803683370190505b50905060008451424460405160200161219a929190612a19565b6040516020818303038152906040528051906020012060001c816121ba57fe5b06905060005b8481101561221457858651838301816121d557fe5b06815181106121e057fe5b60200260200101518382815181106121f457fe5b6001600160a01b03909216602092830291909101909101526001016121c0565b5090949350505050565b828054600181600116156101000203166002900490600052602060002090601f016020900481019282601f1061225f57805160ff191683800117855561228c565b8280016001018555821561228c579182015b8281111561228c578251825591602001919060010190612271565b5061229892915061237e565b5090565b6040518061012001604052806060815260200160006001600160a01b031681526020016060815260200160008152602001600015158152602001606081526020016060815260200160608152602001606081525090565b828054828255906000526020600020908101928215612348579160200282015b8281111561234857825182546001600160a01b0319166001600160a01b03909116178255602090920191600190910190612313565b50612298929150612393565b604051806060016040528060006001600160a01b0316815260200160008152602001600081525090565b5b80821115612298576000815560010161237f565b5b808211156122985780546001600160a01b0319168155600101612394565b600082601f8301126123c2578081fd5b813567ffffffffffffffff808211156123d9578283fd5b604051601f8301601f1916810160200182811182821017156123f9578485fd5b60405282815292508284830160200186101561241457600080fd5b8260208601602083013760006020848301015250505092915050565b600060208284031215612441578081fd5b81356001600160a01b0381168114612457578182fd5b9392505050565b60006020828403121561246f578081fd5b81518015158114612457578182fd5b60006020828403121561248f578081fd5b813567ffffffffffffffff8111156124a5578182fd5b6124b1848285016123b2565b949350505050565b600080604083850312156124cb578081fd5b823567ffffffffffffffff8111156124e1578182fd5b6124ed858286016123b2565b925050602083013560028110612501578182fd5b809150509250929050565b6000806040838503121561251e578182fd5b823567ffffffffffffffff80821115612535578384fd5b612541868387016123b2565b93506020850135915080821115612556578283fd5b50612563858286016123b2565b9150509250929050565b6001600160a01b03169052565b6000815180845260208085019450808401835b838110156125b25781516001600160a01b03168752958201959082019060010161258d565b509495945050505050565b60008282518085526020808601955080818302840101818601855b8481101561262357858303601f19018952815180516001600160a01b03168452840151604085850181905261260f81860183612636565b9a86019a94505050908301906001016125d8565b5090979650505050505050565b15159052565b6000815180845261264e816020860160208601612a27565b601f01601f19169290920160200192915050565b6000610120825181855261267882860182612636565b915050602083015161268d602086018261256d565b50604083015184820360408601526126a58282612636565b9150506060830151606085015260808301516126c46080860182612630565b5060a083015184820360a08601526126dc828261257a565b91505060c083015184820360c08601526126f6828261257a565b91505060e083015184820360e0860152612710828261257a565b915050610100808401518583038287015261272b83826125bd565b9695505050505050565b80516001600160a01b0316825260208082015190830152604090810151910152565b60008251612769818460208701612a27565b9190910192915050565b600080835460018082166000811461279257600181146127a9576127d8565b60ff198316865260028304607f16860193506127d8565b600283048786526020808720875b838110156127d05781548a8201529085019082016127b7565b505050860193505b509195945050505050565b6001600160a01b0391909116815260200190565b6000602080830181845280855180835260408601915060408482028701019250838701855b8281101561284a57603f19888603018452612838858351612662565b9450928501929085019060010161281c565b5092979650505050505050565b6020808252825182820181905260009190848201906040850190845b8181101561289957612886838551612735565b9284019260609290920191600101612873565b50909695505050505050565b602080825260129082015271125b5859d948191bd95cdb9d08195e1a5cdd60721b604082015260600190565b6020808252602c908201527f55736572206973206e6f742072656769737465726564206f6e2050726f6f662060408201526b37b310243ab6b0b734ba3c9760a11b606082015260800190565b6020808252600d908201526c105b1c9958591e481d9bdd1959609a1b604082015260600190565b6020808252600d908201526c159bdd1a5b99c818db1bdcd959609a1b604082015260600190565b602080825260119082015270159bdd195c881b9bdd08185b1b1bddd959607a1b604082015260600190565b6020808252601190820152704e6f7420656e6f75676820746f6b656e7360781b604082015260600190565b6020808252601a908201527f5573657220697320616c72656164792072656769737465726564000000000000604082015260600190565b6000602082526124576020830184612662565b60608101611ed28284612735565b918252602082015260400190565b60005b83811015612a42578181015183820152602001612a2a565b83811115612a51576000848401525b5050505056fea264697066735822122074f72d068a76bee5201b2ce04a89307efd2b2c17970d098ab31ca507f212176264736f6c634300060c0033",
  "bytecodeSha1": "2573ca33cbd591e70c1f52dd86d54a0b4b9f865f",
  "compiler": {
    "evm_version": "istanbul",
    "optimizer": {
      "enabled": true,
      "runs": 200
    },
    "version": "0.6.12+commit.27d51765"
  },
  "contractName": "MainContract",
  "language": "Solidity",
  "natspec": {
    "kind": "dev",
    "methods": {},
    "version": 1
  },
  "opcodes": "PUSH1 0x80 PUSH1 0x40 MSTORE CALLVALUE DUP1 ISZERO PUSH2 0x10 JUMPI PUSH1 0x0 DUP1 REVERT JUMPDEST POP PUSH1 0x4 CALLDATASIZE LT PUSH2 0xA9 JUMPI PUSH1 0x0 CALLDATALOAD PUSH1 0xE0 SHR DUP1 PUSH4 0x69C212F6 GT PUSH2 0x71 JUMPI DUP1 PUSH4 0x69C212F6 EQ PUSH2 0x11A JUMPI DUP1 PUSH4 0x6D68C48C EQ PUSH2 0x13A JUMPI DUP1 PUSH4 0x7B7284FC EQ PUSH2 0x15A JUMPI DUP1 PUSH4 0xA07F5FA0 EQ PUSH2 0x162 JUMPI DUP1 PUSH4 0xD9605867 EQ PUSH2 0x175 JUMPI DUP1 PUSH4 0xE2842D79 EQ PUSH2 0x18A JUMPI PUSH2 0xA9 JUMP JUMPDEST DUP1 PUSH4 0x298BA44 EQ PUSH2 0xAE JUMPI DUP1 PUSH4 0x1811D578 EQ PUSH2 0xC3 JUMPI DUP1 PUSH4 0x36477181 EQ PUSH2 0xEC JUMPI DUP1 PUSH4 0x4D3820EB EQ PUSH2 0xFF JUMPI DUP1 PUSH4 0x529C1841 EQ PUSH2 0x107 JUMPI JUMPDEST PUSH1 0x0 DUP1 REVERT JUMPDEST PUSH2 0xC1 PUSH2 0xBC CALLDATASIZE PUSH1 0x4 PUSH2 0x250C JUMP JUMPDEST PUSH2 0x19F JUMP JUMPDEST STOP JUMPDEST PUSH2 0xD6 PUSH2 0xD1 CALLDATASIZE PUSH1 0x4 PUSH2 0x2430 JUMP JUMPDEST PUSH2 0x2B2 JUMP JUMPDEST PUSH1 0x40 MLOAD PUSH2 0xE3 SWAP2 SWAP1 PUSH2 0x27F7 JUMP JUMPDEST PUSH1 0x40 MLOAD DUP1 SWAP2 SUB SWAP1 RETURN JUMPDEST PUSH2 0xC1 PUSH2 0xFA CALLDATASIZE PUSH1 0x4 PUSH2 0x24B9 JUMP JUMPDEST PUSH2 0x876 JUMP JUMPDEST PUSH2 0xC1 PUSH2 0xBF6 JUMP JUMPDEST PUSH2 0xC1 PUSH2 0x115 CALLDATASIZE PUSH1 0x4 PUSH2 0x250C JUMP JUMPDEST PUSH2 0xD03 JUMP JUMPDEST PUSH2 0x12D PUSH2 0x128 CALLDATASIZE PUSH1 0x4 PUSH2 0x2430 JUMP JUMPDEST PUSH2 0xF34 JUMP JUMPDEST PUSH1 0x40 MLOAD PUSH2 0xE3 SWAP2 SWAP1 PUSH2 0x2A0B JUMP JUMPDEST PUSH2 0x14D PUSH2 0x148 CALLDATASIZE PUSH1 0x4 PUSH2 0x247E JUMP JUMPDEST PUSH2 0xF80 JUMP JUMPDEST PUSH1 0x40 MLOAD PUSH2 0xE3 SWAP2 SWAP1 PUSH2 0x29F8 JUMP JUMPDEST PUSH2 0xD6 PUSH2 0x133A JUMP JUMPDEST PUSH2 0xD6 PUSH2 0x170 CALLDATASIZE PUSH1 0x4 PUSH2 0x2430 JUMP JUMPDEST PUSH2 0x1789 JUMP JUMPDEST PUSH2 0x17D PUSH2 0x1D8A JUMP JUMPDEST PUSH1 0x40 MLOAD PUSH2 0xE3 SWAP2 SWAP1 PUSH2 0x27E3 JUMP JUMPDEST PUSH2 0x192 PUSH2 0x1D99 JUMP JUMPDEST PUSH1 0x40 MLOAD PUSH2 0xE3 SWAP2 SWAP1 PUSH2 0x2857 JUMP JUMPDEST PUSH1 0x5 DUP3 PUSH1 0x40 MLOAD PUSH2 0x1AF SWAP2 SWAP1 PUSH2 0x2757 JUMP JUMPDEST SWAP1 DUP2 MSTORE PUSH1 0x40 MLOAD SWAP1 DUP2 SWAP1 SUB PUSH1 0x20 ADD SWAP1 KECCAK256 PUSH1 0x5 ADD SLOAD PUSH2 0x1E7 JUMPI PUSH1 0x40 MLOAD PUSH3 0x461BCD PUSH1 0xE5 SHL DUP2 MSTORE PUSH1 0x4 ADD PUSH2 0x1DE SWAP1 PUSH2 0x28A5 JUMP JUMPDEST PUSH1 0x40 MLOAD DUP1 SWAP2 SUB SWAP1 REVERT JUMPDEST PUSH1 0x5 DUP3 PUSH1 0x40 MLOAD PUSH2 0x1F7 SWAP2 SWAP1 PUSH2 0x2757 JUMP JUMPDEST SWAP1 DUP2 MSTORE PUSH1 0x40 MLOAD SWAP1 DUP2 SWAP1 SUB PUSH1 0x20 ADD SWAP1 KECCAK256 PUSH1 0x4 ADD SLOAD PUSH1 0xFF AND PUSH2 0x229 JUMPI PUSH1 0x40 MLOAD PUSH3 0x461BCD PUSH1 0xE5 SHL DUP2 MSTORE PUSH1 0x4 ADD PUSH2 0x1DE SWAP1 PUSH2 0x2944 JUMP JUMPDEST PUSH1 0x5 DUP3 PUSH1 0x40 MLOAD PUSH2 0x239 SWAP2 SWAP1 PUSH2 0x2757 JUMP JUMPDEST SWAP1 DUP2 MSTORE PUSH1 0x40 DUP1 MLOAD PUSH1 0x20 SWAP3 DUP2 SWAP1 SUB DUP4 ADD DUP2 KECCAK256 DUP2 DUP4 ADD SWAP1 SWAP3 MSTORE CALLER DUP2 MSTORE DUP3 DUP2 ADD DUP5 DUP2 MSTORE PUSH1 0x8 SWAP1 SWAP3 ADD DUP1 SLOAD PUSH1 0x1 DUP1 DUP3 ADD DUP4 SSTORE PUSH1 0x0 SWAP3 DUP4 MSTORE SWAP2 DUP6 SWAP1 KECCAK256 DUP4 MLOAD PUSH1 0x2 SWAP1 SWAP3 MUL ADD DUP1 SLOAD PUSH1 0x1 PUSH1 0x1 PUSH1 0xA0 SHL SUB NOT AND PUSH1 0x1 PUSH1 0x1 PUSH1 0xA0 SHL SUB SWAP1 SWAP3 AND SWAP2 SWAP1 SWAP2 OR DUP2 SSTORE SWAP3 MLOAD DUP1 MLOAD SWAP3 SWAP5 PUSH2 0x2AB SWAP4 SWAP3 DUP6 ADD SWAP3 SWAP2 ADD SWAP1 PUSH2 0x221E JUMP JUMPDEST POP POP POP POP POP JUMP JUMPDEST PUSH1 0x4 SLOAD PUSH1 0x60 SWAP1 DUP2 SWAP1 PUSH8 0xFFFFFFFFFFFFFFFF DUP2 GT DUP1 ISZERO PUSH2 0x2D0 JUMPI PUSH1 0x0 DUP1 REVERT JUMPDEST POP PUSH1 0x40 MLOAD SWAP1 DUP1 DUP3 MSTORE DUP1 PUSH1 0x20 MUL PUSH1 0x20 ADD DUP3 ADD PUSH1 0x40 MSTORE DUP1 ISZERO PUSH2 0x304 JUMPI DUP2 PUSH1 0x20 ADD JUMPDEST PUSH1 0x60 DUP2 MSTORE PUSH1 0x20 ADD SWAP1 PUSH1 0x1 SWAP1 SUB SWAP1 DUP2 PUSH2 0x2EF JUMPI SWAP1 POP JUMPDEST POP SWAP1 POP PUSH1 0x0 DUP1 JUMPDEST PUSH1 0x4 SLOAD DUP2 LT ISZERO PUSH2 0x42D JUMPI DUP5 PUSH1 0x1 PUSH1 0x1 PUSH1 0xA0 SHL SUB AND PUSH1 0x5 PUSH1 0x4 DUP4 DUP2 SLOAD DUP2 LT PUSH2 0x32E JUMPI INVALID JUMPDEST SWAP1 PUSH1 0x0 MSTORE PUSH1 0x20 PUSH1 0x0 KECCAK256 ADD PUSH1 0x40 MLOAD PUSH2 0x345 SWAP2 SWAP1 PUSH2 0x2773 JUMP JUMPDEST SWAP1 DUP2 MSTORE PUSH1 0x40 MLOAD SWAP1 DUP2 SWAP1 SUB PUSH1 0x20 ADD SWAP1 KECCAK256 PUSH1 0x1 ADD SLOAD PUSH1 0x1 PUSH1 0x1 PUSH1 0xA0 SHL SUB AND EQ ISZERO PUSH2 0x425 JUMPI PUSH1 0x4 DUP2 DUP2 SLOAD DUP2 LT PUSH2 0x374 JUMPI INVALID JUMPDEST PUSH1 0x0 SWAP2 DUP3 MSTORE PUSH1 0x20 SWAP2 DUP3 SWAP1 KECCAK256 ADD DUP1 SLOAD PUSH1 0x40 DUP1 MLOAD PUSH1 0x1F PUSH1 0x2 PUSH1 0x0 NOT PUSH2 0x100 PUSH1 0x1 DUP8 AND ISZERO MUL ADD SWAP1 SWAP5 AND SWAP4 SWAP1 SWAP4 DIV SWAP3 DUP4 ADD DUP6 SWAP1 DIV DUP6 MUL DUP2 ADD DUP6 ADD SWAP1 SWAP2 MSTORE DUP2 DUP2 MSTORE SWAP3 DUP4 ADD DUP3 DUP3 DUP1 ISZERO PUSH2 0x402 JUMPI DUP1 PUSH1 0x1F LT PUSH2 0x3D7 JUMPI PUSH2 0x100 DUP1 DUP4 SLOAD DIV MUL DUP4 MSTORE SWAP2 PUSH1 0x20 ADD SWAP2 PUSH2 0x402 JUMP JUMPDEST DUP3 ADD SWAP2 SWAP1 PUSH1 0x0 MSTORE PUSH1 0x20 PUSH1 0x0 KECCAK256 SWAP1 JUMPDEST DUP2 SLOAD DUP2 MSTORE SWAP1 PUSH1 0x1 ADD SWAP1 PUSH1 0x20 ADD DUP1 DUP4 GT PUSH2 0x3E5 JUMPI DUP3 SWAP1 SUB PUSH1 0x1F AND DUP3 ADD SWAP2 JUMPDEST POP POP POP POP POP DUP4 DUP4 DUP1 PUSH1 0x1 ADD SWAP5 POP DUP2 MLOAD DUP2 LT PUSH2 0x419 JUMPI INVALID JUMPDEST PUSH1 0x20 MUL PUSH1 0x20 ADD ADD DUP2 SWAP1 MSTORE POP JUMPDEST PUSH1 0x1 ADD PUSH2 0x30B JUMP JUMPDEST POP PUSH1 0x60 DUP2 PUSH8 0xFFFFFFFFFFFFFFFF DUP2 GT DUP1 ISZERO PUSH2 0x447 JUMPI PUSH1 0x0 DUP1 REVERT JUMPDEST POP PUSH1 0x40 MLOAD SWAP1 DUP1 DUP3 MSTORE DUP1 PUSH1 0x20 MUL PUSH1 0x20 ADD DUP3 ADD PUSH1 0x40 MSTORE DUP1 ISZERO PUSH2 0x481 JUMPI DUP2 PUSH1 0x20 ADD JUMPDEST PUSH2 0x46E PUSH2 0x229C JUMP JUMPDEST DUP2 MSTORE PUSH1 0x20 ADD SWAP1 PUSH1 0x1 SWAP1 SUB SWAP1 DUP2 PUSH2 0x466 JUMPI SWAP1 POP JUMPDEST POP SWAP1 POP PUSH1 0x0 JUMPDEST DUP3 DUP2 LT ISZERO PUSH2 0x86D JUMPI PUSH1 0x5 DUP5 DUP3 DUP2 MLOAD DUP2 LT PUSH2 0x49D JUMPI INVALID JUMPDEST PUSH1 0x20 MUL PUSH1 0x20 ADD ADD MLOAD PUSH1 0x40 MLOAD PUSH2 0x4B2 SWAP2 SWAP1 PUSH2 0x2757 JUMP JUMPDEST SWAP1 DUP2 MSTORE PUSH1 0x40 DUP1 MLOAD PUSH1 0x20 SWAP3 DUP2 SWAP1 SUB DUP4 ADD DUP2 KECCAK256 DUP1 SLOAD PUSH1 0x2 PUSH1 0x1 DUP3 AND ISZERO PUSH2 0x100 MUL PUSH1 0x0 NOT ADD SWAP1 SWAP2 AND DIV PUSH1 0x1F DUP2 ADD DUP6 SWAP1 DIV SWAP1 SWAP5 MUL DUP3 ADD PUSH2 0x140 SWAP1 DUP2 ADD SWAP1 SWAP4 MSTORE PUSH2 0x120 DUP3 ADD DUP5 DUP2 MSTORE SWAP2 SWAP4 SWAP1 SWAP3 DUP5 SWAP3 SWAP2 DUP5 SWAP2 DUP5 ADD DUP3 DUP3 DUP1 ISZERO PUSH2 0x54F JUMPI DUP1 PUSH1 0x1F LT PUSH2 0x524 JUMPI PUSH2 0x100 DUP1 DUP4 SLOAD DIV MUL DUP4 MSTORE SWAP2 PUSH1 0x20 ADD SWAP2 PUSH2 0x54F JUMP JUMPDEST DUP3 ADD SWAP2 SWAP1 PUSH1 0x0 MSTORE PUSH1 0x20 PUSH1 0x0 KECCAK256 SWAP1 JUMPDEST DUP2 SLOAD DUP2 MSTORE SWAP1 PUSH1 0x1 ADD SWAP1 PUSH1 0x20 ADD DUP1 DUP4 GT PUSH2 0x532 JUMPI DUP3 SWAP1 SUB PUSH1 0x1F AND DUP3 ADD SWAP2 JUMPDEST POP POP POP SWAP2 DUP4 MSTORE POP POP PUSH1 0x1 DUP3 DUP2 ADD SLOAD PUSH1 0x1 PUSH1 0x1 PUSH1 0xA0 SHL SUB AND PUSH1 0x20 DUP1 DUP5 ADD SWAP2 SWAP1 SWAP2 MSTORE PUSH1 0x2 DUP1 DUP6 ADD DUP1 SLOAD PUSH1 0x40 DUP1 MLOAD PUSH2 0x100 SWAP7 DUP4 AND ISZERO SWAP7 SWAP1 SWAP7 MUL PUSH1 0x0 NOT ADD SWAP1 SWAP2 AND SWAP3 SWAP1 SWAP3 DIV PUSH1 0x1F DUP2 ADD DUP5 SWAP1 DIV DUP5 MUL DUP6 ADD DUP5 ADD DUP4 MSTORE DUP1 DUP6 MSTORE SWAP2 SWAP1 SWAP5 ADD SWAP4 SWAP2 DUP4 ADD DUP3 DUP3 DUP1 ISZERO PUSH2 0x5F9 JUMPI DUP1 PUSH1 0x1F LT PUSH2 0x5CE JUMPI PUSH2 0x100 DUP1 DUP4 SLOAD DIV MUL DUP4 MSTORE SWAP2 PUSH1 0x20 ADD SWAP2 PUSH2 0x5F9 JUMP JUMPDEST DUP3 ADD SWAP2 SWAP1 PUSH1 0x0 MSTORE PUSH1 0x20 PUSH1 0x0 KECCAK256 SWAP1 JUMPDEST DUP2 SLOAD DUP2 MSTORE SWAP1 PUSH1 0x1 ADD SWAP1 PUSH1 0x20 ADD DUP1 DUP4 GT PUSH2 0x5DC JUMPI DUP3 SWAP1 SUB PUSH1 0x1F AND DUP3 ADD SWAP2 JUMPDEST POP POP POP POP POP DUP2 MSTORE PUSH1 0x20 ADD PUSH1 0x3 DUP3 ADD SLOAD DUP2 MSTORE PUSH1 0x20 ADD PUSH1 0x4 DUP3 ADD PUSH1 0x0 SWAP1 SLOAD SWAP1 PUSH2 0x100 EXP SWAP1 DIV PUSH1 0xFF AND ISZERO ISZERO ISZERO ISZERO DUP2 MSTORE PUSH1 0x20 ADD PUSH1 0x5 DUP3 ADD DUP1 SLOAD DUP1 PUSH1 0x20 MUL PUSH1 0x20 ADD PUSH1 0x40 MLOAD SWAP1 DUP2 ADD PUSH1 0x40 MSTORE DUP1 SWAP3 SWAP2 SWAP1 DUP2 DUP2 MSTORE PUSH1 0x20 ADD DUP3 DUP1 SLOAD DUP1 ISZERO PUSH2 0x680 JUMPI PUSH1 0x20 MUL DUP3 ADD SWAP2 SWAP1 PUSH1 0x0 MSTORE PUSH1 0x20 PUSH1 0x0 KECCAK256 SWAP1 JUMPDEST DUP2 SLOAD PUSH1 0x1 PUSH1 0x1 PUSH1 0xA0 SHL SUB AND DUP2 MSTORE PUSH1 0x1 SWAP1 SWAP2 ADD SWAP1 PUSH1 0x20 ADD DUP1 DUP4 GT PUSH2 0x662 JUMPI JUMPDEST POP POP POP POP POP DUP2 MSTORE PUSH1 0x20 ADD PUSH1 0x6 DUP3 ADD DUP1 SLOAD DUP1 PUSH1 0x20 MUL PUSH1 0x20 ADD PUSH1 0x40 MLOAD SWAP1 DUP2 ADD PUSH1 0x40 MSTORE DUP1 SWAP3 SWAP2 SWAP1 DUP2 DUP2 MSTORE PUSH1 0x20 ADD DUP3 DUP1 SLOAD DUP1 ISZERO PUSH2 0x6E2 JUMPI PUSH1 0x20 MUL DUP3 ADD SWAP2 SWAP1 PUSH1 0x0 MSTORE PUSH1 0x20 PUSH1 0x0 KECCAK256 SWAP1 JUMPDEST DUP2 SLOAD PUSH1 0x1 PUSH1 0x1 PUSH1 0xA0 SHL SUB AND DUP2 MSTORE PUSH1 0x1 SWAP1 SWAP2 ADD SWAP1 PUSH1 0x20 ADD DUP1 DUP4 GT PUSH2 0x6C4 JUMPI JUMPDEST POP POP POP POP POP DUP2 MSTORE PUSH1 0x20 ADD PUSH1 0x7 DUP3 ADD DUP1 SLOAD DUP1 PUSH1 0x20 MUL PUSH1 0x20 ADD PUSH1 0x40 MLOAD SWAP1 DUP2 ADD PUSH1 0x40 MSTORE DUP1 SWAP3 SWAP2 SWAP1 DUP2 DUP2 MSTORE PUSH1 0x20 ADD DUP3 DUP1 SLOAD DUP1 ISZERO PUSH2 0x744 JUMPI PUSH1 0x20 MUL DUP3 ADD SWAP2 SWAP1 PUSH1 0x0 MSTORE PUSH1 0x20 PUSH1 0x0 KECCAK256 SWAP1 JUMPDEST DUP2 SLOAD PUSH1 0x1 PUSH1 0x1 PUSH1 0xA0 SHL SUB AND DUP2 MSTORE PUSH1 0x1 SWAP1 SWAP2 ADD SWAP1 PUSH1 0x20 ADD DUP1 DUP4 GT PUSH2 0x726 JUMPI JUMPDEST POP POP POP POP POP DUP2 MSTORE PUSH1 0x20 ADD PUSH1 0x8 DUP3 ADD DUP1 SLOAD DUP1 PUSH1 0x20 MUL PUSH1 0x20 ADD PUSH1 0x40 MLOAD SWAP1 DUP2 ADD PUSH1 0x40 MSTORE DUP1 SWAP3 SWAP2 SWAP1 DUP2 DUP2 MSTORE PUSH1 0x20 ADD PUSH1 0x0 SWAP1 JUMPDEST DUP3 DUP3 LT ISZERO PUSH2 0x846 JUMPI PUSH1 0x0 DUP5 DUP2 MSTORE PUSH1 0x20 SWAP1 DUP2 SWAP1 KECCAK256 PUSH1 0x40 DUP1 MLOAD DUP1 DUP3 ADD DUP3 MSTORE PUSH1 0x2 DUP7 DUP2 MUL SWAP1 SWAP4 ADD DUP1 SLOAD PUSH1 0x1 PUSH1 0x1 PUSH1 0xA0 SHL SUB AND DUP3 MSTORE PUSH1 0x1 DUP1 DUP3 ADD DUP1 SLOAD DUP6 MLOAD PUSH2 0x100 SWAP4 DUP3 AND ISZERO SWAP4 SWAP1 SWAP4 MUL PUSH1 0x0 NOT ADD AND SWAP6 SWAP1 SWAP6 DIV PUSH1 0x1F DUP2 ADD DUP8 SWAP1 DIV DUP8 MUL DUP3 ADD DUP8 ADD SWAP1 SWAP5 MSTORE DUP4 DUP2 MSTORE SWAP2 SWAP5 SWAP1 SWAP4 DUP6 DUP3 ADD SWAP4 SWAP1 SWAP2 DUP4 ADD DUP3 DUP3 DUP1 ISZERO PUSH2 0x82E JUMPI DUP1 PUSH1 0x1F LT PUSH2 0x803 JUMPI PUSH2 0x100 DUP1 DUP4 SLOAD DIV MUL DUP4 MSTORE SWAP2 PUSH1 0x20 ADD SWAP2 PUSH2 0x82E JUMP JUMPDEST DUP3 ADD SWAP2 SWAP1 PUSH1 0x0 MSTORE PUSH1 0x20 PUSH1 0x0 KECCAK256 SWAP1 JUMPDEST DUP2 SLOAD DUP2 MSTORE SWAP1 PUSH1 0x1 ADD SWAP1 PUSH1 0x20 ADD DUP1 DUP4 GT PUSH2 0x811 JUMPI DUP3 SWAP1 SUB PUSH1 0x1F AND DUP3 ADD SWAP2 JUMPDEST POP POP POP POP POP DUP2 MSTORE POP POP DUP2 MSTORE PUSH1 0x20 ADD SWAP1 PUSH1 0x1 ADD SWAP1 PUSH2 0x772 JUMP JUMPDEST POP POP POP POP DUP2 MSTORE POP POP DUP3 DUP3 DUP2 MLOAD DUP2 LT PUSH2 0x85A JUMPI INVALID JUMPDEST PUSH1 0x20 SWAP1 DUP2 MUL SWAP2 SWAP1 SWAP2 ADD ADD MSTORE PUSH1 0x1 ADD PUSH2 0x487 JUMP JUMPDEST POP SWAP5 SWAP4 POP POP POP POP JUMP JUMPDEST PUSH1 0x5 DUP3 PUSH1 0x40 MLOAD PUSH2 0x886 SWAP2 SWAP1 PUSH2 0x2757 JUMP JUMPDEST SWAP1 DUP2 MSTORE PUSH1 0x40 MLOAD SWAP1 DUP2 SWAP1 SUB PUSH1 0x20 ADD SWAP1 KECCAK256 PUSH1 0x5 ADD SLOAD PUSH2 0x8B5 JUMPI PUSH1 0x40 MLOAD PUSH3 0x461BCD PUSH1 0xE5 SHL DUP2 MSTORE PUSH1 0x4 ADD PUSH2 0x1DE SWAP1 PUSH2 0x28A5 JUMP JUMPDEST PUSH2 0x932 PUSH1 0x5 DUP4 PUSH1 0x40 MLOAD PUSH2 0x8C8 SWAP2 SWAP1 PUSH2 0x2757 JUMP JUMPDEST SWAP1 DUP2 MSTORE PUSH1 0x40 DUP1 MLOAD SWAP2 DUP3 SWAP1 SUB PUSH1 0x20 SWAP1 DUP2 ADD DUP4 KECCAK256 PUSH1 0x5 ADD DUP1 SLOAD DUP1 DUP4 MUL DUP6 ADD DUP4 ADD SWAP1 SWAP4 MSTORE DUP3 DUP5 MSTORE SWAP2 SWAP1 DUP4 ADD DUP3 DUP3 DUP1 ISZERO PUSH2 0x927 JUMPI PUSH1 0x20 MUL DUP3 ADD SWAP2 SWAP1 PUSH1 0x0 MSTORE PUSH1 0x20 PUSH1 0x0 KECCAK256 SWAP1 JUMPDEST DUP2 SLOAD PUSH1 0x1 PUSH1 0x1 PUSH1 0xA0 SHL SUB AND DUP2 MSTORE PUSH1 0x1 SWAP1 SWAP2 ADD SWAP1 PUSH1 0x20 ADD DUP1 DUP4 GT PUSH2 0x909 JUMPI JUMPDEST POP POP POP POP POP CALLER PUSH2 0x1E80 JUMP JUMPDEST PUSH2 0x94E JUMPI PUSH1 0x40 MLOAD PUSH3 0x461BCD PUSH1 0xE5 SHL DUP2 MSTORE PUSH1 0x4 ADD PUSH2 0x1DE SWAP1 PUSH2 0x296B JUMP JUMPDEST PUSH2 0x9C9 PUSH1 0x5 DUP4 PUSH1 0x40 MLOAD PUSH2 0x961 SWAP2 SWAP1 PUSH2 0x2757 JUMP JUMPDEST SWAP1 DUP2 MSTORE PUSH1 0x40 DUP1 MLOAD SWAP2 DUP3 SWAP1 SUB PUSH1 0x20 SWAP1 DUP2 ADD DUP4 KECCAK256 PUSH1 0x6 ADD DUP1 SLOAD DUP1 DUP4 MUL DUP6 ADD DUP4 ADD SWAP1 SWAP4 MSTORE DUP3 DUP5 MSTORE SWAP2 SWAP1 DUP4 ADD DUP3 DUP3 DUP1 ISZERO PUSH2 0x927 JUMPI PUSH1 0x20 MUL DUP3 ADD SWAP2 SWAP1 PUSH1 0x0 MSTORE PUSH1 0x20 PUSH1 0x0 KECCAK256 SWAP1 DUP2 SLOAD PUSH1 0x1 PUSH1 0x1 PUSH1 0xA0 SHL SUB AND DUP2 MSTORE PUSH1 0x1 SWAP1 SWAP2 ADD SWAP1 PUSH1 0x20 ADD DUP1 DUP4 GT PUSH2 0x909 JUMPI POP POP POP POP POP CALLER PUSH2 0x1E80 JUMP JUMPDEST ISZERO DUP1 ISZERO PUSH2 0xA4E JUMPI POP PUSH2 0xA4C PUSH1 0x5 DUP4 PUSH1 0x40 MLOAD PUSH2 0x9E4 SWAP2 SWAP1 PUSH2 0x2757 JUMP JUMPDEST SWAP1 DUP2 MSTORE PUSH1 0x40 DUP1 MLOAD SWAP2 DUP3 SWAP1 SUB PUSH1 0x20 SWAP1 DUP2 ADD DUP4 KECCAK256 PUSH1 0x7 ADD DUP1 SLOAD DUP1 DUP4 MUL DUP6 ADD DUP4 ADD SWAP1 SWAP4 MSTORE DUP3 DUP5 MSTORE SWAP2 SWAP1 DUP4 ADD DUP3 DUP3 DUP1 ISZERO PUSH2 0x927 JUMPI PUSH1 0x20 MUL DUP3 ADD SWAP2 SWAP1 PUSH1 0x0 MSTORE PUSH1 0x20 PUSH1 0x0 KECCAK256 SWAP1 DUP2 SLOAD PUSH1 0x1 PUSH1 0x1 PUSH1 0xA0 SHL SUB AND DUP2 MSTORE PUSH1 0x1 SWAP1 SWAP2 ADD SWAP1 PUSH1 0x20 ADD DUP1 DUP4 GT PUSH2 0x909 JUMPI POP POP POP POP POP CALLER PUSH2 0x1E80 JUMP JUMPDEST ISZERO JUMPDEST PUSH2 0xA6A JUMPI PUSH1 0x40 MLOAD PUSH3 0x461BCD PUSH1 0xE5 SHL DUP2 MSTORE PUSH1 0x4 ADD PUSH2 0x1DE SWAP1 PUSH2 0x291D JUMP JUMPDEST PUSH1 0x5 DUP3 PUSH1 0x40 MLOAD PUSH2 0xA7A SWAP2 SWAP1 PUSH2 0x2757 JUMP JUMPDEST SWAP1 DUP2 MSTORE PUSH1 0x40 MLOAD SWAP1 DUP2 SWAP1 SUB PUSH1 0x20 ADD SWAP1 KECCAK256 PUSH1 0x4 ADD SLOAD PUSH1 0xFF AND PUSH2 0xAAC JUMPI PUSH1 0x40 MLOAD PUSH3 0x461BCD PUSH1 0xE5 SHL DUP2 MSTORE PUSH1 0x4 ADD PUSH2 0x1DE SWAP1 PUSH2 0x2944 JUMP JUMPDEST CALLER PUSH1 0x0 SWAP1 DUP2 MSTORE PUSH1 0x3 PUSH1 0x20 MSTORE PUSH1 0x40 SWAP1 KECCAK256 PUSH1 0x2 ADD SLOAD PUSH1 0x1 LT PUSH2 0xADE JUMPI PUSH1 0x40 MLOAD PUSH3 0x461BCD PUSH1 0xE5 SHL DUP2 MSTORE PUSH1 0x4 ADD PUSH2 0x1DE SWAP1 PUSH2 0x2996 JUMP JUMPDEST CALLER PUSH1 0x0 SWAP1 DUP2 MSTORE PUSH1 0x3 PUSH1 0x20 MSTORE PUSH1 0x40 DUP2 KECCAK256 PUSH1 0x2 ADD DUP1 SLOAD PUSH1 0x0 NOT ADD SWAP1 SSTORE DUP2 PUSH1 0x1 DUP2 GT ISZERO PUSH2 0xB04 JUMPI INVALID JUMPDEST EQ ISZERO PUSH2 0xB55 JUMPI PUSH1 0x5 DUP3 PUSH1 0x40 MLOAD PUSH2 0xB1A SWAP2 SWAP1 PUSH2 0x2757 JUMP JUMPDEST SWAP1 DUP2 MSTORE PUSH1 0x40 MLOAD SWAP1 DUP2 SWAP1 SUB PUSH1 0x20 SWAP1 DUP2 ADD SWAP1 SWAP2 KECCAK256 PUSH1 0x6 ADD DUP1 SLOAD PUSH1 0x1 DUP2 ADD DUP3 SSTORE PUSH1 0x0 SWAP2 DUP3 MSTORE SWAP2 SWAP1 KECCAK256 ADD DUP1 SLOAD PUSH1 0x1 PUSH1 0x1 PUSH1 0xA0 SHL SUB NOT AND CALLER OR SWAP1 SSTORE PUSH2 0xB9C JUMP JUMPDEST PUSH1 0x5 DUP3 PUSH1 0x40 MLOAD PUSH2 0xB65 SWAP2 SWAP1 PUSH2 0x2757 JUMP JUMPDEST SWAP1 DUP2 MSTORE PUSH1 0x40 MLOAD SWAP1 DUP2 SWAP1 SUB PUSH1 0x20 SWAP1 DUP2 ADD SWAP1 SWAP2 KECCAK256 PUSH1 0x7 ADD DUP1 SLOAD PUSH1 0x1 DUP2 ADD DUP3 SSTORE PUSH1 0x0 SWAP2 DUP3 MSTORE SWAP2 SWAP1 KECCAK256 ADD DUP1 SLOAD PUSH1 0x1 PUSH1 0x1 PUSH1 0xA0 SHL SUB NOT AND CALLER OR SWAP1 SSTORE JUMPDEST PUSH1 0x5 DUP1 DUP4 PUSH1 0x40 MLOAD PUSH2 0xBAD SWAP2 SWAP1 PUSH2 0x2757 JUMP JUMPDEST SWAP1 DUP2 MSTORE PUSH1 0x40 MLOAD SWAP1 DUP2 SWAP1 SUB PUSH1 0x20 ADD DUP2 KECCAK256 PUSH1 0x7 ADD SLOAD SWAP1 PUSH1 0x5 SWAP1 PUSH2 0xBCF SWAP1 DUP7 SWAP1 PUSH2 0x2757 JUMP JUMPDEST SWAP1 DUP2 MSTORE PUSH1 0x40 MLOAD SWAP1 DUP2 SWAP1 SUB PUSH1 0x20 ADD SWAP1 KECCAK256 PUSH1 0x6 ADD SLOAD ADD EQ ISZERO PUSH2 0xBF2 JUMPI PUSH2 0xBF2 DUP3 PUSH2 0x1ED8 JUMP JUMPDEST POP POP JUMP JUMPDEST PUSH2 0xC58 PUSH1 0x2 DUP1 SLOAD DUP1 PUSH1 0x20 MUL PUSH1 0x20 ADD PUSH1 0x40 MLOAD SWAP1 DUP2 ADD PUSH1 0x40 MSTORE DUP1 SWAP3 SWAP2 SWAP1 DUP2 DUP2 MSTORE PUSH1 0x20 ADD DUP3 DUP1 SLOAD DUP1 ISZERO PUSH2 0x927 JUMPI PUSH1 0x20 MUL DUP3 ADD SWAP2 SWAP1 PUSH1 0x0 MSTORE PUSH1 0x20 PUSH1 0x0 KECCAK256 SWAP1 DUP2 SLOAD PUSH1 0x1 PUSH1 0x1 PUSH1 0xA0 SHL SUB AND DUP2 MSTORE PUSH1 0x1 SWAP1 SWAP2 ADD SWAP1 PUSH1 0x20 ADD DUP1 DUP4 GT PUSH2 0x909 JUMPI POP POP POP POP POP CALLER PUSH2 0x1E80 JUMP JUMPDEST ISZERO PUSH2 0xC75 JUMPI PUSH1 0x40 MLOAD PUSH3 0x461BCD PUSH1 0xE5 SHL DUP2 MSTORE PUSH1 0x4 ADD PUSH2 0x1DE SWAP1 PUSH2 0x29C1 JUMP JUMPDEST PUSH2 0xC7E CALLER PUSH2 0x20BB JUMP JUMPDEST PUSH2 0xC9A JUMPI PUSH1 0x40 MLOAD PUSH3 0x461BCD PUSH1 0xE5 SHL DUP2 MSTORE PUSH1 0x4 ADD PUSH2 0x1DE SWAP1 PUSH2 0x28D1 JUMP JUMPDEST PUSH1 0x2 DUP1 SLOAD PUSH1 0x1 DUP1 DUP3 ADD DUP4 SSTORE PUSH32 0x405787FA12A823E0F2B7631CC41B3BA8828B3321CA811111FA75CD3AA3BB5ACE SWAP1 SWAP2 ADD DUP1 SLOAD CALLER PUSH1 0x1 PUSH1 0x1 PUSH1 0xA0 SHL SUB NOT SWAP2 DUP3 AND DUP2 OR SWAP1 SWAP3 SSTORE PUSH1 0x0 DUP3 DUP2 MSTORE PUSH1 0x3 PUSH1 0x20 MSTORE PUSH1 0x40 DUP2 KECCAK256 DUP1 SLOAD SWAP1 SWAP3 AND SWAP1 SWAP3 OR DUP2 SSTORE PUSH1 0x5 SWAP4 DUP2 ADD SWAP4 SWAP1 SWAP4 SSTORE SWAP2 ADD SSTORE JUMP JUMPDEST CALLER PUSH1 0x0 SWAP1 DUP2 MSTORE PUSH1 0x3 PUSH1 0x20 MSTORE PUSH1 0x40 SWAP1 KECCAK256 PUSH1 0x2 ADD SLOAD PUSH1 0x1 LT PUSH2 0xD35 JUMPI PUSH1 0x40 MLOAD PUSH3 0x461BCD PUSH1 0xE5 SHL DUP2 MSTORE PUSH1 0x4 ADD PUSH2 0x1DE SWAP1 PUSH2 0x2996 JUMP JUMPDEST CALLER PUSH1 0x0 SWAP1 DUP2 MSTORE PUSH1 0x3 PUSH1 0x20 SWAP1 DUP2 MSTORE PUSH1 0x40 DUP3 KECCAK256 PUSH1 0x2 ADD DUP1 SLOAD PUSH1 0x0 NOT ADD SWAP1 SSTORE PUSH1 0x4 DUP1 SLOAD PUSH1 0x1 DUP2 ADD DUP3 SSTORE SWAP3 MSTORE DUP4 MLOAD PUSH2 0xD8E SWAP3 PUSH32 0x8A35ACFBC15FF81A39AE7D344FD709F28E8600B4AA8C65C6B64BFE7FE36BD19B ADD SWAP2 DUP6 ADD SWAP1 PUSH2 0x221E JUMP JUMPDEST POP DUP2 PUSH1 0x5 DUP4 PUSH1 0x40 MLOAD PUSH2 0xDA0 SWAP2 SWAP1 PUSH2 0x2757 JUMP JUMPDEST SWAP1 DUP2 MSTORE PUSH1 0x20 ADD PUSH1 0x40 MLOAD DUP1 SWAP2 SUB SWAP1 KECCAK256 PUSH1 0x0 ADD SWAP1 DUP1 MLOAD SWAP1 PUSH1 0x20 ADD SWAP1 PUSH2 0xDC4 SWAP3 SWAP2 SWAP1 PUSH2 0x221E JUMP JUMPDEST POP CALLER PUSH1 0x5 DUP4 PUSH1 0x40 MLOAD PUSH2 0xDD6 SWAP2 SWAP1 PUSH2 0x2757 JUMP JUMPDEST SWAP1 DUP2 MSTORE PUSH1 0x20 ADD PUSH1 0x40 MLOAD DUP1 SWAP2 SUB SWAP1 KECCAK256 PUSH1 0x1 ADD PUSH1 0x0 PUSH2 0x100 EXP DUP2 SLOAD DUP2 PUSH1 0x1 PUSH1 0x1 PUSH1 0xA0 SHL SUB MUL NOT AND SWAP1 DUP4 PUSH1 0x1 PUSH1 0x1 PUSH1 0xA0 SHL SUB AND MUL OR SWAP1 SSTORE POP DUP1 PUSH1 0x5 DUP4 PUSH1 0x40 MLOAD PUSH2 0xE1C SWAP2 SWAP1 PUSH2 0x2757 JUMP JUMPDEST SWAP1 DUP2 MSTORE PUSH1 0x20 ADD PUSH1 0x40 MLOAD DUP1 SWAP2 SUB SWAP1 KECCAK256 PUSH1 0x2 ADD SWAP1 DUP1 MLOAD SWAP1 PUSH1 0x20 ADD SWAP1 PUSH2 0xE40 SWAP3 SWAP2 SWAP1 PUSH2 0x221E JUMP JUMPDEST POP TIMESTAMP PUSH1 0x5 DUP4 PUSH1 0x40 MLOAD PUSH2 0xE52 SWAP2 SWAP1 PUSH2 0x2757 JUMP JUMPDEST SWAP1 DUP2 MSTORE PUSH1 0x20 ADD PUSH1 0x40 MLOAD DUP1 SWAP2 SUB SWAP1 KECCAK256 PUSH1 0x3 ADD DUP2 SWAP1 SSTORE POP PUSH1 0x1 PUSH1 0x5 DUP4 PUSH1 0x40 MLOAD PUSH2 0xE79 SWAP2 SWAP1 PUSH2 0x2757 JUMP JUMPDEST SWAP1 DUP2 MSTORE PUSH1 0x40 DUP1 MLOAD PUSH1 0x20 SWAP3 DUP2 SWAP1 SUB DUP4 ADD DUP2 KECCAK256 PUSH1 0x4 ADD DUP1 SLOAD PUSH1 0xFF NOT AND SWAP5 ISZERO ISZERO SWAP5 SWAP1 SWAP5 OR SWAP1 SWAP4 SSTORE PUSH1 0x2 DUP1 SLOAD DUP1 DUP5 MUL DUP6 ADD DUP5 ADD SWAP1 SWAP3 MSTORE DUP2 DUP5 MSTORE PUSH2 0xEFB SWAP4 SWAP3 SWAP1 SWAP2 SWAP1 DUP4 ADD DUP3 DUP3 DUP1 ISZERO PUSH2 0xEEF JUMPI PUSH1 0x20 MUL DUP3 ADD SWAP2 SWAP1 PUSH1 0x0 MSTORE PUSH1 0x20 PUSH1 0x0 KECCAK256 SWAP1 JUMPDEST DUP2 SLOAD PUSH1 0x1 PUSH1 0x1 PUSH1 0xA0 SHL SUB AND DUP2 MSTORE PUSH1 0x1 SWAP1 SWAP2 ADD SWAP1 PUSH1 0x20 ADD DUP1 DUP4 GT PUSH2 0xED1 JUMPI JUMPDEST POP POP POP POP POP PUSH1 0xA PUSH2 0x213C JUMP JUMPDEST PUSH1 0x5 DUP4 PUSH1 0x40 MLOAD PUSH2 0xF0B SWAP2 SWAP1 PUSH2 0x2757 JUMP JUMPDEST SWAP1 DUP2 MSTORE PUSH1 0x20 ADD PUSH1 0x40 MLOAD DUP1 SWAP2 SUB SWAP1 KECCAK256 PUSH1 0x5 ADD SWAP1 DUP1 MLOAD SWAP1 PUSH1 0x20 ADD SWAP1 PUSH2 0xF2F SWAP3 SWAP2 SWAP1 PUSH2 0x22F3 JUMP JUMPDEST POP POP POP JUMP JUMPDEST PUSH2 0xF3C PUSH2 0x2354 JUMP JUMPDEST POP PUSH1 0x1 PUSH1 0x1 PUSH1 0xA0 SHL SUB SWAP1 DUP2 AND PUSH1 0x0 SWAP1 DUP2 MSTORE PUSH1 0x3 PUSH1 0x20 SWAP1 DUP2 MSTORE PUSH1 0x40 SWAP2 DUP3 SWAP1 KECCAK256 DUP3 MLOAD PUSH1 0x60 DUP2 ADD DUP5 MSTORE DUP2 SLOAD SWAP1 SWAP5 AND DUP5 MSTORE PUSH1 0x1 DUP2 ADD SLOAD SWAP2 DUP5 ADD SWAP2 SWAP1 SWAP2 MSTORE PUSH1 0x2 ADD SLOAD SWAP1 DUP3 ADD MSTORE SWAP1 JUMP JUMPDEST PUSH2 0xF88 PUSH2 0x229C JUMP JUMPDEST PUSH1 0x5 DUP3 PUSH1 0x40 MLOAD PUSH2 0xF98 SWAP2 SWAP1 PUSH2 0x2757 JUMP JUMPDEST SWAP1 DUP2 MSTORE PUSH1 0x40 DUP1 MLOAD PUSH1 0x20 SWAP3 DUP2 SWAP1 SUB DUP4 ADD DUP2 KECCAK256 DUP1 SLOAD PUSH1 0x2 PUSH1 0x1 DUP3 AND ISZERO PUSH2 0x100 MUL PUSH1 0x0 NOT ADD SWAP1 SWAP2 AND DIV PUSH1 0x1F DUP2 ADD DUP6 SWAP1 DIV SWAP1 SWAP5 MUL DUP3 ADD PUSH2 0x140 SWAP1 DUP2 ADD SWAP1 SWAP4 MSTORE PUSH2 0x120 DUP3 ADD DUP5 DUP2 MSTORE SWAP2 SWAP4 SWAP1 SWAP3 DUP5 SWAP3 SWAP2 DUP5 SWAP2 DUP5 ADD DUP3 DUP3 DUP1 ISZERO PUSH2 0x1035 JUMPI DUP1 PUSH1 0x1F LT PUSH2 0x100A JUMPI PUSH2 0x100 DUP1 DUP4 SLOAD DIV MUL DUP4 MSTORE SWAP2 PUSH1 0x20 ADD SWAP2 PUSH2 0x1035 JUMP JUMPDEST DUP3 ADD SWAP2 SWAP1 PUSH1 0x0 MSTORE PUSH1 0x20 PUSH1 0x0 KECCAK256 SWAP1 JUMPDEST DUP2 SLOAD DUP2 MSTORE SWAP1 PUSH1 0x1 ADD SWAP1 PUSH1 0x20 ADD DUP1 DUP4 GT PUSH2 0x1018 JUMPI DUP3 SWAP1 SUB PUSH1 0x1F AND DUP3 ADD SWAP2 JUMPDEST POP POP POP SWAP2 DUP4 MSTORE POP POP PUSH1 0x1 DUP3 DUP2 ADD SLOAD PUSH1 0x1 PUSH1 0x1 PUSH1 0xA0 SHL SUB AND PUSH1 0x20 DUP1 DUP5 ADD SWAP2 SWAP1 SWAP2 MSTORE PUSH1 0x2 DUP1 DUP6 ADD DUP1 SLOAD PUSH1 0x40 DUP1 MLOAD PUSH2 0x100 SWAP7 DUP4 AND ISZERO SWAP7 SWAP1 SWAP7 MUL PUSH1 0x0 NOT ADD SWAP1 SWAP2 AND SWAP3 SWAP1 SWAP3 DIV PUSH1 0x1F DUP2 ADD DUP5 SWAP1 DIV DUP5 MUL DUP6 ADD DUP5 ADD DUP4 MSTORE DUP1 DUP6 MSTORE SWAP2 SWAP1 SWAP5 ADD SWAP4 SWAP2 DUP4 ADD DUP3 DUP3 DUP1 ISZERO PUSH2 0x10DF JUMPI DUP1 PUSH1 0x1F LT PUSH2 0x10B4 JUMPI PUSH2 0x100 DUP1 DUP4 SLOAD DIV MUL DUP4 MSTORE SWAP2 PUSH1 0x20 ADD SWAP2 PUSH2 0x10DF JUMP JUMPDEST DUP3 ADD SWAP2 SWAP1 PUSH1 0x0 MSTORE PUSH1 0x20 PUSH1 0x0 KECCAK256 SWAP1 JUMPDEST DUP2 SLOAD DUP2 MSTORE SWAP1 PUSH1 0x1 ADD SWAP1 PUSH1 0x20 ADD DUP1 DUP4 GT PUSH2 0x10C2 JUMPI DUP3 SWAP1 SUB PUSH1 0x1F AND DUP3 ADD SWAP2 JUMPDEST POP POP POP POP POP DUP2 MSTORE PUSH1 0x20 ADD PUSH1 0x3 DUP3 ADD SLOAD DUP2 MSTORE PUSH1 0x20 ADD PUSH1 0x4 DUP3 ADD PUSH1 0x0 SWAP1 SLOAD SWAP1 PUSH2 0x100 EXP SWAP1 DIV PUSH1 0xFF AND ISZERO ISZERO ISZERO ISZERO DUP2 MSTORE PUSH1 0x20 ADD PUSH1 0x5 DUP3 ADD DUP1 SLOAD DUP1 PUSH1 0x20 MUL PUSH1 0x20 ADD PUSH1 0x40 MLOAD SWAP1 DUP2 ADD PUSH1 0x40 MSTORE DUP1 SWAP3 SWAP2 SWAP1 DUP2 DUP2 MSTORE PUSH1 0x20 ADD DUP3 DUP1 SLOAD DUP1 ISZERO PUSH2 0x1166 JUMPI PUSH1 0x20 MUL DUP3 ADD SWAP2 SWAP1 PUSH1 0x0 MSTORE PUSH1 0x20 PUSH1 0x0 KECCAK256 SWAP1 JUMPDEST DUP2 SLOAD PUSH1 0x1 PUSH1 0x1 PUSH1 0xA0 SHL SUB AND DUP2 MSTORE PUSH1 0x1 SWAP1 SWAP2 ADD SWAP1 PUSH1 0x20 ADD DUP1 DUP4 GT PUSH2 0x1148 JUMPI JUMPDEST POP POP POP POP POP DUP2 MSTORE PUSH1 0x20 ADD PUSH1 0x6 DUP3 ADD DUP1 SLOAD DUP1 PUSH1 0x20 MUL PUSH1 0x20 ADD PUSH1 0x40 MLOAD SWAP1 DUP2 ADD PUSH1 0x40 MSTORE DUP1 SWAP3 SWAP2 SWAP1 DUP2 DUP2 MSTORE PUSH1 0x20 ADD DUP3 DUP1 SLOAD DUP1 ISZERO PUSH2 0x11C8 JUMPI PUSH1 0x20 MUL DUP3 ADD SWAP2 SWAP1 PUSH1 0x0 MSTORE PUSH1 0x20 PUSH1 0x0 KECCAK256 SWAP1 JUMPDEST DUP2 SLOAD PUSH1 0x1 PUSH1 0x1 PUSH1 0xA0 SHL SUB AND DUP2 MSTORE PUSH1 0x1 SWAP1 SWAP2 ADD SWAP1 PUSH1 0x20 ADD DUP1 DUP4 GT PUSH2 0x11AA JUMPI JUMPDEST POP POP POP POP POP DUP2 MSTORE PUSH1 0x20 ADD PUSH1 0x7 DUP3 ADD DUP1 SLOAD DUP1 PUSH1 0x20 MUL PUSH1 0x20 ADD PUSH1 0x40 MLOAD SWAP1 DUP2 ADD PUSH1 0x40 MSTORE DUP1 SWAP3 SWAP2 SWAP1 DUP2 DUP2 MSTORE PUSH1 0x20 ADD DUP3 DUP1 SLOAD DUP1 ISZERO PUSH2 0x122A JUMPI PUSH1 0x20 MUL DUP3 ADD SWAP2 SWAP1 PUSH1 0x0 MSTORE PUSH1 0x20 PUSH1 0x0 KECCAK256 SWAP1 JUMPDEST DUP2 SLOAD PUSH1 0x1 PUSH1 0x1 PUSH1 0xA0 SHL SUB AND DUP2 MSTORE PUSH1 0x1 SWAP1 SWAP2 ADD SWAP1 PUSH1 0x20 ADD DUP1 DUP4 GT PUSH2 0x120C JUMPI JUMPDEST POP POP POP POP POP DUP2 MSTORE PUSH1 0x20 ADD PUSH1 0x8 DUP3 ADD DUP1 SLOAD DUP1 PUSH1 0x20 MUL PUSH1 0x20 ADD PUSH1 0x40 MLOAD SWAP1 DUP2 ADD PUSH1 0x40 MSTORE DUP1 SWAP3 SWAP2 SWAP1 DUP2 DUP2 MSTORE PUSH1 0x20 ADD PUSH1 0x0 SWAP1 JUMPDEST DUP3 DUP3 LT ISZERO PUSH2 0x132C JUMPI PUSH1 0x0 DUP5 DUP2 MSTORE PUSH1 0x20 SWAP1 DUP2 SWAP1 KECCAK256 PUSH1 0x40 DUP1 MLOAD DUP1 DUP3 ADD DUP3 MSTORE PUSH1 0x2 DUP7 DUP2 MUL SWAP1 SWAP4 ADD DUP1 SLOAD PUSH1 0x1 PUSH1 0x1 PUSH1 0xA0 SHL SUB AND DUP3 MSTORE PUSH1 0x1 DUP1 DUP3 ADD DUP1 SLOAD DUP6 MLOAD PUSH2 0x100 SWAP4 DUP3 AND ISZERO SWAP4 SWAP1 SWAP4 MUL PUSH1 0x0 NOT ADD AND SWAP6 SWAP1 SWAP6 DIV PUSH1 0x1F DUP2 ADD DUP8 SWAP1 DIV DUP8 MUL DUP3 ADD DUP8 ADD SWAP1 SWAP5 MSTORE DUP4 DUP2 MSTORE SWAP2 SWAP5 SWAP1 SWAP4 DUP6 DUP3 ADD SWAP4 SWAP1 SWAP2 DUP4 ADD DUP3 DUP3 DUP1 ISZERO PUSH2 0x1314 JUMPI DUP1 PUSH1 0x1F LT PUSH2 0x12E9 JUMPI PUSH2 0x100 DUP1 DUP4 SLOAD DIV MUL DUP4 MSTORE SWAP2 PUSH1 0x20 ADD SWAP2 PUSH2 0x1314 JUMP JUMPDEST DUP3 ADD SWAP2 SWAP1 PUSH1 0x0 MSTORE PUSH1 0x20 PUSH1 0x0 KECCAK256 SWAP1 JUMPDEST DUP2 SLOAD DUP2 MSTORE SWAP1 PUSH1 0x1 ADD SWAP1 PUSH1 0x20 ADD DUP1 DUP4 GT PUSH2 0x12F7 JUMPI DUP3 SWAP1 SUB PUSH1 0x1F AND DUP3 ADD SWAP2 JUMPDEST POP POP POP POP POP DUP2 MSTORE POP POP DUP2 MSTORE PUSH1 0x20 ADD SWAP1 PUSH1 0x1 ADD SWAP1 PUSH2 0x1258 JUMP JUMPDEST POP POP POP SWAP2 MSTORE POP SWAP1 SWAP4 SWAP3 POP POP POP JUMP JUMPDEST PUSH1 0x4 SLOAD PUSH1 0x60 SWAP1 DUP2 SWAP1 PUSH8 0xFFFFFFFFFFFFFFFF DUP2 GT DUP1 ISZERO PUSH2 0x1358 JUMPI PUSH1 0x0 DUP1 REVERT JUMPDEST POP PUSH1 0x40 MLOAD SWAP1 DUP1 DUP3 MSTORE DUP1 PUSH1 0x20 MUL PUSH1 0x20 ADD DUP3 ADD PUSH1 0x40 MSTORE DUP1 ISZERO PUSH2 0x1392 JUMPI DUP2 PUSH1 0x20 ADD JUMPDEST PUSH2 0x137F PUSH2 0x229C JUMP JUMPDEST DUP2 MSTORE PUSH1 0x20 ADD SWAP1 PUSH1 0x1 SWAP1 SUB SWAP1 DUP2 PUSH2 0x1377 JUMPI SWAP1 POP JUMPDEST POP SWAP1 POP PUSH1 0x0 JUMPDEST PUSH1 0x4 SLOAD DUP2 LT ISZERO PUSH2 0x1783 JUMPI PUSH1 0x5 PUSH1 0x4 DUP3 DUP2 SLOAD DUP2 LT PUSH2 0x13B1 JUMPI INVALID JUMPDEST SWAP1 PUSH1 0x0 MSTORE PUSH1 0x20 PUSH1 0x0 KECCAK256 ADD PUSH1 0x40 MLOAD PUSH2 0x13C8 SWAP2 SWAP1 PUSH2 0x2773 JUMP JUMPDEST SWAP1 DUP2 MSTORE PUSH1 0x40 DUP1 MLOAD PUSH1 0x20 SWAP3 DUP2 SWAP1 SUB DUP4 ADD DUP2 KECCAK256 DUP1 SLOAD PUSH1 0x2 PUSH1 0x1 DUP3 AND ISZERO PUSH2 0x100 MUL PUSH1 0x0 NOT ADD SWAP1 SWAP2 AND DIV PUSH1 0x1F DUP2 ADD DUP6 SWAP1 DIV SWAP1 SWAP5 MUL DUP3 ADD PUSH2 0x140 SWAP1 DUP2 ADD SWAP1 SWAP4 MSTORE PUSH2 0x120 DUP3 ADD DUP5 DUP2 MSTORE SWAP2 SWAP4 SWAP1 SWAP3 DUP5 SWAP3 SWAP2 DUP5 SWAP2 DUP5 ADD DUP3 DUP3 DUP1 ISZERO PUSH2 0x1465 JUMPI DUP1 PUSH1 0x1F LT PUSH2 0x143A JUMPI PUSH2 0x100 DUP1 DUP4 SLOAD DIV MUL DUP4 MSTORE SWAP2 PUSH1 0x20 ADD SWAP2 PUSH2 0x1465 JUMP JUMPDEST DUP3 ADD SWAP2 SWAP1 PUSH1 0x0 MSTORE PUSH1 0x20 PUSH1 0x0 KECCAK256 SWAP1 JUMPDEST DUP2 SLOAD DUP2 MSTORE SWAP1 PUSH1 0x1 ADD SWAP1 PUSH1 0x20 ADD DUP1 DUP4 GT PUSH2 0x1448 JUMPI DUP3 SWAP1 SUB PUSH1 0x1F AND DUP3 ADD SWAP2 JUMPDEST POP POP POP SWAP2 DUP4 MSTORE POP POP PUSH1 0x1 DUP3 DUP2 ADD SLOAD PUSH1 0x1 PUSH1 0x1 PUSH1 0xA0 SHL SUB AND PUSH1 0x20 DUP1 DUP5 ADD SWAP2 SWAP1 SWAP2 MSTORE PUSH1 0x2 DUP1 DUP6 ADD DUP1 SLOAD PUSH1 0x40 DUP1 MLOAD PUSH2 0x100 SWAP7 DUP4 AND ISZERO SWAP7 SWAP1 SWAP7 MUL PUSH1 0x0 NOT ADD SWAP1 SWAP2 AND SWAP3 SWAP1 SWAP3 DIV PUSH1 0x1F DUP2 ADD DUP5 SWAP1 DIV DUP5 MUL DUP6 ADD DUP5 ADD DUP4 MSTORE DUP1 DUP6 MSTORE SWAP2 SWAP1 SWAP5 ADD SWAP4 SWAP2 DUP4 ADD DUP3 DUP3 DUP1 ISZERO PUSH2 0x150F JUMPI DUP1 PUSH1 0x1F LT PUSH2 0x14E4 JUMPI PUSH2 0x100 DUP1 DUP4 SLOAD DIV MUL DUP4 MSTORE SWAP2 PUSH1 0x20 ADD SWAP2 PUSH2 0x150F JUMP JUMPDEST DUP3 ADD SWAP2 SWAP1 PUSH1 0x0 MSTORE PUSH1 0x20 PUSH1 0x0 KECCAK256 SWAP1 JUMPDEST DUP2 SLOAD DUP2 MSTORE SWAP1 PUSH1 0x1 ADD SWAP1 PUSH1 0x20 ADD DUP1 DUP4 GT PUSH2 0x14F2 JUMPI DUP3 SWAP1 SUB PUSH1 0x1F AND DUP3 ADD SWAP2 JUMPDEST POP POP POP POP POP DUP2 MSTORE PUSH1 0x20 ADD PUSH1 0x3 DUP3 ADD SLOAD DUP2 MSTORE PUSH1 0x20 ADD PUSH1 0x4 DUP3 ADD PUSH1 0x0 SWAP1 SLOAD SWAP1 PUSH2 0x100 EXP SWAP1 DIV PUSH1 0xFF AND ISZERO ISZERO ISZERO ISZERO DUP2 MSTORE PUSH1 0x20 ADD PUSH1 0x5 DUP3 ADD DUP1 SLOAD DUP1 PUSH1 0x20 MUL PUSH1 0x20 ADD PUSH1 0x40 MLOAD SWAP1 DUP2 ADD PUSH1 0x40 MSTORE DUP1 SWAP3 SWAP2 SWAP1 DUP2 DUP2 MSTORE PUSH1 0x20 ADD DUP3 DUP1 SLOAD DUP1 ISZERO PUSH2 0x1596 JUMPI PUSH1 0x20 MUL DUP3 ADD SWAP2 SWAP1 PUSH1 0x0 MSTORE PUSH1 0x20 PUSH1 0x0 KECCAK256 SWAP1 JUMPDEST DUP2 SLOAD PUSH1 0x1 PUSH1 0x1 PUSH1 0xA0 SHL SUB AND DUP2 MSTORE PUSH1 0x1 SWAP1 SWAP2 ADD SWAP1 PUSH1 0x20 ADD DUP1 DUP4 GT PUSH2 0x1578 JUMPI JUMPDEST POP POP POP POP POP DUP2 MSTORE PUSH1 0x20 ADD PUSH1 0x6 DUP3 ADD DUP1 SLOAD DUP1 PUSH1 0x20 MUL PUSH1 0x20 ADD PUSH1 0x40 MLOAD SWAP1 DUP2 ADD PUSH1 0x40 MSTORE DUP1 SWAP3 SWAP2 SWAP1 DUP2 DUP2 MSTORE PUSH1 0x20 ADD DUP3 DUP1 SLOAD DUP1 ISZERO PUSH2 0x15F8 JUMPI PUSH1 0x20 MUL DUP3 ADD SWAP2 SWAP1 PUSH1 0x0 MSTORE PUSH1 0x20 PUSH1 0x0 KECCAK256 SWAP1 JUMPDEST DUP2 SLOAD PUSH1 0x1 PUSH1 0x1 PUSH1 0xA0 SHL SUB AND DUP2 MSTORE PUSH1 0x1 SWAP1 SWAP2 ADD SWAP1 PUSH1 0x20 ADD DUP1 DUP4 GT PUSH2 0x15DA JUMPI JUMPDEST POP POP POP POP POP DUP2 MSTORE PUSH1 0x20 ADD PUSH1 0x7 DUP3 ADD DUP1 SLOAD DUP1 PUSH1 0x20 MUL PUSH1 0x20 ADD PUSH1 0x40 MLOAD SWAP1 DUP2 ADD PUSH1 0x40 MSTORE DUP1 SWAP3 SWAP2 SWAP1 DUP2 DUP2 MSTORE PUSH1 0x20 ADD DUP3 DUP1 SLOAD DUP1 ISZERO PUSH2 0x165A JUMPI PUSH1 0x20 MUL DUP3 ADD SWAP2 SWAP1 PUSH1 0x0 MSTORE PUSH1 0x20 PUSH1 0x0 KECCAK256 SWAP1 JUMPDEST DUP2 SLOAD PUSH1 0x1 PUSH1 0x1 PUSH1 0xA0 SHL SUB AND DUP2 MSTORE PUSH1 0x1 SWAP1 SWAP2 ADD SWAP1 PUSH1 0x20 ADD DUP1 DUP4 GT PUSH2 0x163C JUMPI JUMPDEST POP POP POP POP POP DUP2 MSTORE PUSH1 0x20 ADD PUSH1 0x8 DUP3 ADD DUP1 SLOAD DUP1 PUSH1 0x20 MUL PUSH1 0x20 ADD PUSH1 0x40 MLOAD SWAP1 DUP2 ADD PUSH1 0x40 MSTORE DUP1 SWAP3 SWAP2 SWAP1 DUP2 DUP2 MSTORE PUSH1 0x20 ADD PUSH1 0x0 SWAP1 JUMPDEST DUP3 DUP3 LT ISZERO PUSH2 0x175C JUMPI PUSH1 0x0 DUP5 DUP2 MSTORE PUSH1 0x20 SWAP1 DUP2 SWAP1 KECCAK256 PUSH1 0x40 DUP1 MLOAD DUP1 DUP3 ADD DUP3 MSTORE PUSH1 0x2 DUP7 DUP2 MUL SWAP1 SWAP4 ADD DUP1 SLOAD PUSH1 0x1 PUSH1 0x1 PUSH1 0xA0 SHL SUB AND DUP3 MSTORE PUSH1 0x1 DUP1 DUP3 ADD DUP1 SLOAD DUP6 MLOAD PUSH2 0x100 SWAP4 DUP3 AND ISZERO SWAP4 SWAP1 SWAP4 MUL PUSH1 0x0 NOT ADD AND SWAP6 SWAP1 SWAP6 DIV PUSH1 0x1F DUP2 ADD DUP8 SWAP1 DIV DUP8 MUL DUP3 ADD DUP8 ADD SWAP1 SWAP5 MSTORE DUP4 DUP2 MSTORE SWAP2 SWAP5 SWAP1 SWAP4 DUP6 DUP3 ADD SWAP4 SWAP1 SWAP2 DUP4 ADD DUP3 DUP3 DUP1 ISZERO PUSH2 0x1744 JUMPI DUP1 PUSH1 0x1F LT PUSH2 0x1719 JUMPI PUSH2 0x100 DUP1 DUP4 SLOAD DIV MUL DUP4 MSTORE SWAP2 PUSH1 0x20 ADD SWAP2 PUSH2 0x1744 JUMP JUMPDEST DUP3 ADD SWAP2 SWAP1 PUSH1 0x0 MSTORE PUSH1 0x20 PUSH1 0x0 KECCAK256 SWAP1 JUMPDEST DUP2 SLOAD DUP2 MSTORE SWAP1 PUSH1 0x1 ADD SWAP1 PUSH1 0x20 ADD DUP1 DUP4 GT PUSH2 0x1727 JUMPI DUP3 SWAP1 SUB PUSH1 0x1F AND DUP3 ADD SWAP2 JUMPDEST POP POP POP POP POP DUP2 MSTORE POP POP DUP2 MSTORE PUSH1 0x20 ADD SWAP1 PUSH1 0x1 ADD SWAP1 PUSH2 0x1688 JUMP JUMPDEST POP POP POP POP DUP2 MSTORE POP POP DUP3 DUP3 DUP2 MLOAD DUP2 LT PUSH2 0x1770 JUMPI INVALID JUMPDEST PUSH1 0x20 SWAP1 DUP2 MUL SWAP2 SWAP1 SWAP2 ADD ADD MSTORE PUSH1 0x1 ADD PUSH2 0x1398 JUMP JUMPDEST POP SWAP1 POP SWAP1 JUMP JUMPDEST PUSH1 0x4 SLOAD PUSH1 0x60 SWAP1 DUP2 SWAP1 PUSH8 0xFFFFFFFFFFFFFFFF DUP2 GT DUP1 ISZERO PUSH2 0x17A7 JUMPI PUSH1 0x0 DUP1 REVERT JUMPDEST POP PUSH1 0x40 MLOAD SWAP1 DUP1 DUP3 MSTORE DUP1 PUSH1 0x20 MUL PUSH1 0x20 ADD DUP3 ADD PUSH1 0x40 MSTORE DUP1 ISZERO PUSH2 0x17DB JUMPI DUP2 PUSH1 0x20 ADD JUMPDEST PUSH1 0x60 DUP2 MSTORE PUSH1 0x20 ADD SWAP1 PUSH1 0x1 SWAP1 SUB SWAP1 DUP2 PUSH2 0x17C6 JUMPI SWAP1 POP JUMPDEST POP SWAP1 POP PUSH1 0x0 DUP1 JUMPDEST PUSH1 0x4 SLOAD DUP2 LT ISZERO PUSH2 0x194A JUMPI PUSH2 0x187F PUSH1 0x5 PUSH1 0x4 DUP4 DUP2 SLOAD DUP2 LT PUSH2 0x17FE JUMPI INVALID JUMPDEST SWAP1 PUSH1 0x0 MSTORE PUSH1 0x20 PUSH1 0x0 KECCAK256 ADD PUSH1 0x40 MLOAD PUSH2 0x1815 SWAP2 SWAP1 PUSH2 0x2773 JUMP JUMPDEST SWAP1 DUP2 MSTORE PUSH1 0x40 DUP1 MLOAD SWAP2 DUP3 SWAP1 SUB PUSH1 0x20 SWAP1 DUP2 ADD DUP4 KECCAK256 PUSH1 0x5 ADD DUP1 SLOAD DUP1 DUP4 MUL DUP6 ADD DUP4 ADD SWAP1 SWAP4 MSTORE DUP3 DUP5 MSTORE SWAP2 SWAP1 DUP4 ADD DUP3 DUP3 DUP1 ISZERO PUSH2 0x1874 JUMPI PUSH1 0x20 MUL DUP3 ADD SWAP2 SWAP1 PUSH1 0x0 MSTORE PUSH1 0x20 PUSH1 0x0 KECCAK256 SWAP1 JUMPDEST DUP2 SLOAD PUSH1 0x1 PUSH1 0x1 PUSH1 0xA0 SHL SUB AND DUP2 MSTORE PUSH1 0x1 SWAP1 SWAP2 ADD SWAP1 PUSH1 0x20 ADD DUP1 DUP4 GT PUSH2 0x1856 JUMPI JUMPDEST POP POP POP POP POP DUP7 PUSH2 0x1E80 JUMP JUMPDEST ISZERO PUSH2 0x1942 JUMPI PUSH1 0x4 DUP2 DUP2 SLOAD DUP2 LT PUSH2 0x1891 JUMPI INVALID JUMPDEST PUSH1 0x0 SWAP2 DUP3 MSTORE PUSH1 0x20 SWAP2 DUP3 SWAP1 KECCAK256 ADD DUP1 SLOAD PUSH1 0x40 DUP1 MLOAD PUSH1 0x1F PUSH1 0x2 PUSH1 0x0 NOT PUSH2 0x100 PUSH1 0x1 DUP8 AND ISZERO MUL ADD SWAP1 SWAP5 AND SWAP4 SWAP1 SWAP4 DIV SWAP3 DUP4 ADD DUP6 SWAP1 DIV DUP6 MUL DUP2 ADD DUP6 ADD SWAP1 SWAP2 MSTORE DUP2 DUP2 MSTORE SWAP3 DUP4 ADD DUP3 DUP3 DUP1 ISZERO PUSH2 0x191F JUMPI DUP1 PUSH1 0x1F LT PUSH2 0x18F4 JUMPI PUSH2 0x100 DUP1 DUP4 SLOAD DIV MUL DUP4 MSTORE SWAP2 PUSH1 0x20 ADD SWAP2 PUSH2 0x191F JUMP JUMPDEST DUP3 ADD SWAP2 SWAP1 PUSH1 0x0 MSTORE PUSH1 0x20 PUSH1 0x0 KECCAK256 SWAP1 JUMPDEST DUP2 SLOAD DUP2 MSTORE SWAP1 PUSH1 0x1 ADD SWAP1 PUSH1 0x20 ADD DUP1 DUP4 GT PUSH2 0x1902 JUMPI DUP3 SWAP1 SUB PUSH1 0x1F AND DUP3 ADD SWAP2 JUMPDEST POP POP POP POP POP DUP4 DUP4 DUP1 PUSH1 0x1 ADD SWAP5 POP DUP2 MLOAD DUP2 LT PUSH2 0x1936 JUMPI INVALID JUMPDEST PUSH1 0x20 MUL PUSH1 0x20 ADD ADD DUP2 SWAP1 MSTORE POP JUMPDEST PUSH1 0x1 ADD PUSH2 0x17E2 JUMP JUMPDEST POP PUSH1 0x60 DUP2 PUSH8 0xFFFFFFFFFFFFFFFF DUP2 GT DUP1 ISZERO PUSH2 0x1964 JUMPI PUSH1 0x0 DUP1 REVERT JUMPDEST POP PUSH1 0x40 MLOAD SWAP1 DUP1 DUP3 MSTORE DUP1 PUSH1 0x20 MUL PUSH1 0x20 ADD DUP3 ADD PUSH1 0x40 MSTORE DUP1 ISZERO PUSH2 0x199E JUMPI DUP2 PUSH1 0x20 ADD JUMPDEST PUSH2 0x198B PUSH2 0x229C JUMP JUMPDEST DUP2 MSTORE PUSH1 0x20 ADD SWAP1 PUSH1 0x1 SWAP1 SUB SWAP1 DUP2 PUSH2 0x1983 JUMPI SWAP1 POP JUMPDEST POP SWAP1 POP PUSH1 0x0 JUMPDEST DUP3 DUP2 LT ISZERO PUSH2 0x86D JUMPI PUSH1 0x5 DUP5 DUP3 DUP2 MLOAD DUP2 LT PUSH2 0x19BA JUMPI INVALID JUMPDEST PUSH1 0x20 MUL PUSH1 0x20 ADD ADD MLOAD PUSH1 0x40 MLOAD PUSH2 0x19CF SWAP2 SWAP1 PUSH2 0x2757 JUMP JUMPDEST SWAP1 DUP2 MSTORE PUSH1 0x40 DUP1 MLOAD PUSH1 0x20 SWAP3 DUP2 SWAP1 SUB DUP4 ADD DUP2 KECCAK256 DUP1 SLOAD PUSH1 0x2 PUSH1 0x1 DUP3 AND ISZERO PUSH2 0x100 MUL PUSH1 0x0 NOT ADD SWAP1 SWAP2 AND DIV PUSH1 0x1F DUP2 ADD DUP6 SWAP1 DIV SWAP1 SWAP5 MUL DUP3 ADD PUSH2 0x140 SWAP1 DUP2 ADD SWAP1 SWAP4 MSTORE PUSH2 0x120 DUP3 ADD DUP5 DUP2 MSTORE SWAP2 SWAP4 SWAP1 SWAP3 DUP5 SWAP3 SWAP2 DUP5 SWAP2 DUP5 ADD DUP3 DUP3 DUP1 ISZERO PUSH2 0x1A6C JUMPI DUP1 PUSH1 0x1F LT PUSH2 0x1A41 JUMPI PUSH2 0x100 DUP1 DUP4 SLOAD DIV MUL DUP4 MSTORE SWAP2 PUSH1 0x20 ADD SWAP2 PUSH2 0x1A6C JUMP JUMPDEST DUP3 ADD SWAP2 SWAP1 PUSH1 0x0 MSTORE PUSH1 0x20 PUSH1 0x0 KECCAK256 SWAP1 JUMPDEST DUP2 SLOAD DUP2 MSTORE SWAP1 PUSH1 0x1 ADD SWAP1 PUSH1 0x20 ADD DUP1 DUP4 GT PUSH2 0x1A4F JUMPI DUP3 SWAP1 SUB PUSH1 0x1F AND DUP3 ADD SWAP2 JUMPDEST POP POP POP SWAP2 DUP4 MSTORE POP POP PUSH1 0x1 DUP3 DUP2 ADD SLOAD PUSH1 0x1 PUSH1 0x1 PUSH1 0xA0 SHL SUB AND PUSH1 0x20 DUP1 DUP5 ADD SWAP2 SWAP1 SWAP2 MSTORE PUSH1 0x2 DUP1 DUP6 ADD DUP1 SLOAD PUSH1 0x40 DUP1 MLOAD PUSH2 0x100 SWAP7 DUP4 AND ISZERO SWAP7 SWAP1 SWAP7 MUL PUSH1 0x0 NOT ADD SWAP1 SWAP2 AND SWAP3 SWAP1 SWAP3 DIV PUSH1 0x1F DUP2 ADD DUP5 SWAP1 DIV DUP5 MUL DUP6 ADD DUP5 ADD DUP4 MSTORE DUP1 DUP6 MSTORE SWAP2 SWAP1 SWAP5 ADD SWAP4 SWAP2 DUP4 ADD DUP3 DUP3 DUP1 ISZERO PUSH2 0x1B16 JUMPI DUP1 PUSH1 0x1F LT PUSH2 0x1AEB JUMPI PUSH2 0x100 DUP1 DUP4 SLOAD DIV MUL DUP4 MSTORE SWAP2 PUSH1 0x20 ADD SWAP2 PUSH2 0x1B16 JUMP JUMPDEST DUP3 ADD SWAP2 SWAP1 PUSH1 0x0 MSTORE PUSH1 0x20 PUSH1 0x0 KECCAK256 SWAP1 JUMPDEST DUP2 SLOAD DUP2 MSTORE SWAP1 PUSH1 0x1 ADD SWAP1 PUSH1 0x20 ADD DUP1 DUP4 GT PUSH2 0x1AF9 JUMPI DUP3 SWAP1 SUB PUSH1 0x1F AND DUP3 ADD SWAP2 JUMPDEST POP POP POP POP POP DUP2 MSTORE PUSH1 0x20 ADD PUSH1 0x3 DUP3 ADD SLOAD DUP2 MSTORE PUSH1 0x20 ADD PUSH1 0x4 DUP3 ADD PUSH1 0x0 SWAP1 SLOAD SWAP1 PUSH2 0x100 EXP SWAP1 DIV PUSH1 0xFF AND ISZERO ISZERO ISZERO ISZERO DUP2 MSTORE PUSH1 0x20 ADD PUSH1 0x5 DUP3 ADD DUP1 SLOAD DUP1 PUSH1 0x20 MUL PUSH1 0x20 ADD PUSH1 0x40 MLOAD SWAP1 DUP2 ADD PUSH1 0x40 MSTORE DUP1 SWAP3 SWAP2 SWAP1 DUP2 DUP2 MSTORE PUSH1 0x20 ADD DUP3 DUP1 SLOAD DUP1 ISZERO PUSH2 0x1B9D JUMPI PUSH1 0x20 MUL DUP3 ADD SWAP2 SWAP1 PUSH1 0x0 MSTORE PUSH1 0x20 PUSH1 0x0 KECCAK256 SWAP1 JUMPDEST DUP2 SLOAD PUSH1 0x1 PUSH1 0x1 PUSH1 0xA0 SHL SUB AND DUP2 MSTORE PUSH1 0x1 SWAP1 SWAP2 ADD SWAP1 PUSH1 0x20 ADD DUP1 DUP4 GT PUSH2 0x1B7F JUMPI JUMPDEST POP POP POP POP POP DUP2 MSTORE PUSH1 0x20 ADD PUSH1 0x6 DUP3 ADD DUP1 SLOAD DUP1 PUSH1 0x20 MUL PUSH1 0x20 ADD PUSH1 0x40 MLOAD SWAP1 DUP2 ADD PUSH1 0x40 MSTORE DUP1 SWAP3 SWAP2 SWAP1 DUP2 DUP2 MSTORE PUSH1 0x20 ADD DUP3 DUP1 SLOAD DUP1 ISZERO PUSH2 0x1BFF JUMPI PUSH1 0x20 MUL DUP3 ADD SWAP2 SWAP1 PUSH1 0x0 MSTORE PUSH1 0x20 PUSH1 0x0 KECCAK256 SWAP1 JUMPDEST DUP2 SLOAD PUSH1 0x1 PUSH1 0x1 PUSH1 0xA0 SHL SUB AND DUP2 MSTORE PUSH1 0x1 SWAP1 SWAP2 ADD SWAP1 PUSH1 0x20 ADD DUP1 DUP4 GT PUSH2 0x1BE1 JUMPI JUMPDEST POP POP POP POP POP DUP2 MSTORE PUSH1 0x20 ADD PUSH1 0x7 DUP3 ADD DUP1 SLOAD DUP1 PUSH1 0x20 MUL PUSH1 0x20 ADD PUSH1 0x40 MLOAD SWAP1 DUP2 ADD PUSH1 0x40 MSTORE DUP1 SWAP3 SWAP2 SWAP1 DUP2 DUP2 MSTORE PUSH1 0x20 ADD DUP3 DUP1 SLOAD DUP1 ISZERO PUSH2 0x1C61 JUMPI PUSH1 0x20 MUL DUP3 ADD SWAP2 SWAP1 PUSH1 0x0 MSTORE PUSH1 0x20 PUSH1 0x0 KECCAK256 SWAP1 JUMPDEST DUP2 SLOAD PUSH1 0x1 PUSH1 0x1 PUSH1 0xA0 SHL SUB AND DUP2 MSTORE PUSH1 0x1 SWAP1 SWAP2 ADD SWAP1 PUSH1 0x20 ADD DUP1 DUP4 GT PUSH2 0x1C43 JUMPI JUMPDEST POP POP POP POP POP DUP2 MSTORE PUSH1 0x20 ADD PUSH1 0x8 DUP3 ADD DUP1 SLOAD DUP1 PUSH1 0x20 MUL PUSH1 0x20 ADD PUSH1 0x40 MLOAD SWAP1 DUP2 ADD PUSH1 0x40 MSTORE DUP1 SWAP3 SWAP2 SWAP1 DUP2 DUP2 MSTORE PUSH1 0x20 ADD PUSH1 0x0 SWAP1 JUMPDEST DUP3 DUP3 LT ISZERO PUSH2 0x1D63 JUMPI PUSH1 0x0 DUP5 DUP2 MSTORE PUSH1 0x20 SWAP1 DUP2 SWAP1 KECCAK256 PUSH1 0x40 DUP1 MLOAD DUP1 DUP3 ADD DUP3 MSTORE PUSH1 0x2 DUP7 DUP2 MUL SWAP1 SWAP4 ADD DUP1 SLOAD PUSH1 0x1 PUSH1 0x1 PUSH1 0xA0 SHL SUB AND DUP3 MSTORE PUSH1 0x1 DUP1 DUP3 ADD DUP1 SLOAD DUP6 MLOAD PUSH2 0x100 SWAP4 DUP3 AND ISZERO SWAP4 SWAP1 SWAP4 MUL PUSH1 0x0 NOT ADD AND SWAP6 SWAP1 SWAP6 DIV PUSH1 0x1F DUP2 ADD DUP8 SWAP1 DIV DUP8 MUL DUP3 ADD DUP8 ADD SWAP1 SWAP5 MSTORE DUP4 DUP2 MSTORE SWAP2 SWAP5 SWAP1 SWAP4 DUP6 DUP3 ADD SWAP4 SWAP1 SWAP2 DUP4 ADD DUP3 DUP3 DUP1 ISZERO PUSH2 0x1D4B JUMPI DUP1 PUSH1 0x1F LT PUSH2 0x1D20 JUMPI PUSH2 0x100 DUP1 DUP4 SLOAD DIV MUL DUP4 MSTORE SWAP2 PUSH1 0x20 ADD SWAP2 PUSH2 0x1D4B JUMP JUMPDEST DUP3 ADD SWAP2 SWAP1 PUSH1 0x0 MSTORE PUSH1 0x20 PUSH1 0x0 KECCAK256 SWAP1 JUMPDEST DUP2 SLOAD DUP2 MSTORE SWAP1 PUSH1 0x1 ADD SWAP1 PUSH1 0x20 ADD DUP1 DUP4 GT PUSH2 0x1D2E JUMPI DUP3 SWAP1 SUB PUSH1 0x1F AND DUP3 ADD SWAP2 JUMPDEST POP POP POP POP POP DUP2 MSTORE POP POP DUP2 MSTORE PUSH1 0x20 ADD SWAP1 PUSH1 0x1 ADD SWAP1 PUSH2 0x1C8F JUMP JUMPDEST POP POP POP POP DUP2 MSTORE POP POP DUP3 DUP3 DUP2 MLOAD DUP2 LT PUSH2 0x1D77 JUMPI INVALID JUMPDEST PUSH1 0x20 SWAP1 DUP2 MUL SWAP2 SWAP1 SWAP2 ADD ADD MSTORE PUSH1 0x1 ADD PUSH2 0x19A4 JUMP JUMPDEST PUSH1 0x0 SLOAD PUSH1 0x1 PUSH1 0x1 PUSH1 0xA0 SHL SUB AND DUP2 JUMP JUMPDEST PUSH1 0x2 SLOAD PUSH1 0x60 SWAP1 DUP2 SWAP1 PUSH8 0xFFFFFFFFFFFFFFFF DUP2 GT DUP1 ISZERO PUSH2 0x1DB7 JUMPI PUSH1 0x0 DUP1 REVERT JUMPDEST POP PUSH1 0x40 MLOAD SWAP1 DUP1 DUP3 MSTORE DUP1 PUSH1 0x20 MUL PUSH1 0x20 ADD DUP3 ADD PUSH1 0x40 MSTORE DUP1 ISZERO PUSH2 0x1DF1 JUMPI DUP2 PUSH1 0x20 ADD JUMPDEST PUSH2 0x1DDE PUSH2 0x2354 JUMP JUMPDEST DUP2 MSTORE PUSH1 0x20 ADD SWAP1 PUSH1 0x1 SWAP1 SUB SWAP1 DUP2 PUSH2 0x1DD6 JUMPI SWAP1 POP JUMPDEST POP SWAP1 POP PUSH1 0x0 JUMPDEST PUSH1 0x2 SLOAD DUP2 LT ISZERO PUSH2 0x1783 JUMPI PUSH1 0x3 PUSH1 0x0 PUSH1 0x2 DUP4 DUP2 SLOAD DUP2 LT PUSH2 0x1E12 JUMPI INVALID JUMPDEST PUSH1 0x0 SWAP2 DUP3 MSTORE PUSH1 0x20 DUP1 DUP4 KECCAK256 SWAP1 SWAP2 ADD SLOAD PUSH1 0x1 PUSH1 0x1 PUSH1 0xA0 SHL SUB SWAP1 DUP2 AND DUP5 MSTORE DUP4 DUP3 ADD SWAP5 SWAP1 SWAP5 MSTORE PUSH1 0x40 SWAP3 DUP4 ADD SWAP1 SWAP2 KECCAK256 DUP3 MLOAD PUSH1 0x60 DUP2 ADD DUP5 MSTORE DUP2 SLOAD SWAP1 SWAP5 AND DUP5 MSTORE PUSH1 0x1 DUP2 ADD SLOAD SWAP2 DUP5 ADD SWAP2 SWAP1 SWAP2 MSTORE PUSH1 0x2 ADD SLOAD SWAP1 DUP3 ADD MSTORE DUP3 MLOAD DUP4 SWAP1 DUP4 SWAP1 DUP2 LT PUSH2 0x1E6D JUMPI INVALID JUMPDEST PUSH1 0x20 SWAP1 DUP2 MUL SWAP2 SWAP1 SWAP2 ADD ADD MSTORE PUSH1 0x1 ADD PUSH2 0x1DF7 JUMP JUMPDEST PUSH1 0x0 DUP1 JUMPDEST DUP4 MLOAD DUP2 LT ISZERO PUSH2 0x1ECC JUMPI DUP3 PUSH1 0x1 PUSH1 0x1 PUSH1 0xA0 SHL SUB AND DUP5 DUP3 DUP2 MLOAD DUP2 LT PUSH2 0x1EA3 JUMPI INVALID JUMPDEST PUSH1 0x20 MUL PUSH1 0x20 ADD ADD MLOAD PUSH1 0x1 PUSH1 0x1 PUSH1 0xA0 SHL SUB AND EQ ISZERO PUSH2 0x1EC4 JUMPI PUSH1 0x1 SWAP2 POP POP PUSH2 0x1ED2 JUMP JUMPDEST PUSH1 0x1 ADD PUSH2 0x1E84 JUMP JUMPDEST POP PUSH1 0x0 SWAP1 POP JUMPDEST SWAP3 SWAP2 POP POP JUMP JUMPDEST PUSH1 0x0 PUSH1 0x5 DUP3 PUSH1 0x40 MLOAD PUSH2 0x1EEA SWAP2 SWAP1 PUSH2 0x2757 JUMP JUMPDEST SWAP1 DUP2 MSTORE PUSH1 0x40 MLOAD SWAP1 DUP2 SWAP1 SUB PUSH1 0x20 ADD DUP2 KECCAK256 PUSH1 0x4 ADD DUP1 SLOAD SWAP3 ISZERO ISZERO PUSH1 0xFF NOT SWAP1 SWAP4 AND SWAP3 SWAP1 SWAP3 OR SWAP1 SWAP2 SSTORE PUSH1 0x0 SWAP1 PUSH1 0x5 SWAP1 PUSH2 0x1F1F SWAP1 DUP5 SWAP1 PUSH2 0x2757 JUMP JUMPDEST SWAP1 DUP2 MSTORE PUSH1 0x40 MLOAD SWAP1 DUP2 SWAP1 SUB PUSH1 0x20 ADD DUP2 KECCAK256 PUSH1 0x7 ADD SLOAD SWAP1 PUSH1 0x5 SWAP1 PUSH2 0x1F41 SWAP1 DUP6 SWAP1 PUSH2 0x2757 JUMP JUMPDEST SWAP1 DUP2 MSTORE PUSH1 0x40 MLOAD SWAP1 DUP2 SWAP1 SUB PUSH1 0x20 ADD SWAP1 KECCAK256 PUSH1 0x6 ADD SLOAD GT SWAP1 POP PUSH1 0x0 JUMPDEST PUSH1 0x5 DUP4 PUSH1 0x40 MLOAD PUSH2 0x1F6A SWAP2 SWAP1 PUSH2 0x2757 JUMP JUMPDEST SWAP1 DUP2 MSTORE PUSH1 0x40 MLOAD SWAP1 DUP2 SWAP1 SUB PUSH1 0x20 ADD SWAP1 KECCAK256 PUSH1 0x6 ADD SLOAD DUP2 LT ISZERO PUSH2 0x2009 JUMPI PUSH1 0x0 PUSH1 0x5 DUP5 PUSH1 0x40 MLOAD PUSH2 0x1F96 SWAP2 SWAP1 PUSH2 0x2757 JUMP JUMPDEST SWAP1 DUP2 MSTORE PUSH1 0x20 ADD PUSH1 0x40 MLOAD DUP1 SWAP2 SUB SWAP1 KECCAK256 PUSH1 0x6 ADD DUP3 DUP2 SLOAD DUP2 LT PUSH2 0x1FB2 JUMPI INVALID JUMPDEST PUSH1 0x0 SWAP2 DUP3 MSTORE PUSH1 0x20 SWAP1 SWAP2 KECCAK256 ADD SLOAD PUSH1 0x1 PUSH1 0x1 PUSH1 0xA0 SHL SUB AND SWAP1 POP DUP3 ISZERO PUSH2 0x2000 JUMPI PUSH1 0x1 PUSH1 0x1 PUSH1 0xA0 SHL SUB DUP2 AND PUSH1 0x0 SWAP1 DUP2 MSTORE PUSH1 0x3 PUSH1 0x20 MSTORE PUSH1 0x40 SWAP1 KECCAK256 PUSH1 0x2 DUP2 DUP2 ADD DUP1 SLOAD SWAP1 SWAP2 ADD SWAP1 SSTORE PUSH1 0x1 SWAP1 DUP2 ADD DUP1 SLOAD SWAP1 SWAP2 ADD SWAP1 SSTORE JUMPDEST POP PUSH1 0x1 ADD PUSH2 0x1F5A JUMP JUMPDEST POP PUSH1 0x0 JUMPDEST PUSH1 0x5 DUP4 PUSH1 0x40 MLOAD PUSH2 0x201D SWAP2 SWAP1 PUSH2 0x2757 JUMP JUMPDEST SWAP1 DUP2 MSTORE PUSH1 0x40 MLOAD SWAP1 DUP2 SWAP1 SUB PUSH1 0x20 ADD SWAP1 KECCAK256 PUSH1 0x7 ADD SLOAD DUP2 LT ISZERO PUSH2 0xF2F JUMPI PUSH1 0x0 PUSH1 0x5 DUP5 PUSH1 0x40 MLOAD PUSH2 0x2049 SWAP2 SWAP1 PUSH2 0x2757 JUMP JUMPDEST SWAP1 DUP2 MSTORE PUSH1 0x20 ADD PUSH1 0x40 MLOAD DUP1 SWAP2 SUB SWAP1 KECCAK256 PUSH1 0x6 ADD DUP3 DUP2 SLOAD DUP2 LT PUSH2 0x2065 JUMPI INVALID JUMPDEST PUSH1 0x0 SWAP2 DUP3 MSTORE PUSH1 0x20 SWAP1 SWAP2 KECCAK256 ADD SLOAD PUSH1 0x1 PUSH1 0x1 PUSH1 0xA0 SHL SUB AND SWAP1 POP DUP3 PUSH2 0x20B2 JUMPI PUSH1 0x1 PUSH1 0x1 PUSH1 0xA0 SHL SUB DUP2 AND PUSH1 0x0 SWAP1 DUP2 MSTORE PUSH1 0x3 PUSH1 0x20 MSTORE PUSH1 0x40 SWAP1 KECCAK256 PUSH1 0x2 DUP2 DUP2 ADD DUP1 SLOAD SWAP1 SWAP2 ADD SWAP1 SSTORE PUSH1 0x1 SWAP1 DUP2 ADD DUP1 SLOAD SWAP1 SWAP2 ADD SWAP1 SSTORE JUMPDEST POP PUSH1 0x1 ADD PUSH2 0x200D JUMP JUMPDEST PUSH1 0x0 DUP1 SLOAD PUSH1 0x40 MLOAD PUSH4 0xC3C5A547 PUSH1 0xE0 SHL DUP2 MSTORE PUSH1 0x1 PUSH1 0x1 PUSH1 0xA0 SHL SUB SWAP1 SWAP2 AND SWAP1 PUSH4 0xC3C5A547 SWAP1 PUSH2 0x20EC SWAP1 DUP6 SWAP1 PUSH1 0x4 ADD PUSH2 0x27E3 JUMP JUMPDEST PUSH1 0x20 PUSH1 0x40 MLOAD DUP1 DUP4 SUB DUP2 DUP7 DUP1 EXTCODESIZE ISZERO DUP1 ISZERO PUSH2 0x2104 JUMPI PUSH1 0x0 DUP1 REVERT JUMPDEST POP GAS STATICCALL ISZERO DUP1 ISZERO PUSH2 0x2118 JUMPI RETURNDATASIZE PUSH1 0x0 DUP1 RETURNDATACOPY RETURNDATASIZE PUSH1 0x0 REVERT JUMPDEST POP POP POP POP PUSH1 0x40 MLOAD RETURNDATASIZE PUSH1 0x1F NOT PUSH1 0x1F DUP3 ADD AND DUP3 ADD DUP1 PUSH1 0x40 MSTORE POP DUP2 ADD SWAP1 PUSH2 0x1ED2 SWAP2 SWAP1 PUSH2 0x245E JUMP JUMPDEST PUSH1 0x60 DUP1 DUP3 PUSH8 0xFFFFFFFFFFFFFFFF DUP2 GT DUP1 ISZERO PUSH2 0x2156 JUMPI PUSH1 0x0 DUP1 REVERT JUMPDEST POP PUSH1 0x40 MLOAD SWAP1 DUP1 DUP3 MSTORE DUP1 PUSH1 0x20 MUL PUSH1 0x20 ADD DUP3 ADD PUSH1 0x40 MSTORE DUP1 ISZERO PUSH2 0x2180 JUMPI DUP2 PUSH1 0x20 ADD PUSH1 0x20 DUP3 MUL DUP1 CALLDATASIZE DUP4 CALLDATACOPY ADD SWAP1 POP JUMPDEST POP SWAP1 POP PUSH1 0x0 DUP5 MLOAD TIMESTAMP DIFFICULTY PUSH1 0x40 MLOAD PUSH1 0x20 ADD PUSH2 0x219A SWAP3 SWAP2 SWAP1 PUSH2 0x2A19 JUMP JUMPDEST PUSH1 0x40 MLOAD PUSH1 0x20 DUP2 DUP4 SUB SUB DUP2 MSTORE SWAP1 PUSH1 0x40 MSTORE DUP1 MLOAD SWAP1 PUSH1 0x20 ADD KECCAK256 PUSH1 0x0 SHR DUP2 PUSH2 0x21BA JUMPI INVALID JUMPDEST MOD SWAP1 POP PUSH1 0x0 JUMPDEST DUP5 DUP2 LT ISZERO PUSH2 0x2214 JUMPI DUP6 DUP7 MLOAD DUP4 DUP4 ADD DUP2 PUSH2 0x21D5 JUMPI INVALID JUMPDEST MOD DUP2 MLOAD DUP2 LT PUSH2 0x21E0 JUMPI INVALID JUMPDEST PUSH1 0x20 MUL PUSH1 0x20 ADD ADD MLOAD DUP4 DUP3 DUP2 MLOAD DUP2 LT PUSH2 0x21F4 JUMPI INVALID JUMPDEST PUSH1 0x1 PUSH1 0x1 PUSH1 0xA0 SHL SUB SWAP1 SWAP3 AND PUSH1 0x20 SWAP3 DUP4 MUL SWAP2 SWAP1 SWAP2 ADD SWAP1 SWAP2 ADD MSTORE PUSH1 0x1 ADD PUSH2 0x21C0 JUMP JUMPDEST POP SWAP1 SWAP5 SWAP4 POP POP POP POP JUMP JUMPDEST DUP3 DUP1 SLOAD PUSH1 0x1 DUP2 PUSH1 0x1 AND ISZERO PUSH2 0x100 MUL SUB AND PUSH1 0x2 SWAP1 DIV SWAP1 PUSH1 0x0 MSTORE PUSH1 0x20 PUSH1 0x0 KECCAK256 SWAP1 PUSH1 0x1F ADD PUSH1 0x20 SWAP1 DIV DUP2 ADD SWAP3 DUP3 PUSH1 0x1F LT PUSH2 0x225F JUMPI DUP1 MLOAD PUSH1 0xFF NOT AND DUP4 DUP1 ADD OR DUP6 SSTORE PUSH2 0x228C JUMP JUMPDEST DUP3 DUP1 ADD PUSH1 0x1 ADD DUP6 SSTORE DUP3 ISZERO PUSH2 0x228C JUMPI SWAP2 DUP3 ADD JUMPDEST DUP3 DUP2 GT ISZERO PUSH2 0x228C JUMPI DUP3 MLOAD DUP3 SSTORE SWAP2 PUSH1 0x20 ADD SWAP2 SWAP1 PUSH1 0x1 ADD SWAP1 PUSH2 0x2271 JUMP JUMPDEST POP PUSH2 0x2298 SWAP3 SWAP2 POP PUSH2 0x237E JUMP JUMPDEST POP SWAP1 JUMP JUMPDEST PUSH1 0x40 MLOAD DUP1 PUSH2 0x120 ADD PUSH1 0x40 MSTORE DUP1 PUSH1 0x60 DUP2 MSTORE PUSH1 0x20 ADD PUSH1 0x0 PUSH1 0x1 PUSH1 0x1 PUSH1 0xA0 SHL SUB AND DUP2 MSTORE PUSH1 0x20 ADD PUSH1 0x60 DUP2 MSTORE PUSH1 0x20 ADD PUSH1 0x0 DUP2 MSTORE PUSH1 0x20 ADD PUSH1 0x0 ISZERO ISZERO DUP2 MSTORE PUSH1 0x20 ADD PUSH1 0x60 DUP2 MSTORE PUSH1 0x20 ADD PUSH1 0x60 DUP2 MSTORE PUSH1 0x20 ADD PUSH1 0x60 DUP2 MSTORE PUSH1 0x20 ADD PUSH1 0x60 DUP2 MSTORE POP SWAP1 JUMP JUMPDEST DUP3 DUP1 SLOAD DUP3 DUP3 SSTORE SWAP1 PUSH1 0x0 MSTORE PUSH1 0x20 PUSH1 0x0 KECCAK256 SWAP1 DUP2 ADD SWAP3 DUP3 ISZERO PUSH2 0x2348 JUMPI SWAP2 PUSH1 0x20 MUL DUP3 ADD JUMPDEST DUP3 DUP2 GT ISZERO PUSH2 0x2348 JUMPI DUP3 MLOAD DUP3 SLOAD PUSH1 0x1 PUSH1 0x1 PUSH1 0xA0 SHL SUB NOT AND PUSH1 0x1 PUSH1 0x1 PUSH1 0xA0 SHL SUB SWAP1 SWAP2 AND OR DUP3 SSTORE PUSH1 0x20 SWAP1 SWAP3 ADD SWAP2 PUSH1 0x1 SWAP1 SWAP2 ADD SWAP1 PUSH2 0x2313 JUMP JUMPDEST POP PUSH2 0x2298 SWAP3 SWAP2 POP PUSH2 0x2393 JUMP JUMPDEST PUSH1 0x40 MLOAD DUP1 PUSH1 0x60 ADD PUSH1 0x40 MSTORE DUP1 PUSH1 0x0 PUSH1 0x1 PUSH1 0x1 PUSH1 0xA0 SHL SUB AND DUP2 MSTORE PUSH1 0x20 ADD PUSH1 0x0 DUP2 MSTORE PUSH1 0x20 ADD PUSH1 0x0 DUP2 MSTORE POP SWAP1 JUMP JUMPDEST JUMPDEST DUP1 DUP3 GT ISZERO PUSH2 0x2298 JUMPI PUSH1 0x0 DUP2 SSTORE PUSH1 0x1 ADD PUSH2 0x237F JUMP JUMPDEST JUMPDEST DUP1 DUP3 GT ISZERO PUSH2 0x2298 JUMPI DUP1 SLOAD PUSH1 0x1 PUSH1 0x1 PUSH1 0xA0 SHL SUB NOT AND DUP2 SSTORE PUSH1 0x1 ADD PUSH2 0x2394 JUMP JUMPDEST PUSH1 0x0 DUP3 PUSH1 0x1F DUP4 ADD SLT PUSH2 0x23C2 JUMPI DUP1 DUP2 REVERT JUMPDEST DUP2 CALLDATALOAD PUSH8 0xFFFFFFFFFFFFFFFF DUP1 DUP3 GT ISZERO PUSH2 0x23D9 JUMPI DUP3 DUP4 REVERT JUMPDEST PUSH1 0x40 MLOAD PUSH1 0x1F DUP4 ADD PUSH1 0x1F NOT AND DUP2 ADD PUSH1 0x20 ADD DUP3 DUP2 GT DUP3 DUP3 LT OR ISZERO PUSH2 0x23F9 JUMPI DUP5 DUP6 REVERT JUMPDEST PUSH1 0x40 MSTORE DUP3 DUP2 MSTORE SWAP3 POP DUP3 DUP5 DUP4 ADD PUSH1 0x20 ADD DUP7 LT ISZERO PUSH2 0x2414 JUMPI PUSH1 0x0 DUP1 REVERT JUMPDEST DUP3 PUSH1 0x20 DUP7 ADD PUSH1 0x20 DUP4 ADD CALLDATACOPY PUSH1 0x0 PUSH1 0x20 DUP5 DUP4 ADD ADD MSTORE POP POP POP SWAP3 SWAP2 POP POP JUMP JUMPDEST PUSH1 0x0 PUSH1 0x20 DUP3 DUP5 SUB SLT ISZERO PUSH2 0x2441 JUMPI DUP1 DUP2 REVERT JUMPDEST DUP2 CALLDATALOAD PUSH1 0x1 PUSH1 0x1 PUSH1 0xA0 SHL SUB DUP2 AND DUP2 EQ PUSH2 0x2457 JUMPI DUP2 DUP3 REVERT JUMPDEST SWAP4 SWAP3 POP POP POP JUMP JUMPDEST PUSH1 0x0 PUSH1 0x20 DUP3 DUP5 SUB SLT ISZERO PUSH2 0x246F JUMPI DUP1 DUP2 REVERT JUMPDEST DUP2 MLOAD DUP1 ISZERO ISZERO DUP2 EQ PUSH2 0x2457 JUMPI DUP2 DUP3 REVERT JUMPDEST PUSH1 0x0 PUSH1 0x20 DUP3 DUP5 SUB SLT ISZERO PUSH2 0x248F JUMPI DUP1 DUP2 REVERT JUMPDEST DUP2 CALLDATALOAD PUSH8 0xFFFFFFFFFFFFFFFF DUP2 GT ISZERO PUSH2 0x24A5 JUMPI DUP2 DUP3 REVERT JUMPDEST PUSH2 0x24B1 DUP5 DUP3 DUP6 ADD PUSH2 0x23B2 JUMP JUMPDEST SWAP5 SWAP4 POP POP POP POP JUMP JUMPDEST PUSH1 0x0 DUP1 PUSH1 0x40 DUP4 DUP6 SUB SLT ISZERO PUSH2 0x24CB JUMPI DUP1 DUP2 REVERT JUMPDEST DUP3 CALLDATALOAD PUSH8 0xFFFFFFFFFFFFFFFF DUP2 GT ISZERO PUSH2 0x24E1 JUMPI DUP2 DUP3 REVERT JUMPDEST PUSH2 0x24ED DUP6 DUP3 DUP7 ADD PUSH2 0x23B2 JUMP JUMPDEST SWAP3 POP POP PUSH1 0x20 DUP4 ADD CALLDATALOAD PUSH1 0x2 DUP2 LT PUSH2 0x2501 JUMPI DUP2 DUP3 REVERT JUMPDEST DUP1 SWAP2 POP POP SWAP3 POP SWAP3 SWAP1 POP JUMP JUMPDEST PUSH1 0x0 DUP1 PUSH1 0x40 DUP4 DUP6 SUB SLT ISZERO PUSH2 0x251E JUMPI DUP2 DUP3 REVERT JUMPDEST DUP3 CALLDATALOAD PUSH8 0xFFFFFFFFFFFFFFFF DUP1 DUP3 GT ISZERO PUSH2 0x2535 JUMPI DUP4 DUP5 REVERT JUMPDEST PUSH2 0x2541 DUP7 DUP4 DUP8 ADD PUSH2 0x23B2 JUMP JUMPDEST SWAP4 POP PUSH1 0x20 DUP6 ADD CALLDATALOAD SWAP2 POP DUP1 DUP3 GT ISZERO PUSH2 0x2556 JUMPI DUP3 DUP4 REVERT JUMPDEST POP PUSH2 0x2563 DUP6 DUP3 DUP7 ADD PUSH2 0x23B2 JUMP JUMPDEST SWAP2 POP POP SWAP3 POP SWAP3 SWAP1 POP JUMP JUMPDEST PUSH1 0x1 PUSH1 0x1 PUSH1 0xA0 SHL SUB AND SWAP1 MSTORE JUMP JUMPDEST PUSH1 0x0 DUP2 MLOAD DUP1 DUP5 MSTORE PUSH1 0x20 DUP1 DUP6 ADD SWAP5 POP DUP1 DUP5 ADD DUP4 JUMPDEST DUP4 DUP2 LT ISZERO PUSH2 0x25B2 JUMPI DUP2 MLOAD PUSH1 0x1 PUSH1 0x1 PUSH1 0xA0 SHL SUB AND DUP8 MSTORE SWAP6 DUP3 ADD SWAP6 SWAP1 DUP3 ADD SWAP1 PUSH1 0x1 ADD PUSH2 0x258D JUMP JUMPDEST POP SWAP5 SWAP6 SWAP5 POP POP POP POP POP JUMP JUMPDEST PUSH1 0x0 DUP3 DUP3 MLOAD DUP1 DUP6 MSTORE PUSH1 0x20 DUP1 DUP7 ADD SWAP6 POP DUP1 DUP2 DUP4 MUL DUP5 ADD ADD DUP2 DUP7 ADD DUP6 JUMPDEST DUP5 DUP2 LT ISZERO PUSH2 0x2623 JUMPI DUP6 DUP4 SUB PUSH1 0x1F NOT ADD DUP10 MSTORE DUP2 MLOAD DUP1 MLOAD PUSH1 0x1 PUSH1 0x1 PUSH1 0xA0 SHL SUB AND DUP5 MSTORE DUP5 ADD MLOAD PUSH1 0x40 DUP6 DUP6 ADD DUP2 SWAP1 MSTORE PUSH2 0x260F DUP2 DUP7 ADD DUP4 PUSH2 0x2636 JUMP JUMPDEST SWAP11 DUP7 ADD SWAP11 SWAP5 POP POP POP SWAP1 DUP4 ADD SWAP1 PUSH1 0x1 ADD PUSH2 0x25D8 JUMP JUMPDEST POP SWAP1 SWAP8 SWAP7 POP POP POP POP POP POP POP JUMP JUMPDEST ISZERO ISZERO SWAP1 MSTORE JUMP JUMPDEST PUSH1 0x0 DUP2 MLOAD DUP1 DUP5 MSTORE PUSH2 0x264E DUP2 PUSH1 0x20 DUP7 ADD PUSH1 0x20 DUP7 ADD PUSH2 0x2A27 JUMP JUMPDEST PUSH1 0x1F ADD PUSH1 0x1F NOT AND SWAP3 SWAP1 SWAP3 ADD PUSH1 0x20 ADD SWAP3 SWAP2 POP POP JUMP JUMPDEST PUSH1 0x0 PUSH2 0x120 DUP3 MLOAD DUP2 DUP6 MSTORE PUSH2 0x2678 DUP3 DUP7 ADD DUP3 PUSH2 0x2636 JUMP JUMPDEST SWAP2 POP POP PUSH1 0x20 DUP4 ADD MLOAD PUSH2 0x268D PUSH1 0x20 DUP7 ADD DUP3 PUSH2 0x256D JUMP JUMPDEST POP PUSH1 0x40 DUP4 ADD MLOAD DUP5 DUP3 SUB PUSH1 0x40 DUP7 ADD MSTORE PUSH2 0x26A5 DUP3 DUP3 PUSH2 0x2636 JUMP JUMPDEST SWAP2 POP POP PUSH1 0x60 DUP4 ADD MLOAD PUSH1 0x60 DUP6 ADD MSTORE PUSH1 0x80 DUP4 ADD MLOAD PUSH2 0x26C4 PUSH1 0x80 DUP7 ADD DUP3 PUSH2 0x2630 JUMP JUMPDEST POP PUSH1 0xA0 DUP4 ADD MLOAD DUP5 DUP3 SUB PUSH1 0xA0 DUP7 ADD MSTORE PUSH2 0x26DC DUP3 DUP3 PUSH2 0x257A JUMP JUMPDEST SWAP2 POP POP PUSH1 0xC0 DUP4 ADD MLOAD DUP5 DUP3 SUB PUSH1 0xC0 DUP7 ADD MSTORE PUSH2 0x26F6 DUP3 DUP3 PUSH2 0x257A JUMP JUMPDEST SWAP2 POP POP PUSH1 0xE0 DUP4 ADD MLOAD DUP5 DUP3 SUB PUSH1 0xE0 DUP7 ADD MSTORE PUSH2 0x2710 DUP3 DUP3 PUSH2 0x257A JUMP JUMPDEST SWAP2 POP POP PUSH2 0x100 DUP1 DUP5 ADD MLOAD DUP6 DUP4 SUB DUP3 DUP8 ADD MSTORE PUSH2 0x272B DUP4 DUP3 PUSH2 0x25BD JUMP JUMPDEST SWAP7 SWAP6 POP POP POP POP POP POP JUMP JUMPDEST DUP1 MLOAD PUSH1 0x1 PUSH1 0x1 PUSH1 0xA0 SHL SUB AND DUP3 MSTORE PUSH1 0x20 DUP1 DUP3 ADD MLOAD SWAP1 DUP4 ADD MSTORE PUSH1 0x40 SWAP1 DUP2 ADD MLOAD SWAP2 ADD MSTORE JUMP JUMPDEST PUSH1 0x0 DUP3 MLOAD PUSH2 0x2769 DUP2 DUP5 PUSH1 0x20 DUP8 ADD PUSH2 0x2A27 JUMP JUMPDEST SWAP2 SWAP1 SWAP2 ADD SWAP3 SWAP2 POP POP JUMP JUMPDEST PUSH1 0x0 DUP1 DUP4 SLOAD PUSH1 0x1 DUP1 DUP3 AND PUSH1 0x0 DUP2 EQ PUSH2 0x2792 JUMPI PUSH1 0x1 DUP2 EQ PUSH2 0x27A9 JUMPI PUSH2 0x27D8 JUMP JUMPDEST PUSH1 0xFF NOT DUP4 AND DUP7 MSTORE PUSH1 0x2 DUP4 DIV PUSH1 0x7F AND DUP7 ADD SWAP4 POP PUSH2 0x27D8 JUMP JUMPDEST PUSH1 0x2 DUP4 DIV DUP8 DUP7 MSTORE PUSH1 0x20 DUP1 DUP8 KECCAK256 DUP8 JUMPDEST DUP4 DUP2 LT ISZERO PUSH2 0x27D0 JUMPI DUP2 SLOAD DUP11 DUP3 ADD MSTORE SWAP1 DUP6 ADD SWAP1 DUP3 ADD PUSH2 0x27B7 JUMP JUMPDEST POP POP POP DUP7 ADD SWAP4 POP JUMPDEST POP SWAP2 SWAP6 SWAP5 POP POP POP POP POP JUMP JUMPDEST PUSH1 0x1 PUSH1 0x1 PUSH1 0xA0 SHL SUB SWAP2 SWAP1 SWAP2 AND DUP2 MSTORE PUSH1 0x20 ADD SWAP1 JUMP JUMPDEST PUSH1 0x0 PUSH1 0x20 DUP1 DUP4 ADD DUP2 DUP5 MSTORE DUP1 DUP6 MLOAD DUP1 DUP4 MSTORE PUSH1 0x40 DUP7 ADD SWAP2 POP PUSH1 0x40 DUP5 DUP3 MUL DUP8 ADD ADD SWAP3 POP DUP4 DUP8 ADD DUP6 JUMPDEST DUP3 DUP2 LT ISZERO PUSH2 0x284A JUMPI PUSH1 0x3F NOT DUP9 DUP7 SUB ADD DUP5 MSTORE PUSH2 0x2838 DUP6 DUP4 MLOAD PUSH2 0x2662 JUMP JUMPDEST SWAP5 POP SWAP3 DUP6 ADD SWAP3 SWAP1 DUP6 ADD SWAP1 PUSH1 0x1 ADD PUSH2 0x281C JUMP JUMPDEST POP SWAP3 SWAP8 SWAP7 POP POP POP POP POP POP POP JUMP JUMPDEST PUSH1 0x20 DUP1 DUP3 MSTORE DUP3 MLOAD DUP3 DUP3 ADD DUP2 SWAP1 MSTORE PUSH1 0x0 SWAP2 SWAP1 DUP5 DUP3 ADD SWAP1 PUSH1 0x40 DUP6 ADD SWAP1 DUP5 JUMPDEST DUP2 DUP2 LT ISZERO PUSH2 0x2899 JUMPI PUSH2 0x2886 DUP4 DUP6 MLOAD PUSH2 0x2735 JUMP JUMPDEST SWAP3 DUP5 ADD SWAP3 PUSH1 0x60 SWAP3 SWAP1 SWAP3 ADD SWAP2 PUSH1 0x1 ADD PUSH2 0x2873 JUMP JUMPDEST POP SWAP1 SWAP7 SWAP6 POP POP POP POP POP POP JUMP JUMPDEST PUSH1 0x20 DUP1 DUP3 MSTORE PUSH1 0x12 SWAP1 DUP3 ADD MSTORE PUSH18 0x125B5859D948191BD95CDB9D08195E1A5CDD PUSH1 0x72 SHL PUSH1 0x40 DUP3 ADD MSTORE PUSH1 0x60 ADD SWAP1 JUMP JUMPDEST PUSH1 0x20 DUP1 DUP3 MSTORE PUSH1 0x2C SWAP1 DUP3 ADD MSTORE PUSH32 0x55736572206973206E6F742072656769737465726564206F6E2050726F6F6620 PUSH1 0x40 DUP3 ADD MSTORE PUSH12 0x37B310243AB6B0B734BA3C97 PUSH1 0xA1 SHL PUSH1 0x60 DUP3 ADD MSTORE PUSH1 0x80 ADD SWAP1 JUMP JUMPDEST PUSH1 0x20 DUP1 DUP3 MSTORE PUSH1 0xD SWAP1 DUP3 ADD MSTORE PUSH13 0x105B1C9958591E481D9BDD1959 PUSH1 0x9A SHL PUSH1 0x40 DUP3 ADD MSTORE PUSH1 0x60 ADD SWAP1 JUMP JUMPDEST PUSH1 0x20 DUP1 DUP3 MSTORE PUSH1 0xD SWAP1 DUP3 ADD MSTORE PUSH13 0x159BDD1A5B99C818DB1BDCD959 PUSH1 0x9A SHL PUSH1 0x40 DUP3 ADD MSTORE PUSH1 0x60 ADD SWAP1 JUMP JUMPDEST PUSH1 0x20 DUP1 DUP3 MSTORE PUSH1 0x11 SWAP1 DUP3 ADD MSTORE PUSH17 0x159BDD195C881B9BDD08185B1B1BDDD959 PUSH1 0x7A SHL PUSH1 0x40 DUP3 ADD MSTORE PUSH1 0x60 ADD SWAP1 JUMP JUMPDEST PUSH1 0x20 DUP1 DUP3 MSTORE PUSH1 0x11 SWAP1 DUP3 ADD MSTORE PUSH17 0x4E6F7420656E6F75676820746F6B656E73 PUSH1 0x78 SHL PUSH1 0x40 DUP3 ADD MSTORE PUSH1 0x60 ADD SWAP1 JUMP JUMPDEST PUSH1 0x20 DUP1 DUP3 MSTORE PUSH1 0x1A SWAP1 DUP3 ADD MSTORE PUSH32 0x5573657220697320616C72656164792072656769737465726564000000000000 PUSH1 0x40 DUP3 ADD MSTORE PUSH1 0x60 ADD SWAP1 JUMP JUMPDEST PUSH1 0x0 PUSH1 0x20 DUP3 MSTORE PUSH2 0x2457 PUSH1 0x20 DUP4 ADD DUP5 PUSH2 0x2662 JUMP JUMPDEST PUSH1 0x60 DUP2 ADD PUSH2 0x1ED2 DUP3 DUP5 PUSH2 0x2735 JUMP JUMPDEST SWAP2 DUP3 MSTORE PUSH1 0x20 DUP3 ADD MSTORE PUSH1 0x40 ADD SWAP1 JUMP JUMPDEST PUSH1 0x0 JUMPDEST DUP4 DUP2 LT ISZERO PUSH2 0x2A42 JUMPI DUP2 DUP2 ADD MLOAD DUP4 DUP3 ADD MSTORE PUSH1 0x20 ADD PUSH2 0x2A2A JUMP JUMPDEST DUP4 DUP2 GT ISZERO PUSH2 0x2A51 JUMPI PUSH1 0x0 DUP5 DUP5 ADD MSTORE JUMPDEST POP POP POP POP JUMP INVALID LOG2 PUSH5 0x6970667358 0x22 SLT KECCAK256 PUSH21 0xF72D068A76BEE5201B2CE04A89307EFD2B2C17970D MULMOD DUP11 0xB3 SHR 0xA5 SMOD CALLCODE SLT OR PUSH3 0x64736F PUSH13 0x634300060C0033000000000000 ",
  "sha1": "3f3750fc3436e51aa4bce8514c315a03eb2ec746",
  "source": "pragma solidity ^0.6.0;\npragma experimental ABIEncoderV2;\n\nimport \"../interfaces/IProofOfHumanity.sol\";\n\ncontract MainContract {\n\n    struct Comment {\n        address user;\n        string text;\n    }\n\n    struct Image {\n        string url;\n        address owner;\n        string description;\n        uint uploadDate;\n        bool isVotationOpen;\n        address[] assignedVoters;\n        address[] positiveVotes;\n        address[] negativeVotes;\n        Comment[] comments;\n    }\n\n    struct User {\n        address _address;\n        uint wins;\n        uint tokens;\n    }\n\n    enum Vote {POSITIVE, NEGATIVE}\n\n    /* ---------------------------------- CONSTANTS ---------------------------------- */\n\n    uint constant ASSIGNED_VOTERS = 10;\n\n    uint constant MAX_VOTERS = 5;\n\n    uint constant PUBLISH_COST = 1;\n\n    uint constant VOTE_COST = 1;\n\n    uint constant VERIFY_REWARD = 2;\n\n    uint constant STARTING_TOKENS = 5;\n\n    /* ---------------------------------- VARIABLES ---------------------------------- */\n\n    IProofOfHumanity public proofOfHumanity;\n\n    address ownerAddress;\n\n    address[] private usersAddresses;\n\n    mapping(address => User) private users;\n\n    string[] private imageUrls;\n\n    mapping(string => Image) private images;\n\n\n    /* ---------------------------------- GENERIC FUNCTIONS ---------------------------------- */\n\n    function arrayContains(address[] memory array, address value) private pure returns (bool) {\n        for (uint256 i = 0; i < array.length; i++)\n            if (array[i] == value)\n                return true;\n        return false;\n    }\n\n    constructor(address _pohAddress) public {\n        proofOfHumanity = IProofOfHumanity(_pohAddress);\n        ownerAddress = msg.sender;\n    }\n\n    /* ---------------------------------- AUTHENTICATION ---------------------------------- */\n\n    function _validateIdentity(address _user) private view returns (bool) {\n        return proofOfHumanity.isRegistered(_user);\n    }\n\n    function registerUser() public {\n        require(!arrayContains(usersAddresses, msg.sender), \"User is already registered\");\n        \n        require(_validateIdentity(msg.sender), \"User is not registered on Proof of Humanity.\");\n        \n        usersAddresses.push(msg.sender);\n\n        users[msg.sender]._address = msg.sender;\n        users[msg.sender].tokens = STARTING_TOKENS;\n        users[msg.sender].wins = 0;\n    }\n\n    /* ---------------------------------- USER LISTING ---------------------------------- */\n\n    function getAllUsers() public view returns (User[] memory) {\n        User[] memory finalResult = new User[](usersAddresses.length);\n\n        for (uint256 i = 0; i < usersAddresses.length; i++)\n            finalResult[i] = users[usersAddresses[i]];\n        \n        return finalResult;\n    }\n\n    function getUserByAddress(address _address) public view returns (User memory) {\n        return users[_address];\n    }    \n\n    /* ---------------------------------- IMAGE LISTING ---------------------------------- */\n\n    function getAllImages() public view returns (Image[] memory) {\n        Image[] memory finalResult = new Image[](imageUrls.length);\n\n        for (uint256 i = 0; i < imageUrls.length; i++)\n            finalResult[i] = images[imageUrls[i]];\n        \n        return finalResult;\n    }\n\n    function getImagesByOwningUser(address _address) public view returns (Image[] memory) {\n        string[] memory result = new string[](imageUrls.length);\n\n        uint count = 0;\n        for (uint i = 0; i < imageUrls.length; i++)\n            if (images[imageUrls[i]].owner == _address)\n                result[count++] = imageUrls[i];\n\n        Image[] memory finalResult = new Image[](count);\n        for (uint256 i = 0; i < count; i++)\n            finalResult[i] = images[result[i]];\n\n        return finalResult;\n    }\n\n    function getImagesByAssignedUser(address _address) public view returns (Image[] memory) {\n        string[] memory result = new string[](imageUrls.length);\n\n        uint count = 0;\n        for (uint i = 0; i < imageUrls.length; i++)\n            if (arrayContains(images[imageUrls[i]].assignedVoters, _address))\n                result[count++] = imageUrls[i];\n\n        Image[] memory finalResult = new Image[](count);\n        for (uint256 i = 0; i < count; i++)\n            finalResult[i] = images[result[i]];\n\n        return finalResult;\n    }\n\n    function getImageByUrl(string memory _url) public view returns (Image memory) {\n        return images[_url];\n    }\n\n    /* ---------------------------------- IMAGE VOTING ---------------------------------- */\n\n    function voteImage(string memory _url, Vote _vote) public {\n        require(images[_url].assignedVoters.length != 0, \"Image doesnt exist\");\n\n        require(arrayContains(images[_url].assignedVoters, msg.sender), \"Voter not allowed\");\n\n        require(!arrayContains(images[_url].positiveVotes, msg.sender) && !arrayContains(images[_url].negativeVotes, msg.sender),\n             \"Already voted\");\n\n        require(images[_url].isVotationOpen, \"Voting closed\");\n\n        require(users[msg.sender].tokens > VOTE_COST, \"Not enough tokens\");\n\n        users[msg.sender].tokens -= VOTE_COST;\n        \n        if(_vote == Vote.POSITIVE)\n            images[_url].positiveVotes.push(msg.sender);\n        else\n            images[_url].negativeVotes.push(msg.sender);\n\n        if(images[_url].positiveVotes.length + images[_url].negativeVotes.length == MAX_VOTERS)\n            _closeVotation(_url);\n    }\n\n    function _closeVotation(string memory _url) private {\n        images[_url].isVotationOpen = false;\n\n        bool imageIsTrue = images[_url].positiveVotes.length > images[_url].negativeVotes.length;\n\n        for (uint i = 0; i < images[_url].positiveVotes.length; i++) {\n            address voterAdd = images[_url].positiveVotes[i];\n            if(imageIsTrue) {\n                users[voterAdd].tokens += VERIFY_REWARD;\n                users[voterAdd].wins += 1;\n            }\n        }\n\n        for (uint i = 0; i < images[_url].negativeVotes.length; i++) {\n            address voterAdd = images[_url].positiveVotes[i];\n            if(!imageIsTrue) {\n                users[voterAdd].tokens += VERIFY_REWARD;\n                users[voterAdd].wins += 1;\n            }\n        }\n    }\n\n    /* ---------------------------------- IMAGE COMMENTING ---------------------------------- */\n\n    function commentImage(string memory _url, string memory _comment) public {\n        require(images[_url].assignedVoters.length != 0, \"Image doesnt exist\");\n\n        require(images[_url].isVotationOpen, \"Voting closed\");\n        \n        images[_url].comments.push(Comment(msg.sender, _comment));\n    }    \n\n    /* ---------------------------------- IMAGE PUBLISHING ---------------------------------- */\n\n    function _getRandomSubset(address[] memory array, uint n) private view returns (address[] memory) {\n        address[] memory subset = new address[](n);\n        uint rand = uint(keccak256(abi.encode(block.timestamp, block.difficulty))) % array.length;\n\n        for (uint i = 0; i < n; i++)\n            subset[i] = array[(i + rand) % array.length];\n\n        return subset;\n    }\n\n    function publishImage(string memory _url, string memory _desc) public {\n        require(users[msg.sender].tokens > PUBLISH_COST, \"Not enough tokens\");\n\n        users[msg.sender].tokens -= PUBLISH_COST;\n\n        imageUrls.push(_url);\n        \n        images[_url].url = _url;\n        images[_url].owner = msg.sender;\n        images[_url].description = _desc;\n        images[_url].uploadDate = block.timestamp;\n        images[_url].isVotationOpen = true;\n        images[_url].assignedVoters = _getRandomSubset(usersAddresses, ASSIGNED_VOTERS);\n    }\n\n}\n",
  "sourcePath": "contracts/Main.sol",
  "type": "contract"
}