{
  "abi": [
    {
      "inputs": [
        {
          "internalType": "address",
          "name": "_pohAddress",
          "type": "address"
        }
      ],
      "stateMutability": "nonpayable",
      "type": "constructor"
    },
    {
      "inputs": [
        {
          "internalType": "string",
          "name": "_url",
          "type": "string"
        }
      ],
      "name": "_closeVotation",
      "outputs": [],
      "stateMutability": "nonpayable",
      "type": "function"
    },
    {
      "inputs": [
        {
          "internalType": "address",
          "name": "_userAddress",
          "type": "address"
        },
        {
          "internalType": "uint256",
          "name": "amount",
          "type": "uint256"
        }
      ],
      "name": "addTokens",
      "outputs": [],
      "stateMutability": "nonpayable",
      "type": "function"
    },
    {
      "inputs": [
        {
          "internalType": "string",
          "name": "_url",
          "type": "string"
        },
        {
          "internalType": "string",
          "name": "_comment",
          "type": "string"
        }
      ],
      "name": "commentImage",
      "outputs": [],
      "stateMutability": "nonpayable",
      "type": "function"
    },
    {
      "inputs": [],
      "name": "fillDummyImages",
      "outputs": [],
      "stateMutability": "nonpayable",
      "type": "function"
    },
    {
      "inputs": [],
      "name": "fillDummyUsers",
      "outputs": [],
      "stateMutability": "nonpayable",
      "type": "function"
    },
    {
      "inputs": [],
      "name": "getAllImages",
      "outputs": [
        {
          "components": [
            {
              "internalType": "string",
              "name": "url",
              "type": "string"
            },
            {
              "internalType": "string",
              "name": "description",
              "type": "string"
            },
            {
              "internalType": "address",
              "name": "owner",
              "type": "address"
            },
            {
              "internalType": "uint256",
              "name": "uploadDate",
              "type": "uint256"
            },
            {
              "internalType": "bool",
              "name": "isVotationOpen",
              "type": "bool"
            },
            {
              "internalType": "address[]",
              "name": "assignedVoters",
              "type": "address[]"
            },
            {
              "internalType": "address[]",
              "name": "positiveVotes",
              "type": "address[]"
            },
            {
              "internalType": "address[]",
              "name": "negativeVotes",
              "type": "address[]"
            },
            {
              "components": [
                {
                  "internalType": "address",
                  "name": "user",
                  "type": "address"
                },
                {
                  "internalType": "string",
                  "name": "text",
                  "type": "string"
                }
              ],
              "internalType": "struct MainContract.Comment[]",
              "name": "comments",
              "type": "tuple[]"
            }
          ],
          "internalType": "struct MainContract.Image[]",
          "name": "",
          "type": "tuple[]"
        }
      ],
      "stateMutability": "view",
      "type": "function"
    },
    {
      "inputs": [],
      "name": "getAllUsers",
      "outputs": [
        {
          "components": [
            {
              "internalType": "address",
              "name": "_address",
              "type": "address"
            },
            {
              "internalType": "string",
              "name": "name",
              "type": "string"
            },
            {
              "internalType": "string",
              "name": "profilePicUrl",
              "type": "string"
            },
            {
              "internalType": "uint256",
              "name": "validatorReputation",
              "type": "uint256"
            },
            {
              "internalType": "uint256",
              "name": "creatorReputation",
              "type": "uint256"
            },
            {
              "internalType": "uint256",
              "name": "tokens",
              "type": "uint256"
            }
          ],
          "internalType": "struct MainContract.User[]",
          "name": "",
          "type": "tuple[]"
        }
      ],
      "stateMutability": "view",
      "type": "function"
    },
    {
      "inputs": [
        {
          "internalType": "string",
          "name": "_url",
          "type": "string"
        }
      ],
      "name": "getImageByUrl",
      "outputs": [
        {
          "components": [
            {
              "internalType": "string",
              "name": "url",
              "type": "string"
            },
            {
              "internalType": "string",
              "name": "description",
              "type": "string"
            },
            {
              "internalType": "address",
              "name": "owner",
              "type": "address"
            },
            {
              "internalType": "uint256",
              "name": "uploadDate",
              "type": "uint256"
            },
            {
              "internalType": "bool",
              "name": "isVotationOpen",
              "type": "bool"
            },
            {
              "internalType": "address[]",
              "name": "assignedVoters",
              "type": "address[]"
            },
            {
              "internalType": "address[]",
              "name": "positiveVotes",
              "type": "address[]"
            },
            {
              "internalType": "address[]",
              "name": "negativeVotes",
              "type": "address[]"
            },
            {
              "components": [
                {
                  "internalType": "address",
                  "name": "user",
                  "type": "address"
                },
                {
                  "internalType": "string",
                  "name": "text",
                  "type": "string"
                }
              ],
              "internalType": "struct MainContract.Comment[]",
              "name": "comments",
              "type": "tuple[]"
            }
          ],
          "internalType": "struct MainContract.Image",
          "name": "",
          "type": "tuple"
        }
      ],
      "stateMutability": "view",
      "type": "function"
    },
    {
      "inputs": [
        {
          "internalType": "address",
          "name": "_address",
          "type": "address"
        }
      ],
      "name": "getImagesByAssignedUser",
      "outputs": [
        {
          "components": [
            {
              "internalType": "string",
              "name": "url",
              "type": "string"
            },
            {
              "internalType": "string",
              "name": "description",
              "type": "string"
            },
            {
              "internalType": "address",
              "name": "owner",
              "type": "address"
            },
            {
              "internalType": "uint256",
              "name": "uploadDate",
              "type": "uint256"
            },
            {
              "internalType": "bool",
              "name": "isVotationOpen",
              "type": "bool"
            },
            {
              "internalType": "address[]",
              "name": "assignedVoters",
              "type": "address[]"
            },
            {
              "internalType": "address[]",
              "name": "positiveVotes",
              "type": "address[]"
            },
            {
              "internalType": "address[]",
              "name": "negativeVotes",
              "type": "address[]"
            },
            {
              "components": [
                {
                  "internalType": "address",
                  "name": "user",
                  "type": "address"
                },
                {
                  "internalType": "string",
                  "name": "text",
                  "type": "string"
                }
              ],
              "internalType": "struct MainContract.Comment[]",
              "name": "comments",
              "type": "tuple[]"
            }
          ],
          "internalType": "struct MainContract.Image[]",
          "name": "",
          "type": "tuple[]"
        }
      ],
      "stateMutability": "view",
      "type": "function"
    },
    {
      "inputs": [
        {
          "internalType": "address",
          "name": "_address",
          "type": "address"
        }
      ],
      "name": "getImagesByOwningUser",
      "outputs": [
        {
          "components": [
            {
              "internalType": "string",
              "name": "url",
              "type": "string"
            },
            {
              "internalType": "string",
              "name": "description",
              "type": "string"
            },
            {
              "internalType": "address",
              "name": "owner",
              "type": "address"
            },
            {
              "internalType": "uint256",
              "name": "uploadDate",
              "type": "uint256"
            },
            {
              "internalType": "bool",
              "name": "isVotationOpen",
              "type": "bool"
            },
            {
              "internalType": "address[]",
              "name": "assignedVoters",
              "type": "address[]"
            },
            {
              "internalType": "address[]",
              "name": "positiveVotes",
              "type": "address[]"
            },
            {
              "internalType": "address[]",
              "name": "negativeVotes",
              "type": "address[]"
            },
            {
              "components": [
                {
                  "internalType": "address",
                  "name": "user",
                  "type": "address"
                },
                {
                  "internalType": "string",
                  "name": "text",
                  "type": "string"
                }
              ],
              "internalType": "struct MainContract.Comment[]",
              "name": "comments",
              "type": "tuple[]"
            }
          ],
          "internalType": "struct MainContract.Image[]",
          "name": "",
          "type": "tuple[]"
        }
      ],
      "stateMutability": "view",
      "type": "function"
    },
    {
      "inputs": [
        {
          "internalType": "address",
          "name": "_address",
          "type": "address"
        }
      ],
      "name": "getUserByAddress",
      "outputs": [
        {
          "components": [
            {
              "internalType": "address",
              "name": "_address",
              "type": "address"
            },
            {
              "internalType": "string",
              "name": "name",
              "type": "string"
            },
            {
              "internalType": "string",
              "name": "profilePicUrl",
              "type": "string"
            },
            {
              "internalType": "uint256",
              "name": "validatorReputation",
              "type": "uint256"
            },
            {
              "internalType": "uint256",
              "name": "creatorReputation",
              "type": "uint256"
            },
            {
              "internalType": "uint256",
              "name": "tokens",
              "type": "uint256"
            }
          ],
          "internalType": "struct MainContract.User",
          "name": "",
          "type": "tuple"
        }
      ],
      "stateMutability": "view",
      "type": "function"
    },
    {
      "inputs": [],
      "name": "proofOfHumanity",
      "outputs": [
        {
          "internalType": "contract IProofOfHumanity",
          "name": "",
          "type": "address"
        }
      ],
      "stateMutability": "view",
      "type": "function"
    },
    {
      "inputs": [
        {
          "internalType": "string",
          "name": "_url",
          "type": "string"
        },
        {
          "internalType": "string",
          "name": "_desc",
          "type": "string"
        }
      ],
      "name": "publishImage",
      "outputs": [],
      "stateMutability": "nonpayable",
      "type": "function"
    },
    {
      "inputs": [],
      "name": "registerUser",
      "outputs": [],
      "stateMutability": "nonpayable",
      "type": "function"
    },
    {
      "inputs": [
        {
          "internalType": "address",
          "name": "_destinyAddress",
          "type": "address"
        },
        {
          "internalType": "uint256",
          "name": "amount",
          "type": "uint256"
        }
      ],
      "name": "transferTokens",
      "outputs": [],
      "stateMutability": "nonpayable",
      "type": "function"
    },
    {
      "inputs": [],
      "name": "unpublishAllImages",
      "outputs": [],
      "stateMutability": "nonpayable",
      "type": "function"
    },
    {
      "inputs": [
        {
          "internalType": "string",
          "name": "_url",
          "type": "string"
        },
        {
          "internalType": "enum MainContract.Vote",
          "name": "_vote",
          "type": "uint8"
        }
      ],
      "name": "voteImage",
      "outputs": [],
      "stateMutability": "nonpayable",
      "type": "function"
    }
  ],
  "bytecode": "60806040523480156200001157600080fd5b5060405162004ee638038062004ee6833981016040819052620000349162000063565b600080546001600160a01b039092166001600160a01b0319928316179055600180549091163317905562000093565b60006020828403121562000075578081fd5b81516001600160a01b03811681146200008c578182fd5b9392505050565b614e4380620000a36000396000f3fe608060405234801561001057600080fd5b506004361061010b5760003560e01c806369c212f6116100a2578063a07f5fa011610071578063a07f5fa0146101ef578063ab880d8d14610202578063bec3fa1714610215578063d960586714610228578063e2842d791461023d5761010b565b806369c212f61461019f5780636d68c48c146101bf5780637b7284fc146101df5780638ebdccde146101e75761010b565b806350e4bf32116100de57806350e4bf3214610169578063529c1841146101715780635b172a05146101845780636039fbdb1461018c5761010b565b80630298ba44146101105780631811d57814610125578063364771811461014e5780634d3820eb14610161575b600080fd5b61012361011e36600461425b565b610252565b005b6101386101333660046140f1565b610365565b604051610145919061458b565b60405180910390f35b61012361015c366004614209565b61092d565b610123610cad565b610123610ea8565b61012361017f36600461425b565b611bb7565b610123611de8565b61012361019a366004614113565b611ebc565b6101b26101ad3660046140f1565b611f0b565b60405161014591906147db565b6101d26101cd36600461415d565b61208d565b60405161014591906147c8565b61013861244d565b6101236128a1565b6101386101fd3660046140f1565b61307a565b61012361021036600461415d565b61367f565b610123610223366004614113565b6138af565b610230613918565b6040516101459190614577565b610245613927565b60405161014591906145eb565b60058260405161026291906144eb565b9081526040519081900360200190206005015461029a5760405162461bcd60e51b81526004016102919061463e565b60405180910390fd5b6005826040516102aa91906144eb565b9081526040519081900360200190206004015460ff166102dc5760405162461bcd60e51b8152600401610291906146dd565b6005826040516102ec91906144eb565b90815260408051602092819003830181208183019092523381528281018481526008909201805460018082018355600092835291859020835160029092020180546001600160a01b0319166001600160a01b0390921691909117815592518051929461035e9392850192910190613cf9565b5050505050565b60045460609081906001600160401b038111801561038257600080fd5b506040519080825280602002602001820160405280156103b657816020015b60608152602001906001900390816103a15790505b5090506000805b6004548110156104df57846001600160a01b03166005600483815481106103e057fe5b906000526020600020016040516103f79190614507565b908152604051908190036020019020600201546001600160a01b031614156104d7576004818154811061042657fe5b600091825260209182902001805460408051601f60026000196101006001871615020190941693909304928301859004850281018501909152818152928301828280156104b45780601f10610489576101008083540402835291602001916104b4565b820191906000526020600020905b81548152906001019060200180831161049757829003601f168201915b50505050508383806001019450815181106104cb57fe5b60200260200101819052505b6001016103bd565b506060816001600160401b03811180156104f857600080fd5b5060405190808252806020026020018201604052801561053257816020015b61051f613d77565b8152602001906001900390816105175790505b50905060005b8281101561092457600584828151811061054e57fe5b602002602001015160405161056391906144eb565b9081526040805160209281900383018120805460026001821615610100026000190190911604601f8101859004909402820161014090810190935261012082018481529193909284929184918401828280156106005780601f106105d557610100808354040283529160200191610600565b820191906000526020600020905b8154815290600101906020018083116105e357829003601f168201915b50505050508152602001600182018054600181600116156101000203166002900480601f0160208091040260200160405190810160405280929190818152602001828054600181600116156101000203166002900480156106a25780601f10610677576101008083540402835291602001916106a2565b820191906000526020600020905b81548152906001019060200180831161068557829003601f168201915b505050918352505060028201546001600160a01b03166020808301919091526003830154604080840191909152600484015460ff1615156060840152600584018054825181850281018501909352808352608090940193919290919083018282801561073757602002820191906000526020600020905b81546001600160a01b03168152600190910190602001808311610719575b505050505081526020016006820180548060200260200160405190810160405280929190818152602001828054801561079957602002820191906000526020600020905b81546001600160a01b0316815260019091019060200180831161077b575b50505050508152602001600782018054806020026020016040519081016040528092919081815260200182805480156107fb57602002820191906000526020600020905b81546001600160a01b031681526001909101906020018083116107dd575b5050505050815260200160088201805480602002602001604051908101604052809291908181526020016000905b828210156108fd576000848152602090819020604080518082018252600286810290930180546001600160a01b031682526001808201805485516101009382161593909302600019011695909504601f8101879004870282018701909452838152919490938582019390918301828280156108e55780601f106108ba576101008083540402835291602001916108e5565b820191906000526020600020905b8154815290600101906020018083116108c857829003601f168201915b50505050508152505081526020019060010190610829565b505050508152505082828151811061091157fe5b6020908102919091010152600101610538565b50949350505050565b60058260405161093d91906144eb565b9081526040519081900360200190206005015461096c5760405162461bcd60e51b81526004016102919061463e565b6109e960058360405161097f91906144eb565b90815260408051918290036020908101832060050180548083028501830190935282845291908301828280156109de57602002820191906000526020600020905b81546001600160a01b031681526001909101906020018083116109c0575b505050505033613b3f565b610a055760405162461bcd60e51b815260040161029190614704565b610a80600583604051610a1891906144eb565b90815260408051918290036020908101832060060180548083028501830190935282845291908301828280156109de576020028201919060005260206000209081546001600160a01b031681526001909101906020018083116109c057505050505033613b3f565b158015610b055750610b03600583604051610a9b91906144eb565b90815260408051918290036020908101832060070180548083028501830190935282845291908301828280156109de576020028201919060005260206000209081546001600160a01b031681526001909101906020018083116109c057505050505033613b3f565b155b610b215760405162461bcd60e51b8152600401610291906146b6565b600582604051610b3191906144eb565b9081526040519081900360200190206004015460ff16610b635760405162461bcd60e51b8152600401610291906146dd565b33600090815260036020526040902060050154600110610b955760405162461bcd60e51b81526004016102919061472f565b3360009081526003602052604081206005018054600019019055816001811115610bbb57fe5b1415610c0c57600582604051610bd191906144eb565b908152604051908190036020908101909120600601805460018101825560009182529190200180546001600160a01b03191633179055610c53565b600582604051610c1c91906144eb565b908152604051908190036020908101909120600701805460018101825560009182529190200180546001600160a01b031916331790555b60058083604051610c6491906144eb565b9081526040519081900360200181206007015490600590610c869086906144eb565b90815260405190819003602001902060060154011415610ca957610ca98261367f565b5050565b610d0f60028054806020026020016040519081016040528092919081815260200182805480156109de576020028201919060005260206000209081546001600160a01b031681526001909101906020018083116109c057505050505033613b3f565b15610d2c5760405162461bcd60e51b81526004016102919061475a565b610d3533613b97565b610d515760405162461bcd60e51b81526004016102919061466a565b60028054600181019091557f405787fa12a823e0f2b7631cc41b3ba8828b3321ca811111fa75cd3aa3bb5ace018054336001600160a01b031991821681179092556000828152600360205260408082208054909316841790925554905163233eb07160e01b81526001600160a01b039091169163233eb07191610dd79190600401614577565b60006040518083038186803b158015610def57600080fd5b505afa158015610e03573d6000803e3d6000fd5b505050506040513d6000823e601f3d908101601f19168201604052610e2b9190810190614197565b3360009081526003602090815260409091208251610e53936001909201929190910190613cf9565b50604080516020808201808452600080845233815260039092529290209051610e829260029092019190613cf9565b5033600090815260036020819052604082206103e8600582015590810182905560040155565b60408051610120810182527381ffa73300aa2c025d576711363b7466dfecd942815273a8b505c0c47f44fa9b520f8b9ec68d843cbd9fb06020820152739c7a2af7a9cbcb642d9f10f38db9dc0c306f5fdb9181019190915273e741fb345d935d47b876555b2f19280345c58b77606082015273b8a69d9292e22194824225784d8521e3e0929d84608082015273b4934b4fd74d3877dffe8e3dbb2b6f659eeba32360a0820152731a26f4c6693a01c14e93a26220544d0e17db5b2a60c082015273534505edca429ff8244dfd20bf6c4aae61b3dc0060e082015273702b2975b3b42c82a4d3aa1e2040ce05e6751f73610100820152610fab906002906009613dce565b506040805160c08101825273335c33cfd1bb79b09946ef25eb99cb0f9ba8980c80825282518084018452600f81526e4d617469617320417061626c617a6160881b602080830191909152808401918252845180820186526000808252958501526050606085015260596080850152604560a0850152919093526003815281517f833dfdbf577f3510a43acc6ff7a77ac5103cc532c8fc8d017bae0c26df21f35b80546001600160a01b0319166001600160a01b039092169190911781559251805192939261109c927f833dfdbf577f3510a43acc6ff7a77ac5103cc532c8fc8d017bae0c26df21f35c920190613cf9565b50604082015180516110b8916002840191602090910190613cf9565b50606082810151600383810191909155608080850151600485015560a0948501516005909401939093556040805160c0810182527381ffa73300aa2c025d576711363b7466dfecd9428082528251808401845260118152704167757374696e204461676f7374696e6f60781b602082810191909152808401918252845180820186526000808252958501526046968401879052604d9784019790975296820194909452929052825280517fdc6ab4dd8b942cc6ec9b47927c2663137cc4ad8fb3280b0aa119f7d1e5d95a1880546001600160a01b0319166001600160a01b03909216919091178155925180519193926111d6927fdc6ab4dd8b942cc6ec9b47927c2663137cc4ad8fb3280b0aa119f7d1e5d95a199290910190613cf9565b50604082015180516111f2916002840191602090910190613cf9565b50606082810151600383810191909155608080850151600485015560a0948501516005909401939093556040805160c08101825273a8b505c0c47f44fa9b520f8b9ec68d843cbd9fb08082528251808401845260148152734167757374696e61204d616363696176656c6c6960601b60208281019190915280840191825284518082018652600080825295850152605096840196909652605b96830196909652605596820196909652949052815282517f7f83332927ac55382be2d416de089b35d987b158a50c57d66627a2b58554264a80546001600160a01b0319166001600160a01b0390921691909117815591518051611311927f7f83332927ac55382be2d416de089b35d987b158a50c57d66627a2b58554264b920190613cf9565b506040820151805161132d916002840191602090910190613cf9565b50606082810151600383810191909155608080850151600485015560a0948501516005909401939093556040805160c081018252739c7a2af7a9cbcb642d9f10f38db9dc0c306f5fdb8082528251808401845260098152684d696b61204461646960b81b60208281019190915280840191825284518082018652600080825285870191909152605397850197909752605097840197909752968201929092529252825280517f75f5de866537e1381931153c93f981a8f88fd6a0b91150e71b6a0c8bbf21c85f80546001600160a01b0319166001600160a01b0390921691909117815592518051919392611446927f75f5de866537e1381931153c93f981a8f88fd6a0b91150e71b6a0c8bbf21c8609290910190613cf9565b5060408201518051611462916002840191602090910190613cf9565b50606082810151600383810191909155608080850151600485015560a0948501516005909401939093556040805160c08101825273e741fb345d935d47b876555b2f19280345c58b7780825282518084018452601081526f2b34ba30b634b590213aba3432b934b760811b60208281019190915280840191825284518082018652600080825295850152605c96840187905296830195909552604496820196909652949052825282517f2c0f9fd4aca3e2f3ecf5f559e8c9d2a66ff6546e32bfd0fa07e0debc255095a180546001600160a01b0319166001600160a01b0390921691909117815590518051919261157e927f2c0f9fd4aca3e2f3ecf5f559e8c9d2a66ff6546e32bfd0fa07e0debc255095a29290910190613cf9565b506040820151805161159a916002840191602090910190613cf9565b50606082810151600383810191909155608080850151600485015560a0948501516005909401939093556040805160c08101825273b8a69d9292e22194824225784d8521e3e0929d8480825282518084018452600c81526b2537b430b71029ba32bb32b760a11b60208281019190915280840191825284518082018652600080825295850152605196840196909652603a96830196909652604b96820196909652949052815282517f6f58bd7de4463c4ff1ed321c523c6d1746681535c8b17f533416eeb29bf6c4a780546001600160a01b0319166001600160a01b03909216919091178155915180516116b1927f6f58bd7de4463c4ff1ed321c523c6d1746681535c8b17f533416eeb29bf6c4a8920190613cf9565b50604082015180516116cd916002840191602090910190613cf9565b50606082810151600383810191909155608080850151600485015560a0948501516005909401939093556040805160c08101825273b4934b4fd74d3877dffe8e3dbb2b6f659eeba32380825282518084018452600c81526b135a58da18595b0815d85b1b60a21b60208281019190915280840191825284518082018652600080825295850152604f96840196909652605896830196909652605c96820196909652949052815282517feca7c739410c0e6d5e4aa6ab62bb88a5644e21979899e526da480f00d5db42fa80546001600160a01b0319166001600160a01b03909216919091178155915180516117e4927feca7c739410c0e6d5e4aa6ab62bb88a5644e21979899e526da480f00d5db42fb920190613cf9565b5060408201518051611800916002840191602090910190613cf9565b50606082810151600383810191909155608080850151600485015560a0948501516005909401939093556040805160c081018252731a26f4c6693a01c14e93a26220544d0e17db5b2a80825282518084018452600c81526b2532b73734b332b9102bb4b760a11b60208281019190915280840191825284518082018652600080825295850152603f96840196909652604596830196909652602196820196909652949052815282517f0eac3d7f8b644f0200a58bf1c98ac14667811ccb4ef97bed2b83c0233481925480546001600160a01b0319166001600160a01b0390921691909117815591518051611917927f0eac3d7f8b644f0200a58bf1c98ac14667811ccb4ef97bed2b83c02334819255920190613cf9565b5060408201518051611933916002840191602090910190613cf9565b50606082810151600383810191909155608080850151600485015560a0948501516005909401939093556040805160c08101825273534505edca429ff8244dfd20bf6c4aae61b3dc00808252825180840184526009815268416c6963652042617960b81b60208281019190915280840191825284518082018652600080825295850152606296840196909652606396830196909652601096820196909652949052815282517f3c5f015774b52ad8c613345be073e6aa3b48d1289e2a7cc64ae72307d1f619ad80546001600160a01b0319166001600160a01b0390921691909117815591518051611a47927f3c5f015774b52ad8c613345be073e6aa3b48d1289e2a7cc64ae72307d1f619ae920190613cf9565b5060408201518051611a63916002840191602090910190613cf9565b50606082810151600383810191909155608080850151600485015560a0948501516005909401939093556040805160c08101825273702b2975b3b42c82a4d3aa1e2040ce05e6751f7380825282518084018452600a8152692930b1b432b6102230b760b11b60208281019190915280840191825284518082018652600080825295850152605696840196909652605b96830196909652602396820196909652949052815282517f23e6c9c463ea4f4b78ba67360519c35cc2cc7638feee12271b31064750b1517980546001600160a01b0319166001600160a01b0390921691909117815591518051611b78927f23e6c9c463ea4f4b78ba67360519c35cc2cc7638feee12271b31064750b1517a920190613cf9565b5060408201518051611b94916002840191602090910190613cf9565b50606082015160038201556080820151600482015560a090910151600590910155565b33600090815260036020526040902060050154600110611be95760405162461bcd60e51b81526004016102919061472f565b336000908152600360209081526040822060050180546000190190556004805460018101825592528351611c42927f8a35acfbc15ff81a39ae7d344fd709f28e8600b4aa8c65c6b64bfe7fe36bd19b0191850190613cf9565b5081600583604051611c5491906144eb565b90815260200160405180910390206000019080519060200190611c78929190613cf9565b5033600583604051611c8a91906144eb565b908152602001604051809103902060020160006101000a8154816001600160a01b0302191690836001600160a01b0316021790555080600583604051611cd091906144eb565b90815260200160405180910390206001019080519060200190611cf4929190613cf9565b5042600583604051611d0691906144eb565b9081526020016040518091039020600301819055506001600583604051611d2d91906144eb565b9081526040805160209281900383018120600401805460ff1916941515949094179093556002805480840285018401909252818452611daf9392909190830182828015611da357602002820191906000526020600020905b81546001600160a01b03168152600190910190602001808311611d85575b5050505050600a613c18565b600583604051611dbf91906144eb565b90815260200160405180910390206005019080519060200190611de3929190613dce565b505050565b60005b600454811015611ead57600560048281548110611e0457fe5b90600052602060002001604051611e1b9190614507565b9081526040519081900360200190206000611e368282613e2f565b611e44600183016000613e2f565b6002820180546001600160a01b031916905560006003830181905560048301805460ff19169055611e79906005840190613e76565b611e87600683016000613e76565b611e95600783016000613e76565b611ea3600883016000613e94565b5050600101611deb565b50611eba60046000613eb5565b565b6001546001600160a01b03163314611ee65760405162461bcd60e51b815260040161029190614791565b6001600160a01b03909116600090815260036020526040902060050180549091019055565b611f13613ed3565b6001600160a01b03828116600090815260036020908152604091829020825160c08101845281549094168452600180820180548551600261010094831615949094026000190190911692909204601f8101859004850283018501909552848252919385840193919291830182828015611fcd5780601f10611fa257610100808354040283529160200191611fcd565b820191906000526020600020905b815481529060010190602001808311611fb057829003601f168201915b5050509183525050600282810180546040805160206001841615610100026000190190931694909404601f8101839004830285018301909152808452938101939083018282801561205f5780601f106120345761010080835404028352916020019161205f565b820191906000526020600020905b81548152906001019060200180831161204257829003601f168201915b5050505050815260200160038201548152602001600482015481526020016005820154815250509050919050565b612095613d77565b6005826040516120a591906144eb565b9081526040805160209281900383018120805460026001821615610100026000190190911604601f8101859004909402820161014090810190935261012082018481529193909284929184918401828280156121425780601f1061211757610100808354040283529160200191612142565b820191906000526020600020905b81548152906001019060200180831161212557829003601f168201915b50505050508152602001600182018054600181600116156101000203166002900480601f0160208091040260200160405190810160405280929190818152602001828054600181600116156101000203166002900480156121e45780601f106121b9576101008083540402835291602001916121e4565b820191906000526020600020905b8154815290600101906020018083116121c757829003601f168201915b505050918352505060028201546001600160a01b03166020808301919091526003830154604080840191909152600484015460ff1615156060840152600584018054825181850281018501909352808352608090940193919290919083018282801561227957602002820191906000526020600020905b81546001600160a01b0316815260019091019060200180831161225b575b50505050508152602001600682018054806020026020016040519081016040528092919081815260200182805480156122db57602002820191906000526020600020905b81546001600160a01b031681526001909101906020018083116122bd575b505050505081526020016007820180548060200260200160405190810160405280929190818152602001828054801561233d57602002820191906000526020600020905b81546001600160a01b0316815260019091019060200180831161231f575b5050505050815260200160088201805480602002602001604051908101604052809291908181526020016000905b8282101561243f576000848152602090819020604080518082018252600286810290930180546001600160a01b031682526001808201805485516101009382161593909302600019011695909504601f8101879004870282018701909452838152919490938582019390918301828280156124275780601f106123fc57610100808354040283529160200191612427565b820191906000526020600020905b81548152906001019060200180831161240a57829003601f168201915b5050505050815250508152602001906001019061236b565b505050915250909392505050565b60045460609081906001600160401b038111801561246a57600080fd5b506040519080825280602002602001820160405280156124a457816020015b612491613d77565b8152602001906001900390816124895790505b50905060005b60045481101561289b576005600482815481106124c357fe5b906000526020600020016040516124da9190614507565b9081526040805160209281900383018120805460026001821615610100026000190190911604601f8101859004909402820161014090810190935261012082018481529193909284929184918401828280156125775780601f1061254c57610100808354040283529160200191612577565b820191906000526020600020905b81548152906001019060200180831161255a57829003601f168201915b50505050508152602001600182018054600181600116156101000203166002900480601f0160208091040260200160405190810160405280929190818152602001828054600181600116156101000203166002900480156126195780601f106125ee57610100808354040283529160200191612619565b820191906000526020600020905b8154815290600101906020018083116125fc57829003601f168201915b505050918352505060028201546001600160a01b03166020808301919091526003830154604080840191909152600484015460ff161515606084015260058401805482518185028101850190935280835260809094019391929091908301828280156126ae57602002820191906000526020600020905b81546001600160a01b03168152600190910190602001808311612690575b505050505081526020016006820180548060200260200160405190810160405280929190818152602001828054801561271057602002820191906000526020600020905b81546001600160a01b031681526001909101906020018083116126f2575b505050505081526020016007820180548060200260200160405190810160405280929190818152602001828054801561277257602002820191906000526020600020905b81546001600160a01b03168152600190910190602001808311612754575b5050505050815260200160088201805480602002602001604051908101604052809291908181526020016000905b82821015612874576000848152602090819020604080518082018252600286810290930180546001600160a01b031682526001808201805485516101009382161593909302600019011695909504601f81018790048702820187019094528381529194909385820193909183018282801561285c5780601f106128315761010080835404028352916020019161285c565b820191906000526020600020905b81548152906001019060200180831161283f57829003601f168201915b505050505081525050815260200190600101906127a0565b505050508152505082828151811061288857fe5b60209081029190910101526001016124aa565b50905090565b604080516101e0810190915260b361010082018181528291614bf561012084013981526020016040518060e0016040528060b38152602001614a8f60b3913981526020016040518060e0016040528060b3815260200161487660b3913981526020016040518060e0016040528060b38152602001614b4260b3913981526020016040518060e0016040528060b38152602001614d5b60b3913981526020016040518060e0016040528060b381526020016149dc60b3913981526020016040518060e0016040528060b3815260200161492960b3913981526020016040518060e0016040528060b38152602001614ca860b3913990526129a4906004906008613f12565b506129ad613f6b565b506040805161018081018252601261014082018181527150616973616a6520616e6172616e6a61646f60701b6101608401528252825180840184526014808252735369657272617320656e20656c20766572616e6f60601b602083810191909152808501929092528451808601865290815273436f6e737472756363696f6e206d6f6465726e6160601b818301528385015283518085018552601181527010da5d591859081a5b991d5cdd1c9a585b607a1b818301526060840152835180850185529182527153656c66696520656e206c6120626172646160701b828201526080830191909152825180840184526013815272426f737175652064657364652061727269626160681b8183015260a08301528251808401845260178082527f4c6176616e646120656e207072696d657220706c616e6f0000000000000000008284015260c084019190915283518085018552601b81527f426172636f206172726976616e646f2061206c612063697564616400000000008184015260e08401528351808501855260168152755469656e6461206d6f6465726e6120646520726f706160501b81840152610100840152835180850190945283527f50616c6d6572617320646573646520656c207375656c6f0000000000000000009083015261012081019190915260005b600454811015610ca95760048181548110612bae57fe5b90600052602060002001600560048381548110612bc757fe5b90600052602060002001604051612bde9190614507565b9081526040519081900360200190208154612c0c929060026000196101006001841615020190911604613f93565b5060028181548110612c1a57fe5b9060005260206000200160009054906101000a90046001600160a01b0316600560048381548110612c4757fe5b90600052602060002001604051612c5e9190614507565b90815260405190819003602001902060020180546001600160a01b03929092166001600160a01b03199092169190911790558181600a8110612c9c57fe5b6020020151600560048381548110612cb057fe5b90600052602060002001604051612cc79190614507565b90815260200160405180910390206001019080519060200190612ceb929190613cf9565b5080610e10024201600560048381548110612d0257fe5b90600052602060002001604051612d199190614507565b9081526040519081900360200190206003015560028106600014600560048381548110612d4257fe5b90600052602060002001604051612d599190614507565b9081526040805160209281900383018120600401805460ff1916941515949094179093556002805480840285018401909252818452612ddb9392909190830182828015612dcf57602002820191906000526020600020905b81546001600160a01b03168152600190910190602001808311612db1575b50505050506005613c18565b600560048381548110612dea57fe5b90600052602060002001604051612e019190614507565b90815260200160405180910390206005019080519060200190612e25929190613dce565b50612e946002805480602002602001604051908101604052809291908181526020018280548015612e7f57602002820191906000526020600020905b81546001600160a01b03168152600190910190602001808311612e61575b505050505060058381612e8e57fe5b06613c18565b600560048381548110612ea357fe5b90600052602060002001604051612eba9190614507565b90815260200160405180910390206006019080519060200190612ede929190613dce565b50612f506002805480602002602001604051908101604052809291908181526020018280548015612f3857602002820191906000526020600020905b81546001600160a01b03168152600190910190602001808311612f1a575b505050505060058381612f4757fe5b06600503613c18565b600560048381548110612f5f57fe5b90600052602060002001604051612f769190614507565b90815260200160405180910390206007019080519060200190612f9a929190613dce565b50600560048281548110612faa57fe5b90600052602060002001604051612fc19190614507565b9081526020016040518091039020600801604051806040016040528060028481548110612fea57fe5b600091825260209182902001546001600160a01b03168252018484600a811061300f57fe5b60209081029190910151909152825460018082018555600094855293829020835160029092020180546001600160a01b0319166001600160a01b039092169190911781558282015180519394919361306f93928501929190910190613cf9565b505050600101612b97565b60045460609081906001600160401b038111801561309757600080fd5b506040519080825280602002602001820160405280156130cb57816020015b60608152602001906001900390816130b65790505b5090506000805b60045481101561323a5761316f6005600483815481106130ee57fe5b906000526020600020016040516131059190614507565b908152604080519182900360209081018320600501805480830285018301909352828452919083018282801561316457602002820191906000526020600020905b81546001600160a01b03168152600190910190602001808311613146575b505050505086613b3f565b15613232576004818154811061318157fe5b600091825260209182902001805460408051601f600260001961010060018716150201909416939093049283018590048502810185019091528181529283018282801561320f5780601f106131e45761010080835404028352916020019161320f565b820191906000526020600020905b8154815290600101906020018083116131f257829003601f168201915b505050505083838060010194508151811061322657fe5b60200260200101819052505b6001016130d2565b506060816001600160401b038111801561325357600080fd5b5060405190808252806020026020018201604052801561328d57816020015b61327a613d77565b8152602001906001900390816132725790505b50905060005b828110156109245760058482815181106132a957fe5b60200260200101516040516132be91906144eb565b9081526040805160209281900383018120805460026001821615610100026000190190911604601f81018590049094028201610140908101909352610120820184815291939092849291849184018282801561335b5780601f106133305761010080835404028352916020019161335b565b820191906000526020600020905b81548152906001019060200180831161333e57829003601f168201915b50505050508152602001600182018054600181600116156101000203166002900480601f0160208091040260200160405190810160405280929190818152602001828054600181600116156101000203166002900480156133fd5780601f106133d2576101008083540402835291602001916133fd565b820191906000526020600020905b8154815290600101906020018083116133e057829003601f168201915b505050918352505060028201546001600160a01b03166020808301919091526003830154604080840191909152600484015460ff1615156060840152600584018054825181850281018501909352808352608090940193919290919083018282801561349257602002820191906000526020600020905b81546001600160a01b03168152600190910190602001808311613474575b50505050508152602001600682018054806020026020016040519081016040528092919081815260200182805480156134f457602002820191906000526020600020905b81546001600160a01b031681526001909101906020018083116134d6575b505050505081526020016007820180548060200260200160405190810160405280929190818152602001828054801561355657602002820191906000526020600020905b81546001600160a01b03168152600190910190602001808311613538575b5050505050815260200160088201805480602002602001604051908101604052809291908181526020016000905b82821015613658576000848152602090819020604080518082018252600286810290930180546001600160a01b031682526001808201805485516101009382161593909302600019011695909504601f8101879004870282018701909452838152919490938582019390918301828280156136405780601f1061361557610100808354040283529160200191613640565b820191906000526020600020905b81548152906001019060200180831161362357829003601f168201915b50505050508152505081526020019060010190613584565b505050508152505082828151811061366c57fe5b6020908102919091010152600101613293565b600060058260405161369191906144eb565b908152604051908190036020018120600401805492151560ff19909316929092179091556000906005906136c69084906144eb565b90815260405190819003602001812060070154906005906136e89085906144eb565b9081526040519081900360200190206006015411905060005b60058360405161371191906144eb565b908152604051908190036020019020600601548110156137ae57600060058460405161373d91906144eb565b9081526020016040518091039020600601828154811061375957fe5b6000918252602090912001546001600160a01b0316905082156137a5576001600160a01b0381166000908152600360208190526040909120600581018054600201905501805460010190555b50600101613701565b5060005b6005836040516137c291906144eb565b9081526040519081900360200190206007015481101561385e5760006005846040516137ee91906144eb565b9081526020016040518091039020600601828154811061380a57fe5b6000918252602090912001546001600160a01b0316905082613855576001600160a01b0381166000908152600360208190526040909120600581018054600201905501805460010190555b506001016137b2565b5060016003600060058560405161387591906144eb565b9081526040805160209281900383019020600201546001600160a01b03168352908201929092520160002060040180549190910190555050565b3360009081526003602052604090206005015481106138e05760405162461bcd60e51b81526004016102919061472f565b336000908152600360205260408082206005908101805485900390556001600160a01b03949094168252902090910180549091019055565b6000546001600160a01b031681565b60025460609081906001600160401b038111801561394457600080fd5b5060405190808252806020026020018201604052801561397e57816020015b61396b613ed3565b8152602001906001900390816139635790505b50905060005b60025481101561289b57600360006002838154811061399f57fe5b60009182526020808320909101546001600160a01b039081168452838201949094526040928301909120825160c08101845281549094168452600181810180548551601f600260001995841615610100029590950190921693909304908101859004850283018501909552848252919385840193919291830182828015613a675780601f10613a3c57610100808354040283529160200191613a67565b820191906000526020600020905b815481529060010190602001808311613a4a57829003601f168201915b5050509183525050600282810180546040805160206001841615610100026000190190931694909404601f81018390048302850183019091528084529381019390830182828015613af95780601f10613ace57610100808354040283529160200191613af9565b820191906000526020600020905b815481529060010190602001808311613adc57829003601f168201915b505050505081526020016003820154815260200160048201548152602001600582015481525050828281518110613b2c57fe5b6020908102919091010152600101613984565b6000805b8351811015613b8b57826001600160a01b0316848281518110613b6257fe5b60200260200101516001600160a01b03161415613b83576001915050613b91565b600101613b43565b50600090505b92915050565b6000805460405163c3c5a54760e01b81526001600160a01b039091169063c3c5a54790613bc8908590600401614577565b60206040518083038186803b158015613be057600080fd5b505afa158015613bf4573d6000803e3d6000fd5b505050506040513d601f19601f82011682018060405250810190613b91919061413d565b606080826001600160401b0381118015613c3157600080fd5b50604051908082528060200260200182016040528015613c5b578160200160208202803683370190505b509050600084514244604051602001613c759291906147ee565b6040516020818303038152906040528051906020012060001c81613c9557fe5b06905060005b84811015613cef5785865183830181613cb057fe5b0681518110613cbb57fe5b6020026020010151838281518110613ccf57fe5b6001600160a01b0390921660209283029190910190910152600101613c9b565b5090949350505050565b828054600181600116156101000203166002900490600052602060002090601f016020900481019282601f10613d3a57805160ff1916838001178555613d67565b82800160010185558215613d67579182015b82811115613d67578251825591602001919060010190613d4c565b50613d73929150614008565b5090565b604051806101200160405280606081526020016060815260200160006001600160a01b0316815260200160008152602001600015158152602001606081526020016060815260200160608152602001606081525090565b828054828255906000526020600020908101928215613e23579160200282015b82811115613e2357825182546001600160a01b0319166001600160a01b03909116178255602090920191600190910190613dee565b50613d7392915061401d565b50805460018160011615610100020316600290046000825580601f10613e555750613e73565b601f016020900490600052602060002090810190613e739190614008565b50565b5080546000825590600052602060002090810190613e739190614008565b5080546000825560020290600052602060002090810190613e73919061403c565b5080546000825590600052602060002090810190613e73919061406a565b6040518060c0016040528060006001600160a01b0316815260200160608152602001606081526020016000815260200160008152602001600081525090565b828054828255906000526020600020908101928215613f5f579160200282015b82811115613f5f5782518051613f4f918491602090910190613cf9565b5091602001919060010190613f32565b50613d7392915061406a565b604051806101400160405280600a905b6060815260200190600190039081613f7b5790505090565b828054600181600116156101000203166002900490600052602060002090601f016020900481019282601f10613fcc5780548555613d67565b82800160010185558215613d6757600052602060002091601f016020900482015b82811115613d67578254825591600101919060010190613fed565b5b80821115613d735760008155600101614009565b5b80821115613d735780546001600160a01b031916815560010161401e565b80821115613d735780546001600160a01b031916815560006140616001830182613e2f565b5060020161403c565b80821115613d7357600061407e8282613e2f565b5060010161406a565b80356001600160a01b0381168114613b9157600080fd5b600082601f8301126140ae578081fd5b81356140c16140bc82614822565b6147fc565b91508082528360208285010111156140d857600080fd5b8060208401602084013760009082016020015292915050565b600060208284031215614102578081fd5b61410c8383614087565b9392505050565b60008060408385031215614125578081fd5b61412f8484614087565b946020939093013593505050565b60006020828403121561414e578081fd5b8151801515811461410c578182fd5b60006020828403121561416e578081fd5b81356001600160401b03811115614183578182fd5b61418f8482850161409e565b949350505050565b6000602082840312156141a8578081fd5b81516001600160401b038111156141bd578182fd5b8201601f810184136141cd578182fd5b80516141db6140bc82614822565b8181528560208385010111156141ef578384fd5b614200826020830160208601614845565b95945050505050565b6000806040838503121561421b578182fd5b82356001600160401b03811115614230578283fd5b61423c8582860161409e565b925050602083013560028110614250578182fd5b809150509250929050565b6000806040838503121561426d578182fd5b82356001600160401b0380821115614283578384fd5b61428f8683870161409e565b935060208501359150808211156142a4578283fd5b506142b18582860161409e565b9150509250929050565b6001600160a01b03169052565b6000815180845260208085019450808401835b838110156143005781516001600160a01b0316875295820195908201906001016142db565b509495945050505050565b6000815180845260208085018081965082840281019150828601855b8581101561436e578284038952815180516001600160a01b03168552850151604086860181905261435a81870183614381565b9a87019a9550505090840190600101614327565b5091979650505050505050565b15159052565b60008151808452614399816020860160208601614845565b601f01601f19169290920160200192915050565b600061012082518185526143c382860182614381565b915050602083015184820360208601526143dd8282614381565b91505060408301516143f260408601826142bb565b5060608301516060850152608083015161440f608086018261437b565b5060a083015184820360a086015261442782826142c8565b91505060c083015184820360c086015261444182826142c8565b91505060e083015184820360e086015261445b82826142c8565b9150506101008084015185830382870152614476838261430b565b9695505050505050565b600060018060a01b038251168352602082015160c060208501526144a760c0850182614381565b9050604083015184820360408601526144c08282614381565b915050606083015160608501526080830151608085015260a083015160a08501528091505092915050565b600082516144fd818460208701614845565b9190910192915050565b6000808354600180821660008114614526576001811461453d5761456c565b60ff198316865260028304607f168601935061456c565b600283048786526020808720875b838110156145645781548a82015290850190820161454b565b505050860193505b509195945050505050565b6001600160a01b0391909116815260200190565b6000602080830181845280855180835260408601915060408482028701019250838701855b828110156145de57603f198886030184526145cc8583516143ad565b945092850192908501906001016145b0565b5092979650505050505050565b6000602080830181845280855180835260408601915060408482028701019250838701855b828110156145de57603f1988860301845261462c858351614480565b94509285019290850190600101614610565b602080825260129082015271125b5859d948191bd95cdb9d08195e1a5cdd60721b604082015260600190565b6020808252602c908201527f55736572206973206e6f742072656769737465726564206f6e2050726f6f662060408201526b37b310243ab6b0b734ba3c9760a11b606082015260800190565b6020808252600d908201526c105b1c9958591e481d9bdd1959609a1b604082015260600190565b6020808252600d908201526c159bdd1a5b99c818db1bdcd959609a1b604082015260600190565b602080825260119082015270159bdd195c881b9bdd08185b1b1bddd959607a1b604082015260600190565b6020808252601190820152704e6f7420656e6f75676820746f6b656e7360781b604082015260600190565b6020808252601a908201527f5573657220697320616c72656164792072656769737465726564000000000000604082015260600190565b6020808252601a908201527f4f6e6c79206f776e65722063616e206d696e7420746f6b656e73000000000000604082015260600190565b60006020825261410c60208301846143ad565b60006020825261410c6020830184614480565b918252602082015260400190565b6040518181016001600160401b038111828210171561481a57600080fd5b604052919050565b60006001600160401b03821115614837578081fd5b50601f01601f191660200190565b60005b83811015614860578181015183820152602001614848565b8381111561486f576000848401525b5050505056fe68747470733a2f2f696d616765732e756e73706c6173682e636f6d2f70686f746f2d313637383030343636383939372d6131643538376431303463343f63726f703d656e74726f70792663733d74696e7973726762266669743d6d617826666d3d6a706726697869643d4d6e7778664442384d5878795957356b623231384d48783866487838664878384d5459344d444d354e7a417a4e672669786c69623d72622d342e302e3326713d383026773d3130383068747470733a2f2f696d616765732e756e73706c6173682e636f6d2f70686f746f2d313637393435383131383231322d3735376538343336646334363f63726f703d656e74726f70792663733d74696e7973726762266669743d6d617826666d3d6a706726697869643d4d6e7778664442384d5878795957356b623231384d48783866487838664878384d5459344d444d354f4459304d672669786c69623d72622d342e302e3326713d383026773d3130383068747470733a2f2f696d616765732e756e73706c6173682e636f6d2f70686f746f2d313637373933393936383031392d3332636461333766643865343f63726f703d656e74726f70792663733d74696e7973726762266669743d6d617826666d3d6a706726697869643d4d6e7778664442384d5878795957356b623231384d48783866487838664878384d5459344d444d354e7a41304f412669786c69623d72622d342e302e3326713d383026773d3130383068747470733a2f2f696d616765732e756e73706c6173682e636f6d2f70686f746f2d313637373232373831323535362d3737303036623634623261363f63726f703d656e74726f70792663733d74696e7973726762266669743d6d617826666d3d6a706726697869643d4d6e7778664442384d5878795957356b623231384d48783866487838664878384d5459344d444d354e7a417a4e412669786c69623d72622d342e302e3326713d383026773d3130383068747470733a2f2f696d616765732e756e73706c6173682e636f6d2f70686f746f2d313637393935373833383733362d3036323635646234643132313f63726f703d656e74726f70792663733d74696e7973726762266669743d6d617826666d3d6a706726697869643d4d6e7778664442384d5878795957356b623231384d48783866487838664878384d5459344d444d354e7a417a4f412669786c69623d72622d342e302e3326713d383026773d3130383068747470733a2f2f696d616765732e756e73706c6173682e636f6d2f70686f746f2d313637393934333038373731372d3162616632353732316437333f63726f703d656e74726f70792663733d74696e7973726762266669743d6d617826666d3d6a706726697869643d4d6e7778664442384d5878795957356b623231384d48783866487838664878384d5459344d444d354d7a59324e772669786c69623d72622d342e302e3326713d383026773d3130383068747470733a2f2f696d616765732e756e73706c6173682e636f6d2f70686f746f2d313637393539393736373334342d6432386434373737316364643f63726f703d656e74726f70792663733d74696e7973726762266669743d6d617826666d3d6a706726697869643d4d6e7778664442384d5878795957356b623231384d48783866487838664878384d5459344d444d354f4459304f412669786c69623d72622d342e302e3326713d383026773d3130383068747470733a2f2f696d616765732e756e73706c6173682e636f6d2f70686f746f2d313637373933393936383031392d3332636461333766643865343f63726f703d656e74726f70792663733d74696e7973726762266669743d6d617826666d3d6a706726697869643d4d6e7778664442384d5878795957356b623231384d48783866487838664878384d5459344d444d354e7a41304e672669786c69623d72622d342e302e3326713d383026773d31303830a2646970667358221220bbca7cd60a6cec050a13218f6e58cc74c8bee0ce818598f30750a7f2cf76ff9764736f6c634300060c0033",
  "bytecodeSha1": "c48ee141aa26195ffc73aa78148881e731ff6e89",
  "compiler": {
    "evm_version": "istanbul",
    "optimizer": {
      "enabled": true,
      "runs": 200
    },
    "version": "0.6.12+commit.27d51765"
  },
  "contractName": "MainContract",
  "language": "Solidity",
  "natspec": {
    "kind": "dev",
    "methods": {},
    "version": 1
  },
  "opcodes": "PUSH1 0x80 PUSH1 0x40 MSTORE CALLVALUE DUP1 ISZERO PUSH2 0x10 JUMPI PUSH1 0x0 DUP1 REVERT JUMPDEST POP PUSH1 0x4 CALLDATASIZE LT PUSH2 0x10B JUMPI PUSH1 0x0 CALLDATALOAD PUSH1 0xE0 SHR DUP1 PUSH4 0x69C212F6 GT PUSH2 0xA2 JUMPI DUP1 PUSH4 0xA07F5FA0 GT PUSH2 0x71 JUMPI DUP1 PUSH4 0xA07F5FA0 EQ PUSH2 0x1EF JUMPI DUP1 PUSH4 0xAB880D8D EQ PUSH2 0x202 JUMPI DUP1 PUSH4 0xBEC3FA17 EQ PUSH2 0x215 JUMPI DUP1 PUSH4 0xD9605867 EQ PUSH2 0x228 JUMPI DUP1 PUSH4 0xE2842D79 EQ PUSH2 0x23D JUMPI PUSH2 0x10B JUMP JUMPDEST DUP1 PUSH4 0x69C212F6 EQ PUSH2 0x19F JUMPI DUP1 PUSH4 0x6D68C48C EQ PUSH2 0x1BF JUMPI DUP1 PUSH4 0x7B7284FC EQ PUSH2 0x1DF JUMPI DUP1 PUSH4 0x8EBDCCDE EQ PUSH2 0x1E7 JUMPI PUSH2 0x10B JUMP JUMPDEST DUP1 PUSH4 0x50E4BF32 GT PUSH2 0xDE JUMPI DUP1 PUSH4 0x50E4BF32 EQ PUSH2 0x169 JUMPI DUP1 PUSH4 0x529C1841 EQ PUSH2 0x171 JUMPI DUP1 PUSH4 0x5B172A05 EQ PUSH2 0x184 JUMPI DUP1 PUSH4 0x6039FBDB EQ PUSH2 0x18C JUMPI PUSH2 0x10B JUMP JUMPDEST DUP1 PUSH4 0x298BA44 EQ PUSH2 0x110 JUMPI DUP1 PUSH4 0x1811D578 EQ PUSH2 0x125 JUMPI DUP1 PUSH4 0x36477181 EQ PUSH2 0x14E JUMPI DUP1 PUSH4 0x4D3820EB EQ PUSH2 0x161 JUMPI JUMPDEST PUSH1 0x0 DUP1 REVERT JUMPDEST PUSH2 0x123 PUSH2 0x11E CALLDATASIZE PUSH1 0x4 PUSH2 0x425B JUMP JUMPDEST PUSH2 0x252 JUMP JUMPDEST STOP JUMPDEST PUSH2 0x138 PUSH2 0x133 CALLDATASIZE PUSH1 0x4 PUSH2 0x40F1 JUMP JUMPDEST PUSH2 0x365 JUMP JUMPDEST PUSH1 0x40 MLOAD PUSH2 0x145 SWAP2 SWAP1 PUSH2 0x458B JUMP JUMPDEST PUSH1 0x40 MLOAD DUP1 SWAP2 SUB SWAP1 RETURN JUMPDEST PUSH2 0x123 PUSH2 0x15C CALLDATASIZE PUSH1 0x4 PUSH2 0x4209 JUMP JUMPDEST PUSH2 0x92D JUMP JUMPDEST PUSH2 0x123 PUSH2 0xCAD JUMP JUMPDEST PUSH2 0x123 PUSH2 0xEA8 JUMP JUMPDEST PUSH2 0x123 PUSH2 0x17F CALLDATASIZE PUSH1 0x4 PUSH2 0x425B JUMP JUMPDEST PUSH2 0x1BB7 JUMP JUMPDEST PUSH2 0x123 PUSH2 0x1DE8 JUMP JUMPDEST PUSH2 0x123 PUSH2 0x19A CALLDATASIZE PUSH1 0x4 PUSH2 0x4113 JUMP JUMPDEST PUSH2 0x1EBC JUMP JUMPDEST PUSH2 0x1B2 PUSH2 0x1AD CALLDATASIZE PUSH1 0x4 PUSH2 0x40F1 JUMP JUMPDEST PUSH2 0x1F0B JUMP JUMPDEST PUSH1 0x40 MLOAD PUSH2 0x145 SWAP2 SWAP1 PUSH2 0x47DB JUMP JUMPDEST PUSH2 0x1D2 PUSH2 0x1CD CALLDATASIZE PUSH1 0x4 PUSH2 0x415D JUMP JUMPDEST PUSH2 0x208D JUMP JUMPDEST PUSH1 0x40 MLOAD PUSH2 0x145 SWAP2 SWAP1 PUSH2 0x47C8 JUMP JUMPDEST PUSH2 0x138 PUSH2 0x244D JUMP JUMPDEST PUSH2 0x123 PUSH2 0x28A1 JUMP JUMPDEST PUSH2 0x138 PUSH2 0x1FD CALLDATASIZE PUSH1 0x4 PUSH2 0x40F1 JUMP JUMPDEST PUSH2 0x307A JUMP JUMPDEST PUSH2 0x123 PUSH2 0x210 CALLDATASIZE PUSH1 0x4 PUSH2 0x415D JUMP JUMPDEST PUSH2 0x367F JUMP JUMPDEST PUSH2 0x123 PUSH2 0x223 CALLDATASIZE PUSH1 0x4 PUSH2 0x4113 JUMP JUMPDEST PUSH2 0x38AF JUMP JUMPDEST PUSH2 0x230 PUSH2 0x3918 JUMP JUMPDEST PUSH1 0x40 MLOAD PUSH2 0x145 SWAP2 SWAP1 PUSH2 0x4577 JUMP JUMPDEST PUSH2 0x245 PUSH2 0x3927 JUMP JUMPDEST PUSH1 0x40 MLOAD PUSH2 0x145 SWAP2 SWAP1 PUSH2 0x45EB JUMP JUMPDEST PUSH1 0x5 DUP3 PUSH1 0x40 MLOAD PUSH2 0x262 SWAP2 SWAP1 PUSH2 0x44EB JUMP JUMPDEST SWAP1 DUP2 MSTORE PUSH1 0x40 MLOAD SWAP1 DUP2 SWAP1 SUB PUSH1 0x20 ADD SWAP1 KECCAK256 PUSH1 0x5 ADD SLOAD PUSH2 0x29A JUMPI PUSH1 0x40 MLOAD PUSH3 0x461BCD PUSH1 0xE5 SHL DUP2 MSTORE PUSH1 0x4 ADD PUSH2 0x291 SWAP1 PUSH2 0x463E JUMP JUMPDEST PUSH1 0x40 MLOAD DUP1 SWAP2 SUB SWAP1 REVERT JUMPDEST PUSH1 0x5 DUP3 PUSH1 0x40 MLOAD PUSH2 0x2AA SWAP2 SWAP1 PUSH2 0x44EB JUMP JUMPDEST SWAP1 DUP2 MSTORE PUSH1 0x40 MLOAD SWAP1 DUP2 SWAP1 SUB PUSH1 0x20 ADD SWAP1 KECCAK256 PUSH1 0x4 ADD SLOAD PUSH1 0xFF AND PUSH2 0x2DC JUMPI PUSH1 0x40 MLOAD PUSH3 0x461BCD PUSH1 0xE5 SHL DUP2 MSTORE PUSH1 0x4 ADD PUSH2 0x291 SWAP1 PUSH2 0x46DD JUMP JUMPDEST PUSH1 0x5 DUP3 PUSH1 0x40 MLOAD PUSH2 0x2EC SWAP2 SWAP1 PUSH2 0x44EB JUMP JUMPDEST SWAP1 DUP2 MSTORE PUSH1 0x40 DUP1 MLOAD PUSH1 0x20 SWAP3 DUP2 SWAP1 SUB DUP4 ADD DUP2 KECCAK256 DUP2 DUP4 ADD SWAP1 SWAP3 MSTORE CALLER DUP2 MSTORE DUP3 DUP2 ADD DUP5 DUP2 MSTORE PUSH1 0x8 SWAP1 SWAP3 ADD DUP1 SLOAD PUSH1 0x1 DUP1 DUP3 ADD DUP4 SSTORE PUSH1 0x0 SWAP3 DUP4 MSTORE SWAP2 DUP6 SWAP1 KECCAK256 DUP4 MLOAD PUSH1 0x2 SWAP1 SWAP3 MUL ADD DUP1 SLOAD PUSH1 0x1 PUSH1 0x1 PUSH1 0xA0 SHL SUB NOT AND PUSH1 0x1 PUSH1 0x1 PUSH1 0xA0 SHL SUB SWAP1 SWAP3 AND SWAP2 SWAP1 SWAP2 OR DUP2 SSTORE SWAP3 MLOAD DUP1 MLOAD SWAP3 SWAP5 PUSH2 0x35E SWAP4 SWAP3 DUP6 ADD SWAP3 SWAP2 ADD SWAP1 PUSH2 0x3CF9 JUMP JUMPDEST POP POP POP POP POP JUMP JUMPDEST PUSH1 0x4 SLOAD PUSH1 0x60 SWAP1 DUP2 SWAP1 PUSH1 0x1 PUSH1 0x1 PUSH1 0x40 SHL SUB DUP2 GT DUP1 ISZERO PUSH2 0x382 JUMPI PUSH1 0x0 DUP1 REVERT JUMPDEST POP PUSH1 0x40 MLOAD SWAP1 DUP1 DUP3 MSTORE DUP1 PUSH1 0x20 MUL PUSH1 0x20 ADD DUP3 ADD PUSH1 0x40 MSTORE DUP1 ISZERO PUSH2 0x3B6 JUMPI DUP2 PUSH1 0x20 ADD JUMPDEST PUSH1 0x60 DUP2 MSTORE PUSH1 0x20 ADD SWAP1 PUSH1 0x1 SWAP1 SUB SWAP1 DUP2 PUSH2 0x3A1 JUMPI SWAP1 POP JUMPDEST POP SWAP1 POP PUSH1 0x0 DUP1 JUMPDEST PUSH1 0x4 SLOAD DUP2 LT ISZERO PUSH2 0x4DF JUMPI DUP5 PUSH1 0x1 PUSH1 0x1 PUSH1 0xA0 SHL SUB AND PUSH1 0x5 PUSH1 0x4 DUP4 DUP2 SLOAD DUP2 LT PUSH2 0x3E0 JUMPI INVALID JUMPDEST SWAP1 PUSH1 0x0 MSTORE PUSH1 0x20 PUSH1 0x0 KECCAK256 ADD PUSH1 0x40 MLOAD PUSH2 0x3F7 SWAP2 SWAP1 PUSH2 0x4507 JUMP JUMPDEST SWAP1 DUP2 MSTORE PUSH1 0x40 MLOAD SWAP1 DUP2 SWAP1 SUB PUSH1 0x20 ADD SWAP1 KECCAK256 PUSH1 0x2 ADD SLOAD PUSH1 0x1 PUSH1 0x1 PUSH1 0xA0 SHL SUB AND EQ ISZERO PUSH2 0x4D7 JUMPI PUSH1 0x4 DUP2 DUP2 SLOAD DUP2 LT PUSH2 0x426 JUMPI INVALID JUMPDEST PUSH1 0x0 SWAP2 DUP3 MSTORE PUSH1 0x20 SWAP2 DUP3 SWAP1 KECCAK256 ADD DUP1 SLOAD PUSH1 0x40 DUP1 MLOAD PUSH1 0x1F PUSH1 0x2 PUSH1 0x0 NOT PUSH2 0x100 PUSH1 0x1 DUP8 AND ISZERO MUL ADD SWAP1 SWAP5 AND SWAP4 SWAP1 SWAP4 DIV SWAP3 DUP4 ADD DUP6 SWAP1 DIV DUP6 MUL DUP2 ADD DUP6 ADD SWAP1 SWAP2 MSTORE DUP2 DUP2 MSTORE SWAP3 DUP4 ADD DUP3 DUP3 DUP1 ISZERO PUSH2 0x4B4 JUMPI DUP1 PUSH1 0x1F LT PUSH2 0x489 JUMPI PUSH2 0x100 DUP1 DUP4 SLOAD DIV MUL DUP4 MSTORE SWAP2 PUSH1 0x20 ADD SWAP2 PUSH2 0x4B4 JUMP JUMPDEST DUP3 ADD SWAP2 SWAP1 PUSH1 0x0 MSTORE PUSH1 0x20 PUSH1 0x0 KECCAK256 SWAP1 JUMPDEST DUP2 SLOAD DUP2 MSTORE SWAP1 PUSH1 0x1 ADD SWAP1 PUSH1 0x20 ADD DUP1 DUP4 GT PUSH2 0x497 JUMPI DUP3 SWAP1 SUB PUSH1 0x1F AND DUP3 ADD SWAP2 JUMPDEST POP POP POP POP POP DUP4 DUP4 DUP1 PUSH1 0x1 ADD SWAP5 POP DUP2 MLOAD DUP2 LT PUSH2 0x4CB JUMPI INVALID JUMPDEST PUSH1 0x20 MUL PUSH1 0x20 ADD ADD DUP2 SWAP1 MSTORE POP JUMPDEST PUSH1 0x1 ADD PUSH2 0x3BD JUMP JUMPDEST POP PUSH1 0x60 DUP2 PUSH1 0x1 PUSH1 0x1 PUSH1 0x40 SHL SUB DUP2 GT DUP1 ISZERO PUSH2 0x4F8 JUMPI PUSH1 0x0 DUP1 REVERT JUMPDEST POP PUSH1 0x40 MLOAD SWAP1 DUP1 DUP3 MSTORE DUP1 PUSH1 0x20 MUL PUSH1 0x20 ADD DUP3 ADD PUSH1 0x40 MSTORE DUP1 ISZERO PUSH2 0x532 JUMPI DUP2 PUSH1 0x20 ADD JUMPDEST PUSH2 0x51F PUSH2 0x3D77 JUMP JUMPDEST DUP2 MSTORE PUSH1 0x20 ADD SWAP1 PUSH1 0x1 SWAP1 SUB SWAP1 DUP2 PUSH2 0x517 JUMPI SWAP1 POP JUMPDEST POP SWAP1 POP PUSH1 0x0 JUMPDEST DUP3 DUP2 LT ISZERO PUSH2 0x924 JUMPI PUSH1 0x5 DUP5 DUP3 DUP2 MLOAD DUP2 LT PUSH2 0x54E JUMPI INVALID JUMPDEST PUSH1 0x20 MUL PUSH1 0x20 ADD ADD MLOAD PUSH1 0x40 MLOAD PUSH2 0x563 SWAP2 SWAP1 PUSH2 0x44EB JUMP JUMPDEST SWAP1 DUP2 MSTORE PUSH1 0x40 DUP1 MLOAD PUSH1 0x20 SWAP3 DUP2 SWAP1 SUB DUP4 ADD DUP2 KECCAK256 DUP1 SLOAD PUSH1 0x2 PUSH1 0x1 DUP3 AND ISZERO PUSH2 0x100 MUL PUSH1 0x0 NOT ADD SWAP1 SWAP2 AND DIV PUSH1 0x1F DUP2 ADD DUP6 SWAP1 DIV SWAP1 SWAP5 MUL DUP3 ADD PUSH2 0x140 SWAP1 DUP2 ADD SWAP1 SWAP4 MSTORE PUSH2 0x120 DUP3 ADD DUP5 DUP2 MSTORE SWAP2 SWAP4 SWAP1 SWAP3 DUP5 SWAP3 SWAP2 DUP5 SWAP2 DUP5 ADD DUP3 DUP3 DUP1 ISZERO PUSH2 0x600 JUMPI DUP1 PUSH1 0x1F LT PUSH2 0x5D5 JUMPI PUSH2 0x100 DUP1 DUP4 SLOAD DIV MUL DUP4 MSTORE SWAP2 PUSH1 0x20 ADD SWAP2 PUSH2 0x600 JUMP JUMPDEST DUP3 ADD SWAP2 SWAP1 PUSH1 0x0 MSTORE PUSH1 0x20 PUSH1 0x0 KECCAK256 SWAP1 JUMPDEST DUP2 SLOAD DUP2 MSTORE SWAP1 PUSH1 0x1 ADD SWAP1 PUSH1 0x20 ADD DUP1 DUP4 GT PUSH2 0x5E3 JUMPI DUP3 SWAP1 SUB PUSH1 0x1F AND DUP3 ADD SWAP2 JUMPDEST POP POP POP POP POP DUP2 MSTORE PUSH1 0x20 ADD PUSH1 0x1 DUP3 ADD DUP1 SLOAD PUSH1 0x1 DUP2 PUSH1 0x1 AND ISZERO PUSH2 0x100 MUL SUB AND PUSH1 0x2 SWAP1 DIV DUP1 PUSH1 0x1F ADD PUSH1 0x20 DUP1 SWAP2 DIV MUL PUSH1 0x20 ADD PUSH1 0x40 MLOAD SWAP1 DUP2 ADD PUSH1 0x40 MSTORE DUP1 SWAP3 SWAP2 SWAP1 DUP2 DUP2 MSTORE PUSH1 0x20 ADD DUP3 DUP1 SLOAD PUSH1 0x1 DUP2 PUSH1 0x1 AND ISZERO PUSH2 0x100 MUL SUB AND PUSH1 0x2 SWAP1 DIV DUP1 ISZERO PUSH2 0x6A2 JUMPI DUP1 PUSH1 0x1F LT PUSH2 0x677 JUMPI PUSH2 0x100 DUP1 DUP4 SLOAD DIV MUL DUP4 MSTORE SWAP2 PUSH1 0x20 ADD SWAP2 PUSH2 0x6A2 JUMP JUMPDEST DUP3 ADD SWAP2 SWAP1 PUSH1 0x0 MSTORE PUSH1 0x20 PUSH1 0x0 KECCAK256 SWAP1 JUMPDEST DUP2 SLOAD DUP2 MSTORE SWAP1 PUSH1 0x1 ADD SWAP1 PUSH1 0x20 ADD DUP1 DUP4 GT PUSH2 0x685 JUMPI DUP3 SWAP1 SUB PUSH1 0x1F AND DUP3 ADD SWAP2 JUMPDEST POP POP POP SWAP2 DUP4 MSTORE POP POP PUSH1 0x2 DUP3 ADD SLOAD PUSH1 0x1 PUSH1 0x1 PUSH1 0xA0 SHL SUB AND PUSH1 0x20 DUP1 DUP4 ADD SWAP2 SWAP1 SWAP2 MSTORE PUSH1 0x3 DUP4 ADD SLOAD PUSH1 0x40 DUP1 DUP5 ADD SWAP2 SWAP1 SWAP2 MSTORE PUSH1 0x4 DUP5 ADD SLOAD PUSH1 0xFF AND ISZERO ISZERO PUSH1 0x60 DUP5 ADD MSTORE PUSH1 0x5 DUP5 ADD DUP1 SLOAD DUP3 MLOAD DUP2 DUP6 MUL DUP2 ADD DUP6 ADD SWAP1 SWAP4 MSTORE DUP1 DUP4 MSTORE PUSH1 0x80 SWAP1 SWAP5 ADD SWAP4 SWAP2 SWAP3 SWAP1 SWAP2 SWAP1 DUP4 ADD DUP3 DUP3 DUP1 ISZERO PUSH2 0x737 JUMPI PUSH1 0x20 MUL DUP3 ADD SWAP2 SWAP1 PUSH1 0x0 MSTORE PUSH1 0x20 PUSH1 0x0 KECCAK256 SWAP1 JUMPDEST DUP2 SLOAD PUSH1 0x1 PUSH1 0x1 PUSH1 0xA0 SHL SUB AND DUP2 MSTORE PUSH1 0x1 SWAP1 SWAP2 ADD SWAP1 PUSH1 0x20 ADD DUP1 DUP4 GT PUSH2 0x719 JUMPI JUMPDEST POP POP POP POP POP DUP2 MSTORE PUSH1 0x20 ADD PUSH1 0x6 DUP3 ADD DUP1 SLOAD DUP1 PUSH1 0x20 MUL PUSH1 0x20 ADD PUSH1 0x40 MLOAD SWAP1 DUP2 ADD PUSH1 0x40 MSTORE DUP1 SWAP3 SWAP2 SWAP1 DUP2 DUP2 MSTORE PUSH1 0x20 ADD DUP3 DUP1 SLOAD DUP1 ISZERO PUSH2 0x799 JUMPI PUSH1 0x20 MUL DUP3 ADD SWAP2 SWAP1 PUSH1 0x0 MSTORE PUSH1 0x20 PUSH1 0x0 KECCAK256 SWAP1 JUMPDEST DUP2 SLOAD PUSH1 0x1 PUSH1 0x1 PUSH1 0xA0 SHL SUB AND DUP2 MSTORE PUSH1 0x1 SWAP1 SWAP2 ADD SWAP1 PUSH1 0x20 ADD DUP1 DUP4 GT PUSH2 0x77B JUMPI JUMPDEST POP POP POP POP POP DUP2 MSTORE PUSH1 0x20 ADD PUSH1 0x7 DUP3 ADD DUP1 SLOAD DUP1 PUSH1 0x20 MUL PUSH1 0x20 ADD PUSH1 0x40 MLOAD SWAP1 DUP2 ADD PUSH1 0x40 MSTORE DUP1 SWAP3 SWAP2 SWAP1 DUP2 DUP2 MSTORE PUSH1 0x20 ADD DUP3 DUP1 SLOAD DUP1 ISZERO PUSH2 0x7FB JUMPI PUSH1 0x20 MUL DUP3 ADD SWAP2 SWAP1 PUSH1 0x0 MSTORE PUSH1 0x20 PUSH1 0x0 KECCAK256 SWAP1 JUMPDEST DUP2 SLOAD PUSH1 0x1 PUSH1 0x1 PUSH1 0xA0 SHL SUB AND DUP2 MSTORE PUSH1 0x1 SWAP1 SWAP2 ADD SWAP1 PUSH1 0x20 ADD DUP1 DUP4 GT PUSH2 0x7DD JUMPI JUMPDEST POP POP POP POP POP DUP2 MSTORE PUSH1 0x20 ADD PUSH1 0x8 DUP3 ADD DUP1 SLOAD DUP1 PUSH1 0x20 MUL PUSH1 0x20 ADD PUSH1 0x40 MLOAD SWAP1 DUP2 ADD PUSH1 0x40 MSTORE DUP1 SWAP3 SWAP2 SWAP1 DUP2 DUP2 MSTORE PUSH1 0x20 ADD PUSH1 0x0 SWAP1 JUMPDEST DUP3 DUP3 LT ISZERO PUSH2 0x8FD JUMPI PUSH1 0x0 DUP5 DUP2 MSTORE PUSH1 0x20 SWAP1 DUP2 SWAP1 KECCAK256 PUSH1 0x40 DUP1 MLOAD DUP1 DUP3 ADD DUP3 MSTORE PUSH1 0x2 DUP7 DUP2 MUL SWAP1 SWAP4 ADD DUP1 SLOAD PUSH1 0x1 PUSH1 0x1 PUSH1 0xA0 SHL SUB AND DUP3 MSTORE PUSH1 0x1 DUP1 DUP3 ADD DUP1 SLOAD DUP6 MLOAD PUSH2 0x100 SWAP4 DUP3 AND ISZERO SWAP4 SWAP1 SWAP4 MUL PUSH1 0x0 NOT ADD AND SWAP6 SWAP1 SWAP6 DIV PUSH1 0x1F DUP2 ADD DUP8 SWAP1 DIV DUP8 MUL DUP3 ADD DUP8 ADD SWAP1 SWAP5 MSTORE DUP4 DUP2 MSTORE SWAP2 SWAP5 SWAP1 SWAP4 DUP6 DUP3 ADD SWAP4 SWAP1 SWAP2 DUP4 ADD DUP3 DUP3 DUP1 ISZERO PUSH2 0x8E5 JUMPI DUP1 PUSH1 0x1F LT PUSH2 0x8BA JUMPI PUSH2 0x100 DUP1 DUP4 SLOAD DIV MUL DUP4 MSTORE SWAP2 PUSH1 0x20 ADD SWAP2 PUSH2 0x8E5 JUMP JUMPDEST DUP3 ADD SWAP2 SWAP1 PUSH1 0x0 MSTORE PUSH1 0x20 PUSH1 0x0 KECCAK256 SWAP1 JUMPDEST DUP2 SLOAD DUP2 MSTORE SWAP1 PUSH1 0x1 ADD SWAP1 PUSH1 0x20 ADD DUP1 DUP4 GT PUSH2 0x8C8 JUMPI DUP3 SWAP1 SUB PUSH1 0x1F AND DUP3 ADD SWAP2 JUMPDEST POP POP POP POP POP DUP2 MSTORE POP POP DUP2 MSTORE PUSH1 0x20 ADD SWAP1 PUSH1 0x1 ADD SWAP1 PUSH2 0x829 JUMP JUMPDEST POP POP POP POP DUP2 MSTORE POP POP DUP3 DUP3 DUP2 MLOAD DUP2 LT PUSH2 0x911 JUMPI INVALID JUMPDEST PUSH1 0x20 SWAP1 DUP2 MUL SWAP2 SWAP1 SWAP2 ADD ADD MSTORE PUSH1 0x1 ADD PUSH2 0x538 JUMP JUMPDEST POP SWAP5 SWAP4 POP POP POP POP JUMP JUMPDEST PUSH1 0x5 DUP3 PUSH1 0x40 MLOAD PUSH2 0x93D SWAP2 SWAP1 PUSH2 0x44EB JUMP JUMPDEST SWAP1 DUP2 MSTORE PUSH1 0x40 MLOAD SWAP1 DUP2 SWAP1 SUB PUSH1 0x20 ADD SWAP1 KECCAK256 PUSH1 0x5 ADD SLOAD PUSH2 0x96C JUMPI PUSH1 0x40 MLOAD PUSH3 0x461BCD PUSH1 0xE5 SHL DUP2 MSTORE PUSH1 0x4 ADD PUSH2 0x291 SWAP1 PUSH2 0x463E JUMP JUMPDEST PUSH2 0x9E9 PUSH1 0x5 DUP4 PUSH1 0x40 MLOAD PUSH2 0x97F SWAP2 SWAP1 PUSH2 0x44EB JUMP JUMPDEST SWAP1 DUP2 MSTORE PUSH1 0x40 DUP1 MLOAD SWAP2 DUP3 SWAP1 SUB PUSH1 0x20 SWAP1 DUP2 ADD DUP4 KECCAK256 PUSH1 0x5 ADD DUP1 SLOAD DUP1 DUP4 MUL DUP6 ADD DUP4 ADD SWAP1 SWAP4 MSTORE DUP3 DUP5 MSTORE SWAP2 SWAP1 DUP4 ADD DUP3 DUP3 DUP1 ISZERO PUSH2 0x9DE JUMPI PUSH1 0x20 MUL DUP3 ADD SWAP2 SWAP1 PUSH1 0x0 MSTORE PUSH1 0x20 PUSH1 0x0 KECCAK256 SWAP1 JUMPDEST DUP2 SLOAD PUSH1 0x1 PUSH1 0x1 PUSH1 0xA0 SHL SUB AND DUP2 MSTORE PUSH1 0x1 SWAP1 SWAP2 ADD SWAP1 PUSH1 0x20 ADD DUP1 DUP4 GT PUSH2 0x9C0 JUMPI JUMPDEST POP POP POP POP POP CALLER PUSH2 0x3B3F JUMP JUMPDEST PUSH2 0xA05 JUMPI PUSH1 0x40 MLOAD PUSH3 0x461BCD PUSH1 0xE5 SHL DUP2 MSTORE PUSH1 0x4 ADD PUSH2 0x291 SWAP1 PUSH2 0x4704 JUMP JUMPDEST PUSH2 0xA80 PUSH1 0x5 DUP4 PUSH1 0x40 MLOAD PUSH2 0xA18 SWAP2 SWAP1 PUSH2 0x44EB JUMP JUMPDEST SWAP1 DUP2 MSTORE PUSH1 0x40 DUP1 MLOAD SWAP2 DUP3 SWAP1 SUB PUSH1 0x20 SWAP1 DUP2 ADD DUP4 KECCAK256 PUSH1 0x6 ADD DUP1 SLOAD DUP1 DUP4 MUL DUP6 ADD DUP4 ADD SWAP1 SWAP4 MSTORE DUP3 DUP5 MSTORE SWAP2 SWAP1 DUP4 ADD DUP3 DUP3 DUP1 ISZERO PUSH2 0x9DE JUMPI PUSH1 0x20 MUL DUP3 ADD SWAP2 SWAP1 PUSH1 0x0 MSTORE PUSH1 0x20 PUSH1 0x0 KECCAK256 SWAP1 DUP2 SLOAD PUSH1 0x1 PUSH1 0x1 PUSH1 0xA0 SHL SUB AND DUP2 MSTORE PUSH1 0x1 SWAP1 SWAP2 ADD SWAP1 PUSH1 0x20 ADD DUP1 DUP4 GT PUSH2 0x9C0 JUMPI POP POP POP POP POP CALLER PUSH2 0x3B3F JUMP JUMPDEST ISZERO DUP1 ISZERO PUSH2 0xB05 JUMPI POP PUSH2 0xB03 PUSH1 0x5 DUP4 PUSH1 0x40 MLOAD PUSH2 0xA9B SWAP2 SWAP1 PUSH2 0x44EB JUMP JUMPDEST SWAP1 DUP2 MSTORE PUSH1 0x40 DUP1 MLOAD SWAP2 DUP3 SWAP1 SUB PUSH1 0x20 SWAP1 DUP2 ADD DUP4 KECCAK256 PUSH1 0x7 ADD DUP1 SLOAD DUP1 DUP4 MUL DUP6 ADD DUP4 ADD SWAP1 SWAP4 MSTORE DUP3 DUP5 MSTORE SWAP2 SWAP1 DUP4 ADD DUP3 DUP3 DUP1 ISZERO PUSH2 0x9DE JUMPI PUSH1 0x20 MUL DUP3 ADD SWAP2 SWAP1 PUSH1 0x0 MSTORE PUSH1 0x20 PUSH1 0x0 KECCAK256 SWAP1 DUP2 SLOAD PUSH1 0x1 PUSH1 0x1 PUSH1 0xA0 SHL SUB AND DUP2 MSTORE PUSH1 0x1 SWAP1 SWAP2 ADD SWAP1 PUSH1 0x20 ADD DUP1 DUP4 GT PUSH2 0x9C0 JUMPI POP POP POP POP POP CALLER PUSH2 0x3B3F JUMP JUMPDEST ISZERO JUMPDEST PUSH2 0xB21 JUMPI PUSH1 0x40 MLOAD PUSH3 0x461BCD PUSH1 0xE5 SHL DUP2 MSTORE PUSH1 0x4 ADD PUSH2 0x291 SWAP1 PUSH2 0x46B6 JUMP JUMPDEST PUSH1 0x5 DUP3 PUSH1 0x40 MLOAD PUSH2 0xB31 SWAP2 SWAP1 PUSH2 0x44EB JUMP JUMPDEST SWAP1 DUP2 MSTORE PUSH1 0x40 MLOAD SWAP1 DUP2 SWAP1 SUB PUSH1 0x20 ADD SWAP1 KECCAK256 PUSH1 0x4 ADD SLOAD PUSH1 0xFF AND PUSH2 0xB63 JUMPI PUSH1 0x40 MLOAD PUSH3 0x461BCD PUSH1 0xE5 SHL DUP2 MSTORE PUSH1 0x4 ADD PUSH2 0x291 SWAP1 PUSH2 0x46DD JUMP JUMPDEST CALLER PUSH1 0x0 SWAP1 DUP2 MSTORE PUSH1 0x3 PUSH1 0x20 MSTORE PUSH1 0x40 SWAP1 KECCAK256 PUSH1 0x5 ADD SLOAD PUSH1 0x1 LT PUSH2 0xB95 JUMPI PUSH1 0x40 MLOAD PUSH3 0x461BCD PUSH1 0xE5 SHL DUP2 MSTORE PUSH1 0x4 ADD PUSH2 0x291 SWAP1 PUSH2 0x472F JUMP JUMPDEST CALLER PUSH1 0x0 SWAP1 DUP2 MSTORE PUSH1 0x3 PUSH1 0x20 MSTORE PUSH1 0x40 DUP2 KECCAK256 PUSH1 0x5 ADD DUP1 SLOAD PUSH1 0x0 NOT ADD SWAP1 SSTORE DUP2 PUSH1 0x1 DUP2 GT ISZERO PUSH2 0xBBB JUMPI INVALID JUMPDEST EQ ISZERO PUSH2 0xC0C JUMPI PUSH1 0x5 DUP3 PUSH1 0x40 MLOAD PUSH2 0xBD1 SWAP2 SWAP1 PUSH2 0x44EB JUMP JUMPDEST SWAP1 DUP2 MSTORE PUSH1 0x40 MLOAD SWAP1 DUP2 SWAP1 SUB PUSH1 0x20 SWAP1 DUP2 ADD SWAP1 SWAP2 KECCAK256 PUSH1 0x6 ADD DUP1 SLOAD PUSH1 0x1 DUP2 ADD DUP3 SSTORE PUSH1 0x0 SWAP2 DUP3 MSTORE SWAP2 SWAP1 KECCAK256 ADD DUP1 SLOAD PUSH1 0x1 PUSH1 0x1 PUSH1 0xA0 SHL SUB NOT AND CALLER OR SWAP1 SSTORE PUSH2 0xC53 JUMP JUMPDEST PUSH1 0x5 DUP3 PUSH1 0x40 MLOAD PUSH2 0xC1C SWAP2 SWAP1 PUSH2 0x44EB JUMP JUMPDEST SWAP1 DUP2 MSTORE PUSH1 0x40 MLOAD SWAP1 DUP2 SWAP1 SUB PUSH1 0x20 SWAP1 DUP2 ADD SWAP1 SWAP2 KECCAK256 PUSH1 0x7 ADD DUP1 SLOAD PUSH1 0x1 DUP2 ADD DUP3 SSTORE PUSH1 0x0 SWAP2 DUP3 MSTORE SWAP2 SWAP1 KECCAK256 ADD DUP1 SLOAD PUSH1 0x1 PUSH1 0x1 PUSH1 0xA0 SHL SUB NOT AND CALLER OR SWAP1 SSTORE JUMPDEST PUSH1 0x5 DUP1 DUP4 PUSH1 0x40 MLOAD PUSH2 0xC64 SWAP2 SWAP1 PUSH2 0x44EB JUMP JUMPDEST SWAP1 DUP2 MSTORE PUSH1 0x40 MLOAD SWAP1 DUP2 SWAP1 SUB PUSH1 0x20 ADD DUP2 KECCAK256 PUSH1 0x7 ADD SLOAD SWAP1 PUSH1 0x5 SWAP1 PUSH2 0xC86 SWAP1 DUP7 SWAP1 PUSH2 0x44EB JUMP JUMPDEST SWAP1 DUP2 MSTORE PUSH1 0x40 MLOAD SWAP1 DUP2 SWAP1 SUB PUSH1 0x20 ADD SWAP1 KECCAK256 PUSH1 0x6 ADD SLOAD ADD EQ ISZERO PUSH2 0xCA9 JUMPI PUSH2 0xCA9 DUP3 PUSH2 0x367F JUMP JUMPDEST POP POP JUMP JUMPDEST PUSH2 0xD0F PUSH1 0x2 DUP1 SLOAD DUP1 PUSH1 0x20 MUL PUSH1 0x20 ADD PUSH1 0x40 MLOAD SWAP1 DUP2 ADD PUSH1 0x40 MSTORE DUP1 SWAP3 SWAP2 SWAP1 DUP2 DUP2 MSTORE PUSH1 0x20 ADD DUP3 DUP1 SLOAD DUP1 ISZERO PUSH2 0x9DE JUMPI PUSH1 0x20 MUL DUP3 ADD SWAP2 SWAP1 PUSH1 0x0 MSTORE PUSH1 0x20 PUSH1 0x0 KECCAK256 SWAP1 DUP2 SLOAD PUSH1 0x1 PUSH1 0x1 PUSH1 0xA0 SHL SUB AND DUP2 MSTORE PUSH1 0x1 SWAP1 SWAP2 ADD SWAP1 PUSH1 0x20 ADD DUP1 DUP4 GT PUSH2 0x9C0 JUMPI POP POP POP POP POP CALLER PUSH2 0x3B3F JUMP JUMPDEST ISZERO PUSH2 0xD2C JUMPI PUSH1 0x40 MLOAD PUSH3 0x461BCD PUSH1 0xE5 SHL DUP2 MSTORE PUSH1 0x4 ADD PUSH2 0x291 SWAP1 PUSH2 0x475A JUMP JUMPDEST PUSH2 0xD35 CALLER PUSH2 0x3B97 JUMP JUMPDEST PUSH2 0xD51 JUMPI PUSH1 0x40 MLOAD PUSH3 0x461BCD PUSH1 0xE5 SHL DUP2 MSTORE PUSH1 0x4 ADD PUSH2 0x291 SWAP1 PUSH2 0x466A JUMP JUMPDEST PUSH1 0x2 DUP1 SLOAD PUSH1 0x1 DUP2 ADD SWAP1 SWAP2 SSTORE PUSH32 0x405787FA12A823E0F2B7631CC41B3BA8828B3321CA811111FA75CD3AA3BB5ACE ADD DUP1 SLOAD CALLER PUSH1 0x1 PUSH1 0x1 PUSH1 0xA0 SHL SUB NOT SWAP2 DUP3 AND DUP2 OR SWAP1 SWAP3 SSTORE PUSH1 0x0 DUP3 DUP2 MSTORE PUSH1 0x3 PUSH1 0x20 MSTORE PUSH1 0x40 DUP1 DUP3 KECCAK256 DUP1 SLOAD SWAP1 SWAP4 AND DUP5 OR SWAP1 SWAP3 SSTORE SLOAD SWAP1 MLOAD PUSH4 0x233EB071 PUSH1 0xE0 SHL DUP2 MSTORE PUSH1 0x1 PUSH1 0x1 PUSH1 0xA0 SHL SUB SWAP1 SWAP2 AND SWAP2 PUSH4 0x233EB071 SWAP2 PUSH2 0xDD7 SWAP2 SWAP1 PUSH1 0x4 ADD PUSH2 0x4577 JUMP JUMPDEST PUSH1 0x0 PUSH1 0x40 MLOAD DUP1 DUP4 SUB DUP2 DUP7 DUP1 EXTCODESIZE ISZERO DUP1 ISZERO PUSH2 0xDEF JUMPI PUSH1 0x0 DUP1 REVERT JUMPDEST POP GAS STATICCALL ISZERO DUP1 ISZERO PUSH2 0xE03 JUMPI RETURNDATASIZE PUSH1 0x0 DUP1 RETURNDATACOPY RETURNDATASIZE PUSH1 0x0 REVERT JUMPDEST POP POP POP POP PUSH1 0x40 MLOAD RETURNDATASIZE PUSH1 0x0 DUP3 RETURNDATACOPY PUSH1 0x1F RETURNDATASIZE SWAP1 DUP2 ADD PUSH1 0x1F NOT AND DUP3 ADD PUSH1 0x40 MSTORE PUSH2 0xE2B SWAP2 SWAP1 DUP2 ADD SWAP1 PUSH2 0x4197 JUMP JUMPDEST CALLER PUSH1 0x0 SWAP1 DUP2 MSTORE PUSH1 0x3 PUSH1 0x20 SWAP1 DUP2 MSTORE PUSH1 0x40 SWAP1 SWAP2 KECCAK256 DUP3 MLOAD PUSH2 0xE53 SWAP4 PUSH1 0x1 SWAP1 SWAP3 ADD SWAP3 SWAP2 SWAP1 SWAP2 ADD SWAP1 PUSH2 0x3CF9 JUMP JUMPDEST POP PUSH1 0x40 DUP1 MLOAD PUSH1 0x20 DUP1 DUP3 ADD DUP1 DUP5 MSTORE PUSH1 0x0 DUP1 DUP5 MSTORE CALLER DUP2 MSTORE PUSH1 0x3 SWAP1 SWAP3 MSTORE SWAP3 SWAP1 KECCAK256 SWAP1 MLOAD PUSH2 0xE82 SWAP3 PUSH1 0x2 SWAP1 SWAP3 ADD SWAP2 SWAP1 PUSH2 0x3CF9 JUMP JUMPDEST POP CALLER PUSH1 0x0 SWAP1 DUP2 MSTORE PUSH1 0x3 PUSH1 0x20 DUP2 SWAP1 MSTORE PUSH1 0x40 DUP3 KECCAK256 PUSH2 0x3E8 PUSH1 0x5 DUP3 ADD SSTORE SWAP1 DUP2 ADD DUP3 SWAP1 SSTORE PUSH1 0x4 ADD SSTORE JUMP JUMPDEST PUSH1 0x40 DUP1 MLOAD PUSH2 0x120 DUP2 ADD DUP3 MSTORE PUSH20 0x81FFA73300AA2C025D576711363B7466DFECD942 DUP2 MSTORE PUSH20 0xA8B505C0C47F44FA9B520F8B9EC68D843CBD9FB0 PUSH1 0x20 DUP3 ADD MSTORE PUSH20 0x9C7A2AF7A9CBCB642D9F10F38DB9DC0C306F5FDB SWAP2 DUP2 ADD SWAP2 SWAP1 SWAP2 MSTORE PUSH20 0xE741FB345D935D47B876555B2F19280345C58B77 PUSH1 0x60 DUP3 ADD MSTORE PUSH20 0xB8A69D9292E22194824225784D8521E3E0929D84 PUSH1 0x80 DUP3 ADD MSTORE PUSH20 0xB4934B4FD74D3877DFFE8E3DBB2B6F659EEBA323 PUSH1 0xA0 DUP3 ADD MSTORE PUSH20 0x1A26F4C6693A01C14E93A26220544D0E17DB5B2A PUSH1 0xC0 DUP3 ADD MSTORE PUSH20 0x534505EDCA429FF8244DFD20BF6C4AAE61B3DC00 PUSH1 0xE0 DUP3 ADD MSTORE PUSH20 0x702B2975B3B42C82A4D3AA1E2040CE05E6751F73 PUSH2 0x100 DUP3 ADD MSTORE PUSH2 0xFAB SWAP1 PUSH1 0x2 SWAP1 PUSH1 0x9 PUSH2 0x3DCE JUMP JUMPDEST POP PUSH1 0x40 DUP1 MLOAD PUSH1 0xC0 DUP2 ADD DUP3 MSTORE PUSH20 0x335C33CFD1BB79B09946EF25EB99CB0F9BA8980C DUP1 DUP3 MSTORE DUP3 MLOAD DUP1 DUP5 ADD DUP5 MSTORE PUSH1 0xF DUP2 MSTORE PUSH15 0x4D617469617320417061626C617A61 PUSH1 0x88 SHL PUSH1 0x20 DUP1 DUP4 ADD SWAP2 SWAP1 SWAP2 MSTORE DUP1 DUP5 ADD SWAP2 DUP3 MSTORE DUP5 MLOAD DUP1 DUP3 ADD DUP7 MSTORE PUSH1 0x0 DUP1 DUP3 MSTORE SWAP6 DUP6 ADD MSTORE PUSH1 0x50 PUSH1 0x60 DUP6 ADD MSTORE PUSH1 0x59 PUSH1 0x80 DUP6 ADD MSTORE PUSH1 0x45 PUSH1 0xA0 DUP6 ADD MSTORE SWAP2 SWAP1 SWAP4 MSTORE PUSH1 0x3 DUP2 MSTORE DUP2 MLOAD PUSH32 0x833DFDBF577F3510A43ACC6FF7A77AC5103CC532C8FC8D017BAE0C26DF21F35B DUP1 SLOAD PUSH1 0x1 PUSH1 0x1 PUSH1 0xA0 SHL SUB NOT AND PUSH1 0x1 PUSH1 0x1 PUSH1 0xA0 SHL SUB SWAP1 SWAP3 AND SWAP2 SWAP1 SWAP2 OR DUP2 SSTORE SWAP3 MLOAD DUP1 MLOAD SWAP3 SWAP4 SWAP3 PUSH2 0x109C SWAP3 PUSH32 0x833DFDBF577F3510A43ACC6FF7A77AC5103CC532C8FC8D017BAE0C26DF21F35C SWAP3 ADD SWAP1 PUSH2 0x3CF9 JUMP JUMPDEST POP PUSH1 0x40 DUP3 ADD MLOAD DUP1 MLOAD PUSH2 0x10B8 SWAP2 PUSH1 0x2 DUP5 ADD SWAP2 PUSH1 0x20 SWAP1 SWAP2 ADD SWAP1 PUSH2 0x3CF9 JUMP JUMPDEST POP PUSH1 0x60 DUP3 DUP2 ADD MLOAD PUSH1 0x3 DUP4 DUP2 ADD SWAP2 SWAP1 SWAP2 SSTORE PUSH1 0x80 DUP1 DUP6 ADD MLOAD PUSH1 0x4 DUP6 ADD SSTORE PUSH1 0xA0 SWAP5 DUP6 ADD MLOAD PUSH1 0x5 SWAP1 SWAP5 ADD SWAP4 SWAP1 SWAP4 SSTORE PUSH1 0x40 DUP1 MLOAD PUSH1 0xC0 DUP2 ADD DUP3 MSTORE PUSH20 0x81FFA73300AA2C025D576711363B7466DFECD942 DUP1 DUP3 MSTORE DUP3 MLOAD DUP1 DUP5 ADD DUP5 MSTORE PUSH1 0x11 DUP2 MSTORE PUSH17 0x4167757374696E204461676F7374696E6F PUSH1 0x78 SHL PUSH1 0x20 DUP3 DUP2 ADD SWAP2 SWAP1 SWAP2 MSTORE DUP1 DUP5 ADD SWAP2 DUP3 MSTORE DUP5 MLOAD DUP1 DUP3 ADD DUP7 MSTORE PUSH1 0x0 DUP1 DUP3 MSTORE SWAP6 DUP6 ADD MSTORE PUSH1 0x46 SWAP7 DUP5 ADD DUP8 SWAP1 MSTORE PUSH1 0x4D SWAP8 DUP5 ADD SWAP8 SWAP1 SWAP8 MSTORE SWAP7 DUP3 ADD SWAP5 SWAP1 SWAP5 MSTORE SWAP3 SWAP1 MSTORE DUP3 MSTORE DUP1 MLOAD PUSH32 0xDC6AB4DD8B942CC6EC9B47927C2663137CC4AD8FB3280B0AA119F7D1E5D95A18 DUP1 SLOAD PUSH1 0x1 PUSH1 0x1 PUSH1 0xA0 SHL SUB NOT AND PUSH1 0x1 PUSH1 0x1 PUSH1 0xA0 SHL SUB SWAP1 SWAP3 AND SWAP2 SWAP1 SWAP2 OR DUP2 SSTORE SWAP3 MLOAD DUP1 MLOAD SWAP2 SWAP4 SWAP3 PUSH2 0x11D6 SWAP3 PUSH32 0xDC6AB4DD8B942CC6EC9B47927C2663137CC4AD8FB3280B0AA119F7D1E5D95A19 SWAP3 SWAP1 SWAP2 ADD SWAP1 PUSH2 0x3CF9 JUMP JUMPDEST POP PUSH1 0x40 DUP3 ADD MLOAD DUP1 MLOAD PUSH2 0x11F2 SWAP2 PUSH1 0x2 DUP5 ADD SWAP2 PUSH1 0x20 SWAP1 SWAP2 ADD SWAP1 PUSH2 0x3CF9 JUMP JUMPDEST POP PUSH1 0x60 DUP3 DUP2 ADD MLOAD PUSH1 0x3 DUP4 DUP2 ADD SWAP2 SWAP1 SWAP2 SSTORE PUSH1 0x80 DUP1 DUP6 ADD MLOAD PUSH1 0x4 DUP6 ADD SSTORE PUSH1 0xA0 SWAP5 DUP6 ADD MLOAD PUSH1 0x5 SWAP1 SWAP5 ADD SWAP4 SWAP1 SWAP4 SSTORE PUSH1 0x40 DUP1 MLOAD PUSH1 0xC0 DUP2 ADD DUP3 MSTORE PUSH20 0xA8B505C0C47F44FA9B520F8B9EC68D843CBD9FB0 DUP1 DUP3 MSTORE DUP3 MLOAD DUP1 DUP5 ADD DUP5 MSTORE PUSH1 0x14 DUP2 MSTORE PUSH20 0x4167757374696E61204D616363696176656C6C69 PUSH1 0x60 SHL PUSH1 0x20 DUP3 DUP2 ADD SWAP2 SWAP1 SWAP2 MSTORE DUP1 DUP5 ADD SWAP2 DUP3 MSTORE DUP5 MLOAD DUP1 DUP3 ADD DUP7 MSTORE PUSH1 0x0 DUP1 DUP3 MSTORE SWAP6 DUP6 ADD MSTORE PUSH1 0x50 SWAP7 DUP5 ADD SWAP7 SWAP1 SWAP7 MSTORE PUSH1 0x5B SWAP7 DUP4 ADD SWAP7 SWAP1 SWAP7 MSTORE PUSH1 0x55 SWAP7 DUP3 ADD SWAP7 SWAP1 SWAP7 MSTORE SWAP5 SWAP1 MSTORE DUP2 MSTORE DUP3 MLOAD PUSH32 0x7F83332927AC55382BE2D416DE089B35D987B158A50C57D66627A2B58554264A DUP1 SLOAD PUSH1 0x1 PUSH1 0x1 PUSH1 0xA0 SHL SUB NOT AND PUSH1 0x1 PUSH1 0x1 PUSH1 0xA0 SHL SUB SWAP1 SWAP3 AND SWAP2 SWAP1 SWAP2 OR DUP2 SSTORE SWAP2 MLOAD DUP1 MLOAD PUSH2 0x1311 SWAP3 PUSH32 0x7F83332927AC55382BE2D416DE089B35D987B158A50C57D66627A2B58554264B SWAP3 ADD SWAP1 PUSH2 0x3CF9 JUMP JUMPDEST POP PUSH1 0x40 DUP3 ADD MLOAD DUP1 MLOAD PUSH2 0x132D SWAP2 PUSH1 0x2 DUP5 ADD SWAP2 PUSH1 0x20 SWAP1 SWAP2 ADD SWAP1 PUSH2 0x3CF9 JUMP JUMPDEST POP PUSH1 0x60 DUP3 DUP2 ADD MLOAD PUSH1 0x3 DUP4 DUP2 ADD SWAP2 SWAP1 SWAP2 SSTORE PUSH1 0x80 DUP1 DUP6 ADD MLOAD PUSH1 0x4 DUP6 ADD SSTORE PUSH1 0xA0 SWAP5 DUP6 ADD MLOAD PUSH1 0x5 SWAP1 SWAP5 ADD SWAP4 SWAP1 SWAP4 SSTORE PUSH1 0x40 DUP1 MLOAD PUSH1 0xC0 DUP2 ADD DUP3 MSTORE PUSH20 0x9C7A2AF7A9CBCB642D9F10F38DB9DC0C306F5FDB DUP1 DUP3 MSTORE DUP3 MLOAD DUP1 DUP5 ADD DUP5 MSTORE PUSH1 0x9 DUP2 MSTORE PUSH9 0x4D696B612044616469 PUSH1 0xB8 SHL PUSH1 0x20 DUP3 DUP2 ADD SWAP2 SWAP1 SWAP2 MSTORE DUP1 DUP5 ADD SWAP2 DUP3 MSTORE DUP5 MLOAD DUP1 DUP3 ADD DUP7 MSTORE PUSH1 0x0 DUP1 DUP3 MSTORE DUP6 DUP8 ADD SWAP2 SWAP1 SWAP2 MSTORE PUSH1 0x53 SWAP8 DUP6 ADD SWAP8 SWAP1 SWAP8 MSTORE PUSH1 0x50 SWAP8 DUP5 ADD SWAP8 SWAP1 SWAP8 MSTORE SWAP7 DUP3 ADD SWAP3 SWAP1 SWAP3 MSTORE SWAP3 MSTORE DUP3 MSTORE DUP1 MLOAD PUSH32 0x75F5DE866537E1381931153C93F981A8F88FD6A0B91150E71B6A0C8BBF21C85F DUP1 SLOAD PUSH1 0x1 PUSH1 0x1 PUSH1 0xA0 SHL SUB NOT AND PUSH1 0x1 PUSH1 0x1 PUSH1 0xA0 SHL SUB SWAP1 SWAP3 AND SWAP2 SWAP1 SWAP2 OR DUP2 SSTORE SWAP3 MLOAD DUP1 MLOAD SWAP2 SWAP4 SWAP3 PUSH2 0x1446 SWAP3 PUSH32 0x75F5DE866537E1381931153C93F981A8F88FD6A0B91150E71B6A0C8BBF21C860 SWAP3 SWAP1 SWAP2 ADD SWAP1 PUSH2 0x3CF9 JUMP JUMPDEST POP PUSH1 0x40 DUP3 ADD MLOAD DUP1 MLOAD PUSH2 0x1462 SWAP2 PUSH1 0x2 DUP5 ADD SWAP2 PUSH1 0x20 SWAP1 SWAP2 ADD SWAP1 PUSH2 0x3CF9 JUMP JUMPDEST POP PUSH1 0x60 DUP3 DUP2 ADD MLOAD PUSH1 0x3 DUP4 DUP2 ADD SWAP2 SWAP1 SWAP2 SSTORE PUSH1 0x80 DUP1 DUP6 ADD MLOAD PUSH1 0x4 DUP6 ADD SSTORE PUSH1 0xA0 SWAP5 DUP6 ADD MLOAD PUSH1 0x5 SWAP1 SWAP5 ADD SWAP4 SWAP1 SWAP4 SSTORE PUSH1 0x40 DUP1 MLOAD PUSH1 0xC0 DUP2 ADD DUP3 MSTORE PUSH20 0xE741FB345D935D47B876555B2F19280345C58B77 DUP1 DUP3 MSTORE DUP3 MLOAD DUP1 DUP5 ADD DUP5 MSTORE PUSH1 0x10 DUP2 MSTORE PUSH16 0x2B34BA30B634B590213ABA3432B934B7 PUSH1 0x81 SHL PUSH1 0x20 DUP3 DUP2 ADD SWAP2 SWAP1 SWAP2 MSTORE DUP1 DUP5 ADD SWAP2 DUP3 MSTORE DUP5 MLOAD DUP1 DUP3 ADD DUP7 MSTORE PUSH1 0x0 DUP1 DUP3 MSTORE SWAP6 DUP6 ADD MSTORE PUSH1 0x5C SWAP7 DUP5 ADD DUP8 SWAP1 MSTORE SWAP7 DUP4 ADD SWAP6 SWAP1 SWAP6 MSTORE PUSH1 0x44 SWAP7 DUP3 ADD SWAP7 SWAP1 SWAP7 MSTORE SWAP5 SWAP1 MSTORE DUP3 MSTORE DUP3 MLOAD PUSH32 0x2C0F9FD4ACA3E2F3ECF5F559E8C9D2A66FF6546E32BFD0FA07E0DEBC255095A1 DUP1 SLOAD PUSH1 0x1 PUSH1 0x1 PUSH1 0xA0 SHL SUB NOT AND PUSH1 0x1 PUSH1 0x1 PUSH1 0xA0 SHL SUB SWAP1 SWAP3 AND SWAP2 SWAP1 SWAP2 OR DUP2 SSTORE SWAP1 MLOAD DUP1 MLOAD SWAP2 SWAP3 PUSH2 0x157E SWAP3 PUSH32 0x2C0F9FD4ACA3E2F3ECF5F559E8C9D2A66FF6546E32BFD0FA07E0DEBC255095A2 SWAP3 SWAP1 SWAP2 ADD SWAP1 PUSH2 0x3CF9 JUMP JUMPDEST POP PUSH1 0x40 DUP3 ADD MLOAD DUP1 MLOAD PUSH2 0x159A SWAP2 PUSH1 0x2 DUP5 ADD SWAP2 PUSH1 0x20 SWAP1 SWAP2 ADD SWAP1 PUSH2 0x3CF9 JUMP JUMPDEST POP PUSH1 0x60 DUP3 DUP2 ADD MLOAD PUSH1 0x3 DUP4 DUP2 ADD SWAP2 SWAP1 SWAP2 SSTORE PUSH1 0x80 DUP1 DUP6 ADD MLOAD PUSH1 0x4 DUP6 ADD SSTORE PUSH1 0xA0 SWAP5 DUP6 ADD MLOAD PUSH1 0x5 SWAP1 SWAP5 ADD SWAP4 SWAP1 SWAP4 SSTORE PUSH1 0x40 DUP1 MLOAD PUSH1 0xC0 DUP2 ADD DUP3 MSTORE PUSH20 0xB8A69D9292E22194824225784D8521E3E0929D84 DUP1 DUP3 MSTORE DUP3 MLOAD DUP1 DUP5 ADD DUP5 MSTORE PUSH1 0xC DUP2 MSTORE PUSH12 0x2537B430B71029BA32BB32B7 PUSH1 0xA1 SHL PUSH1 0x20 DUP3 DUP2 ADD SWAP2 SWAP1 SWAP2 MSTORE DUP1 DUP5 ADD SWAP2 DUP3 MSTORE DUP5 MLOAD DUP1 DUP3 ADD DUP7 MSTORE PUSH1 0x0 DUP1 DUP3 MSTORE SWAP6 DUP6 ADD MSTORE PUSH1 0x51 SWAP7 DUP5 ADD SWAP7 SWAP1 SWAP7 MSTORE PUSH1 0x3A SWAP7 DUP4 ADD SWAP7 SWAP1 SWAP7 MSTORE PUSH1 0x4B SWAP7 DUP3 ADD SWAP7 SWAP1 SWAP7 MSTORE SWAP5 SWAP1 MSTORE DUP2 MSTORE DUP3 MLOAD PUSH32 0x6F58BD7DE4463C4FF1ED321C523C6D1746681535C8B17F533416EEB29BF6C4A7 DUP1 SLOAD PUSH1 0x1 PUSH1 0x1 PUSH1 0xA0 SHL SUB NOT AND PUSH1 0x1 PUSH1 0x1 PUSH1 0xA0 SHL SUB SWAP1 SWAP3 AND SWAP2 SWAP1 SWAP2 OR DUP2 SSTORE SWAP2 MLOAD DUP1 MLOAD PUSH2 0x16B1 SWAP3 PUSH32 0x6F58BD7DE4463C4FF1ED321C523C6D1746681535C8B17F533416EEB29BF6C4A8 SWAP3 ADD SWAP1 PUSH2 0x3CF9 JUMP JUMPDEST POP PUSH1 0x40 DUP3 ADD MLOAD DUP1 MLOAD PUSH2 0x16CD SWAP2 PUSH1 0x2 DUP5 ADD SWAP2 PUSH1 0x20 SWAP1 SWAP2 ADD SWAP1 PUSH2 0x3CF9 JUMP JUMPDEST POP PUSH1 0x60 DUP3 DUP2 ADD MLOAD PUSH1 0x3 DUP4 DUP2 ADD SWAP2 SWAP1 SWAP2 SSTORE PUSH1 0x80 DUP1 DUP6 ADD MLOAD PUSH1 0x4 DUP6 ADD SSTORE PUSH1 0xA0 SWAP5 DUP6 ADD MLOAD PUSH1 0x5 SWAP1 SWAP5 ADD SWAP4 SWAP1 SWAP4 SSTORE PUSH1 0x40 DUP1 MLOAD PUSH1 0xC0 DUP2 ADD DUP3 MSTORE PUSH20 0xB4934B4FD74D3877DFFE8E3DBB2B6F659EEBA323 DUP1 DUP3 MSTORE DUP3 MLOAD DUP1 DUP5 ADD DUP5 MSTORE PUSH1 0xC DUP2 MSTORE PUSH12 0x135A58DA18595B0815D85B1B PUSH1 0xA2 SHL PUSH1 0x20 DUP3 DUP2 ADD SWAP2 SWAP1 SWAP2 MSTORE DUP1 DUP5 ADD SWAP2 DUP3 MSTORE DUP5 MLOAD DUP1 DUP3 ADD DUP7 MSTORE PUSH1 0x0 DUP1 DUP3 MSTORE SWAP6 DUP6 ADD MSTORE PUSH1 0x4F SWAP7 DUP5 ADD SWAP7 SWAP1 SWAP7 MSTORE PUSH1 0x58 SWAP7 DUP4 ADD SWAP7 SWAP1 SWAP7 MSTORE PUSH1 0x5C SWAP7 DUP3 ADD SWAP7 SWAP1 SWAP7 MSTORE SWAP5 SWAP1 MSTORE DUP2 MSTORE DUP3 MLOAD PUSH32 0xECA7C739410C0E6D5E4AA6AB62BB88A5644E21979899E526DA480F00D5DB42FA DUP1 SLOAD PUSH1 0x1 PUSH1 0x1 PUSH1 0xA0 SHL SUB NOT AND PUSH1 0x1 PUSH1 0x1 PUSH1 0xA0 SHL SUB SWAP1 SWAP3 AND SWAP2 SWAP1 SWAP2 OR DUP2 SSTORE SWAP2 MLOAD DUP1 MLOAD PUSH2 0x17E4 SWAP3 PUSH32 0xECA7C739410C0E6D5E4AA6AB62BB88A5644E21979899E526DA480F00D5DB42FB SWAP3 ADD SWAP1 PUSH2 0x3CF9 JUMP JUMPDEST POP PUSH1 0x40 DUP3 ADD MLOAD DUP1 MLOAD PUSH2 0x1800 SWAP2 PUSH1 0x2 DUP5 ADD SWAP2 PUSH1 0x20 SWAP1 SWAP2 ADD SWAP1 PUSH2 0x3CF9 JUMP JUMPDEST POP PUSH1 0x60 DUP3 DUP2 ADD MLOAD PUSH1 0x3 DUP4 DUP2 ADD SWAP2 SWAP1 SWAP2 SSTORE PUSH1 0x80 DUP1 DUP6 ADD MLOAD PUSH1 0x4 DUP6 ADD SSTORE PUSH1 0xA0 SWAP5 DUP6 ADD MLOAD PUSH1 0x5 SWAP1 SWAP5 ADD SWAP4 SWAP1 SWAP4 SSTORE PUSH1 0x40 DUP1 MLOAD PUSH1 0xC0 DUP2 ADD DUP3 MSTORE PUSH20 0x1A26F4C6693A01C14E93A26220544D0E17DB5B2A DUP1 DUP3 MSTORE DUP3 MLOAD DUP1 DUP5 ADD DUP5 MSTORE PUSH1 0xC DUP2 MSTORE PUSH12 0x2532B73734B332B9102BB4B7 PUSH1 0xA1 SHL PUSH1 0x20 DUP3 DUP2 ADD SWAP2 SWAP1 SWAP2 MSTORE DUP1 DUP5 ADD SWAP2 DUP3 MSTORE DUP5 MLOAD DUP1 DUP3 ADD DUP7 MSTORE PUSH1 0x0 DUP1 DUP3 MSTORE SWAP6 DUP6 ADD MSTORE PUSH1 0x3F SWAP7 DUP5 ADD SWAP7 SWAP1 SWAP7 MSTORE PUSH1 0x45 SWAP7 DUP4 ADD SWAP7 SWAP1 SWAP7 MSTORE PUSH1 0x21 SWAP7 DUP3 ADD SWAP7 SWAP1 SWAP7 MSTORE SWAP5 SWAP1 MSTORE DUP2 MSTORE DUP3 MLOAD PUSH32 0xEAC3D7F8B644F0200A58BF1C98AC14667811CCB4EF97BED2B83C02334819254 DUP1 SLOAD PUSH1 0x1 PUSH1 0x1 PUSH1 0xA0 SHL SUB NOT AND PUSH1 0x1 PUSH1 0x1 PUSH1 0xA0 SHL SUB SWAP1 SWAP3 AND SWAP2 SWAP1 SWAP2 OR DUP2 SSTORE SWAP2 MLOAD DUP1 MLOAD PUSH2 0x1917 SWAP3 PUSH32 0xEAC3D7F8B644F0200A58BF1C98AC14667811CCB4EF97BED2B83C02334819255 SWAP3 ADD SWAP1 PUSH2 0x3CF9 JUMP JUMPDEST POP PUSH1 0x40 DUP3 ADD MLOAD DUP1 MLOAD PUSH2 0x1933 SWAP2 PUSH1 0x2 DUP5 ADD SWAP2 PUSH1 0x20 SWAP1 SWAP2 ADD SWAP1 PUSH2 0x3CF9 JUMP JUMPDEST POP PUSH1 0x60 DUP3 DUP2 ADD MLOAD PUSH1 0x3 DUP4 DUP2 ADD SWAP2 SWAP1 SWAP2 SSTORE PUSH1 0x80 DUP1 DUP6 ADD MLOAD PUSH1 0x4 DUP6 ADD SSTORE PUSH1 0xA0 SWAP5 DUP6 ADD MLOAD PUSH1 0x5 SWAP1 SWAP5 ADD SWAP4 SWAP1 SWAP4 SSTORE PUSH1 0x40 DUP1 MLOAD PUSH1 0xC0 DUP2 ADD DUP3 MSTORE PUSH20 0x534505EDCA429FF8244DFD20BF6C4AAE61B3DC00 DUP1 DUP3 MSTORE DUP3 MLOAD DUP1 DUP5 ADD DUP5 MSTORE PUSH1 0x9 DUP2 MSTORE PUSH9 0x416C69636520426179 PUSH1 0xB8 SHL PUSH1 0x20 DUP3 DUP2 ADD SWAP2 SWAP1 SWAP2 MSTORE DUP1 DUP5 ADD SWAP2 DUP3 MSTORE DUP5 MLOAD DUP1 DUP3 ADD DUP7 MSTORE PUSH1 0x0 DUP1 DUP3 MSTORE SWAP6 DUP6 ADD MSTORE PUSH1 0x62 SWAP7 DUP5 ADD SWAP7 SWAP1 SWAP7 MSTORE PUSH1 0x63 SWAP7 DUP4 ADD SWAP7 SWAP1 SWAP7 MSTORE PUSH1 0x10 SWAP7 DUP3 ADD SWAP7 SWAP1 SWAP7 MSTORE SWAP5 SWAP1 MSTORE DUP2 MSTORE DUP3 MLOAD PUSH32 0x3C5F015774B52AD8C613345BE073E6AA3B48D1289E2A7CC64AE72307D1F619AD DUP1 SLOAD PUSH1 0x1 PUSH1 0x1 PUSH1 0xA0 SHL SUB NOT AND PUSH1 0x1 PUSH1 0x1 PUSH1 0xA0 SHL SUB SWAP1 SWAP3 AND SWAP2 SWAP1 SWAP2 OR DUP2 SSTORE SWAP2 MLOAD DUP1 MLOAD PUSH2 0x1A47 SWAP3 PUSH32 0x3C5F015774B52AD8C613345BE073E6AA3B48D1289E2A7CC64AE72307D1F619AE SWAP3 ADD SWAP1 PUSH2 0x3CF9 JUMP JUMPDEST POP PUSH1 0x40 DUP3 ADD MLOAD DUP1 MLOAD PUSH2 0x1A63 SWAP2 PUSH1 0x2 DUP5 ADD SWAP2 PUSH1 0x20 SWAP1 SWAP2 ADD SWAP1 PUSH2 0x3CF9 JUMP JUMPDEST POP PUSH1 0x60 DUP3 DUP2 ADD MLOAD PUSH1 0x3 DUP4 DUP2 ADD SWAP2 SWAP1 SWAP2 SSTORE PUSH1 0x80 DUP1 DUP6 ADD MLOAD PUSH1 0x4 DUP6 ADD SSTORE PUSH1 0xA0 SWAP5 DUP6 ADD MLOAD PUSH1 0x5 SWAP1 SWAP5 ADD SWAP4 SWAP1 SWAP4 SSTORE PUSH1 0x40 DUP1 MLOAD PUSH1 0xC0 DUP2 ADD DUP3 MSTORE PUSH20 0x702B2975B3B42C82A4D3AA1E2040CE05E6751F73 DUP1 DUP3 MSTORE DUP3 MLOAD DUP1 DUP5 ADD DUP5 MSTORE PUSH1 0xA DUP2 MSTORE PUSH10 0x2930B1B432B6102230B7 PUSH1 0xB1 SHL PUSH1 0x20 DUP3 DUP2 ADD SWAP2 SWAP1 SWAP2 MSTORE DUP1 DUP5 ADD SWAP2 DUP3 MSTORE DUP5 MLOAD DUP1 DUP3 ADD DUP7 MSTORE PUSH1 0x0 DUP1 DUP3 MSTORE SWAP6 DUP6 ADD MSTORE PUSH1 0x56 SWAP7 DUP5 ADD SWAP7 SWAP1 SWAP7 MSTORE PUSH1 0x5B SWAP7 DUP4 ADD SWAP7 SWAP1 SWAP7 MSTORE PUSH1 0x23 SWAP7 DUP3 ADD SWAP7 SWAP1 SWAP7 MSTORE SWAP5 SWAP1 MSTORE DUP2 MSTORE DUP3 MLOAD PUSH32 0x23E6C9C463EA4F4B78BA67360519C35CC2CC7638FEEE12271B31064750B15179 DUP1 SLOAD PUSH1 0x1 PUSH1 0x1 PUSH1 0xA0 SHL SUB NOT AND PUSH1 0x1 PUSH1 0x1 PUSH1 0xA0 SHL SUB SWAP1 SWAP3 AND SWAP2 SWAP1 SWAP2 OR DUP2 SSTORE SWAP2 MLOAD DUP1 MLOAD PUSH2 0x1B78 SWAP3 PUSH32 0x23E6C9C463EA4F4B78BA67360519C35CC2CC7638FEEE12271B31064750B1517A SWAP3 ADD SWAP1 PUSH2 0x3CF9 JUMP JUMPDEST POP PUSH1 0x40 DUP3 ADD MLOAD DUP1 MLOAD PUSH2 0x1B94 SWAP2 PUSH1 0x2 DUP5 ADD SWAP2 PUSH1 0x20 SWAP1 SWAP2 ADD SWAP1 PUSH2 0x3CF9 JUMP JUMPDEST POP PUSH1 0x60 DUP3 ADD MLOAD PUSH1 0x3 DUP3 ADD SSTORE PUSH1 0x80 DUP3 ADD MLOAD PUSH1 0x4 DUP3 ADD SSTORE PUSH1 0xA0 SWAP1 SWAP2 ADD MLOAD PUSH1 0x5 SWAP1 SWAP2 ADD SSTORE JUMP JUMPDEST CALLER PUSH1 0x0 SWAP1 DUP2 MSTORE PUSH1 0x3 PUSH1 0x20 MSTORE PUSH1 0x40 SWAP1 KECCAK256 PUSH1 0x5 ADD SLOAD PUSH1 0x1 LT PUSH2 0x1BE9 JUMPI PUSH1 0x40 MLOAD PUSH3 0x461BCD PUSH1 0xE5 SHL DUP2 MSTORE PUSH1 0x4 ADD PUSH2 0x291 SWAP1 PUSH2 0x472F JUMP JUMPDEST CALLER PUSH1 0x0 SWAP1 DUP2 MSTORE PUSH1 0x3 PUSH1 0x20 SWAP1 DUP2 MSTORE PUSH1 0x40 DUP3 KECCAK256 PUSH1 0x5 ADD DUP1 SLOAD PUSH1 0x0 NOT ADD SWAP1 SSTORE PUSH1 0x4 DUP1 SLOAD PUSH1 0x1 DUP2 ADD DUP3 SSTORE SWAP3 MSTORE DUP4 MLOAD PUSH2 0x1C42 SWAP3 PUSH32 0x8A35ACFBC15FF81A39AE7D344FD709F28E8600B4AA8C65C6B64BFE7FE36BD19B ADD SWAP2 DUP6 ADD SWAP1 PUSH2 0x3CF9 JUMP JUMPDEST POP DUP2 PUSH1 0x5 DUP4 PUSH1 0x40 MLOAD PUSH2 0x1C54 SWAP2 SWAP1 PUSH2 0x44EB JUMP JUMPDEST SWAP1 DUP2 MSTORE PUSH1 0x20 ADD PUSH1 0x40 MLOAD DUP1 SWAP2 SUB SWAP1 KECCAK256 PUSH1 0x0 ADD SWAP1 DUP1 MLOAD SWAP1 PUSH1 0x20 ADD SWAP1 PUSH2 0x1C78 SWAP3 SWAP2 SWAP1 PUSH2 0x3CF9 JUMP JUMPDEST POP CALLER PUSH1 0x5 DUP4 PUSH1 0x40 MLOAD PUSH2 0x1C8A SWAP2 SWAP1 PUSH2 0x44EB JUMP JUMPDEST SWAP1 DUP2 MSTORE PUSH1 0x20 ADD PUSH1 0x40 MLOAD DUP1 SWAP2 SUB SWAP1 KECCAK256 PUSH1 0x2 ADD PUSH1 0x0 PUSH2 0x100 EXP DUP2 SLOAD DUP2 PUSH1 0x1 PUSH1 0x1 PUSH1 0xA0 SHL SUB MUL NOT AND SWAP1 DUP4 PUSH1 0x1 PUSH1 0x1 PUSH1 0xA0 SHL SUB AND MUL OR SWAP1 SSTORE POP DUP1 PUSH1 0x5 DUP4 PUSH1 0x40 MLOAD PUSH2 0x1CD0 SWAP2 SWAP1 PUSH2 0x44EB JUMP JUMPDEST SWAP1 DUP2 MSTORE PUSH1 0x20 ADD PUSH1 0x40 MLOAD DUP1 SWAP2 SUB SWAP1 KECCAK256 PUSH1 0x1 ADD SWAP1 DUP1 MLOAD SWAP1 PUSH1 0x20 ADD SWAP1 PUSH2 0x1CF4 SWAP3 SWAP2 SWAP1 PUSH2 0x3CF9 JUMP JUMPDEST POP TIMESTAMP PUSH1 0x5 DUP4 PUSH1 0x40 MLOAD PUSH2 0x1D06 SWAP2 SWAP1 PUSH2 0x44EB JUMP JUMPDEST SWAP1 DUP2 MSTORE PUSH1 0x20 ADD PUSH1 0x40 MLOAD DUP1 SWAP2 SUB SWAP1 KECCAK256 PUSH1 0x3 ADD DUP2 SWAP1 SSTORE POP PUSH1 0x1 PUSH1 0x5 DUP4 PUSH1 0x40 MLOAD PUSH2 0x1D2D SWAP2 SWAP1 PUSH2 0x44EB JUMP JUMPDEST SWAP1 DUP2 MSTORE PUSH1 0x40 DUP1 MLOAD PUSH1 0x20 SWAP3 DUP2 SWAP1 SUB DUP4 ADD DUP2 KECCAK256 PUSH1 0x4 ADD DUP1 SLOAD PUSH1 0xFF NOT AND SWAP5 ISZERO ISZERO SWAP5 SWAP1 SWAP5 OR SWAP1 SWAP4 SSTORE PUSH1 0x2 DUP1 SLOAD DUP1 DUP5 MUL DUP6 ADD DUP5 ADD SWAP1 SWAP3 MSTORE DUP2 DUP5 MSTORE PUSH2 0x1DAF SWAP4 SWAP3 SWAP1 SWAP2 SWAP1 DUP4 ADD DUP3 DUP3 DUP1 ISZERO PUSH2 0x1DA3 JUMPI PUSH1 0x20 MUL DUP3 ADD SWAP2 SWAP1 PUSH1 0x0 MSTORE PUSH1 0x20 PUSH1 0x0 KECCAK256 SWAP1 JUMPDEST DUP2 SLOAD PUSH1 0x1 PUSH1 0x1 PUSH1 0xA0 SHL SUB AND DUP2 MSTORE PUSH1 0x1 SWAP1 SWAP2 ADD SWAP1 PUSH1 0x20 ADD DUP1 DUP4 GT PUSH2 0x1D85 JUMPI JUMPDEST POP POP POP POP POP PUSH1 0xA PUSH2 0x3C18 JUMP JUMPDEST PUSH1 0x5 DUP4 PUSH1 0x40 MLOAD PUSH2 0x1DBF SWAP2 SWAP1 PUSH2 0x44EB JUMP JUMPDEST SWAP1 DUP2 MSTORE PUSH1 0x20 ADD PUSH1 0x40 MLOAD DUP1 SWAP2 SUB SWAP1 KECCAK256 PUSH1 0x5 ADD SWAP1 DUP1 MLOAD SWAP1 PUSH1 0x20 ADD SWAP1 PUSH2 0x1DE3 SWAP3 SWAP2 SWAP1 PUSH2 0x3DCE JUMP JUMPDEST POP POP POP JUMP JUMPDEST PUSH1 0x0 JUMPDEST PUSH1 0x4 SLOAD DUP2 LT ISZERO PUSH2 0x1EAD JUMPI PUSH1 0x5 PUSH1 0x4 DUP3 DUP2 SLOAD DUP2 LT PUSH2 0x1E04 JUMPI INVALID JUMPDEST SWAP1 PUSH1 0x0 MSTORE PUSH1 0x20 PUSH1 0x0 KECCAK256 ADD PUSH1 0x40 MLOAD PUSH2 0x1E1B SWAP2 SWAP1 PUSH2 0x4507 JUMP JUMPDEST SWAP1 DUP2 MSTORE PUSH1 0x40 MLOAD SWAP1 DUP2 SWAP1 SUB PUSH1 0x20 ADD SWAP1 KECCAK256 PUSH1 0x0 PUSH2 0x1E36 DUP3 DUP3 PUSH2 0x3E2F JUMP JUMPDEST PUSH2 0x1E44 PUSH1 0x1 DUP4 ADD PUSH1 0x0 PUSH2 0x3E2F JUMP JUMPDEST PUSH1 0x2 DUP3 ADD DUP1 SLOAD PUSH1 0x1 PUSH1 0x1 PUSH1 0xA0 SHL SUB NOT AND SWAP1 SSTORE PUSH1 0x0 PUSH1 0x3 DUP4 ADD DUP2 SWAP1 SSTORE PUSH1 0x4 DUP4 ADD DUP1 SLOAD PUSH1 0xFF NOT AND SWAP1 SSTORE PUSH2 0x1E79 SWAP1 PUSH1 0x5 DUP5 ADD SWAP1 PUSH2 0x3E76 JUMP JUMPDEST PUSH2 0x1E87 PUSH1 0x6 DUP4 ADD PUSH1 0x0 PUSH2 0x3E76 JUMP JUMPDEST PUSH2 0x1E95 PUSH1 0x7 DUP4 ADD PUSH1 0x0 PUSH2 0x3E76 JUMP JUMPDEST PUSH2 0x1EA3 PUSH1 0x8 DUP4 ADD PUSH1 0x0 PUSH2 0x3E94 JUMP JUMPDEST POP POP PUSH1 0x1 ADD PUSH2 0x1DEB JUMP JUMPDEST POP PUSH2 0x1EBA PUSH1 0x4 PUSH1 0x0 PUSH2 0x3EB5 JUMP JUMPDEST JUMP JUMPDEST PUSH1 0x1 SLOAD PUSH1 0x1 PUSH1 0x1 PUSH1 0xA0 SHL SUB AND CALLER EQ PUSH2 0x1EE6 JUMPI PUSH1 0x40 MLOAD PUSH3 0x461BCD PUSH1 0xE5 SHL DUP2 MSTORE PUSH1 0x4 ADD PUSH2 0x291 SWAP1 PUSH2 0x4791 JUMP JUMPDEST PUSH1 0x1 PUSH1 0x1 PUSH1 0xA0 SHL SUB SWAP1 SWAP2 AND PUSH1 0x0 SWAP1 DUP2 MSTORE PUSH1 0x3 PUSH1 0x20 MSTORE PUSH1 0x40 SWAP1 KECCAK256 PUSH1 0x5 ADD DUP1 SLOAD SWAP1 SWAP2 ADD SWAP1 SSTORE JUMP JUMPDEST PUSH2 0x1F13 PUSH2 0x3ED3 JUMP JUMPDEST PUSH1 0x1 PUSH1 0x1 PUSH1 0xA0 SHL SUB DUP3 DUP2 AND PUSH1 0x0 SWAP1 DUP2 MSTORE PUSH1 0x3 PUSH1 0x20 SWAP1 DUP2 MSTORE PUSH1 0x40 SWAP2 DUP3 SWAP1 KECCAK256 DUP3 MLOAD PUSH1 0xC0 DUP2 ADD DUP5 MSTORE DUP2 SLOAD SWAP1 SWAP5 AND DUP5 MSTORE PUSH1 0x1 DUP1 DUP3 ADD DUP1 SLOAD DUP6 MLOAD PUSH1 0x2 PUSH2 0x100 SWAP5 DUP4 AND ISZERO SWAP5 SWAP1 SWAP5 MUL PUSH1 0x0 NOT ADD SWAP1 SWAP2 AND SWAP3 SWAP1 SWAP3 DIV PUSH1 0x1F DUP2 ADD DUP6 SWAP1 DIV DUP6 MUL DUP4 ADD DUP6 ADD SWAP1 SWAP6 MSTORE DUP5 DUP3 MSTORE SWAP2 SWAP4 DUP6 DUP5 ADD SWAP4 SWAP2 SWAP3 SWAP2 DUP4 ADD DUP3 DUP3 DUP1 ISZERO PUSH2 0x1FCD JUMPI DUP1 PUSH1 0x1F LT PUSH2 0x1FA2 JUMPI PUSH2 0x100 DUP1 DUP4 SLOAD DIV MUL DUP4 MSTORE SWAP2 PUSH1 0x20 ADD SWAP2 PUSH2 0x1FCD JUMP JUMPDEST DUP3 ADD SWAP2 SWAP1 PUSH1 0x0 MSTORE PUSH1 0x20 PUSH1 0x0 KECCAK256 SWAP1 JUMPDEST DUP2 SLOAD DUP2 MSTORE SWAP1 PUSH1 0x1 ADD SWAP1 PUSH1 0x20 ADD DUP1 DUP4 GT PUSH2 0x1FB0 JUMPI DUP3 SWAP1 SUB PUSH1 0x1F AND DUP3 ADD SWAP2 JUMPDEST POP POP POP SWAP2 DUP4 MSTORE POP POP PUSH1 0x2 DUP3 DUP2 ADD DUP1 SLOAD PUSH1 0x40 DUP1 MLOAD PUSH1 0x20 PUSH1 0x1 DUP5 AND ISZERO PUSH2 0x100 MUL PUSH1 0x0 NOT ADD SWAP1 SWAP4 AND SWAP5 SWAP1 SWAP5 DIV PUSH1 0x1F DUP2 ADD DUP4 SWAP1 DIV DUP4 MUL DUP6 ADD DUP4 ADD SWAP1 SWAP2 MSTORE DUP1 DUP5 MSTORE SWAP4 DUP2 ADD SWAP4 SWAP1 DUP4 ADD DUP3 DUP3 DUP1 ISZERO PUSH2 0x205F JUMPI DUP1 PUSH1 0x1F LT PUSH2 0x2034 JUMPI PUSH2 0x100 DUP1 DUP4 SLOAD DIV MUL DUP4 MSTORE SWAP2 PUSH1 0x20 ADD SWAP2 PUSH2 0x205F JUMP JUMPDEST DUP3 ADD SWAP2 SWAP1 PUSH1 0x0 MSTORE PUSH1 0x20 PUSH1 0x0 KECCAK256 SWAP1 JUMPDEST DUP2 SLOAD DUP2 MSTORE SWAP1 PUSH1 0x1 ADD SWAP1 PUSH1 0x20 ADD DUP1 DUP4 GT PUSH2 0x2042 JUMPI DUP3 SWAP1 SUB PUSH1 0x1F AND DUP3 ADD SWAP2 JUMPDEST POP POP POP POP POP DUP2 MSTORE PUSH1 0x20 ADD PUSH1 0x3 DUP3 ADD SLOAD DUP2 MSTORE PUSH1 0x20 ADD PUSH1 0x4 DUP3 ADD SLOAD DUP2 MSTORE PUSH1 0x20 ADD PUSH1 0x5 DUP3 ADD SLOAD DUP2 MSTORE POP POP SWAP1 POP SWAP2 SWAP1 POP JUMP JUMPDEST PUSH2 0x2095 PUSH2 0x3D77 JUMP JUMPDEST PUSH1 0x5 DUP3 PUSH1 0x40 MLOAD PUSH2 0x20A5 SWAP2 SWAP1 PUSH2 0x44EB JUMP JUMPDEST SWAP1 DUP2 MSTORE PUSH1 0x40 DUP1 MLOAD PUSH1 0x20 SWAP3 DUP2 SWAP1 SUB DUP4 ADD DUP2 KECCAK256 DUP1 SLOAD PUSH1 0x2 PUSH1 0x1 DUP3 AND ISZERO PUSH2 0x100 MUL PUSH1 0x0 NOT ADD SWAP1 SWAP2 AND DIV PUSH1 0x1F DUP2 ADD DUP6 SWAP1 DIV SWAP1 SWAP5 MUL DUP3 ADD PUSH2 0x140 SWAP1 DUP2 ADD SWAP1 SWAP4 MSTORE PUSH2 0x120 DUP3 ADD DUP5 DUP2 MSTORE SWAP2 SWAP4 SWAP1 SWAP3 DUP5 SWAP3 SWAP2 DUP5 SWAP2 DUP5 ADD DUP3 DUP3 DUP1 ISZERO PUSH2 0x2142 JUMPI DUP1 PUSH1 0x1F LT PUSH2 0x2117 JUMPI PUSH2 0x100 DUP1 DUP4 SLOAD DIV MUL DUP4 MSTORE SWAP2 PUSH1 0x20 ADD SWAP2 PUSH2 0x2142 JUMP JUMPDEST DUP3 ADD SWAP2 SWAP1 PUSH1 0x0 MSTORE PUSH1 0x20 PUSH1 0x0 KECCAK256 SWAP1 JUMPDEST DUP2 SLOAD DUP2 MSTORE SWAP1 PUSH1 0x1 ADD SWAP1 PUSH1 0x20 ADD DUP1 DUP4 GT PUSH2 0x2125 JUMPI DUP3 SWAP1 SUB PUSH1 0x1F AND DUP3 ADD SWAP2 JUMPDEST POP POP POP POP POP DUP2 MSTORE PUSH1 0x20 ADD PUSH1 0x1 DUP3 ADD DUP1 SLOAD PUSH1 0x1 DUP2 PUSH1 0x1 AND ISZERO PUSH2 0x100 MUL SUB AND PUSH1 0x2 SWAP1 DIV DUP1 PUSH1 0x1F ADD PUSH1 0x20 DUP1 SWAP2 DIV MUL PUSH1 0x20 ADD PUSH1 0x40 MLOAD SWAP1 DUP2 ADD PUSH1 0x40 MSTORE DUP1 SWAP3 SWAP2 SWAP1 DUP2 DUP2 MSTORE PUSH1 0x20 ADD DUP3 DUP1 SLOAD PUSH1 0x1 DUP2 PUSH1 0x1 AND ISZERO PUSH2 0x100 MUL SUB AND PUSH1 0x2 SWAP1 DIV DUP1 ISZERO PUSH2 0x21E4 JUMPI DUP1 PUSH1 0x1F LT PUSH2 0x21B9 JUMPI PUSH2 0x100 DUP1 DUP4 SLOAD DIV MUL DUP4 MSTORE SWAP2 PUSH1 0x20 ADD SWAP2 PUSH2 0x21E4 JUMP JUMPDEST DUP3 ADD SWAP2 SWAP1 PUSH1 0x0 MSTORE PUSH1 0x20 PUSH1 0x0 KECCAK256 SWAP1 JUMPDEST DUP2 SLOAD DUP2 MSTORE SWAP1 PUSH1 0x1 ADD SWAP1 PUSH1 0x20 ADD DUP1 DUP4 GT PUSH2 0x21C7 JUMPI DUP3 SWAP1 SUB PUSH1 0x1F AND DUP3 ADD SWAP2 JUMPDEST POP POP POP SWAP2 DUP4 MSTORE POP POP PUSH1 0x2 DUP3 ADD SLOAD PUSH1 0x1 PUSH1 0x1 PUSH1 0xA0 SHL SUB AND PUSH1 0x20 DUP1 DUP4 ADD SWAP2 SWAP1 SWAP2 MSTORE PUSH1 0x3 DUP4 ADD SLOAD PUSH1 0x40 DUP1 DUP5 ADD SWAP2 SWAP1 SWAP2 MSTORE PUSH1 0x4 DUP5 ADD SLOAD PUSH1 0xFF AND ISZERO ISZERO PUSH1 0x60 DUP5 ADD MSTORE PUSH1 0x5 DUP5 ADD DUP1 SLOAD DUP3 MLOAD DUP2 DUP6 MUL DUP2 ADD DUP6 ADD SWAP1 SWAP4 MSTORE DUP1 DUP4 MSTORE PUSH1 0x80 SWAP1 SWAP5 ADD SWAP4 SWAP2 SWAP3 SWAP1 SWAP2 SWAP1 DUP4 ADD DUP3 DUP3 DUP1 ISZERO PUSH2 0x2279 JUMPI PUSH1 0x20 MUL DUP3 ADD SWAP2 SWAP1 PUSH1 0x0 MSTORE PUSH1 0x20 PUSH1 0x0 KECCAK256 SWAP1 JUMPDEST DUP2 SLOAD PUSH1 0x1 PUSH1 0x1 PUSH1 0xA0 SHL SUB AND DUP2 MSTORE PUSH1 0x1 SWAP1 SWAP2 ADD SWAP1 PUSH1 0x20 ADD DUP1 DUP4 GT PUSH2 0x225B JUMPI JUMPDEST POP POP POP POP POP DUP2 MSTORE PUSH1 0x20 ADD PUSH1 0x6 DUP3 ADD DUP1 SLOAD DUP1 PUSH1 0x20 MUL PUSH1 0x20 ADD PUSH1 0x40 MLOAD SWAP1 DUP2 ADD PUSH1 0x40 MSTORE DUP1 SWAP3 SWAP2 SWAP1 DUP2 DUP2 MSTORE PUSH1 0x20 ADD DUP3 DUP1 SLOAD DUP1 ISZERO PUSH2 0x22DB JUMPI PUSH1 0x20 MUL DUP3 ADD SWAP2 SWAP1 PUSH1 0x0 MSTORE PUSH1 0x20 PUSH1 0x0 KECCAK256 SWAP1 JUMPDEST DUP2 SLOAD PUSH1 0x1 PUSH1 0x1 PUSH1 0xA0 SHL SUB AND DUP2 MSTORE PUSH1 0x1 SWAP1 SWAP2 ADD SWAP1 PUSH1 0x20 ADD DUP1 DUP4 GT PUSH2 0x22BD JUMPI JUMPDEST POP POP POP POP POP DUP2 MSTORE PUSH1 0x20 ADD PUSH1 0x7 DUP3 ADD DUP1 SLOAD DUP1 PUSH1 0x20 MUL PUSH1 0x20 ADD PUSH1 0x40 MLOAD SWAP1 DUP2 ADD PUSH1 0x40 MSTORE DUP1 SWAP3 SWAP2 SWAP1 DUP2 DUP2 MSTORE PUSH1 0x20 ADD DUP3 DUP1 SLOAD DUP1 ISZERO PUSH2 0x233D JUMPI PUSH1 0x20 MUL DUP3 ADD SWAP2 SWAP1 PUSH1 0x0 MSTORE PUSH1 0x20 PUSH1 0x0 KECCAK256 SWAP1 JUMPDEST DUP2 SLOAD PUSH1 0x1 PUSH1 0x1 PUSH1 0xA0 SHL SUB AND DUP2 MSTORE PUSH1 0x1 SWAP1 SWAP2 ADD SWAP1 PUSH1 0x20 ADD DUP1 DUP4 GT PUSH2 0x231F JUMPI JUMPDEST POP POP POP POP POP DUP2 MSTORE PUSH1 0x20 ADD PUSH1 0x8 DUP3 ADD DUP1 SLOAD DUP1 PUSH1 0x20 MUL PUSH1 0x20 ADD PUSH1 0x40 MLOAD SWAP1 DUP2 ADD PUSH1 0x40 MSTORE DUP1 SWAP3 SWAP2 SWAP1 DUP2 DUP2 MSTORE PUSH1 0x20 ADD PUSH1 0x0 SWAP1 JUMPDEST DUP3 DUP3 LT ISZERO PUSH2 0x243F JUMPI PUSH1 0x0 DUP5 DUP2 MSTORE PUSH1 0x20 SWAP1 DUP2 SWAP1 KECCAK256 PUSH1 0x40 DUP1 MLOAD DUP1 DUP3 ADD DUP3 MSTORE PUSH1 0x2 DUP7 DUP2 MUL SWAP1 SWAP4 ADD DUP1 SLOAD PUSH1 0x1 PUSH1 0x1 PUSH1 0xA0 SHL SUB AND DUP3 MSTORE PUSH1 0x1 DUP1 DUP3 ADD DUP1 SLOAD DUP6 MLOAD PUSH2 0x100 SWAP4 DUP3 AND ISZERO SWAP4 SWAP1 SWAP4 MUL PUSH1 0x0 NOT ADD AND SWAP6 SWAP1 SWAP6 DIV PUSH1 0x1F DUP2 ADD DUP8 SWAP1 DIV DUP8 MUL DUP3 ADD DUP8 ADD SWAP1 SWAP5 MSTORE DUP4 DUP2 MSTORE SWAP2 SWAP5 SWAP1 SWAP4 DUP6 DUP3 ADD SWAP4 SWAP1 SWAP2 DUP4 ADD DUP3 DUP3 DUP1 ISZERO PUSH2 0x2427 JUMPI DUP1 PUSH1 0x1F LT PUSH2 0x23FC JUMPI PUSH2 0x100 DUP1 DUP4 SLOAD DIV MUL DUP4 MSTORE SWAP2 PUSH1 0x20 ADD SWAP2 PUSH2 0x2427 JUMP JUMPDEST DUP3 ADD SWAP2 SWAP1 PUSH1 0x0 MSTORE PUSH1 0x20 PUSH1 0x0 KECCAK256 SWAP1 JUMPDEST DUP2 SLOAD DUP2 MSTORE SWAP1 PUSH1 0x1 ADD SWAP1 PUSH1 0x20 ADD DUP1 DUP4 GT PUSH2 0x240A JUMPI DUP3 SWAP1 SUB PUSH1 0x1F AND DUP3 ADD SWAP2 JUMPDEST POP POP POP POP POP DUP2 MSTORE POP POP DUP2 MSTORE PUSH1 0x20 ADD SWAP1 PUSH1 0x1 ADD SWAP1 PUSH2 0x236B JUMP JUMPDEST POP POP POP SWAP2 MSTORE POP SWAP1 SWAP4 SWAP3 POP POP POP JUMP JUMPDEST PUSH1 0x4 SLOAD PUSH1 0x60 SWAP1 DUP2 SWAP1 PUSH1 0x1 PUSH1 0x1 PUSH1 0x40 SHL SUB DUP2 GT DUP1 ISZERO PUSH2 0x246A JUMPI PUSH1 0x0 DUP1 REVERT JUMPDEST POP PUSH1 0x40 MLOAD SWAP1 DUP1 DUP3 MSTORE DUP1 PUSH1 0x20 MUL PUSH1 0x20 ADD DUP3 ADD PUSH1 0x40 MSTORE DUP1 ISZERO PUSH2 0x24A4 JUMPI DUP2 PUSH1 0x20 ADD JUMPDEST PUSH2 0x2491 PUSH2 0x3D77 JUMP JUMPDEST DUP2 MSTORE PUSH1 0x20 ADD SWAP1 PUSH1 0x1 SWAP1 SUB SWAP1 DUP2 PUSH2 0x2489 JUMPI SWAP1 POP JUMPDEST POP SWAP1 POP PUSH1 0x0 JUMPDEST PUSH1 0x4 SLOAD DUP2 LT ISZERO PUSH2 0x289B JUMPI PUSH1 0x5 PUSH1 0x4 DUP3 DUP2 SLOAD DUP2 LT PUSH2 0x24C3 JUMPI INVALID JUMPDEST SWAP1 PUSH1 0x0 MSTORE PUSH1 0x20 PUSH1 0x0 KECCAK256 ADD PUSH1 0x40 MLOAD PUSH2 0x24DA SWAP2 SWAP1 PUSH2 0x4507 JUMP JUMPDEST SWAP1 DUP2 MSTORE PUSH1 0x40 DUP1 MLOAD PUSH1 0x20 SWAP3 DUP2 SWAP1 SUB DUP4 ADD DUP2 KECCAK256 DUP1 SLOAD PUSH1 0x2 PUSH1 0x1 DUP3 AND ISZERO PUSH2 0x100 MUL PUSH1 0x0 NOT ADD SWAP1 SWAP2 AND DIV PUSH1 0x1F DUP2 ADD DUP6 SWAP1 DIV SWAP1 SWAP5 MUL DUP3 ADD PUSH2 0x140 SWAP1 DUP2 ADD SWAP1 SWAP4 MSTORE PUSH2 0x120 DUP3 ADD DUP5 DUP2 MSTORE SWAP2 SWAP4 SWAP1 SWAP3 DUP5 SWAP3 SWAP2 DUP5 SWAP2 DUP5 ADD DUP3 DUP3 DUP1 ISZERO PUSH2 0x2577 JUMPI DUP1 PUSH1 0x1F LT PUSH2 0x254C JUMPI PUSH2 0x100 DUP1 DUP4 SLOAD DIV MUL DUP4 MSTORE SWAP2 PUSH1 0x20 ADD SWAP2 PUSH2 0x2577 JUMP JUMPDEST DUP3 ADD SWAP2 SWAP1 PUSH1 0x0 MSTORE PUSH1 0x20 PUSH1 0x0 KECCAK256 SWAP1 JUMPDEST DUP2 SLOAD DUP2 MSTORE SWAP1 PUSH1 0x1 ADD SWAP1 PUSH1 0x20 ADD DUP1 DUP4 GT PUSH2 0x255A JUMPI DUP3 SWAP1 SUB PUSH1 0x1F AND DUP3 ADD SWAP2 JUMPDEST POP POP POP POP POP DUP2 MSTORE PUSH1 0x20 ADD PUSH1 0x1 DUP3 ADD DUP1 SLOAD PUSH1 0x1 DUP2 PUSH1 0x1 AND ISZERO PUSH2 0x100 MUL SUB AND PUSH1 0x2 SWAP1 DIV DUP1 PUSH1 0x1F ADD PUSH1 0x20 DUP1 SWAP2 DIV MUL PUSH1 0x20 ADD PUSH1 0x40 MLOAD SWAP1 DUP2 ADD PUSH1 0x40 MSTORE DUP1 SWAP3 SWAP2 SWAP1 DUP2 DUP2 MSTORE PUSH1 0x20 ADD DUP3 DUP1 SLOAD PUSH1 0x1 DUP2 PUSH1 0x1 AND ISZERO PUSH2 0x100 MUL SUB AND PUSH1 0x2 SWAP1 DIV DUP1 ISZERO PUSH2 0x2619 JUMPI DUP1 PUSH1 0x1F LT PUSH2 0x25EE JUMPI PUSH2 0x100 DUP1 DUP4 SLOAD DIV MUL DUP4 MSTORE SWAP2 PUSH1 0x20 ADD SWAP2 PUSH2 0x2619 JUMP JUMPDEST DUP3 ADD SWAP2 SWAP1 PUSH1 0x0 MSTORE PUSH1 0x20 PUSH1 0x0 KECCAK256 SWAP1 JUMPDEST DUP2 SLOAD DUP2 MSTORE SWAP1 PUSH1 0x1 ADD SWAP1 PUSH1 0x20 ADD DUP1 DUP4 GT PUSH2 0x25FC JUMPI DUP3 SWAP1 SUB PUSH1 0x1F AND DUP3 ADD SWAP2 JUMPDEST POP POP POP SWAP2 DUP4 MSTORE POP POP PUSH1 0x2 DUP3 ADD SLOAD PUSH1 0x1 PUSH1 0x1 PUSH1 0xA0 SHL SUB AND PUSH1 0x20 DUP1 DUP4 ADD SWAP2 SWAP1 SWAP2 MSTORE PUSH1 0x3 DUP4 ADD SLOAD PUSH1 0x40 DUP1 DUP5 ADD SWAP2 SWAP1 SWAP2 MSTORE PUSH1 0x4 DUP5 ADD SLOAD PUSH1 0xFF AND ISZERO ISZERO PUSH1 0x60 DUP5 ADD MSTORE PUSH1 0x5 DUP5 ADD DUP1 SLOAD DUP3 MLOAD DUP2 DUP6 MUL DUP2 ADD DUP6 ADD SWAP1 SWAP4 MSTORE DUP1 DUP4 MSTORE PUSH1 0x80 SWAP1 SWAP5 ADD SWAP4 SWAP2 SWAP3 SWAP1 SWAP2 SWAP1 DUP4 ADD DUP3 DUP3 DUP1 ISZERO PUSH2 0x26AE JUMPI PUSH1 0x20 MUL DUP3 ADD SWAP2 SWAP1 PUSH1 0x0 MSTORE PUSH1 0x20 PUSH1 0x0 KECCAK256 SWAP1 JUMPDEST DUP2 SLOAD PUSH1 0x1 PUSH1 0x1 PUSH1 0xA0 SHL SUB AND DUP2 MSTORE PUSH1 0x1 SWAP1 SWAP2 ADD SWAP1 PUSH1 0x20 ADD DUP1 DUP4 GT PUSH2 0x2690 JUMPI JUMPDEST POP POP POP POP POP DUP2 MSTORE PUSH1 0x20 ADD PUSH1 0x6 DUP3 ADD DUP1 SLOAD DUP1 PUSH1 0x20 MUL PUSH1 0x20 ADD PUSH1 0x40 MLOAD SWAP1 DUP2 ADD PUSH1 0x40 MSTORE DUP1 SWAP3 SWAP2 SWAP1 DUP2 DUP2 MSTORE PUSH1 0x20 ADD DUP3 DUP1 SLOAD DUP1 ISZERO PUSH2 0x2710 JUMPI PUSH1 0x20 MUL DUP3 ADD SWAP2 SWAP1 PUSH1 0x0 MSTORE PUSH1 0x20 PUSH1 0x0 KECCAK256 SWAP1 JUMPDEST DUP2 SLOAD PUSH1 0x1 PUSH1 0x1 PUSH1 0xA0 SHL SUB AND DUP2 MSTORE PUSH1 0x1 SWAP1 SWAP2 ADD SWAP1 PUSH1 0x20 ADD DUP1 DUP4 GT PUSH2 0x26F2 JUMPI JUMPDEST POP POP POP POP POP DUP2 MSTORE PUSH1 0x20 ADD PUSH1 0x7 DUP3 ADD DUP1 SLOAD DUP1 PUSH1 0x20 MUL PUSH1 0x20 ADD PUSH1 0x40 MLOAD SWAP1 DUP2 ADD PUSH1 0x40 MSTORE DUP1 SWAP3 SWAP2 SWAP1 DUP2 DUP2 MSTORE PUSH1 0x20 ADD DUP3 DUP1 SLOAD DUP1 ISZERO PUSH2 0x2772 JUMPI PUSH1 0x20 MUL DUP3 ADD SWAP2 SWAP1 PUSH1 0x0 MSTORE PUSH1 0x20 PUSH1 0x0 KECCAK256 SWAP1 JUMPDEST DUP2 SLOAD PUSH1 0x1 PUSH1 0x1 PUSH1 0xA0 SHL SUB AND DUP2 MSTORE PUSH1 0x1 SWAP1 SWAP2 ADD SWAP1 PUSH1 0x20 ADD DUP1 DUP4 GT PUSH2 0x2754 JUMPI JUMPDEST POP POP POP POP POP DUP2 MSTORE PUSH1 0x20 ADD PUSH1 0x8 DUP3 ADD DUP1 SLOAD DUP1 PUSH1 0x20 MUL PUSH1 0x20 ADD PUSH1 0x40 MLOAD SWAP1 DUP2 ADD PUSH1 0x40 MSTORE DUP1 SWAP3 SWAP2 SWAP1 DUP2 DUP2 MSTORE PUSH1 0x20 ADD PUSH1 0x0 SWAP1 JUMPDEST DUP3 DUP3 LT ISZERO PUSH2 0x2874 JUMPI PUSH1 0x0 DUP5 DUP2 MSTORE PUSH1 0x20 SWAP1 DUP2 SWAP1 KECCAK256 PUSH1 0x40 DUP1 MLOAD DUP1 DUP3 ADD DUP3 MSTORE PUSH1 0x2 DUP7 DUP2 MUL SWAP1 SWAP4 ADD DUP1 SLOAD PUSH1 0x1 PUSH1 0x1 PUSH1 0xA0 SHL SUB AND DUP3 MSTORE PUSH1 0x1 DUP1 DUP3 ADD DUP1 SLOAD DUP6 MLOAD PUSH2 0x100 SWAP4 DUP3 AND ISZERO SWAP4 SWAP1 SWAP4 MUL PUSH1 0x0 NOT ADD AND SWAP6 SWAP1 SWAP6 DIV PUSH1 0x1F DUP2 ADD DUP8 SWAP1 DIV DUP8 MUL DUP3 ADD DUP8 ADD SWAP1 SWAP5 MSTORE DUP4 DUP2 MSTORE SWAP2 SWAP5 SWAP1 SWAP4 DUP6 DUP3 ADD SWAP4 SWAP1 SWAP2 DUP4 ADD DUP3 DUP3 DUP1 ISZERO PUSH2 0x285C JUMPI DUP1 PUSH1 0x1F LT PUSH2 0x2831 JUMPI PUSH2 0x100 DUP1 DUP4 SLOAD DIV MUL DUP4 MSTORE SWAP2 PUSH1 0x20 ADD SWAP2 PUSH2 0x285C JUMP JUMPDEST DUP3 ADD SWAP2 SWAP1 PUSH1 0x0 MSTORE PUSH1 0x20 PUSH1 0x0 KECCAK256 SWAP1 JUMPDEST DUP2 SLOAD DUP2 MSTORE SWAP1 PUSH1 0x1 ADD SWAP1 PUSH1 0x20 ADD DUP1 DUP4 GT PUSH2 0x283F JUMPI DUP3 SWAP1 SUB PUSH1 0x1F AND DUP3 ADD SWAP2 JUMPDEST POP POP POP POP POP DUP2 MSTORE POP POP DUP2 MSTORE PUSH1 0x20 ADD SWAP1 PUSH1 0x1 ADD SWAP1 PUSH2 0x27A0 JUMP JUMPDEST POP POP POP POP DUP2 MSTORE POP POP DUP3 DUP3 DUP2 MLOAD DUP2 LT PUSH2 0x2888 JUMPI INVALID JUMPDEST PUSH1 0x20 SWAP1 DUP2 MUL SWAP2 SWAP1 SWAP2 ADD ADD MSTORE PUSH1 0x1 ADD PUSH2 0x24AA JUMP JUMPDEST POP SWAP1 POP SWAP1 JUMP JUMPDEST PUSH1 0x40 DUP1 MLOAD PUSH2 0x1E0 DUP2 ADD SWAP1 SWAP2 MSTORE PUSH1 0xB3 PUSH2 0x100 DUP3 ADD DUP2 DUP2 MSTORE DUP3 SWAP2 PUSH2 0x4BF5 PUSH2 0x120 DUP5 ADD CODECOPY DUP2 MSTORE PUSH1 0x20 ADD PUSH1 0x40 MLOAD DUP1 PUSH1 0xE0 ADD PUSH1 0x40 MSTORE DUP1 PUSH1 0xB3 DUP2 MSTORE PUSH1 0x20 ADD PUSH2 0x4A8F PUSH1 0xB3 SWAP2 CODECOPY DUP2 MSTORE PUSH1 0x20 ADD PUSH1 0x40 MLOAD DUP1 PUSH1 0xE0 ADD PUSH1 0x40 MSTORE DUP1 PUSH1 0xB3 DUP2 MSTORE PUSH1 0x20 ADD PUSH2 0x4876 PUSH1 0xB3 SWAP2 CODECOPY DUP2 MSTORE PUSH1 0x20 ADD PUSH1 0x40 MLOAD DUP1 PUSH1 0xE0 ADD PUSH1 0x40 MSTORE DUP1 PUSH1 0xB3 DUP2 MSTORE PUSH1 0x20 ADD PUSH2 0x4B42 PUSH1 0xB3 SWAP2 CODECOPY DUP2 MSTORE PUSH1 0x20 ADD PUSH1 0x40 MLOAD DUP1 PUSH1 0xE0 ADD PUSH1 0x40 MSTORE DUP1 PUSH1 0xB3 DUP2 MSTORE PUSH1 0x20 ADD PUSH2 0x4D5B PUSH1 0xB3 SWAP2 CODECOPY DUP2 MSTORE PUSH1 0x20 ADD PUSH1 0x40 MLOAD DUP1 PUSH1 0xE0 ADD PUSH1 0x40 MSTORE DUP1 PUSH1 0xB3 DUP2 MSTORE PUSH1 0x20 ADD PUSH2 0x49DC PUSH1 0xB3 SWAP2 CODECOPY DUP2 MSTORE PUSH1 0x20 ADD PUSH1 0x40 MLOAD DUP1 PUSH1 0xE0 ADD PUSH1 0x40 MSTORE DUP1 PUSH1 0xB3 DUP2 MSTORE PUSH1 0x20 ADD PUSH2 0x4929 PUSH1 0xB3 SWAP2 CODECOPY DUP2 MSTORE PUSH1 0x20 ADD PUSH1 0x40 MLOAD DUP1 PUSH1 0xE0 ADD PUSH1 0x40 MSTORE DUP1 PUSH1 0xB3 DUP2 MSTORE PUSH1 0x20 ADD PUSH2 0x4CA8 PUSH1 0xB3 SWAP2 CODECOPY SWAP1 MSTORE PUSH2 0x29A4 SWAP1 PUSH1 0x4 SWAP1 PUSH1 0x8 PUSH2 0x3F12 JUMP JUMPDEST POP PUSH2 0x29AD PUSH2 0x3F6B JUMP JUMPDEST POP PUSH1 0x40 DUP1 MLOAD PUSH2 0x180 DUP2 ADD DUP3 MSTORE PUSH1 0x12 PUSH2 0x140 DUP3 ADD DUP2 DUP2 MSTORE PUSH18 0x50616973616A6520616E6172616E6A61646F PUSH1 0x70 SHL PUSH2 0x160 DUP5 ADD MSTORE DUP3 MSTORE DUP3 MLOAD DUP1 DUP5 ADD DUP5 MSTORE PUSH1 0x14 DUP1 DUP3 MSTORE PUSH20 0x5369657272617320656E20656C20766572616E6F PUSH1 0x60 SHL PUSH1 0x20 DUP4 DUP2 ADD SWAP2 SWAP1 SWAP2 MSTORE DUP1 DUP6 ADD SWAP3 SWAP1 SWAP3 MSTORE DUP5 MLOAD DUP1 DUP7 ADD DUP7 MSTORE SWAP1 DUP2 MSTORE PUSH20 0x436F6E737472756363696F6E206D6F6465726E61 PUSH1 0x60 SHL DUP2 DUP4 ADD MSTORE DUP4 DUP6 ADD MSTORE DUP4 MLOAD DUP1 DUP6 ADD DUP6 MSTORE PUSH1 0x11 DUP2 MSTORE PUSH17 0x10DA5D591859081A5B991D5CDD1C9A585B PUSH1 0x7A SHL DUP2 DUP4 ADD MSTORE PUSH1 0x60 DUP5 ADD MSTORE DUP4 MLOAD DUP1 DUP6 ADD DUP6 MSTORE SWAP2 DUP3 MSTORE PUSH18 0x53656C66696520656E206C61206261726461 PUSH1 0x70 SHL DUP3 DUP3 ADD MSTORE PUSH1 0x80 DUP4 ADD SWAP2 SWAP1 SWAP2 MSTORE DUP3 MLOAD DUP1 DUP5 ADD DUP5 MSTORE PUSH1 0x13 DUP2 MSTORE PUSH19 0x426F7371756520646573646520617272696261 PUSH1 0x68 SHL DUP2 DUP4 ADD MSTORE PUSH1 0xA0 DUP4 ADD MSTORE DUP3 MLOAD DUP1 DUP5 ADD DUP5 MSTORE PUSH1 0x17 DUP1 DUP3 MSTORE PUSH32 0x4C6176616E646120656E207072696D657220706C616E6F000000000000000000 DUP3 DUP5 ADD MSTORE PUSH1 0xC0 DUP5 ADD SWAP2 SWAP1 SWAP2 MSTORE DUP4 MLOAD DUP1 DUP6 ADD DUP6 MSTORE PUSH1 0x1B DUP2 MSTORE PUSH32 0x426172636F206172726976616E646F2061206C61206369756461640000000000 DUP2 DUP5 ADD MSTORE PUSH1 0xE0 DUP5 ADD MSTORE DUP4 MLOAD DUP1 DUP6 ADD DUP6 MSTORE PUSH1 0x16 DUP2 MSTORE PUSH22 0x5469656E6461206D6F6465726E6120646520726F7061 PUSH1 0x50 SHL DUP2 DUP5 ADD MSTORE PUSH2 0x100 DUP5 ADD MSTORE DUP4 MLOAD DUP1 DUP6 ADD SWAP1 SWAP5 MSTORE DUP4 MSTORE PUSH32 0x50616C6D6572617320646573646520656C207375656C6F000000000000000000 SWAP1 DUP4 ADD MSTORE PUSH2 0x120 DUP2 ADD SWAP2 SWAP1 SWAP2 MSTORE PUSH1 0x0 JUMPDEST PUSH1 0x4 SLOAD DUP2 LT ISZERO PUSH2 0xCA9 JUMPI PUSH1 0x4 DUP2 DUP2 SLOAD DUP2 LT PUSH2 0x2BAE JUMPI INVALID JUMPDEST SWAP1 PUSH1 0x0 MSTORE PUSH1 0x20 PUSH1 0x0 KECCAK256 ADD PUSH1 0x5 PUSH1 0x4 DUP4 DUP2 SLOAD DUP2 LT PUSH2 0x2BC7 JUMPI INVALID JUMPDEST SWAP1 PUSH1 0x0 MSTORE PUSH1 0x20 PUSH1 0x0 KECCAK256 ADD PUSH1 0x40 MLOAD PUSH2 0x2BDE SWAP2 SWAP1 PUSH2 0x4507 JUMP JUMPDEST SWAP1 DUP2 MSTORE PUSH1 0x40 MLOAD SWAP1 DUP2 SWAP1 SUB PUSH1 0x20 ADD SWAP1 KECCAK256 DUP2 SLOAD PUSH2 0x2C0C SWAP3 SWAP1 PUSH1 0x2 PUSH1 0x0 NOT PUSH2 0x100 PUSH1 0x1 DUP5 AND ISZERO MUL ADD SWAP1 SWAP2 AND DIV PUSH2 0x3F93 JUMP JUMPDEST POP PUSH1 0x2 DUP2 DUP2 SLOAD DUP2 LT PUSH2 0x2C1A JUMPI INVALID JUMPDEST SWAP1 PUSH1 0x0 MSTORE PUSH1 0x20 PUSH1 0x0 KECCAK256 ADD PUSH1 0x0 SWAP1 SLOAD SWAP1 PUSH2 0x100 EXP SWAP1 DIV PUSH1 0x1 PUSH1 0x1 PUSH1 0xA0 SHL SUB AND PUSH1 0x5 PUSH1 0x4 DUP4 DUP2 SLOAD DUP2 LT PUSH2 0x2C47 JUMPI INVALID JUMPDEST SWAP1 PUSH1 0x0 MSTORE PUSH1 0x20 PUSH1 0x0 KECCAK256 ADD PUSH1 0x40 MLOAD PUSH2 0x2C5E SWAP2 SWAP1 PUSH2 0x4507 JUMP JUMPDEST SWAP1 DUP2 MSTORE PUSH1 0x40 MLOAD SWAP1 DUP2 SWAP1 SUB PUSH1 0x20 ADD SWAP1 KECCAK256 PUSH1 0x2 ADD DUP1 SLOAD PUSH1 0x1 PUSH1 0x1 PUSH1 0xA0 SHL SUB SWAP3 SWAP1 SWAP3 AND PUSH1 0x1 PUSH1 0x1 PUSH1 0xA0 SHL SUB NOT SWAP1 SWAP3 AND SWAP2 SWAP1 SWAP2 OR SWAP1 SSTORE DUP2 DUP2 PUSH1 0xA DUP2 LT PUSH2 0x2C9C JUMPI INVALID JUMPDEST PUSH1 0x20 MUL ADD MLOAD PUSH1 0x5 PUSH1 0x4 DUP4 DUP2 SLOAD DUP2 LT PUSH2 0x2CB0 JUMPI INVALID JUMPDEST SWAP1 PUSH1 0x0 MSTORE PUSH1 0x20 PUSH1 0x0 KECCAK256 ADD PUSH1 0x40 MLOAD PUSH2 0x2CC7 SWAP2 SWAP1 PUSH2 0x4507 JUMP JUMPDEST SWAP1 DUP2 MSTORE PUSH1 0x20 ADD PUSH1 0x40 MLOAD DUP1 SWAP2 SUB SWAP1 KECCAK256 PUSH1 0x1 ADD SWAP1 DUP1 MLOAD SWAP1 PUSH1 0x20 ADD SWAP1 PUSH2 0x2CEB SWAP3 SWAP2 SWAP1 PUSH2 0x3CF9 JUMP JUMPDEST POP DUP1 PUSH2 0xE10 MUL TIMESTAMP ADD PUSH1 0x5 PUSH1 0x4 DUP4 DUP2 SLOAD DUP2 LT PUSH2 0x2D02 JUMPI INVALID JUMPDEST SWAP1 PUSH1 0x0 MSTORE PUSH1 0x20 PUSH1 0x0 KECCAK256 ADD PUSH1 0x40 MLOAD PUSH2 0x2D19 SWAP2 SWAP1 PUSH2 0x4507 JUMP JUMPDEST SWAP1 DUP2 MSTORE PUSH1 0x40 MLOAD SWAP1 DUP2 SWAP1 SUB PUSH1 0x20 ADD SWAP1 KECCAK256 PUSH1 0x3 ADD SSTORE PUSH1 0x2 DUP2 MOD PUSH1 0x0 EQ PUSH1 0x5 PUSH1 0x4 DUP4 DUP2 SLOAD DUP2 LT PUSH2 0x2D42 JUMPI INVALID JUMPDEST SWAP1 PUSH1 0x0 MSTORE PUSH1 0x20 PUSH1 0x0 KECCAK256 ADD PUSH1 0x40 MLOAD PUSH2 0x2D59 SWAP2 SWAP1 PUSH2 0x4507 JUMP JUMPDEST SWAP1 DUP2 MSTORE PUSH1 0x40 DUP1 MLOAD PUSH1 0x20 SWAP3 DUP2 SWAP1 SUB DUP4 ADD DUP2 KECCAK256 PUSH1 0x4 ADD DUP1 SLOAD PUSH1 0xFF NOT AND SWAP5 ISZERO ISZERO SWAP5 SWAP1 SWAP5 OR SWAP1 SWAP4 SSTORE PUSH1 0x2 DUP1 SLOAD DUP1 DUP5 MUL DUP6 ADD DUP5 ADD SWAP1 SWAP3 MSTORE DUP2 DUP5 MSTORE PUSH2 0x2DDB SWAP4 SWAP3 SWAP1 SWAP2 SWAP1 DUP4 ADD DUP3 DUP3 DUP1 ISZERO PUSH2 0x2DCF JUMPI PUSH1 0x20 MUL DUP3 ADD SWAP2 SWAP1 PUSH1 0x0 MSTORE PUSH1 0x20 PUSH1 0x0 KECCAK256 SWAP1 JUMPDEST DUP2 SLOAD PUSH1 0x1 PUSH1 0x1 PUSH1 0xA0 SHL SUB AND DUP2 MSTORE PUSH1 0x1 SWAP1 SWAP2 ADD SWAP1 PUSH1 0x20 ADD DUP1 DUP4 GT PUSH2 0x2DB1 JUMPI JUMPDEST POP POP POP POP POP PUSH1 0x5 PUSH2 0x3C18 JUMP JUMPDEST PUSH1 0x5 PUSH1 0x4 DUP4 DUP2 SLOAD DUP2 LT PUSH2 0x2DEA JUMPI INVALID JUMPDEST SWAP1 PUSH1 0x0 MSTORE PUSH1 0x20 PUSH1 0x0 KECCAK256 ADD PUSH1 0x40 MLOAD PUSH2 0x2E01 SWAP2 SWAP1 PUSH2 0x4507 JUMP JUMPDEST SWAP1 DUP2 MSTORE PUSH1 0x20 ADD PUSH1 0x40 MLOAD DUP1 SWAP2 SUB SWAP1 KECCAK256 PUSH1 0x5 ADD SWAP1 DUP1 MLOAD SWAP1 PUSH1 0x20 ADD SWAP1 PUSH2 0x2E25 SWAP3 SWAP2 SWAP1 PUSH2 0x3DCE JUMP JUMPDEST POP PUSH2 0x2E94 PUSH1 0x2 DUP1 SLOAD DUP1 PUSH1 0x20 MUL PUSH1 0x20 ADD PUSH1 0x40 MLOAD SWAP1 DUP2 ADD PUSH1 0x40 MSTORE DUP1 SWAP3 SWAP2 SWAP1 DUP2 DUP2 MSTORE PUSH1 0x20 ADD DUP3 DUP1 SLOAD DUP1 ISZERO PUSH2 0x2E7F JUMPI PUSH1 0x20 MUL DUP3 ADD SWAP2 SWAP1 PUSH1 0x0 MSTORE PUSH1 0x20 PUSH1 0x0 KECCAK256 SWAP1 JUMPDEST DUP2 SLOAD PUSH1 0x1 PUSH1 0x1 PUSH1 0xA0 SHL SUB AND DUP2 MSTORE PUSH1 0x1 SWAP1 SWAP2 ADD SWAP1 PUSH1 0x20 ADD DUP1 DUP4 GT PUSH2 0x2E61 JUMPI JUMPDEST POP POP POP POP POP PUSH1 0x5 DUP4 DUP2 PUSH2 0x2E8E JUMPI INVALID JUMPDEST MOD PUSH2 0x3C18 JUMP JUMPDEST PUSH1 0x5 PUSH1 0x4 DUP4 DUP2 SLOAD DUP2 LT PUSH2 0x2EA3 JUMPI INVALID JUMPDEST SWAP1 PUSH1 0x0 MSTORE PUSH1 0x20 PUSH1 0x0 KECCAK256 ADD PUSH1 0x40 MLOAD PUSH2 0x2EBA SWAP2 SWAP1 PUSH2 0x4507 JUMP JUMPDEST SWAP1 DUP2 MSTORE PUSH1 0x20 ADD PUSH1 0x40 MLOAD DUP1 SWAP2 SUB SWAP1 KECCAK256 PUSH1 0x6 ADD SWAP1 DUP1 MLOAD SWAP1 PUSH1 0x20 ADD SWAP1 PUSH2 0x2EDE SWAP3 SWAP2 SWAP1 PUSH2 0x3DCE JUMP JUMPDEST POP PUSH2 0x2F50 PUSH1 0x2 DUP1 SLOAD DUP1 PUSH1 0x20 MUL PUSH1 0x20 ADD PUSH1 0x40 MLOAD SWAP1 DUP2 ADD PUSH1 0x40 MSTORE DUP1 SWAP3 SWAP2 SWAP1 DUP2 DUP2 MSTORE PUSH1 0x20 ADD DUP3 DUP1 SLOAD DUP1 ISZERO PUSH2 0x2F38 JUMPI PUSH1 0x20 MUL DUP3 ADD SWAP2 SWAP1 PUSH1 0x0 MSTORE PUSH1 0x20 PUSH1 0x0 KECCAK256 SWAP1 JUMPDEST DUP2 SLOAD PUSH1 0x1 PUSH1 0x1 PUSH1 0xA0 SHL SUB AND DUP2 MSTORE PUSH1 0x1 SWAP1 SWAP2 ADD SWAP1 PUSH1 0x20 ADD DUP1 DUP4 GT PUSH2 0x2F1A JUMPI JUMPDEST POP POP POP POP POP PUSH1 0x5 DUP4 DUP2 PUSH2 0x2F47 JUMPI INVALID JUMPDEST MOD PUSH1 0x5 SUB PUSH2 0x3C18 JUMP JUMPDEST PUSH1 0x5 PUSH1 0x4 DUP4 DUP2 SLOAD DUP2 LT PUSH2 0x2F5F JUMPI INVALID JUMPDEST SWAP1 PUSH1 0x0 MSTORE PUSH1 0x20 PUSH1 0x0 KECCAK256 ADD PUSH1 0x40 MLOAD PUSH2 0x2F76 SWAP2 SWAP1 PUSH2 0x4507 JUMP JUMPDEST SWAP1 DUP2 MSTORE PUSH1 0x20 ADD PUSH1 0x40 MLOAD DUP1 SWAP2 SUB SWAP1 KECCAK256 PUSH1 0x7 ADD SWAP1 DUP1 MLOAD SWAP1 PUSH1 0x20 ADD SWAP1 PUSH2 0x2F9A SWAP3 SWAP2 SWAP1 PUSH2 0x3DCE JUMP JUMPDEST POP PUSH1 0x5 PUSH1 0x4 DUP3 DUP2 SLOAD DUP2 LT PUSH2 0x2FAA JUMPI INVALID JUMPDEST SWAP1 PUSH1 0x0 MSTORE PUSH1 0x20 PUSH1 0x0 KECCAK256 ADD PUSH1 0x40 MLOAD PUSH2 0x2FC1 SWAP2 SWAP1 PUSH2 0x4507 JUMP JUMPDEST SWAP1 DUP2 MSTORE PUSH1 0x20 ADD PUSH1 0x40 MLOAD DUP1 SWAP2 SUB SWAP1 KECCAK256 PUSH1 0x8 ADD PUSH1 0x40 MLOAD DUP1 PUSH1 0x40 ADD PUSH1 0x40 MSTORE DUP1 PUSH1 0x2 DUP5 DUP2 SLOAD DUP2 LT PUSH2 0x2FEA JUMPI INVALID JUMPDEST PUSH1 0x0 SWAP2 DUP3 MSTORE PUSH1 0x20 SWAP2 DUP3 SWAP1 KECCAK256 ADD SLOAD PUSH1 0x1 PUSH1 0x1 PUSH1 0xA0 SHL SUB AND DUP3 MSTORE ADD DUP5 DUP5 PUSH1 0xA DUP2 LT PUSH2 0x300F JUMPI INVALID JUMPDEST PUSH1 0x20 SWAP1 DUP2 MUL SWAP2 SWAP1 SWAP2 ADD MLOAD SWAP1 SWAP2 MSTORE DUP3 SLOAD PUSH1 0x1 DUP1 DUP3 ADD DUP6 SSTORE PUSH1 0x0 SWAP5 DUP6 MSTORE SWAP4 DUP3 SWAP1 KECCAK256 DUP4 MLOAD PUSH1 0x2 SWAP1 SWAP3 MUL ADD DUP1 SLOAD PUSH1 0x1 PUSH1 0x1 PUSH1 0xA0 SHL SUB NOT AND PUSH1 0x1 PUSH1 0x1 PUSH1 0xA0 SHL SUB SWAP1 SWAP3 AND SWAP2 SWAP1 SWAP2 OR DUP2 SSTORE DUP3 DUP3 ADD MLOAD DUP1 MLOAD SWAP4 SWAP5 SWAP2 SWAP4 PUSH2 0x306F SWAP4 SWAP3 DUP6 ADD SWAP3 SWAP2 SWAP1 SWAP2 ADD SWAP1 PUSH2 0x3CF9 JUMP JUMPDEST POP POP POP PUSH1 0x1 ADD PUSH2 0x2B97 JUMP JUMPDEST PUSH1 0x4 SLOAD PUSH1 0x60 SWAP1 DUP2 SWAP1 PUSH1 0x1 PUSH1 0x1 PUSH1 0x40 SHL SUB DUP2 GT DUP1 ISZERO PUSH2 0x3097 JUMPI PUSH1 0x0 DUP1 REVERT JUMPDEST POP PUSH1 0x40 MLOAD SWAP1 DUP1 DUP3 MSTORE DUP1 PUSH1 0x20 MUL PUSH1 0x20 ADD DUP3 ADD PUSH1 0x40 MSTORE DUP1 ISZERO PUSH2 0x30CB JUMPI DUP2 PUSH1 0x20 ADD JUMPDEST PUSH1 0x60 DUP2 MSTORE PUSH1 0x20 ADD SWAP1 PUSH1 0x1 SWAP1 SUB SWAP1 DUP2 PUSH2 0x30B6 JUMPI SWAP1 POP JUMPDEST POP SWAP1 POP PUSH1 0x0 DUP1 JUMPDEST PUSH1 0x4 SLOAD DUP2 LT ISZERO PUSH2 0x323A JUMPI PUSH2 0x316F PUSH1 0x5 PUSH1 0x4 DUP4 DUP2 SLOAD DUP2 LT PUSH2 0x30EE JUMPI INVALID JUMPDEST SWAP1 PUSH1 0x0 MSTORE PUSH1 0x20 PUSH1 0x0 KECCAK256 ADD PUSH1 0x40 MLOAD PUSH2 0x3105 SWAP2 SWAP1 PUSH2 0x4507 JUMP JUMPDEST SWAP1 DUP2 MSTORE PUSH1 0x40 DUP1 MLOAD SWAP2 DUP3 SWAP1 SUB PUSH1 0x20 SWAP1 DUP2 ADD DUP4 KECCAK256 PUSH1 0x5 ADD DUP1 SLOAD DUP1 DUP4 MUL DUP6 ADD DUP4 ADD SWAP1 SWAP4 MSTORE DUP3 DUP5 MSTORE SWAP2 SWAP1 DUP4 ADD DUP3 DUP3 DUP1 ISZERO PUSH2 0x3164 JUMPI PUSH1 0x20 MUL DUP3 ADD SWAP2 SWAP1 PUSH1 0x0 MSTORE PUSH1 0x20 PUSH1 0x0 KECCAK256 SWAP1 JUMPDEST DUP2 SLOAD PUSH1 0x1 PUSH1 0x1 PUSH1 0xA0 SHL SUB AND DUP2 MSTORE PUSH1 0x1 SWAP1 SWAP2 ADD SWAP1 PUSH1 0x20 ADD DUP1 DUP4 GT PUSH2 0x3146 JUMPI JUMPDEST POP POP POP POP POP DUP7 PUSH2 0x3B3F JUMP JUMPDEST ISZERO PUSH2 0x3232 JUMPI PUSH1 0x4 DUP2 DUP2 SLOAD DUP2 LT PUSH2 0x3181 JUMPI INVALID JUMPDEST PUSH1 0x0 SWAP2 DUP3 MSTORE PUSH1 0x20 SWAP2 DUP3 SWAP1 KECCAK256 ADD DUP1 SLOAD PUSH1 0x40 DUP1 MLOAD PUSH1 0x1F PUSH1 0x2 PUSH1 0x0 NOT PUSH2 0x100 PUSH1 0x1 DUP8 AND ISZERO MUL ADD SWAP1 SWAP5 AND SWAP4 SWAP1 SWAP4 DIV SWAP3 DUP4 ADD DUP6 SWAP1 DIV DUP6 MUL DUP2 ADD DUP6 ADD SWAP1 SWAP2 MSTORE DUP2 DUP2 MSTORE SWAP3 DUP4 ADD DUP3 DUP3 DUP1 ISZERO PUSH2 0x320F JUMPI DUP1 PUSH1 0x1F LT PUSH2 0x31E4 JUMPI PUSH2 0x100 DUP1 DUP4 SLOAD DIV MUL DUP4 MSTORE SWAP2 PUSH1 0x20 ADD SWAP2 PUSH2 0x320F JUMP JUMPDEST DUP3 ADD SWAP2 SWAP1 PUSH1 0x0 MSTORE PUSH1 0x20 PUSH1 0x0 KECCAK256 SWAP1 JUMPDEST DUP2 SLOAD DUP2 MSTORE SWAP1 PUSH1 0x1 ADD SWAP1 PUSH1 0x20 ADD DUP1 DUP4 GT PUSH2 0x31F2 JUMPI DUP3 SWAP1 SUB PUSH1 0x1F AND DUP3 ADD SWAP2 JUMPDEST POP POP POP POP POP DUP4 DUP4 DUP1 PUSH1 0x1 ADD SWAP5 POP DUP2 MLOAD DUP2 LT PUSH2 0x3226 JUMPI INVALID JUMPDEST PUSH1 0x20 MUL PUSH1 0x20 ADD ADD DUP2 SWAP1 MSTORE POP JUMPDEST PUSH1 0x1 ADD PUSH2 0x30D2 JUMP JUMPDEST POP PUSH1 0x60 DUP2 PUSH1 0x1 PUSH1 0x1 PUSH1 0x40 SHL SUB DUP2 GT DUP1 ISZERO PUSH2 0x3253 JUMPI PUSH1 0x0 DUP1 REVERT JUMPDEST POP PUSH1 0x40 MLOAD SWAP1 DUP1 DUP3 MSTORE DUP1 PUSH1 0x20 MUL PUSH1 0x20 ADD DUP3 ADD PUSH1 0x40 MSTORE DUP1 ISZERO PUSH2 0x328D JUMPI DUP2 PUSH1 0x20 ADD JUMPDEST PUSH2 0x327A PUSH2 0x3D77 JUMP JUMPDEST DUP2 MSTORE PUSH1 0x20 ADD SWAP1 PUSH1 0x1 SWAP1 SUB SWAP1 DUP2 PUSH2 0x3272 JUMPI SWAP1 POP JUMPDEST POP SWAP1 POP PUSH1 0x0 JUMPDEST DUP3 DUP2 LT ISZERO PUSH2 0x924 JUMPI PUSH1 0x5 DUP5 DUP3 DUP2 MLOAD DUP2 LT PUSH2 0x32A9 JUMPI INVALID JUMPDEST PUSH1 0x20 MUL PUSH1 0x20 ADD ADD MLOAD PUSH1 0x40 MLOAD PUSH2 0x32BE SWAP2 SWAP1 PUSH2 0x44EB JUMP JUMPDEST SWAP1 DUP2 MSTORE PUSH1 0x40 DUP1 MLOAD PUSH1 0x20 SWAP3 DUP2 SWAP1 SUB DUP4 ADD DUP2 KECCAK256 DUP1 SLOAD PUSH1 0x2 PUSH1 0x1 DUP3 AND ISZERO PUSH2 0x100 MUL PUSH1 0x0 NOT ADD SWAP1 SWAP2 AND DIV PUSH1 0x1F DUP2 ADD DUP6 SWAP1 DIV SWAP1 SWAP5 MUL DUP3 ADD PUSH2 0x140 SWAP1 DUP2 ADD SWAP1 SWAP4 MSTORE PUSH2 0x120 DUP3 ADD DUP5 DUP2 MSTORE SWAP2 SWAP4 SWAP1 SWAP3 DUP5 SWAP3 SWAP2 DUP5 SWAP2 DUP5 ADD DUP3 DUP3 DUP1 ISZERO PUSH2 0x335B JUMPI DUP1 PUSH1 0x1F LT PUSH2 0x3330 JUMPI PUSH2 0x100 DUP1 DUP4 SLOAD DIV MUL DUP4 MSTORE SWAP2 PUSH1 0x20 ADD SWAP2 PUSH2 0x335B JUMP JUMPDEST DUP3 ADD SWAP2 SWAP1 PUSH1 0x0 MSTORE PUSH1 0x20 PUSH1 0x0 KECCAK256 SWAP1 JUMPDEST DUP2 SLOAD DUP2 MSTORE SWAP1 PUSH1 0x1 ADD SWAP1 PUSH1 0x20 ADD DUP1 DUP4 GT PUSH2 0x333E JUMPI DUP3 SWAP1 SUB PUSH1 0x1F AND DUP3 ADD SWAP2 JUMPDEST POP POP POP POP POP DUP2 MSTORE PUSH1 0x20 ADD PUSH1 0x1 DUP3 ADD DUP1 SLOAD PUSH1 0x1 DUP2 PUSH1 0x1 AND ISZERO PUSH2 0x100 MUL SUB AND PUSH1 0x2 SWAP1 DIV DUP1 PUSH1 0x1F ADD PUSH1 0x20 DUP1 SWAP2 DIV MUL PUSH1 0x20 ADD PUSH1 0x40 MLOAD SWAP1 DUP2 ADD PUSH1 0x40 MSTORE DUP1 SWAP3 SWAP2 SWAP1 DUP2 DUP2 MSTORE PUSH1 0x20 ADD DUP3 DUP1 SLOAD PUSH1 0x1 DUP2 PUSH1 0x1 AND ISZERO PUSH2 0x100 MUL SUB AND PUSH1 0x2 SWAP1 DIV DUP1 ISZERO PUSH2 0x33FD JUMPI DUP1 PUSH1 0x1F LT PUSH2 0x33D2 JUMPI PUSH2 0x100 DUP1 DUP4 SLOAD DIV MUL DUP4 MSTORE SWAP2 PUSH1 0x20 ADD SWAP2 PUSH2 0x33FD JUMP JUMPDEST DUP3 ADD SWAP2 SWAP1 PUSH1 0x0 MSTORE PUSH1 0x20 PUSH1 0x0 KECCAK256 SWAP1 JUMPDEST DUP2 SLOAD DUP2 MSTORE SWAP1 PUSH1 0x1 ADD SWAP1 PUSH1 0x20 ADD DUP1 DUP4 GT PUSH2 0x33E0 JUMPI DUP3 SWAP1 SUB PUSH1 0x1F AND DUP3 ADD SWAP2 JUMPDEST POP POP POP SWAP2 DUP4 MSTORE POP POP PUSH1 0x2 DUP3 ADD SLOAD PUSH1 0x1 PUSH1 0x1 PUSH1 0xA0 SHL SUB AND PUSH1 0x20 DUP1 DUP4 ADD SWAP2 SWAP1 SWAP2 MSTORE PUSH1 0x3 DUP4 ADD SLOAD PUSH1 0x40 DUP1 DUP5 ADD SWAP2 SWAP1 SWAP2 MSTORE PUSH1 0x4 DUP5 ADD SLOAD PUSH1 0xFF AND ISZERO ISZERO PUSH1 0x60 DUP5 ADD MSTORE PUSH1 0x5 DUP5 ADD DUP1 SLOAD DUP3 MLOAD DUP2 DUP6 MUL DUP2 ADD DUP6 ADD SWAP1 SWAP4 MSTORE DUP1 DUP4 MSTORE PUSH1 0x80 SWAP1 SWAP5 ADD SWAP4 SWAP2 SWAP3 SWAP1 SWAP2 SWAP1 DUP4 ADD DUP3 DUP3 DUP1 ISZERO PUSH2 0x3492 JUMPI PUSH1 0x20 MUL DUP3 ADD SWAP2 SWAP1 PUSH1 0x0 MSTORE PUSH1 0x20 PUSH1 0x0 KECCAK256 SWAP1 JUMPDEST DUP2 SLOAD PUSH1 0x1 PUSH1 0x1 PUSH1 0xA0 SHL SUB AND DUP2 MSTORE PUSH1 0x1 SWAP1 SWAP2 ADD SWAP1 PUSH1 0x20 ADD DUP1 DUP4 GT PUSH2 0x3474 JUMPI JUMPDEST POP POP POP POP POP DUP2 MSTORE PUSH1 0x20 ADD PUSH1 0x6 DUP3 ADD DUP1 SLOAD DUP1 PUSH1 0x20 MUL PUSH1 0x20 ADD PUSH1 0x40 MLOAD SWAP1 DUP2 ADD PUSH1 0x40 MSTORE DUP1 SWAP3 SWAP2 SWAP1 DUP2 DUP2 MSTORE PUSH1 0x20 ADD DUP3 DUP1 SLOAD DUP1 ISZERO PUSH2 0x34F4 JUMPI PUSH1 0x20 MUL DUP3 ADD SWAP2 SWAP1 PUSH1 0x0 MSTORE PUSH1 0x20 PUSH1 0x0 KECCAK256 SWAP1 JUMPDEST DUP2 SLOAD PUSH1 0x1 PUSH1 0x1 PUSH1 0xA0 SHL SUB AND DUP2 MSTORE PUSH1 0x1 SWAP1 SWAP2 ADD SWAP1 PUSH1 0x20 ADD DUP1 DUP4 GT PUSH2 0x34D6 JUMPI JUMPDEST POP POP POP POP POP DUP2 MSTORE PUSH1 0x20 ADD PUSH1 0x7 DUP3 ADD DUP1 SLOAD DUP1 PUSH1 0x20 MUL PUSH1 0x20 ADD PUSH1 0x40 MLOAD SWAP1 DUP2 ADD PUSH1 0x40 MSTORE DUP1 SWAP3 SWAP2 SWAP1 DUP2 DUP2 MSTORE PUSH1 0x20 ADD DUP3 DUP1 SLOAD DUP1 ISZERO PUSH2 0x3556 JUMPI PUSH1 0x20 MUL DUP3 ADD SWAP2 SWAP1 PUSH1 0x0 MSTORE PUSH1 0x20 PUSH1 0x0 KECCAK256 SWAP1 JUMPDEST DUP2 SLOAD PUSH1 0x1 PUSH1 0x1 PUSH1 0xA0 SHL SUB AND DUP2 MSTORE PUSH1 0x1 SWAP1 SWAP2 ADD SWAP1 PUSH1 0x20 ADD DUP1 DUP4 GT PUSH2 0x3538 JUMPI JUMPDEST POP POP POP POP POP DUP2 MSTORE PUSH1 0x20 ADD PUSH1 0x8 DUP3 ADD DUP1 SLOAD DUP1 PUSH1 0x20 MUL PUSH1 0x20 ADD PUSH1 0x40 MLOAD SWAP1 DUP2 ADD PUSH1 0x40 MSTORE DUP1 SWAP3 SWAP2 SWAP1 DUP2 DUP2 MSTORE PUSH1 0x20 ADD PUSH1 0x0 SWAP1 JUMPDEST DUP3 DUP3 LT ISZERO PUSH2 0x3658 JUMPI PUSH1 0x0 DUP5 DUP2 MSTORE PUSH1 0x20 SWAP1 DUP2 SWAP1 KECCAK256 PUSH1 0x40 DUP1 MLOAD DUP1 DUP3 ADD DUP3 MSTORE PUSH1 0x2 DUP7 DUP2 MUL SWAP1 SWAP4 ADD DUP1 SLOAD PUSH1 0x1 PUSH1 0x1 PUSH1 0xA0 SHL SUB AND DUP3 MSTORE PUSH1 0x1 DUP1 DUP3 ADD DUP1 SLOAD DUP6 MLOAD PUSH2 0x100 SWAP4 DUP3 AND ISZERO SWAP4 SWAP1 SWAP4 MUL PUSH1 0x0 NOT ADD AND SWAP6 SWAP1 SWAP6 DIV PUSH1 0x1F DUP2 ADD DUP8 SWAP1 DIV DUP8 MUL DUP3 ADD DUP8 ADD SWAP1 SWAP5 MSTORE DUP4 DUP2 MSTORE SWAP2 SWAP5 SWAP1 SWAP4 DUP6 DUP3 ADD SWAP4 SWAP1 SWAP2 DUP4 ADD DUP3 DUP3 DUP1 ISZERO PUSH2 0x3640 JUMPI DUP1 PUSH1 0x1F LT PUSH2 0x3615 JUMPI PUSH2 0x100 DUP1 DUP4 SLOAD DIV MUL DUP4 MSTORE SWAP2 PUSH1 0x20 ADD SWAP2 PUSH2 0x3640 JUMP JUMPDEST DUP3 ADD SWAP2 SWAP1 PUSH1 0x0 MSTORE PUSH1 0x20 PUSH1 0x0 KECCAK256 SWAP1 JUMPDEST DUP2 SLOAD DUP2 MSTORE SWAP1 PUSH1 0x1 ADD SWAP1 PUSH1 0x20 ADD DUP1 DUP4 GT PUSH2 0x3623 JUMPI DUP3 SWAP1 SUB PUSH1 0x1F AND DUP3 ADD SWAP2 JUMPDEST POP POP POP POP POP DUP2 MSTORE POP POP DUP2 MSTORE PUSH1 0x20 ADD SWAP1 PUSH1 0x1 ADD SWAP1 PUSH2 0x3584 JUMP JUMPDEST POP POP POP POP DUP2 MSTORE POP POP DUP3 DUP3 DUP2 MLOAD DUP2 LT PUSH2 0x366C JUMPI INVALID JUMPDEST PUSH1 0x20 SWAP1 DUP2 MUL SWAP2 SWAP1 SWAP2 ADD ADD MSTORE PUSH1 0x1 ADD PUSH2 0x3293 JUMP JUMPDEST PUSH1 0x0 PUSH1 0x5 DUP3 PUSH1 0x40 MLOAD PUSH2 0x3691 SWAP2 SWAP1 PUSH2 0x44EB JUMP JUMPDEST SWAP1 DUP2 MSTORE PUSH1 0x40 MLOAD SWAP1 DUP2 SWAP1 SUB PUSH1 0x20 ADD DUP2 KECCAK256 PUSH1 0x4 ADD DUP1 SLOAD SWAP3 ISZERO ISZERO PUSH1 0xFF NOT SWAP1 SWAP4 AND SWAP3 SWAP1 SWAP3 OR SWAP1 SWAP2 SSTORE PUSH1 0x0 SWAP1 PUSH1 0x5 SWAP1 PUSH2 0x36C6 SWAP1 DUP5 SWAP1 PUSH2 0x44EB JUMP JUMPDEST SWAP1 DUP2 MSTORE PUSH1 0x40 MLOAD SWAP1 DUP2 SWAP1 SUB PUSH1 0x20 ADD DUP2 KECCAK256 PUSH1 0x7 ADD SLOAD SWAP1 PUSH1 0x5 SWAP1 PUSH2 0x36E8 SWAP1 DUP6 SWAP1 PUSH2 0x44EB JUMP JUMPDEST SWAP1 DUP2 MSTORE PUSH1 0x40 MLOAD SWAP1 DUP2 SWAP1 SUB PUSH1 0x20 ADD SWAP1 KECCAK256 PUSH1 0x6 ADD SLOAD GT SWAP1 POP PUSH1 0x0 JUMPDEST PUSH1 0x5 DUP4 PUSH1 0x40 MLOAD PUSH2 0x3711 SWAP2 SWAP1 PUSH2 0x44EB JUMP JUMPDEST SWAP1 DUP2 MSTORE PUSH1 0x40 MLOAD SWAP1 DUP2 SWAP1 SUB PUSH1 0x20 ADD SWAP1 KECCAK256 PUSH1 0x6 ADD SLOAD DUP2 LT ISZERO PUSH2 0x37AE JUMPI PUSH1 0x0 PUSH1 0x5 DUP5 PUSH1 0x40 MLOAD PUSH2 0x373D SWAP2 SWAP1 PUSH2 0x44EB JUMP JUMPDEST SWAP1 DUP2 MSTORE PUSH1 0x20 ADD PUSH1 0x40 MLOAD DUP1 SWAP2 SUB SWAP1 KECCAK256 PUSH1 0x6 ADD DUP3 DUP2 SLOAD DUP2 LT PUSH2 0x3759 JUMPI INVALID JUMPDEST PUSH1 0x0 SWAP2 DUP3 MSTORE PUSH1 0x20 SWAP1 SWAP2 KECCAK256 ADD SLOAD PUSH1 0x1 PUSH1 0x1 PUSH1 0xA0 SHL SUB AND SWAP1 POP DUP3 ISZERO PUSH2 0x37A5 JUMPI PUSH1 0x1 PUSH1 0x1 PUSH1 0xA0 SHL SUB DUP2 AND PUSH1 0x0 SWAP1 DUP2 MSTORE PUSH1 0x3 PUSH1 0x20 DUP2 SWAP1 MSTORE PUSH1 0x40 SWAP1 SWAP2 KECCAK256 PUSH1 0x5 DUP2 ADD DUP1 SLOAD PUSH1 0x2 ADD SWAP1 SSTORE ADD DUP1 SLOAD PUSH1 0x1 ADD SWAP1 SSTORE JUMPDEST POP PUSH1 0x1 ADD PUSH2 0x3701 JUMP JUMPDEST POP PUSH1 0x0 JUMPDEST PUSH1 0x5 DUP4 PUSH1 0x40 MLOAD PUSH2 0x37C2 SWAP2 SWAP1 PUSH2 0x44EB JUMP JUMPDEST SWAP1 DUP2 MSTORE PUSH1 0x40 MLOAD SWAP1 DUP2 SWAP1 SUB PUSH1 0x20 ADD SWAP1 KECCAK256 PUSH1 0x7 ADD SLOAD DUP2 LT ISZERO PUSH2 0x385E JUMPI PUSH1 0x0 PUSH1 0x5 DUP5 PUSH1 0x40 MLOAD PUSH2 0x37EE SWAP2 SWAP1 PUSH2 0x44EB JUMP JUMPDEST SWAP1 DUP2 MSTORE PUSH1 0x20 ADD PUSH1 0x40 MLOAD DUP1 SWAP2 SUB SWAP1 KECCAK256 PUSH1 0x6 ADD DUP3 DUP2 SLOAD DUP2 LT PUSH2 0x380A JUMPI INVALID JUMPDEST PUSH1 0x0 SWAP2 DUP3 MSTORE PUSH1 0x20 SWAP1 SWAP2 KECCAK256 ADD SLOAD PUSH1 0x1 PUSH1 0x1 PUSH1 0xA0 SHL SUB AND SWAP1 POP DUP3 PUSH2 0x3855 JUMPI PUSH1 0x1 PUSH1 0x1 PUSH1 0xA0 SHL SUB DUP2 AND PUSH1 0x0 SWAP1 DUP2 MSTORE PUSH1 0x3 PUSH1 0x20 DUP2 SWAP1 MSTORE PUSH1 0x40 SWAP1 SWAP2 KECCAK256 PUSH1 0x5 DUP2 ADD DUP1 SLOAD PUSH1 0x2 ADD SWAP1 SSTORE ADD DUP1 SLOAD PUSH1 0x1 ADD SWAP1 SSTORE JUMPDEST POP PUSH1 0x1 ADD PUSH2 0x37B2 JUMP JUMPDEST POP PUSH1 0x1 PUSH1 0x3 PUSH1 0x0 PUSH1 0x5 DUP6 PUSH1 0x40 MLOAD PUSH2 0x3875 SWAP2 SWAP1 PUSH2 0x44EB JUMP JUMPDEST SWAP1 DUP2 MSTORE PUSH1 0x40 DUP1 MLOAD PUSH1 0x20 SWAP3 DUP2 SWAP1 SUB DUP4 ADD SWAP1 KECCAK256 PUSH1 0x2 ADD SLOAD PUSH1 0x1 PUSH1 0x1 PUSH1 0xA0 SHL SUB AND DUP4 MSTORE SWAP1 DUP3 ADD SWAP3 SWAP1 SWAP3 MSTORE ADD PUSH1 0x0 KECCAK256 PUSH1 0x4 ADD DUP1 SLOAD SWAP2 SWAP1 SWAP2 ADD SWAP1 SSTORE POP POP JUMP JUMPDEST CALLER PUSH1 0x0 SWAP1 DUP2 MSTORE PUSH1 0x3 PUSH1 0x20 MSTORE PUSH1 0x40 SWAP1 KECCAK256 PUSH1 0x5 ADD SLOAD DUP2 LT PUSH2 0x38E0 JUMPI PUSH1 0x40 MLOAD PUSH3 0x461BCD PUSH1 0xE5 SHL DUP2 MSTORE PUSH1 0x4 ADD PUSH2 0x291 SWAP1 PUSH2 0x472F JUMP JUMPDEST CALLER PUSH1 0x0 SWAP1 DUP2 MSTORE PUSH1 0x3 PUSH1 0x20 MSTORE PUSH1 0x40 DUP1 DUP3 KECCAK256 PUSH1 0x5 SWAP1 DUP2 ADD DUP1 SLOAD DUP6 SWAP1 SUB SWAP1 SSTORE PUSH1 0x1 PUSH1 0x1 PUSH1 0xA0 SHL SUB SWAP5 SWAP1 SWAP5 AND DUP3 MSTORE SWAP1 KECCAK256 SWAP1 SWAP2 ADD DUP1 SLOAD SWAP1 SWAP2 ADD SWAP1 SSTORE JUMP JUMPDEST PUSH1 0x0 SLOAD PUSH1 0x1 PUSH1 0x1 PUSH1 0xA0 SHL SUB AND DUP2 JUMP JUMPDEST PUSH1 0x2 SLOAD PUSH1 0x60 SWAP1 DUP2 SWAP1 PUSH1 0x1 PUSH1 0x1 PUSH1 0x40 SHL SUB DUP2 GT DUP1 ISZERO PUSH2 0x3944 JUMPI PUSH1 0x0 DUP1 REVERT JUMPDEST POP PUSH1 0x40 MLOAD SWAP1 DUP1 DUP3 MSTORE DUP1 PUSH1 0x20 MUL PUSH1 0x20 ADD DUP3 ADD PUSH1 0x40 MSTORE DUP1 ISZERO PUSH2 0x397E JUMPI DUP2 PUSH1 0x20 ADD JUMPDEST PUSH2 0x396B PUSH2 0x3ED3 JUMP JUMPDEST DUP2 MSTORE PUSH1 0x20 ADD SWAP1 PUSH1 0x1 SWAP1 SUB SWAP1 DUP2 PUSH2 0x3963 JUMPI SWAP1 POP JUMPDEST POP SWAP1 POP PUSH1 0x0 JUMPDEST PUSH1 0x2 SLOAD DUP2 LT ISZERO PUSH2 0x289B JUMPI PUSH1 0x3 PUSH1 0x0 PUSH1 0x2 DUP4 DUP2 SLOAD DUP2 LT PUSH2 0x399F JUMPI INVALID JUMPDEST PUSH1 0x0 SWAP2 DUP3 MSTORE PUSH1 0x20 DUP1 DUP4 KECCAK256 SWAP1 SWAP2 ADD SLOAD PUSH1 0x1 PUSH1 0x1 PUSH1 0xA0 SHL SUB SWAP1 DUP2 AND DUP5 MSTORE DUP4 DUP3 ADD SWAP5 SWAP1 SWAP5 MSTORE PUSH1 0x40 SWAP3 DUP4 ADD SWAP1 SWAP2 KECCAK256 DUP3 MLOAD PUSH1 0xC0 DUP2 ADD DUP5 MSTORE DUP2 SLOAD SWAP1 SWAP5 AND DUP5 MSTORE PUSH1 0x1 DUP2 DUP2 ADD DUP1 SLOAD DUP6 MLOAD PUSH1 0x1F PUSH1 0x2 PUSH1 0x0 NOT SWAP6 DUP5 AND ISZERO PUSH2 0x100 MUL SWAP6 SWAP1 SWAP6 ADD SWAP1 SWAP3 AND SWAP4 SWAP1 SWAP4 DIV SWAP1 DUP2 ADD DUP6 SWAP1 DIV DUP6 MUL DUP4 ADD DUP6 ADD SWAP1 SWAP6 MSTORE DUP5 DUP3 MSTORE SWAP2 SWAP4 DUP6 DUP5 ADD SWAP4 SWAP2 SWAP3 SWAP2 DUP4 ADD DUP3 DUP3 DUP1 ISZERO PUSH2 0x3A67 JUMPI DUP1 PUSH1 0x1F LT PUSH2 0x3A3C JUMPI PUSH2 0x100 DUP1 DUP4 SLOAD DIV MUL DUP4 MSTORE SWAP2 PUSH1 0x20 ADD SWAP2 PUSH2 0x3A67 JUMP JUMPDEST DUP3 ADD SWAP2 SWAP1 PUSH1 0x0 MSTORE PUSH1 0x20 PUSH1 0x0 KECCAK256 SWAP1 JUMPDEST DUP2 SLOAD DUP2 MSTORE SWAP1 PUSH1 0x1 ADD SWAP1 PUSH1 0x20 ADD DUP1 DUP4 GT PUSH2 0x3A4A JUMPI DUP3 SWAP1 SUB PUSH1 0x1F AND DUP3 ADD SWAP2 JUMPDEST POP POP POP SWAP2 DUP4 MSTORE POP POP PUSH1 0x2 DUP3 DUP2 ADD DUP1 SLOAD PUSH1 0x40 DUP1 MLOAD PUSH1 0x20 PUSH1 0x1 DUP5 AND ISZERO PUSH2 0x100 MUL PUSH1 0x0 NOT ADD SWAP1 SWAP4 AND SWAP5 SWAP1 SWAP5 DIV PUSH1 0x1F DUP2 ADD DUP4 SWAP1 DIV DUP4 MUL DUP6 ADD DUP4 ADD SWAP1 SWAP2 MSTORE DUP1 DUP5 MSTORE SWAP4 DUP2 ADD SWAP4 SWAP1 DUP4 ADD DUP3 DUP3 DUP1 ISZERO PUSH2 0x3AF9 JUMPI DUP1 PUSH1 0x1F LT PUSH2 0x3ACE JUMPI PUSH2 0x100 DUP1 DUP4 SLOAD DIV MUL DUP4 MSTORE SWAP2 PUSH1 0x20 ADD SWAP2 PUSH2 0x3AF9 JUMP JUMPDEST DUP3 ADD SWAP2 SWAP1 PUSH1 0x0 MSTORE PUSH1 0x20 PUSH1 0x0 KECCAK256 SWAP1 JUMPDEST DUP2 SLOAD DUP2 MSTORE SWAP1 PUSH1 0x1 ADD SWAP1 PUSH1 0x20 ADD DUP1 DUP4 GT PUSH2 0x3ADC JUMPI DUP3 SWAP1 SUB PUSH1 0x1F AND DUP3 ADD SWAP2 JUMPDEST POP POP POP POP POP DUP2 MSTORE PUSH1 0x20 ADD PUSH1 0x3 DUP3 ADD SLOAD DUP2 MSTORE PUSH1 0x20 ADD PUSH1 0x4 DUP3 ADD SLOAD DUP2 MSTORE PUSH1 0x20 ADD PUSH1 0x5 DUP3 ADD SLOAD DUP2 MSTORE POP POP DUP3 DUP3 DUP2 MLOAD DUP2 LT PUSH2 0x3B2C JUMPI INVALID JUMPDEST PUSH1 0x20 SWAP1 DUP2 MUL SWAP2 SWAP1 SWAP2 ADD ADD MSTORE PUSH1 0x1 ADD PUSH2 0x3984 JUMP JUMPDEST PUSH1 0x0 DUP1 JUMPDEST DUP4 MLOAD DUP2 LT ISZERO PUSH2 0x3B8B JUMPI DUP3 PUSH1 0x1 PUSH1 0x1 PUSH1 0xA0 SHL SUB AND DUP5 DUP3 DUP2 MLOAD DUP2 LT PUSH2 0x3B62 JUMPI INVALID JUMPDEST PUSH1 0x20 MUL PUSH1 0x20 ADD ADD MLOAD PUSH1 0x1 PUSH1 0x1 PUSH1 0xA0 SHL SUB AND EQ ISZERO PUSH2 0x3B83 JUMPI PUSH1 0x1 SWAP2 POP POP PUSH2 0x3B91 JUMP JUMPDEST PUSH1 0x1 ADD PUSH2 0x3B43 JUMP JUMPDEST POP PUSH1 0x0 SWAP1 POP JUMPDEST SWAP3 SWAP2 POP POP JUMP JUMPDEST PUSH1 0x0 DUP1 SLOAD PUSH1 0x40 MLOAD PUSH4 0xC3C5A547 PUSH1 0xE0 SHL DUP2 MSTORE PUSH1 0x1 PUSH1 0x1 PUSH1 0xA0 SHL SUB SWAP1 SWAP2 AND SWAP1 PUSH4 0xC3C5A547 SWAP1 PUSH2 0x3BC8 SWAP1 DUP6 SWAP1 PUSH1 0x4 ADD PUSH2 0x4577 JUMP JUMPDEST PUSH1 0x20 PUSH1 0x40 MLOAD DUP1 DUP4 SUB DUP2 DUP7 DUP1 EXTCODESIZE ISZERO DUP1 ISZERO PUSH2 0x3BE0 JUMPI PUSH1 0x0 DUP1 REVERT JUMPDEST POP GAS STATICCALL ISZERO DUP1 ISZERO PUSH2 0x3BF4 JUMPI RETURNDATASIZE PUSH1 0x0 DUP1 RETURNDATACOPY RETURNDATASIZE PUSH1 0x0 REVERT JUMPDEST POP POP POP POP PUSH1 0x40 MLOAD RETURNDATASIZE PUSH1 0x1F NOT PUSH1 0x1F DUP3 ADD AND DUP3 ADD DUP1 PUSH1 0x40 MSTORE POP DUP2 ADD SWAP1 PUSH2 0x3B91 SWAP2 SWAP1 PUSH2 0x413D JUMP JUMPDEST PUSH1 0x60 DUP1 DUP3 PUSH1 0x1 PUSH1 0x1 PUSH1 0x40 SHL SUB DUP2 GT DUP1 ISZERO PUSH2 0x3C31 JUMPI PUSH1 0x0 DUP1 REVERT JUMPDEST POP PUSH1 0x40 MLOAD SWAP1 DUP1 DUP3 MSTORE DUP1 PUSH1 0x20 MUL PUSH1 0x20 ADD DUP3 ADD PUSH1 0x40 MSTORE DUP1 ISZERO PUSH2 0x3C5B JUMPI DUP2 PUSH1 0x20 ADD PUSH1 0x20 DUP3 MUL DUP1 CALLDATASIZE DUP4 CALLDATACOPY ADD SWAP1 POP JUMPDEST POP SWAP1 POP PUSH1 0x0 DUP5 MLOAD TIMESTAMP DIFFICULTY PUSH1 0x40 MLOAD PUSH1 0x20 ADD PUSH2 0x3C75 SWAP3 SWAP2 SWAP1 PUSH2 0x47EE JUMP JUMPDEST PUSH1 0x40 MLOAD PUSH1 0x20 DUP2 DUP4 SUB SUB DUP2 MSTORE SWAP1 PUSH1 0x40 MSTORE DUP1 MLOAD SWAP1 PUSH1 0x20 ADD KECCAK256 PUSH1 0x0 SHR DUP2 PUSH2 0x3C95 JUMPI INVALID JUMPDEST MOD SWAP1 POP PUSH1 0x0 JUMPDEST DUP5 DUP2 LT ISZERO PUSH2 0x3CEF JUMPI DUP6 DUP7 MLOAD DUP4 DUP4 ADD DUP2 PUSH2 0x3CB0 JUMPI INVALID JUMPDEST MOD DUP2 MLOAD DUP2 LT PUSH2 0x3CBB JUMPI INVALID JUMPDEST PUSH1 0x20 MUL PUSH1 0x20 ADD ADD MLOAD DUP4 DUP3 DUP2 MLOAD DUP2 LT PUSH2 0x3CCF JUMPI INVALID JUMPDEST PUSH1 0x1 PUSH1 0x1 PUSH1 0xA0 SHL SUB SWAP1 SWAP3 AND PUSH1 0x20 SWAP3 DUP4 MUL SWAP2 SWAP1 SWAP2 ADD SWAP1 SWAP2 ADD MSTORE PUSH1 0x1 ADD PUSH2 0x3C9B JUMP JUMPDEST POP SWAP1 SWAP5 SWAP4 POP POP POP POP JUMP JUMPDEST DUP3 DUP1 SLOAD PUSH1 0x1 DUP2 PUSH1 0x1 AND ISZERO PUSH2 0x100 MUL SUB AND PUSH1 0x2 SWAP1 DIV SWAP1 PUSH1 0x0 MSTORE PUSH1 0x20 PUSH1 0x0 KECCAK256 SWAP1 PUSH1 0x1F ADD PUSH1 0x20 SWAP1 DIV DUP2 ADD SWAP3 DUP3 PUSH1 0x1F LT PUSH2 0x3D3A JUMPI DUP1 MLOAD PUSH1 0xFF NOT AND DUP4 DUP1 ADD OR DUP6 SSTORE PUSH2 0x3D67 JUMP JUMPDEST DUP3 DUP1 ADD PUSH1 0x1 ADD DUP6 SSTORE DUP3 ISZERO PUSH2 0x3D67 JUMPI SWAP2 DUP3 ADD JUMPDEST DUP3 DUP2 GT ISZERO PUSH2 0x3D67 JUMPI DUP3 MLOAD DUP3 SSTORE SWAP2 PUSH1 0x20 ADD SWAP2 SWAP1 PUSH1 0x1 ADD SWAP1 PUSH2 0x3D4C JUMP JUMPDEST POP PUSH2 0x3D73 SWAP3 SWAP2 POP PUSH2 0x4008 JUMP JUMPDEST POP SWAP1 JUMP JUMPDEST PUSH1 0x40 MLOAD DUP1 PUSH2 0x120 ADD PUSH1 0x40 MSTORE DUP1 PUSH1 0x60 DUP2 MSTORE PUSH1 0x20 ADD PUSH1 0x60 DUP2 MSTORE PUSH1 0x20 ADD PUSH1 0x0 PUSH1 0x1 PUSH1 0x1 PUSH1 0xA0 SHL SUB AND DUP2 MSTORE PUSH1 0x20 ADD PUSH1 0x0 DUP2 MSTORE PUSH1 0x20 ADD PUSH1 0x0 ISZERO ISZERO DUP2 MSTORE PUSH1 0x20 ADD PUSH1 0x60 DUP2 MSTORE PUSH1 0x20 ADD PUSH1 0x60 DUP2 MSTORE PUSH1 0x20 ADD PUSH1 0x60 DUP2 MSTORE PUSH1 0x20 ADD PUSH1 0x60 DUP2 MSTORE POP SWAP1 JUMP JUMPDEST DUP3 DUP1 SLOAD DUP3 DUP3 SSTORE SWAP1 PUSH1 0x0 MSTORE PUSH1 0x20 PUSH1 0x0 KECCAK256 SWAP1 DUP2 ADD SWAP3 DUP3 ISZERO PUSH2 0x3E23 JUMPI SWAP2 PUSH1 0x20 MUL DUP3 ADD JUMPDEST DUP3 DUP2 GT ISZERO PUSH2 0x3E23 JUMPI DUP3 MLOAD DUP3 SLOAD PUSH1 0x1 PUSH1 0x1 PUSH1 0xA0 SHL SUB NOT AND PUSH1 0x1 PUSH1 0x1 PUSH1 0xA0 SHL SUB SWAP1 SWAP2 AND OR DUP3 SSTORE PUSH1 0x20 SWAP1 SWAP3 ADD SWAP2 PUSH1 0x1 SWAP1 SWAP2 ADD SWAP1 PUSH2 0x3DEE JUMP JUMPDEST POP PUSH2 0x3D73 SWAP3 SWAP2 POP PUSH2 0x401D JUMP JUMPDEST POP DUP1 SLOAD PUSH1 0x1 DUP2 PUSH1 0x1 AND ISZERO PUSH2 0x100 MUL SUB AND PUSH1 0x2 SWAP1 DIV PUSH1 0x0 DUP3 SSTORE DUP1 PUSH1 0x1F LT PUSH2 0x3E55 JUMPI POP PUSH2 0x3E73 JUMP JUMPDEST PUSH1 0x1F ADD PUSH1 0x20 SWAP1 DIV SWAP1 PUSH1 0x0 MSTORE PUSH1 0x20 PUSH1 0x0 KECCAK256 SWAP1 DUP2 ADD SWAP1 PUSH2 0x3E73 SWAP2 SWAP1 PUSH2 0x4008 JUMP JUMPDEST POP JUMP JUMPDEST POP DUP1 SLOAD PUSH1 0x0 DUP3 SSTORE SWAP1 PUSH1 0x0 MSTORE PUSH1 0x20 PUSH1 0x0 KECCAK256 SWAP1 DUP2 ADD SWAP1 PUSH2 0x3E73 SWAP2 SWAP1 PUSH2 0x4008 JUMP JUMPDEST POP DUP1 SLOAD PUSH1 0x0 DUP3 SSTORE PUSH1 0x2 MUL SWAP1 PUSH1 0x0 MSTORE PUSH1 0x20 PUSH1 0x0 KECCAK256 SWAP1 DUP2 ADD SWAP1 PUSH2 0x3E73 SWAP2 SWAP1 PUSH2 0x403C JUMP JUMPDEST POP DUP1 SLOAD PUSH1 0x0 DUP3 SSTORE SWAP1 PUSH1 0x0 MSTORE PUSH1 0x20 PUSH1 0x0 KECCAK256 SWAP1 DUP2 ADD SWAP1 PUSH2 0x3E73 SWAP2 SWAP1 PUSH2 0x406A JUMP JUMPDEST PUSH1 0x40 MLOAD DUP1 PUSH1 0xC0 ADD PUSH1 0x40 MSTORE DUP1 PUSH1 0x0 PUSH1 0x1 PUSH1 0x1 PUSH1 0xA0 SHL SUB AND DUP2 MSTORE PUSH1 0x20 ADD PUSH1 0x60 DUP2 MSTORE PUSH1 0x20 ADD PUSH1 0x60 DUP2 MSTORE PUSH1 0x20 ADD PUSH1 0x0 DUP2 MSTORE PUSH1 0x20 ADD PUSH1 0x0 DUP2 MSTORE PUSH1 0x20 ADD PUSH1 0x0 DUP2 MSTORE POP SWAP1 JUMP JUMPDEST DUP3 DUP1 SLOAD DUP3 DUP3 SSTORE SWAP1 PUSH1 0x0 MSTORE PUSH1 0x20 PUSH1 0x0 KECCAK256 SWAP1 DUP2 ADD SWAP3 DUP3 ISZERO PUSH2 0x3F5F JUMPI SWAP2 PUSH1 0x20 MUL DUP3 ADD JUMPDEST DUP3 DUP2 GT ISZERO PUSH2 0x3F5F JUMPI DUP3 MLOAD DUP1 MLOAD PUSH2 0x3F4F SWAP2 DUP5 SWAP2 PUSH1 0x20 SWAP1 SWAP2 ADD SWAP1 PUSH2 0x3CF9 JUMP JUMPDEST POP SWAP2 PUSH1 0x20 ADD SWAP2 SWAP1 PUSH1 0x1 ADD SWAP1 PUSH2 0x3F32 JUMP JUMPDEST POP PUSH2 0x3D73 SWAP3 SWAP2 POP PUSH2 0x406A JUMP JUMPDEST PUSH1 0x40 MLOAD DUP1 PUSH2 0x140 ADD PUSH1 0x40 MSTORE DUP1 PUSH1 0xA SWAP1 JUMPDEST PUSH1 0x60 DUP2 MSTORE PUSH1 0x20 ADD SWAP1 PUSH1 0x1 SWAP1 SUB SWAP1 DUP2 PUSH2 0x3F7B JUMPI SWAP1 POP POP SWAP1 JUMP JUMPDEST DUP3 DUP1 SLOAD PUSH1 0x1 DUP2 PUSH1 0x1 AND ISZERO PUSH2 0x100 MUL SUB AND PUSH1 0x2 SWAP1 DIV SWAP1 PUSH1 0x0 MSTORE PUSH1 0x20 PUSH1 0x0 KECCAK256 SWAP1 PUSH1 0x1F ADD PUSH1 0x20 SWAP1 DIV DUP2 ADD SWAP3 DUP3 PUSH1 0x1F LT PUSH2 0x3FCC JUMPI DUP1 SLOAD DUP6 SSTORE PUSH2 0x3D67 JUMP JUMPDEST DUP3 DUP1 ADD PUSH1 0x1 ADD DUP6 SSTORE DUP3 ISZERO PUSH2 0x3D67 JUMPI PUSH1 0x0 MSTORE PUSH1 0x20 PUSH1 0x0 KECCAK256 SWAP2 PUSH1 0x1F ADD PUSH1 0x20 SWAP1 DIV DUP3 ADD JUMPDEST DUP3 DUP2 GT ISZERO PUSH2 0x3D67 JUMPI DUP3 SLOAD DUP3 SSTORE SWAP2 PUSH1 0x1 ADD SWAP2 SWAP1 PUSH1 0x1 ADD SWAP1 PUSH2 0x3FED JUMP JUMPDEST JUMPDEST DUP1 DUP3 GT ISZERO PUSH2 0x3D73 JUMPI PUSH1 0x0 DUP2 SSTORE PUSH1 0x1 ADD PUSH2 0x4009 JUMP JUMPDEST JUMPDEST DUP1 DUP3 GT ISZERO PUSH2 0x3D73 JUMPI DUP1 SLOAD PUSH1 0x1 PUSH1 0x1 PUSH1 0xA0 SHL SUB NOT AND DUP2 SSTORE PUSH1 0x1 ADD PUSH2 0x401E JUMP JUMPDEST DUP1 DUP3 GT ISZERO PUSH2 0x3D73 JUMPI DUP1 SLOAD PUSH1 0x1 PUSH1 0x1 PUSH1 0xA0 SHL SUB NOT AND DUP2 SSTORE PUSH1 0x0 PUSH2 0x4061 PUSH1 0x1 DUP4 ADD DUP3 PUSH2 0x3E2F JUMP JUMPDEST POP PUSH1 0x2 ADD PUSH2 0x403C JUMP JUMPDEST DUP1 DUP3 GT ISZERO PUSH2 0x3D73 JUMPI PUSH1 0x0 PUSH2 0x407E DUP3 DUP3 PUSH2 0x3E2F JUMP JUMPDEST POP PUSH1 0x1 ADD PUSH2 0x406A JUMP JUMPDEST DUP1 CALLDATALOAD PUSH1 0x1 PUSH1 0x1 PUSH1 0xA0 SHL SUB DUP2 AND DUP2 EQ PUSH2 0x3B91 JUMPI PUSH1 0x0 DUP1 REVERT JUMPDEST PUSH1 0x0 DUP3 PUSH1 0x1F DUP4 ADD SLT PUSH2 0x40AE JUMPI DUP1 DUP2 REVERT JUMPDEST DUP2 CALLDATALOAD PUSH2 0x40C1 PUSH2 0x40BC DUP3 PUSH2 0x4822 JUMP JUMPDEST PUSH2 0x47FC JUMP JUMPDEST SWAP2 POP DUP1 DUP3 MSTORE DUP4 PUSH1 0x20 DUP3 DUP6 ADD ADD GT ISZERO PUSH2 0x40D8 JUMPI PUSH1 0x0 DUP1 REVERT JUMPDEST DUP1 PUSH1 0x20 DUP5 ADD PUSH1 0x20 DUP5 ADD CALLDATACOPY PUSH1 0x0 SWAP1 DUP3 ADD PUSH1 0x20 ADD MSTORE SWAP3 SWAP2 POP POP JUMP JUMPDEST PUSH1 0x0 PUSH1 0x20 DUP3 DUP5 SUB SLT ISZERO PUSH2 0x4102 JUMPI DUP1 DUP2 REVERT JUMPDEST PUSH2 0x410C DUP4 DUP4 PUSH2 0x4087 JUMP JUMPDEST SWAP4 SWAP3 POP POP POP JUMP JUMPDEST PUSH1 0x0 DUP1 PUSH1 0x40 DUP4 DUP6 SUB SLT ISZERO PUSH2 0x4125 JUMPI DUP1 DUP2 REVERT JUMPDEST PUSH2 0x412F DUP5 DUP5 PUSH2 0x4087 JUMP JUMPDEST SWAP5 PUSH1 0x20 SWAP4 SWAP1 SWAP4 ADD CALLDATALOAD SWAP4 POP POP POP JUMP JUMPDEST PUSH1 0x0 PUSH1 0x20 DUP3 DUP5 SUB SLT ISZERO PUSH2 0x414E JUMPI DUP1 DUP2 REVERT JUMPDEST DUP2 MLOAD DUP1 ISZERO ISZERO DUP2 EQ PUSH2 0x410C JUMPI DUP2 DUP3 REVERT JUMPDEST PUSH1 0x0 PUSH1 0x20 DUP3 DUP5 SUB SLT ISZERO PUSH2 0x416E JUMPI DUP1 DUP2 REVERT JUMPDEST DUP2 CALLDATALOAD PUSH1 0x1 PUSH1 0x1 PUSH1 0x40 SHL SUB DUP2 GT ISZERO PUSH2 0x4183 JUMPI DUP2 DUP3 REVERT JUMPDEST PUSH2 0x418F DUP5 DUP3 DUP6 ADD PUSH2 0x409E JUMP JUMPDEST SWAP5 SWAP4 POP POP POP POP JUMP JUMPDEST PUSH1 0x0 PUSH1 0x20 DUP3 DUP5 SUB SLT ISZERO PUSH2 0x41A8 JUMPI DUP1 DUP2 REVERT JUMPDEST DUP2 MLOAD PUSH1 0x1 PUSH1 0x1 PUSH1 0x40 SHL SUB DUP2 GT ISZERO PUSH2 0x41BD JUMPI DUP2 DUP3 REVERT JUMPDEST DUP3 ADD PUSH1 0x1F DUP2 ADD DUP5 SGT PUSH2 0x41CD JUMPI DUP2 DUP3 REVERT JUMPDEST DUP1 MLOAD PUSH2 0x41DB PUSH2 0x40BC DUP3 PUSH2 0x4822 JUMP JUMPDEST DUP2 DUP2 MSTORE DUP6 PUSH1 0x20 DUP4 DUP6 ADD ADD GT ISZERO PUSH2 0x41EF JUMPI DUP4 DUP5 REVERT JUMPDEST PUSH2 0x4200 DUP3 PUSH1 0x20 DUP4 ADD PUSH1 0x20 DUP7 ADD PUSH2 0x4845 JUMP JUMPDEST SWAP6 SWAP5 POP POP POP POP POP JUMP JUMPDEST PUSH1 0x0 DUP1 PUSH1 0x40 DUP4 DUP6 SUB SLT ISZERO PUSH2 0x421B JUMPI DUP2 DUP3 REVERT JUMPDEST DUP3 CALLDATALOAD PUSH1 0x1 PUSH1 0x1 PUSH1 0x40 SHL SUB DUP2 GT ISZERO PUSH2 0x4230 JUMPI DUP3 DUP4 REVERT JUMPDEST PUSH2 0x423C DUP6 DUP3 DUP7 ADD PUSH2 0x409E JUMP JUMPDEST SWAP3 POP POP PUSH1 0x20 DUP4 ADD CALLDATALOAD PUSH1 0x2 DUP2 LT PUSH2 0x4250 JUMPI DUP2 DUP3 REVERT JUMPDEST DUP1 SWAP2 POP POP SWAP3 POP SWAP3 SWAP1 POP JUMP JUMPDEST PUSH1 0x0 DUP1 PUSH1 0x40 DUP4 DUP6 SUB SLT ISZERO PUSH2 0x426D JUMPI DUP2 DUP3 REVERT JUMPDEST DUP3 CALLDATALOAD PUSH1 0x1 PUSH1 0x1 PUSH1 0x40 SHL SUB DUP1 DUP3 GT ISZERO PUSH2 0x4283 JUMPI DUP4 DUP5 REVERT JUMPDEST PUSH2 0x428F DUP7 DUP4 DUP8 ADD PUSH2 0x409E JUMP JUMPDEST SWAP4 POP PUSH1 0x20 DUP6 ADD CALLDATALOAD SWAP2 POP DUP1 DUP3 GT ISZERO PUSH2 0x42A4 JUMPI DUP3 DUP4 REVERT JUMPDEST POP PUSH2 0x42B1 DUP6 DUP3 DUP7 ADD PUSH2 0x409E JUMP JUMPDEST SWAP2 POP POP SWAP3 POP SWAP3 SWAP1 POP JUMP JUMPDEST PUSH1 0x1 PUSH1 0x1 PUSH1 0xA0 SHL SUB AND SWAP1 MSTORE JUMP JUMPDEST PUSH1 0x0 DUP2 MLOAD DUP1 DUP5 MSTORE PUSH1 0x20 DUP1 DUP6 ADD SWAP5 POP DUP1 DUP5 ADD DUP4 JUMPDEST DUP4 DUP2 LT ISZERO PUSH2 0x4300 JUMPI DUP2 MLOAD PUSH1 0x1 PUSH1 0x1 PUSH1 0xA0 SHL SUB AND DUP8 MSTORE SWAP6 DUP3 ADD SWAP6 SWAP1 DUP3 ADD SWAP1 PUSH1 0x1 ADD PUSH2 0x42DB JUMP JUMPDEST POP SWAP5 SWAP6 SWAP5 POP POP POP POP POP JUMP JUMPDEST PUSH1 0x0 DUP2 MLOAD DUP1 DUP5 MSTORE PUSH1 0x20 DUP1 DUP6 ADD DUP1 DUP2 SWAP7 POP DUP3 DUP5 MUL DUP2 ADD SWAP2 POP DUP3 DUP7 ADD DUP6 JUMPDEST DUP6 DUP2 LT ISZERO PUSH2 0x436E JUMPI DUP3 DUP5 SUB DUP10 MSTORE DUP2 MLOAD DUP1 MLOAD PUSH1 0x1 PUSH1 0x1 PUSH1 0xA0 SHL SUB AND DUP6 MSTORE DUP6 ADD MLOAD PUSH1 0x40 DUP7 DUP7 ADD DUP2 SWAP1 MSTORE PUSH2 0x435A DUP2 DUP8 ADD DUP4 PUSH2 0x4381 JUMP JUMPDEST SWAP11 DUP8 ADD SWAP11 SWAP6 POP POP POP SWAP1 DUP5 ADD SWAP1 PUSH1 0x1 ADD PUSH2 0x4327 JUMP JUMPDEST POP SWAP2 SWAP8 SWAP7 POP POP POP POP POP POP POP JUMP JUMPDEST ISZERO ISZERO SWAP1 MSTORE JUMP JUMPDEST PUSH1 0x0 DUP2 MLOAD DUP1 DUP5 MSTORE PUSH2 0x4399 DUP2 PUSH1 0x20 DUP7 ADD PUSH1 0x20 DUP7 ADD PUSH2 0x4845 JUMP JUMPDEST PUSH1 0x1F ADD PUSH1 0x1F NOT AND SWAP3 SWAP1 SWAP3 ADD PUSH1 0x20 ADD SWAP3 SWAP2 POP POP JUMP JUMPDEST PUSH1 0x0 PUSH2 0x120 DUP3 MLOAD DUP2 DUP6 MSTORE PUSH2 0x43C3 DUP3 DUP7 ADD DUP3 PUSH2 0x4381 JUMP JUMPDEST SWAP2 POP POP PUSH1 0x20 DUP4 ADD MLOAD DUP5 DUP3 SUB PUSH1 0x20 DUP7 ADD MSTORE PUSH2 0x43DD DUP3 DUP3 PUSH2 0x4381 JUMP JUMPDEST SWAP2 POP POP PUSH1 0x40 DUP4 ADD MLOAD PUSH2 0x43F2 PUSH1 0x40 DUP7 ADD DUP3 PUSH2 0x42BB JUMP JUMPDEST POP PUSH1 0x60 DUP4 ADD MLOAD PUSH1 0x60 DUP6 ADD MSTORE PUSH1 0x80 DUP4 ADD MLOAD PUSH2 0x440F PUSH1 0x80 DUP7 ADD DUP3 PUSH2 0x437B JUMP JUMPDEST POP PUSH1 0xA0 DUP4 ADD MLOAD DUP5 DUP3 SUB PUSH1 0xA0 DUP7 ADD MSTORE PUSH2 0x4427 DUP3 DUP3 PUSH2 0x42C8 JUMP JUMPDEST SWAP2 POP POP PUSH1 0xC0 DUP4 ADD MLOAD DUP5 DUP3 SUB PUSH1 0xC0 DUP7 ADD MSTORE PUSH2 0x4441 DUP3 DUP3 PUSH2 0x42C8 JUMP JUMPDEST SWAP2 POP POP PUSH1 0xE0 DUP4 ADD MLOAD DUP5 DUP3 SUB PUSH1 0xE0 DUP7 ADD MSTORE PUSH2 0x445B DUP3 DUP3 PUSH2 0x42C8 JUMP JUMPDEST SWAP2 POP POP PUSH2 0x100 DUP1 DUP5 ADD MLOAD DUP6 DUP4 SUB DUP3 DUP8 ADD MSTORE PUSH2 0x4476 DUP4 DUP3 PUSH2 0x430B JUMP JUMPDEST SWAP7 SWAP6 POP POP POP POP POP POP JUMP JUMPDEST PUSH1 0x0 PUSH1 0x1 DUP1 PUSH1 0xA0 SHL SUB DUP3 MLOAD AND DUP4 MSTORE PUSH1 0x20 DUP3 ADD MLOAD PUSH1 0xC0 PUSH1 0x20 DUP6 ADD MSTORE PUSH2 0x44A7 PUSH1 0xC0 DUP6 ADD DUP3 PUSH2 0x4381 JUMP JUMPDEST SWAP1 POP PUSH1 0x40 DUP4 ADD MLOAD DUP5 DUP3 SUB PUSH1 0x40 DUP7 ADD MSTORE PUSH2 0x44C0 DUP3 DUP3 PUSH2 0x4381 JUMP JUMPDEST SWAP2 POP POP PUSH1 0x60 DUP4 ADD MLOAD PUSH1 0x60 DUP6 ADD MSTORE PUSH1 0x80 DUP4 ADD MLOAD PUSH1 0x80 DUP6 ADD MSTORE PUSH1 0xA0 DUP4 ADD MLOAD PUSH1 0xA0 DUP6 ADD MSTORE DUP1 SWAP2 POP POP SWAP3 SWAP2 POP POP JUMP JUMPDEST PUSH1 0x0 DUP3 MLOAD PUSH2 0x44FD DUP2 DUP5 PUSH1 0x20 DUP8 ADD PUSH2 0x4845 JUMP JUMPDEST SWAP2 SWAP1 SWAP2 ADD SWAP3 SWAP2 POP POP JUMP JUMPDEST PUSH1 0x0 DUP1 DUP4 SLOAD PUSH1 0x1 DUP1 DUP3 AND PUSH1 0x0 DUP2 EQ PUSH2 0x4526 JUMPI PUSH1 0x1 DUP2 EQ PUSH2 0x453D JUMPI PUSH2 0x456C JUMP JUMPDEST PUSH1 0xFF NOT DUP4 AND DUP7 MSTORE PUSH1 0x2 DUP4 DIV PUSH1 0x7F AND DUP7 ADD SWAP4 POP PUSH2 0x456C JUMP JUMPDEST PUSH1 0x2 DUP4 DIV DUP8 DUP7 MSTORE PUSH1 0x20 DUP1 DUP8 KECCAK256 DUP8 JUMPDEST DUP4 DUP2 LT ISZERO PUSH2 0x4564 JUMPI DUP2 SLOAD DUP11 DUP3 ADD MSTORE SWAP1 DUP6 ADD SWAP1 DUP3 ADD PUSH2 0x454B JUMP JUMPDEST POP POP POP DUP7 ADD SWAP4 POP JUMPDEST POP SWAP2 SWAP6 SWAP5 POP POP POP POP POP JUMP JUMPDEST PUSH1 0x1 PUSH1 0x1 PUSH1 0xA0 SHL SUB SWAP2 SWAP1 SWAP2 AND DUP2 MSTORE PUSH1 0x20 ADD SWAP1 JUMP JUMPDEST PUSH1 0x0 PUSH1 0x20 DUP1 DUP4 ADD DUP2 DUP5 MSTORE DUP1 DUP6 MLOAD DUP1 DUP4 MSTORE PUSH1 0x40 DUP7 ADD SWAP2 POP PUSH1 0x40 DUP5 DUP3 MUL DUP8 ADD ADD SWAP3 POP DUP4 DUP8 ADD DUP6 JUMPDEST DUP3 DUP2 LT ISZERO PUSH2 0x45DE JUMPI PUSH1 0x3F NOT DUP9 DUP7 SUB ADD DUP5 MSTORE PUSH2 0x45CC DUP6 DUP4 MLOAD PUSH2 0x43AD JUMP JUMPDEST SWAP5 POP SWAP3 DUP6 ADD SWAP3 SWAP1 DUP6 ADD SWAP1 PUSH1 0x1 ADD PUSH2 0x45B0 JUMP JUMPDEST POP SWAP3 SWAP8 SWAP7 POP POP POP POP POP POP POP JUMP JUMPDEST PUSH1 0x0 PUSH1 0x20 DUP1 DUP4 ADD DUP2 DUP5 MSTORE DUP1 DUP6 MLOAD DUP1 DUP4 MSTORE PUSH1 0x40 DUP7 ADD SWAP2 POP PUSH1 0x40 DUP5 DUP3 MUL DUP8 ADD ADD SWAP3 POP DUP4 DUP8 ADD DUP6 JUMPDEST DUP3 DUP2 LT ISZERO PUSH2 0x45DE JUMPI PUSH1 0x3F NOT DUP9 DUP7 SUB ADD DUP5 MSTORE PUSH2 0x462C DUP6 DUP4 MLOAD PUSH2 0x4480 JUMP JUMPDEST SWAP5 POP SWAP3 DUP6 ADD SWAP3 SWAP1 DUP6 ADD SWAP1 PUSH1 0x1 ADD PUSH2 0x4610 JUMP JUMPDEST PUSH1 0x20 DUP1 DUP3 MSTORE PUSH1 0x12 SWAP1 DUP3 ADD MSTORE PUSH18 0x125B5859D948191BD95CDB9D08195E1A5CDD PUSH1 0x72 SHL PUSH1 0x40 DUP3 ADD MSTORE PUSH1 0x60 ADD SWAP1 JUMP JUMPDEST PUSH1 0x20 DUP1 DUP3 MSTORE PUSH1 0x2C SWAP1 DUP3 ADD MSTORE PUSH32 0x55736572206973206E6F742072656769737465726564206F6E2050726F6F6620 PUSH1 0x40 DUP3 ADD MSTORE PUSH12 0x37B310243AB6B0B734BA3C97 PUSH1 0xA1 SHL PUSH1 0x60 DUP3 ADD MSTORE PUSH1 0x80 ADD SWAP1 JUMP JUMPDEST PUSH1 0x20 DUP1 DUP3 MSTORE PUSH1 0xD SWAP1 DUP3 ADD MSTORE PUSH13 0x105B1C9958591E481D9BDD1959 PUSH1 0x9A SHL PUSH1 0x40 DUP3 ADD MSTORE PUSH1 0x60 ADD SWAP1 JUMP JUMPDEST PUSH1 0x20 DUP1 DUP3 MSTORE PUSH1 0xD SWAP1 DUP3 ADD MSTORE PUSH13 0x159BDD1A5B99C818DB1BDCD959 PUSH1 0x9A SHL PUSH1 0x40 DUP3 ADD MSTORE PUSH1 0x60 ADD SWAP1 JUMP JUMPDEST PUSH1 0x20 DUP1 DUP3 MSTORE PUSH1 0x11 SWAP1 DUP3 ADD MSTORE PUSH17 0x159BDD195C881B9BDD08185B1B1BDDD959 PUSH1 0x7A SHL PUSH1 0x40 DUP3 ADD MSTORE PUSH1 0x60 ADD SWAP1 JUMP JUMPDEST PUSH1 0x20 DUP1 DUP3 MSTORE PUSH1 0x11 SWAP1 DUP3 ADD MSTORE PUSH17 0x4E6F7420656E6F75676820746F6B656E73 PUSH1 0x78 SHL PUSH1 0x40 DUP3 ADD MSTORE PUSH1 0x60 ADD SWAP1 JUMP JUMPDEST PUSH1 0x20 DUP1 DUP3 MSTORE PUSH1 0x1A SWAP1 DUP3 ADD MSTORE PUSH32 0x5573657220697320616C72656164792072656769737465726564000000000000 PUSH1 0x40 DUP3 ADD MSTORE PUSH1 0x60 ADD SWAP1 JUMP JUMPDEST PUSH1 0x20 DUP1 DUP3 MSTORE PUSH1 0x1A SWAP1 DUP3 ADD MSTORE PUSH32 0x4F6E6C79206F776E65722063616E206D696E7420746F6B656E73000000000000 PUSH1 0x40 DUP3 ADD MSTORE PUSH1 0x60 ADD SWAP1 JUMP JUMPDEST PUSH1 0x0 PUSH1 0x20 DUP3 MSTORE PUSH2 0x410C PUSH1 0x20 DUP4 ADD DUP5 PUSH2 0x43AD JUMP JUMPDEST PUSH1 0x0 PUSH1 0x20 DUP3 MSTORE PUSH2 0x410C PUSH1 0x20 DUP4 ADD DUP5 PUSH2 0x4480 JUMP JUMPDEST SWAP2 DUP3 MSTORE PUSH1 0x20 DUP3 ADD MSTORE PUSH1 0x40 ADD SWAP1 JUMP JUMPDEST PUSH1 0x40 MLOAD DUP2 DUP2 ADD PUSH1 0x1 PUSH1 0x1 PUSH1 0x40 SHL SUB DUP2 GT DUP3 DUP3 LT OR ISZERO PUSH2 0x481A JUMPI PUSH1 0x0 DUP1 REVERT JUMPDEST PUSH1 0x40 MSTORE SWAP2 SWAP1 POP JUMP JUMPDEST PUSH1 0x0 PUSH1 0x1 PUSH1 0x1 PUSH1 0x40 SHL SUB DUP3 GT ISZERO PUSH2 0x4837 JUMPI DUP1 DUP2 REVERT JUMPDEST POP PUSH1 0x1F ADD PUSH1 0x1F NOT AND PUSH1 0x20 ADD SWAP1 JUMP JUMPDEST PUSH1 0x0 JUMPDEST DUP4 DUP2 LT ISZERO PUSH2 0x4860 JUMPI DUP2 DUP2 ADD MLOAD DUP4 DUP3 ADD MSTORE PUSH1 0x20 ADD PUSH2 0x4848 JUMP JUMPDEST DUP4 DUP2 GT ISZERO PUSH2 0x486F JUMPI PUSH1 0x0 DUP5 DUP5 ADD MSTORE JUMPDEST POP POP POP POP JUMP INVALID PUSH9 0x747470733A2F2F696D PUSH2 0x6765 PUSH20 0x2E756E73706C6173682E636F6D2F70686F746F2D BALANCE CALLDATASIZE CALLDATACOPY CODESIZE ADDRESS ADDRESS CALLVALUE CALLDATASIZE CALLDATASIZE CODESIZE CODECOPY CODECOPY CALLDATACOPY 0x2D PUSH2 0x3164 CALLDATALOAD CODESIZE CALLDATACOPY PUSH5 0x3130346334 EXTCODEHASH PUSH4 0x726F703D PUSH6 0x6E74726F7079 0x26 PUSH4 0x733D7469 PUSH15 0x7973726762266669743D6D61782666 PUSH14 0x3D6A706726697869643D4D6E7778 PUSH7 0x4442384D587879 MSIZE JUMPI CALLDATALOAD PUSH12 0x623231384D48783866487838 PUSH7 0x4878384D545934 0x4D DIFFICULTY 0x4D CALLDATALOAD 0x4E PUSH27 0x417A4E672669786C69623D72622D342E302E3326713D383026773D BALANCE ADDRESS CODESIZE ADDRESS PUSH9 0x747470733A2F2F696D PUSH2 0x6765 PUSH20 0x2E756E73706C6173682E636F6D2F70686F746F2D BALANCE CALLDATASIZE CALLDATACOPY CODECOPY CALLVALUE CALLDATALOAD CODESIZE BALANCE BALANCE CODESIZE ORIGIN BALANCE ORIGIN 0x2D CALLDATACOPY CALLDATALOAD CALLDATACOPY PUSH6 0x383433366463 CALLVALUE CALLDATASIZE EXTCODEHASH PUSH4 0x726F703D PUSH6 0x6E74726F7079 0x26 PUSH4 0x733D7469 PUSH15 0x7973726762266669743D6D61782666 PUSH14 0x3D6A706726697869643D4D6E7778 PUSH7 0x4442384D587879 MSIZE JUMPI CALLDATALOAD PUSH12 0x623231384D48783866487838 PUSH7 0x4878384D545934 0x4D DIFFICULTY 0x4D CALLDATALOAD 0x4F DIFFICULTY MSIZE ADDRESS 0x4D PUSH8 0x2669786C69623D72 PUSH3 0x2D342E ADDRESS 0x2E CALLER 0x26 PUSH18 0x3D383026773D3130383068747470733A2F2F PUSH10 0x6D616765732E756E7370 PUSH13 0x6173682E636F6D2F70686F746F 0x2D BALANCE CALLDATASIZE CALLDATACOPY CALLDATACOPY CODECOPY CALLER CODECOPY CODECOPY CALLDATASIZE CODESIZE ADDRESS BALANCE CODECOPY 0x2D CALLER ORIGIN PUSH4 0x64613337 PUSH7 0x643865343F6372 PUSH16 0x703D656E74726F70792663733D74696E PUSH26 0x73726762266669743D6D617826666D3D6A706726697869643D4D PUSH15 0x7778664442384D5878795957356B62 ORIGIN BALANCE CODESIZE 0x4D 0x48 PUSH25 0x3866487838664878384D5459344D444D354E7A41304F412669 PUSH25 0x6C69623D72622D342E302E3326713D383026773D3130383068 PUSH21 0x7470733A2F2F696D616765732E756E73706C617368 0x2E PUSH4 0x6F6D2F70 PUSH9 0x6F746F2D3136373732 ORIGIN CALLDATACOPY CODESIZE BALANCE ORIGIN CALLDATALOAD CALLDATALOAD CALLDATASIZE 0x2D CALLDATACOPY CALLDATACOPY ADDRESS ADDRESS CALLDATASIZE PUSH3 0x363462 ORIGIN PUSH2 0x363F PUSH4 0x726F703D PUSH6 0x6E74726F7079 0x26 PUSH4 0x733D7469 PUSH15 0x7973726762266669743D6D61782666 PUSH14 0x3D6A706726697869643D4D6E7778 PUSH7 0x4442384D587879 MSIZE JUMPI CALLDATALOAD PUSH12 0x623231384D48783866487838 PUSH7 0x4878384D545934 0x4D DIFFICULTY 0x4D CALLDATALOAD 0x4E PUSH27 0x417A4E412669786C69623D72622D342E302E3326713D383026773D BALANCE ADDRESS CODESIZE ADDRESS PUSH9 0x747470733A2F2F696D PUSH2 0x6765 PUSH20 0x2E756E73706C6173682E636F6D2F70686F746F2D BALANCE CALLDATASIZE CALLDATACOPY CODECOPY CODECOPY CALLDATALOAD CALLDATACOPY CODESIZE CALLER CODESIZE CALLDATACOPY CALLER CALLDATASIZE 0x2D ADDRESS CALLDATASIZE ORIGIN CALLDATASIZE CALLDATALOAD PUSH5 0x6234643132 BALANCE EXTCODEHASH PUSH4 0x726F703D PUSH6 0x6E74726F7079 0x26 PUSH4 0x733D7469 PUSH15 0x7973726762266669743D6D61782666 PUSH14 0x3D6A706726697869643D4D6E7778 PUSH7 0x4442384D587879 MSIZE JUMPI CALLDATALOAD PUSH12 0x623231384D48783866487838 PUSH7 0x4878384D545934 0x4D DIFFICULTY 0x4D CALLDATALOAD 0x4E PUSH27 0x417A4F412669786C69623D72622D342E302E3326713D383026773D BALANCE ADDRESS CODESIZE ADDRESS PUSH9 0x747470733A2F2F696D PUSH2 0x6765 PUSH20 0x2E756E73706C6173682E636F6D2F70686F746F2D BALANCE CALLDATASIZE CALLDATACOPY CODECOPY CODECOPY CALLVALUE CALLER ADDRESS CODESIZE CALLDATACOPY CALLDATACOPY BALANCE CALLDATACOPY 0x2D BALANCE PUSH3 0x616632 CALLDATALOAD CALLDATACOPY ORIGIN BALANCE PUSH5 0x37333F6372 PUSH16 0x703D656E74726F70792663733D74696E PUSH26 0x73726762266669743D6D617826666D3D6A706726697869643D4D PUSH15 0x7778664442384D5878795957356B62 ORIGIN BALANCE CODESIZE 0x4D 0x48 PUSH25 0x3866487838664878384D5459344D444D354D7A59324E772669 PUSH25 0x6C69623D72622D342E302E3326713D383026773D3130383068 PUSH21 0x7470733A2F2F696D616765732E756E73706C617368 0x2E PUSH4 0x6F6D2F70 PUSH9 0x6F746F2D3136373935 CODECOPY CODECOPY CALLDATACOPY CALLDATASIZE CALLDATACOPY CALLER CALLVALUE CALLVALUE 0x2D PUSH5 0x3238643437 CALLDATACOPY CALLDATACOPY BALANCE PUSH4 0x64643F63 PUSH19 0x6F703D656E74726F70792663733D74696E7973 PUSH19 0x6762266669743D6D617826666D3D6A70672669 PUSH25 0x69643D4D6E7778664442384D5878795957356B623231384D48 PUSH25 0x3866487838664878384D5459344D444D354F4459304F412669 PUSH25 0x6C69623D72622D342E302E3326713D383026773D3130383068 PUSH21 0x7470733A2F2F696D616765732E756E73706C617368 0x2E PUSH4 0x6F6D2F70 PUSH9 0x6F746F2D3136373739 CALLER CODECOPY CODECOPY CALLDATASIZE CODESIZE ADDRESS BALANCE CODECOPY 0x2D CALLER ORIGIN PUSH4 0x64613337 PUSH7 0x643865343F6372 PUSH16 0x703D656E74726F70792663733D74696E PUSH26 0x73726762266669743D6D617826666D3D6A706726697869643D4D PUSH15 0x7778664442384D5878795957356B62 ORIGIN BALANCE CODESIZE 0x4D 0x48 PUSH25 0x3866487838664878384D5459344D444D354E7A41304E672669 PUSH25 0x6C69623D72622D342E302E3326713D383026773D31303830A2 PUSH5 0x6970667358 0x22 SLT KECCAK256 0xBB 0xCA PUSH29 0xD60A6CEC050A13218F6E58CC74C8BEE0CE818598F30750A7F2CF76FF97 PUSH5 0x736F6C6343 STOP MOD 0xC STOP CALLER ",
  "sha1": "e1ef32bdee989b3a3175b6721f5ed160e8adfc93",
  "source": "pragma solidity ^0.6.0;\npragma experimental ABIEncoderV2;\n\nimport \"../interfaces/IProofOfHumanity.sol\";\n\ncontract MainContract {\n\n    struct Comment {\n        address user;\n        string text;\n    }\n\n    struct Image {\n        string url;\n        string description;\n        address owner;\n        uint uploadDate;\n        bool isVotationOpen;\n        address[] assignedVoters;\n        address[] positiveVotes;\n        address[] negativeVotes;\n        Comment[] comments;\n    }\n\n    struct User {\n        address _address;\n        string name;\n        string profilePicUrl;\n        uint validatorReputation;\n        uint creatorReputation;\n        uint tokens;\n    }\n\n    enum Vote {POSITIVE, NEGATIVE}\n\n    /* ---------------------------------- CONSTANTS ---------------------------------- */\n\n    uint constant ASSIGNED_VOTERS = 10;\n\n    uint constant MAX_VOTERS = 5;\n\n    uint constant PUBLISH_COST = 1;\n\n    uint constant VOTE_COST = 1;\n\n    uint constant VERIFY_REWARD = 2;\n\n    uint constant STARTING_TOKENS = 1000;\n\n    // /* ---------------------------------- VARIABLES ---------------------------------- */\n\n    IProofOfHumanity public proofOfHumanity;\n\n    address ownerAddress;\n\n    address[] private usersAddresses;\n\n    mapping(address => User) private users;\n\n    string[] private imageUrls;\n\n    mapping(string => Image) private images;\n\n    /* ---------------------------------- GENERIC FUNCTIONS ---------------------------------- */\n\n    function _getRandomSubset(address[] memory array, uint n) private view returns (address[] memory) {\n        address[] memory subset = new address[](n);\n        uint rand = uint(keccak256(abi.encode(block.timestamp, block.difficulty))) % array.length;\n\n        for (uint i = 0; i < n; i++)\n            subset[i] = array[(i + rand) % array.length];\n\n        return subset;\n    }\n\n    function fillDummyUsers() public {\n        usersAddresses = [0x81Ffa73300Aa2c025d576711363b7466DFecd942, 0xa8b505C0C47f44FA9B520F8B9eC68D843cBD9fB0, 0x9c7A2Af7a9CBcB642D9F10F38DB9dc0C306F5fdB, 0xE741FB345D935D47B876555b2f19280345C58b77, 0xB8a69D9292e22194824225784d8521e3e0929d84, 0xb4934B4Fd74d3877DFfe8e3dBb2b6f659EEBa323, 0x1a26F4C6693a01c14e93A26220544D0e17dB5B2A, 0x534505EdCa429fF8244DfD20bf6c4Aae61B3dC00, 0x702b2975b3b42c82A4d3aa1E2040Ce05E6751F73];\n        users[0x335c33Cfd1bB79B09946EF25EB99Cb0f9BA8980c] = User(0x335c33Cfd1bB79B09946EF25EB99Cb0f9BA8980c, 'Matias Apablaza', '', 80, 89, 69);\n        users[0x81Ffa73300Aa2c025d576711363b7466DFecd942] = User(0x81Ffa73300Aa2c025d576711363b7466DFecd942, 'Agustin Dagostino', '', 70, 77, 70);\n        users[0xa8b505C0C47f44FA9B520F8B9eC68D843cBD9fB0] = User(0xa8b505C0C47f44FA9B520F8B9eC68D843cBD9fB0, 'Agustina Macciavelli', '', 80, 91, 85);\n        users[0x9c7A2Af7a9CBcB642D9F10F38DB9dc0C306F5fdB] = User(0x9c7A2Af7a9CBcB642D9F10F38DB9dc0C306F5fdB, 'Mika Dadi', '', 83, 80, 64);\n        users[0xE741FB345D935D47B876555b2f19280345C58b77] = User(0xE741FB345D935D47B876555b2f19280345C58b77, 'Vitalik Butherin', '', 92, 92, 68);\n        users[0xB8a69D9292e22194824225784d8521e3e0929d84] = User(0xB8a69D9292e22194824225784d8521e3e0929d84, 'Johan Steven', '', 81, 58, 75);\n        users[0xb4934B4Fd74d3877DFfe8e3dBb2b6f659EEBa323] = User(0xb4934B4Fd74d3877DFfe8e3dBb2b6f659EEBa323, 'Michael Wall', '', 79, 88, 92);\n        users[0x1a26F4C6693a01c14e93A26220544D0e17dB5B2A] = User(0x1a26F4C6693a01c14e93A26220544D0e17dB5B2A, 'Jennifer Win', '', 63, 69, 33);\n        users[0x534505EdCa429fF8244DfD20bf6c4Aae61B3dC00] = User(0x534505EdCa429fF8244DfD20bf6c4Aae61B3dC00, 'Alice Bay', '', 98, 99, 16);\n        users[0x702b2975b3b42c82A4d3aa1E2040Ce05E6751F73] = User(0x702b2975b3b42c82A4d3aa1E2040Ce05E6751F73, 'Rachel Dan', '', 86, 91, 35);\n    }\n\n    function fillDummyImages() public {\n        imageUrls = [\"https://images.unsplash.com/photo-1679943087717-1baf25721d73?crop=entropy&cs=tinysrgb&fit=max&fm=jpg&ixid=MnwxfDB8MXxyYW5kb218MHx8fHx8fHx8MTY4MDM5MzY2Nw&ixlib=rb-4.0.3&q=80&w=1080\", \"https://images.unsplash.com/photo-1677227812556-77006b64b2a6?crop=entropy&cs=tinysrgb&fit=max&fm=jpg&ixid=MnwxfDB8MXxyYW5kb218MHx8fHx8fHx8MTY4MDM5NzAzNA&ixlib=rb-4.0.3&q=80&w=1080\", \"https://images.unsplash.com/photo-1678004668997-a1d587d104c4?crop=entropy&cs=tinysrgb&fit=max&fm=jpg&ixid=MnwxfDB8MXxyYW5kb218MHx8fHx8fHx8MTY4MDM5NzAzNg&ixlib=rb-4.0.3&q=80&w=1080\", \"https://images.unsplash.com/photo-1679957838736-06265db4d121?crop=entropy&cs=tinysrgb&fit=max&fm=jpg&ixid=MnwxfDB8MXxyYW5kb218MHx8fHx8fHx8MTY4MDM5NzAzOA&ixlib=rb-4.0.3&q=80&w=1080\", \"https://images.unsplash.com/photo-1677939968019-32cda37fd8e4?crop=entropy&cs=tinysrgb&fit=max&fm=jpg&ixid=MnwxfDB8MXxyYW5kb218MHx8fHx8fHx8MTY4MDM5NzA0Ng&ixlib=rb-4.0.3&q=80&w=1080\", \"https://images.unsplash.com/photo-1677939968019-32cda37fd8e4?crop=entropy&cs=tinysrgb&fit=max&fm=jpg&ixid=MnwxfDB8MXxyYW5kb218MHx8fHx8fHx8MTY4MDM5NzA0OA&ixlib=rb-4.0.3&q=80&w=1080\", \"https://images.unsplash.com/photo-1679458118212-757e8436dc46?crop=entropy&cs=tinysrgb&fit=max&fm=jpg&ixid=MnwxfDB8MXxyYW5kb218MHx8fHx8fHx8MTY4MDM5ODY0Mg&ixlib=rb-4.0.3&q=80&w=1080\", \"https://images.unsplash.com/photo-1679599767344-d28d47771cdd?crop=entropy&cs=tinysrgb&fit=max&fm=jpg&ixid=MnwxfDB8MXxyYW5kb218MHx8fHx8fHx8MTY4MDM5ODY0OA&ixlib=rb-4.0.3&q=80&w=1080\"];\n        string[10] memory descriptions = [\"Paisaje anaranjado\", \"Sierras en el verano\", \"Construccion moderna\", \"Ciudad industrial\", \"Selfie en la barda\", \"Bosque desde arriba\", \"Lavanda en primer plano\", \"Barco arrivando a la ciudad\", \"Tienda moderna de ropa\", \"Palmeras desde el suelo\"];\n\n        for(uint i=0; i<imageUrls.length; i++) {\n            images[imageUrls[i]].url = imageUrls[i];\n            images[imageUrls[i]].owner = usersAddresses[i];\n            images[imageUrls[i]].description = descriptions[i];\n            images[imageUrls[i]].uploadDate = block.timestamp + i*3600;\n            images[imageUrls[i]].isVotationOpen = i%2 == 0;\n            images[imageUrls[i]].assignedVoters = _getRandomSubset(usersAddresses, 5);\n            images[imageUrls[i]].positiveVotes = _getRandomSubset(usersAddresses, i%5);\n            images[imageUrls[i]].negativeVotes =_getRandomSubset(usersAddresses, 5-i%5);\n            images[imageUrls[i]].comments.push(Comment(usersAddresses[i], descriptions[i]));\n        }\n    }\n\n    function arrayContains(address[] memory array, address value) private pure returns (bool) {\n        for (uint256 i = 0; i < array.length; i++)\n            if (array[i] == value)\n                return true;\n        return false;\n    }\n\n    constructor(address _pohAddress) public {\n        proofOfHumanity = IProofOfHumanity(_pohAddress);\n        ownerAddress = msg.sender;\n    }\n\n    /* ---------------------------------- AUTHENTICATION ---------------------------------- */\n\n    function _validateIdentity(address _user) private view returns (bool) {\n        return proofOfHumanity.isRegistered(_user);\n    }\n\n    function registerUser() public {\n        require(!arrayContains(usersAddresses, msg.sender), \"User is already registered\");\n        \n        require(_validateIdentity(msg.sender), \"User is not registered on Proof of Humanity.\");\n        \n        usersAddresses.push(msg.sender);\n\n        users[msg.sender]._address = msg.sender;\n        users[msg.sender].name = proofOfHumanity.getRealName(msg.sender);\n        users[msg.sender].profilePicUrl = '';\n        users[msg.sender].tokens = STARTING_TOKENS;\n        users[msg.sender].validatorReputation = 0;\n        users[msg.sender].creatorReputation = 0;\n    }\n\n    /* ---------------------------------- USER LISTING ---------------------------------- */\n\n    function getAllUsers() public view returns (User[] memory) {\n        User[] memory finalResult = new User[](usersAddresses.length);\n\n        for (uint256 i = 0; i < usersAddresses.length; i++)\n            finalResult[i] = users[usersAddresses[i]];\n        \n        return finalResult;\n    }\n\n    function getUserByAddress(address _address) public view returns (User memory) {\n        return users[_address];\n    }    \n\n    /* ---------------------------------- IMAGE LISTING ---------------------------------- */\n\n    function getAllImages() public view returns (Image[] memory) {\n        Image[] memory finalResult = new Image[](imageUrls.length);\n\n        for (uint256 i = 0; i < imageUrls.length; i++)\n            finalResult[i] = images[imageUrls[i]];\n        \n        return finalResult;\n    }\n\n    function getImagesByOwningUser(address _address) public view returns (Image[] memory) {\n        string[] memory result = new string[](imageUrls.length);\n\n        uint count = 0;\n        for (uint i = 0; i < imageUrls.length; i++)\n            if (images[imageUrls[i]].owner == _address)\n                result[count++] = imageUrls[i];\n\n        Image[] memory finalResult = new Image[](count);\n        for (uint256 i = 0; i < count; i++)\n            finalResult[i] = images[result[i]];\n\n        return finalResult;\n    }\n\n    function getImagesByAssignedUser(address _address) public view returns (Image[] memory) {\n        string[] memory result = new string[](imageUrls.length);\n\n        uint count = 0;\n        for (uint i = 0; i < imageUrls.length; i++)\n            if (arrayContains(images[imageUrls[i]].assignedVoters, _address))\n                result[count++] = imageUrls[i];\n\n        Image[] memory finalResult = new Image[](count);\n        for (uint256 i = 0; i < count; i++)\n            finalResult[i] = images[result[i]];\n\n        return finalResult;\n    }\n\n    function getImageByUrl(string memory _url) public view returns (Image memory) {\n        return images[_url];\n    }\n\n    /* ---------------------------------- IMAGE VOTING ---------------------------------- */\n\n    function voteImage(string memory _url, Vote _vote) public {\n        require(images[_url].assignedVoters.length != 0, \"Image doesnt exist\");\n\n        require(arrayContains(images[_url].assignedVoters, msg.sender), \"Voter not allowed\");\n\n        require(!arrayContains(images[_url].positiveVotes, msg.sender) && !arrayContains(images[_url].negativeVotes, msg.sender),\n             \"Already voted\");\n\n        require(images[_url].isVotationOpen, \"Voting closed\");\n\n        require(users[msg.sender].tokens > VOTE_COST, \"Not enough tokens\");\n\n        users[msg.sender].tokens -= VOTE_COST;\n        \n        if(_vote == Vote.POSITIVE)\n            images[_url].positiveVotes.push(msg.sender);\n        else\n            images[_url].negativeVotes.push(msg.sender);\n\n        if(images[_url].positiveVotes.length + images[_url].negativeVotes.length == MAX_VOTERS)\n            _closeVotation(_url);\n    }\n\n    function _closeVotation(string memory _url) public {\n        images[_url].isVotationOpen = false;\n\n        bool imageIsTrue = images[_url].positiveVotes.length > images[_url].negativeVotes.length;\n\n        for (uint i = 0; i < images[_url].positiveVotes.length; i++) {\n            address voterAdd = images[_url].positiveVotes[i];\n            if(imageIsTrue) {\n                users[voterAdd].tokens += VERIFY_REWARD;\n                users[voterAdd].validatorReputation += 1;\n            }\n        }\n\n        for (uint i = 0; i < images[_url].negativeVotes.length; i++) {\n            address voterAdd = images[_url].positiveVotes[i];\n            if(!imageIsTrue) {\n                users[voterAdd].tokens += VERIFY_REWARD;\n                users[voterAdd].validatorReputation += 1;\n            }\n        }\n\n        users[images[_url].owner].creatorReputation += 1;\n    }\n\n    /* ---------------------------------- IMAGE COMMENTING ---------------------------------- */\n\n    function commentImage(string memory _url, string memory _comment) public {\n        require(images[_url].assignedVoters.length != 0, \"Image doesnt exist\");\n\n        require(images[_url].isVotationOpen, \"Voting closed\");\n        \n        images[_url].comments.push(Comment(msg.sender, _comment));\n    }    \n\n    /* ---------------------------------- IMAGE PUBLISHING ---------------------------------- */\n\n    function publishImage(string memory _url, string memory _desc) public {\n        require(users[msg.sender].tokens > PUBLISH_COST, \"Not enough tokens\");\n\n        users[msg.sender].tokens -= PUBLISH_COST;\n\n        imageUrls.push(_url);\n        \n        images[_url].url = _url;\n        images[_url].owner = msg.sender;\n        images[_url].description = _desc;\n        images[_url].uploadDate = block.timestamp;\n        images[_url].isVotationOpen = true;\n        images[_url].assignedVoters = _getRandomSubset(usersAddresses, ASSIGNED_VOTERS);\n    }\n\n    function unpublishAllImages() public {\n        for(uint c=0; c<imageUrls.length; c++)\n            delete images[imageUrls[c]];\n        delete imageUrls;\n    }\n\n    /* ---------------------------------- TOKEN MANAGEMENT ---------------------------------- */\n\n    function addTokens(address _userAddress, uint amount) public {\n        require(msg.sender == ownerAddress, \"Only owner can mint tokens\");\n        users[_userAddress].tokens += amount;\n    }\n\n    function transferTokens(address _destinyAddress, uint amount) public {\n        require(users[msg.sender].tokens > amount, \"Not enough tokens\");\n        users[msg.sender].tokens -= amount;\n        users[_destinyAddress].tokens += amount;\n    }\n\n}\n",
  "sourcePath": "contracts/Main.sol",
  "type": "contract"
}